:100000006F70204A1300000013000000130000006E
:100010001300000013000000130000001300000094
:100020001300000013000000130000001300000084
:08003000130000007300100032
:1000380000000000000000004C7300005C7300002A
:1000480000000000E873000000000000000000004D
:10005800EA730000EC7300000000000000000000DC
:10006800EE73000000000000F073000000000000C4
:10007800F2730000F4730000F6730000F8730000D8
:10008800FA730000FC73000016660000CA660000E0
:100098007E67000032680000E6680000087400000F
:1000A8000A7400000C7400000E7400001074000044
:1000B8001274000014740000167400001874000014
:1000C8001A7400001C7400001E7400009A69000075
:1000D80022740000E46B00002674000028740000FD
:1000E800A46C00005C6D00001C6E00003074000001
:1000F8003274000034740000367400003874000054
:100108003A740000225F0000E65F0000AA60000069
:10011800B26A00004474000046740000487400008D
:10012800147100004C7400004E74000050740000FC
:100138005274000054740000DC6E00005874000013
:1001480072610000366200009C6F0000547000006D
:100158006274000064740000667400006874000033
:100168006A7400006C7400006E7400007074000003
:100178007274000074740000767400009C93000090
:100188007A7400007C74000046650000F862000084
:10019800BC6300008664000086740000D47100000F
:1001A8008A7400008C7400008E7400009472000041
:1001B8009274000094740000967400009874000013
:1001C8009A7400009C7400009E740000A0740000E3
:1001D8000000000000000000000000000000000017
:1001E8000000000000000000000000000000000007
:0801F8000000000000000000FF
:100200003D432A876373C3029377F700BDEFADE5E3
:10021000937606FF3D8ABA960CC34CC30CC74CC7F5
:100220004107E36BD7FE11E28280B306C3408A0622
:100230009702000096966780A6002307B700A306E2
:10024000B7002306B700A305B7002305B700A30432
:10025000B7002304B700A303B7002303B700A3022A
:10026000B7002302B700A301B7002301B700A30022
:10027000B7002300B700828093F5F50F93968500B1
:10028000D58D93960501D58D61B79396270097027A
:10029000000096968682E78086FA9680C1171D8FA9
:1002A0003E96E374C3F8A5B7011122CE00102326B1
:1002B000A4FE37F500E08328450037F500E093F809
:1002C000E8FF2322150183A801820965130505F4BF
:1002D00033D5A802AA8601470325C4FEAA87014890
:1002E00037F500E03303F702B308D8029A98338356
:1002F000F60233B6F6029A85B387C8003E860CC96B
:1003000050C9B7F700E09843B7F700E0136707015B
:1003100098C3B7F700E09843B7F700E013671702F8
:1003200098C30100B7F700E0DC4313F717008547D7
:10033000E31AF7FEB7F700E09843B7F700E0799BC0
:1003400098C30100724405618280011122CE001021
:100350002326A4FE37F500E08328450037F500E0AA
:1003600093F8E8FF2322150183A8018237157A004C
:100370001305052033D5A802AA8601470325C4FE2C
:10038000AA87014837F500E03303F702B308D80223
:100390009A983383F60233B6F6029A85B387C8007B
:1003A0003E860CC950C9B7F700E09843B7F700E0A4
:1003B0001367070198C3B7F700E09843B7F700E069
:1003C0001367170298C30100B7F700E0DC4313F787
:1003D00017008547E31AF7FEB7F700E09843B7F731
:1003E00000E0799B98C3010072440561828001118D
:1003F00006CE22CC0010AA8E2E8E32833685BA8588
:100400003E86C2864687F687A307F4FEF287230757
:10041000F4FE9A87A306F4FEAA872306F4FEAE87AD
:10042000A305F4FEB2872305F4FEB687A304F4FE09
:10043000BA872304F4FE8347F4FE93068004014642
:1004400081453E8535238347E4FE930680040146BB
:1004500081453E85312B8347D4FE930680040146B7
:1004600081453E8531238347C4FE930680040146BF
:1004700081453E85F5298347B4FE930680040146F5
:1004800081453E85F5218347A4FE930680040146FD
:1004900081453E85F129834794FE930680040146F9
:1004A00081453E85F121834784FE93068004014601
:1004B00081453E85752983474400930680040146A3
:1004C00081453E85752183470400930680040146DB
:1004D00081453E8571298347840093068004014647
:1004E00081453E8571210100F240624405618280B0
:1004F000011106CE22CC00102326A4FE2324B4FE34
:10050000B28736872313F4FEBA872312F4FE85459B
:100510000965EF700078B707055083C7070013F728
:10052000F70FB70705501377F7FC1377F70F238002
:10053000E700B707055083C7070013F7F70FB707A2
:100540000550136727041377F70F2380E700B707D9
:10055000055083C7170013F7F70FB7070550659BC2
:100560001377F70FA380E700B7070550035744FE42
:100570002392E700B7070550035764FE2393E70073
:10058000B70705500327C4FE98C7B70705500327D0
:1005900084FED8C7B707055083C7170013F7F70FB6
:1005A000B70705501377F7031377F70FA380E7001A
:1005B00037070550B7070550034717001377F70FA4
:1005C000A380E700B707055083C7270013F7F70F8D
:1005D000B7070550136747001377F70F2381E7002C
:1005E000B707055083C7170013F7F70FB707055074
:1005F000136717001377F70FA380E700B7070550BD
:1006000083C7070013F7F70FB707055013671700E5
:100610001377F70F2380E7008D4513056005EF5032
:10062000500613056005EF5010020100F2406244CD
:1006300005618280397106DE22DC80002326A4FC5D
:100640002324B4FC2322C4FC232604FE9145032565
:10065000C4FCEF109007AA873E871306100DD167E0
:10066000938587D53A85EF40807D8327C4FC139717
:10067000C700832784FC7D8F8327C4FCB207B307A0
:10068000F74093B7170093F7F70F3E871306200D37
:10069000D167938587D53A85EF40607A8327C4FC7C
:1006A0001397C700832744FC7D8F8327C4FCB207C0
:1006B000B307F74093B7170093F7F70F3E8713067A
:1006C000300DD167938587D53A85EF404077032574
:1006D000C4FCEF10F005832784FC93F7F70F930613
:1006E0008004014681453E856124832744FC93F7BD
:1006F000F70F93068004014681453E85952C83279C
:1007000084FC13F7F70FB7070020938607048327AD
:10071000C4FCB6972380E7000327C4FCA54763E029
:10072000E7088327C4FC13972700D1679387C73D49
:10073000BA979C438287B7370140938707C0232429
:10074000F4FE8DA0B70700402324F4FEA1A8B7074C
:100750000040938707402324F4FEA9A0B717004068
:10076000938707802324F4FE35A8B71700409387AA
:1007700007C02324F4FE3DA0B7370140938707400C
:100780002324F4FE05A0B7570140938707C0232414
:10079000F4FE09A8B75701402324F4FE21A08547A1
:1007A0002326F4FE85450545EF700053832784FC1E
:1007B00013D787008D47631AF7008545B7071600E2
:1007C0001385070CEF700004E5A8832784FC13D77A
:1007D0008700C547631AF7008545B70718001385DA
:1007E0000710EF702002E9A8832784FC13D7870045
:1007F00093072002631AF7008545B7171A0013857F
:100800000780EF7020006DA8832784FC13D7870032
:1008100093073002631AF7008545B7171A0013854E
:1008200007C0EF60307E69A8832784FC13D7870058
:10083000930710036317F70085450565EF60907C0B
:1008400041A0832784FC13D7870093071007631AFE
:10085000F7008545B707008013854700EF60907A61
:1008600085A0832784FC13D7870093073008631A79
:10087000F7008545B707138013850701EF6090786F
:1008800081A0832784FC13D7870093071009631A7C
:10089000F7008545B707158013850702EF6090764E
:1008A00005A0832784FC13D78700930730096319B9
:1008B000F7008545B707158013850704EF6090742E
:1008C0008327C4FEA5E3232E04FC232004FE231269
:1008D00004FE9307C4FD3E85EF70F072231E04FCF6
:1008E000FD572310F4FE231104FE231F04FC2302F2
:1008F00004FE9307C4FDBE85032584FEEF70C06B24
:1009000093050006032584FEEF70307F9D46014667
:100910008145032584FEEF80A0028545032584FEE2
:10092000EF7030720100F250625421618280011137
:1009300022CE00102326A4FE8327C4FE958313F73E
:100940007700B70700200A079387C704BA979C432C
:100950009C470327C4FE7D8B85463397E600F98FBD
:10096000B337F00093F7F70F3E857244056182803C
:10097000797106D622D40018232EA4FC232CB4FCB3
:10098000B2872328D4FCA30BF4FC232004FE2322EB
:1009900004FE232404FE8327C4FD958393F7F70FF9
:1009A0009D8BA307F4FE8327C4FD93F7F70FFD8B00
:1009B0002307F4FE8347F4FE91E785451145EF7068
:1009C000A03191A80347F4FE85476317F7008545DA
:1009D0002145EF70603081A00347F4FE894763171B
:1009E000F70085454145EF70202F35A00347F4FE01
:1009F0008D476318F700854513050002EF70C02D81
:100A000019A80347F4FE91476317F70085451305BE
:100A10000004EF70602C8347E4FE0547B317F7002E
:100A2000C207C1832310F4FE032784FD85476317A3
:100A3000F702832704FDC207C183A183C207C183D4
:100A400089E78D472322F4FE11A8832704FDC207FE
:100A5000C183A183C207C1832322F4FE832704FD3F
:100A6000C207C18393F7F70F2324F4FE0347F4FE74
:100A7000B70700200A079387C704BA979C43130758
:100A800004FEBA853E85EF60D031032784FD85479B
:100A90006319F7020347F4FEB70700200A0793879C
:100AA000C704BA9794438347E4FE0547B317F7009A
:100AB000C207C183034774FD3A86BE853685EF6061
:100AC000F0500100B250225445618280797106D6FF
:100AD00022D40018232EA4FC232CB4FC032784FD6D
:100AE000896793871771B337F70093F7F70F3E873E
:100AF00013065003D1679385C7DB3A85EF40203456
:100B0000B7370140938707C02326F4FE8327C4FD2F
:100B1000C183BD8B2547636EF70613972700D16706
:100B200093874740BA979C438287B73701409387A2
:100B300007C02326F4FEB1A8B70700402326F4FE21
:100B400089A8B7070040938707402326F4FE91A0A9
:100B5000B7170040938707802326F4FE1DA8B71718
:100B60000040938707C02326F4FE25A0B737014035
:100B7000938707402326F4FE29A8B757014093879F
:100B800007C02326F4FE31A0B75701402326F4FE08
:100B900001008327C4FE83D7C7022315F4FE035741
:100BA000A4FE832784FD3307F702896793870771C3
:100BB000B357F7022314F4FE8327C4FDA1838D8B62
:100BC00081EB8327C4FE035784FE239AE702A9A87A
:100BD0008327C4FDA18313F7370085476319F70006
:100BE0008327C4FE035784FE239CE70235A883278E
:100BF000C4FDA18313F7370089476319F7008327E2
:100C0000C4FE035784FE239EE70239A88327C4FD50
:100C1000A18313F737008D476318F7008327C4FEBD
:100C2000035784FE2390E7040100B250225445612B
:100C300082805D7186C6A2C48008232EA4FA232C6C
:100C4000B4FA232AC4FA8327C4FBC1838D453E85A9
:100C5000EF10A027AA873E871306D00AD167938595
:100C6000C7DB3A85EF40A01D032744FB89679387C4
:100C70001771B337F70093F7F70F3E871306F00AA3
:100C8000D1679385C7DB3A85EF40601B232E04FCB8
:100C9000232004FE231204FE232604FC232804FC44
:100CA000232A04FC232C04FC231504FE8327C4FB05
:100CB000C183BD8B3E85EF10A0278327C4FB93F72C
:100CC000F70F93068031014685453E8555318545B0
:100CD0000545EF706000B7370140938707C02326B2
:100CE000F4FE8327C4FBC183BD8B2547636EF706E3
:100CF00013972700D1679387C742BA979C4382878F
:100D0000B7370140938707C02326F4FEB1A8B70781
:100D100000402326F4FE89A8B707004093870740C8
:100D20002326F4FE91A0B71700409387078023265F
:100D3000F4FE1DA8B7170040938707C02326F4FED2
:100D400025A0B7370140938707402326F4FE29A842
:100D5000B7570140938707C02326F4FE31A0B75749
:100D600001402326F4FE01008327C4FB13D7C700EC
:100D70008D47631AF7008545B70716001385070CE2
:100D8000EF60502815AA8327C4FB13D7C700C547B7
:100D9000631AF7008545B707180013850710EF6041
:100DA000702619AA8327C4FB13D7C700C947631A43
:100DB000F7008545B707180013850720EF609024DA
:100DC000E5A88327C4FB13D7C700CD47631AF700F4
:100DD0008545B707180013850730EF60B022E9A8F2
:100DE0008327C4FB13D7C70093072002631AF700B9
:100DF0008545B7171A0013850780EF60B0206DA8EE
:100E00008327C4FB13D7C70093073002631AF70088
:100E10008545B7171A00138507C0EF60B01E69A893
:100E20008327C4FB13D7C700930710036317F7008A
:100E300085450565EF60101D41A08327C4FB13D7CE
:100E4000C70093071007631AF7008545B7070080AE
:100E500013854700EF60101B85A08327C4FB13D7C1
:100E6000C70093073008631AF7008545B70713805A
:100E700013850701EF60101981A08327C4FB13D7E6
:100E8000C70093071009631AF7008545B707158057
:100E900013850702EF60101705A08327C4FB13D743
:100EA000C700930730096319F7008545B707158018
:100EB00013850704EF60101503A70182832784FBC5
:100EC000B357F702C1832315F4FE03A701828357AA
:100ED000A4FE8507BE86832784FBB387F602B3573B
:100EE000F7022314F4FE035784FE832744FB3307E1
:100EF000F702896793870771B357F7022313F4FE4C
:100F0000835784FEFD17C207C1832310F4FE835765
:100F1000A4FE231EF4FC231104FE231F04FC230261
:100F200004FE9307C4FDBE850325C4FEEF70C00810
:100F3000930700072316F4FC85472317F4FC2318B6
:100F400004FC835764FE2319F4FC8947231AF4FC3C
:100F50008947231BF4FC231C04FC231D04FC83276A
:100F6000C4FBA1838D8B9DE39307C4FCBE85032541
:100F7000C4FEEF70401CA1450325C4FEEF70F028AD
:100F800091450325C4FEEF70103D45A08327C4FBA7
:100F9000A18313F7370085476315F7029307C4FC55
:100FA000BE850325C4FEEF70C032A1450325C4FEF3
:100FB000EF70702A930500400325C4FEEF70703E69
:100FC000ADA08327C4FBA18313F7370089476314BF
:100FD000F7029307C4FCBE850325C4FEEF70804D65
:100FE000A1450325C4FEEF70B02C91450325C4FE36
:100FF000EF7090401DA88327C4FBA18313F737002F
:101000008D476314F7029307C4FCBE850325C4FE15
:10101000EF700068A1450325C4FEEF70302E9305E4
:1010200000400325C4FEEF70F04185450325C4FE52
:10103000EF70B00685450325C4FEEF7090000100F7
:10104000B640264461618280797106D622D40018A8
:10105000232EA4FC8327C4FDB337F00093F7F70FCA
:101060003E8713061004D1679385C7E13A85EF30B8
:10107000105D8327C4FD9C43BD8B0547B317F70064
:1010800093960701C1828327C4FD9C4313D7570061
:10109000B70700200A079387C704BA979C4336878F
:1010A00098CB8327C4FDDC43BD8B0547B317F700FE
:1010B00093960701C1828327C4FDDC4313D75700F1
:1010C000B70700200A079387C704BA979C4336875F
:1010D00098CB8327C4FDDC472326F4FE0100832739
:1010E000C4FE1387F7FF2326E4FEF5FB8327C4FD28
:1010F000DC43BD8B0547B317F70093960701C18208
:101100008327C4FDDC4313D75700B70700200A0725
:101110009387C704BA979C433687D8CB8327C4FDEF
:10112000DC472324F4FE0100832784FE1387F7FFA6
:101130002324E4FEF5FB8327C4FD9C43BD8B0547B8
:10114000B317F70093960701C1828327C4FD9C4320
:1011500013D75700B70700200A079387C704BA9729
:101160009C433687D8CB0100B2502254456182801F
:10117000797106D622D40018232EA4FC8327C4FD3F
:10118000B337F00093F7F70F3E8713064005D1679A
:101190009385C7E13A85EF30904A8327C4FDDC434D
:1011A000BD8B0547B317F70093960701C1828327CC
:1011B000C4FDDC4313D75700B70700200A07938705
:1011C000C704BA979C433687D8CB8327C4FD9C437A
:1011D000BD8B0547B317F70093960701C18283279C
:1011E000C4FD9C4313D75700B70700200A07938715
:1011F000C704BA979C433687D8CB8327C4FDDC4706
:101200002326F4FE01008327C4FE1387F7FF23265D
:10121000E4FEF5FB8327C4FD9C43BD8B0547B31754
:10122000F70093960701C1828327C4FD9C4313D71F
:101230005700B70700200A079387C704BA979C4353
:10124000368798CB8327C4FDDC472324F4FE0100B6
:10125000832784FE1387F7FF2324E4FEF5FB83270F
:10126000C4FDDC43BD8B0547B317F7009396070118
:10127000C1828327C4FDDC4313D75700B707002082
:101280000A079387C704BA979C43368798CB83276E
:10129000C4FDDC472322F4FE0100832744FE1387AC
:1012A000F7FF2322E4FEF5FB0100B2502254456112
:1012B0008280797106D622D40018232EA4FCAE8732
:1012C000A30DF4FC8327C4FDB337F00093F7F70FA9
:1012D0003E8713069006D1679385C7E13A85EF30C4
:1012E00010368327C4FD9C43BD8B0547B317F70019
:1012F00093960701C1828327C4FD9C4313D75700EF
:10130000B70700200A079387C704BA979C4336871C
:10131000D8CB8347B4FD95CB8327C4FDDC43BD8B7D
:101320000547B317F70093960701C1828327C4FDD1
:10133000DC4313D75700B70700200A079387C70479
:10134000BA979C43368798CB0DA88327C4FDDC430E
:10135000BD8B0547B317F70093960701C18283271A
:10136000C4FDDC4313D75700B70700200A07938753
:10137000C704BA979C433687D8CB8327C4FDDC4784
:101380002326F4FE01008327C4FE1387F7FF2326DC
:10139000E4FEF5FB8327C4FD9C43BD8B0547B317D3
:1013A000F70093960701C1828327C4FD9C4313D79E
:1013B0005700B70700200A079387C704BA979C43D2
:1013C000368798CB8327C4FDDC472324F4FE010035
:1013D000832784FE1387F7FF2324E4FEF5FB83278E
:1013E000C4FD9C43BD8B0547B317F70093960701D7
:1013F000C1828327C4FD9C4313D75700B707002041
:101400000A079387C704BA979C433687D8CB8327AC
:10141000C4FDDC43BD8B0547B317F7009396070166
:10142000C1828327C4FDDC4313D75700B7070020D0
:101430000A079387C704BA979C43368798CB010065
:10144000B250225445618280797106D622D40018A8
:10145000232EA4FC8327C4FDB337F00093F7F70FC6
:101460003E8713065008D1679385C7E13A85EF3070
:10147000101DA30704FE8327C4FD9C43BD8B0547B5
:10148000B317F70093960701C1828327C4FD9C43DD
:1014900013D75700B70700200A079387C704BA97E6
:1014A0009C433687D8CB8327C4FDDC43BD8B0547DF
:1014B000B317F70093960701C1828327C4FDDC436D
:1014C00013D75700B70700200A079387C704BA97B6
:1014D0009C43368798CB8327C4FDDC472324F4FE46
:1014E0000100832784FE1387F7FF2324E4FEF5FB26
:1014F0008327C4FD9C43BD8B0547B317F700939624
:101500000701C1828327C4FD9C4313D75700B70747
:1015100000200A079387C704BA979C43368798CB65
:101520008327C4FDDC472322F4FE0100832744FE09
:101530001387F7FF2322E4FEF5FB8327C4FDDC437A
:101540003E85EFF0CFBEAA8781C78547A307F4FE8B
:101550008327C4FD9C43BD8B0547B317F7009396C3
:101560000701C1828327C4FD9C4313D75700B707E7
:1015700000200A079387C704BA979C433687D8CBC5
:101580008327C4FDDC472320F4FE0100832704FEEB
:101590001387F7FF2320E4FEF5FB8347F4FE3E8527
:1015A000B250225445618280797106D622D4001847
:1015B000232EA4FCAE87A30DF4FC8327C4FDB33710
:1015C000F00093F7F70F3E871306700AD1679385F3
:1015D000C7E13A85EF30B006930700F8A307F4FEA1
:1015E00009AA0347B4FD8347F4FEF98F93F7F70F79
:1015F00095CB8327C4FDDC43BD8B0547B317F700AC
:1016000093960701C1828327C4FDDC4313D757009B
:10161000B70700200A079387C704BA979C43368709
:1016200098CB0DA88327C4FDDC43BD8B0547B317BA
:10163000F70093960701C1828327C4FDDC4313D7CB
:101640005700B70700200A079387C704BA979C433F
:101650003687D8CB8347F4FE8583A307F4FE832720
:10166000C4FDDC472324F4FE0100832784FE138796
:10167000F7FF2324E4FEF5FB8327C4FD9C43BD8BC9
:101680000547B317F70093960701C1828327C4FD6E
:101690009C4313D75700B70700200A079387C70456
:1016A000BA979C43368798CB8327C4FDDC47232217
:1016B000F4FE0100832744FE1387F7FF2322E4FE94
:1016C000F5FB8327C4FD9C43BD8B0547B317F7008B
:1016D00093960701C1828327C4FD9C4313D757000B
:1016E000B70700200A079387C704BA979C43368739
:1016F000D8CB8347F4FEE39607EE0325C4FDA93358
:10170000AA87FD17B337F00093F7F70F3E85B25065
:10171000225445618280397106DE22DC26DA80009F
:101720002326A4FCAE87A305F4FC8327C4FCB337AF
:10173000F00093F7F70F3E871306000CD1679385EF
:10174000C7E13A85EF30A06FA30704FEA147230746
:10175000F4FE8327C4FC9C43BD8B0547B317F700F9
:1017600093960701C1828327C4FC9C4313D757007B
:10177000B70700200A079387C704BA979C433687A8
:10178000D8CB8327C4FCDC472324F4FE0100832745
:1017900084FE1387F7FF2324E4FEF5FB8327C4FCB4
:1017A000DC43BD8B0547B317F70093960701C18251
:1017B0008327C4FCDC4313D75700B70700200A0770
:1017C0009387C704BA979C43368798CB7DA8832715
:1017D000C4FC9C43BD8B0547B317F70093960701E4
:1017E000C1828327C4FC9C4313D75700B70700204E
:1017F0000A079387C704BA979C433687D8CB8327B9
:10180000C4FCDC472322F4FE0100832744FE138737
:10181000F7FF2322E4FEF5FB8327C4FC9C43BD8B2A
:101820000547B317F70093960701C1828327C4FCCD
:101830009C4313D75700B70700200A079387C704B4
:10184000BA979C43368798CB8327C4FCDC47232078
:10185000F4FE0100832704FE1387F7FF2320E4FE34
:10186000F5FB8347F4FE860793948701E184832781
:10187000C4FCDC433E85EFF08F8BAA87E207E1874B
:10188000C58FE207E187A307F4FE8347E4FE1387D1
:10189000F7FF2307E4FE85FF8327C4FC9C43BD8B31
:1018A0000547B317F70093960701C1828327C4FC4D
:1018B0009C4313D75700B70700200A079387C70434
:1018C000BA979C433687D8CB8327C4FCDC47232EAA
:1018D000F4FC01008327C4FD1387F7FF232EE4FCEB
:1018E000F5FB8347B4FCBE850325C4FCD93283478E
:1018F000F4FE3E85F2506254D2542161828001117F
:1019000006CE22CC00102326A4FEAE873287A30584
:10191000F4FEBA872305F4FE8327C4FEB337F00034
:1019200093F7F70F3E8713062029D1679385C7E108
:101930003A85EF30C0500325C4FEEFF0EFF0832767
:10194000C4FE83C78700860793F7F70FBE8503257C
:10195000C4FE99398347B4FEBE850325C4FEA93170
:101960008347A4FEBE850325C4FE3D390325C4FE7E
:10197000EFF01F800100F2406244056182807971BE
:1019800006D622D40018232EA4FCAE87A30DF4FCA7
:101990008327C4FDB337F00093F7F70F3E87130694
:1019A000402AD1679385C7E13A85EF304049A307C4
:1019B00004FE0325C4FDEFF02FE98327C4FD83C790
:1019C0008700860793F7F70FBE850325C4FDE93E20
:1019D0008347B4FDBE850325C4FDF9360325C4FD48
:1019E000EFF00FF90325C4FDEFF00FE68327C4FDE8
:1019F00083C787008607E207E18793E71700E207BE
:101A0000E18793F7F70FBE850325C4FD713E854539
:101A10000325C4FD0933AA87A307F4FE0325C4FDEB
:101A2000EFF00FF58347F4FE3E85B2502254456136
:101A30008280797106D622D400182326A4FEAE87B0
:101A40002322C4FE2320D4FE232EE4FCA305F4FEAF
:101A50008327C4FEB337F00093F7F70F3E871306D2
:101A6000F02BD1679385C7E13A85EF30403D0327DE
:101A700004FE8327C4FDB307F740B337F00093F7A4
:101A8000F70F3E871306002CD1679385C7E13A858F
:101A9000EF30E03A8327C4FE032704FE98C3832770
:101AA000C4FE0327C4FDD8C38327C4FE0347B4FE86
:101AB0002384E7008327C4FE032744FED8C7C1461A
:101AC00005468545032504FEEFE09FEAD14605461D
:101AD00085450325C4FDEFE0BFE90100B250225463
:101AE00045618280011122CE00102326A4FEAE871C
:101AF000A305F4FED1670327C4FE0A079387474571
:101B0000BA979C433E878347B4FEC207C18323161E
:101B1000F7000100D1670327C4FE0A0793874745F2
:101B2000BA979C4383D78700C207C18393F70708FE
:101B3000F5F3D1670327C4FE0A0793874745BA9791
:101B40009C4383D7C7000100724405618280011164
:101B500022CE00102326A4FEAE872315F4FE835761
:101B6000A4FEA183C207C18393F6F70FD1670327B1
:101B7000C4FE0A0793874745BA979C433E879397CD
:101B80000601C1832316F7000100D1670327C4FEB5
:101B90000A0793874745BA979C4383D78700C207B4
:101BA000C18393F70708F5F38357A4FE93F6F70F65
:101BB000D1670327C4FE0A0793874745BA979C431A
:101BC0003E8793970601C1832316F7000100D16772
:101BD0000327C4FE0A0793874745BA979C4383D7D8
:101BE0008700C207C18393F70708F5F30100724429
:101BF000056182805D7186C6A2C480082326A4FC8C
:101C00002324B4FC2322C4FC2320D4FC232EE4FA96
:101C1000232CF4FA232A04FBD1670327C4FC0A0708
:101C200093874745BA979C433E85EF60601C854586
:101C30000545EF60600A032704FC93073012631D1B
:101C4000F7000327C4FB930750126317F70085457D
:101C50000545EF50303B25A0032704FC8967938797
:101C6000A714631EF7000327C4FB89679387C71473
:101C70006317F700854537152000EF50B0388327EC
:101C8000C4FC91E785450565EF60000525A00327A5
:101C9000C4FC85476317F70085451165EF60200890
:101CA00011A80327C4FC89476316F7008545216501
:101CB000EF60E006832704FC93F7F70F930680316B
:101CC000054685453E85EFE0BFCA8327C4FB93F7F1
:101CD000F70F93068031054685453E85EFE05FC9E5
:101CE000032784FBC167F917630DF700832784FB83
:101CF00093F7F70F93068034054681453E85EFE064
:101D00003FC7032744FB9307F00F630DF7008327BA
:101D100044FB93F7F70F93060031014685453E8556
:101D2000EFE01FC5232E04FC232004FE232204FE23
:101D3000232404FE231604FE231E04FC93074010F4
:101D4000231FF4FC231004FE032784FC854763054E
:101D5000F702832784FC81CF032784FC8947630330
:101D6000F702032784FC8D476304F7020DA82311B3
:101D700004FE231204FE25A0231104FE854723122E
:101D8000F4FE31A889472311F4FE231204FE01A8B2
:101D900089472311F4FE85472312F4FE010023171F
:101DA00004FE03A70182832744FCB357F7022317DD
:101DB000F4FE03A70182832744FCB377F70291E77F
:101DC0008357E4FEFD172317F4FE0357E4FE930741
:101DD000F00763F7E700930780032317F4FE49A891
:101DE0000357E4FE9307F00363F7E700930700034C
:101DF0002317F4FEB5A80357E4FEFD4763F7E70099
:101E0000930780022317F4FEA5A00357E4FEBD4705
:101E100063F7E700930700022317F4FE91A8035726
:101E2000E4FE9D4763F6E700E1472317F4FE89A02F
:101E30000357E4FE8D4763F6E700C1472317F4FE1E
:101E400005A80357E4FE854763F6E700A14723177B
:101E5000F4FE39A88357E4FE81C7231704FE09A8BE
:101E600013067021D167938547E80145EF20307D47
:101E70008357E4FE2314F4FE930700202313F4FE9B
:101E8000231504FE9D472316F4FED1670327C4FCE7
:101E90000A0793874745BA979C433E879307C4FD3B
:101EA000BE853A85EF50307CD1670327C4FC0A0712
:101EB00093874745BA979C4385453E85EF60200A46
:101EC0000100B640264461618280797122D60018F3
:101ED000232EA4FC232CB4FC8547A307F4FE032780
:101EE000C4FD0A0793878191BA979C4399EB032716
:101EF000C4FD0A0793878191BA97032784FD98C38D
:101F000015A00327C4FD0A0793878191BA979C43C4
:101F1000032784FD6316F7008547A307F4FE19A085
:101F2000A30704FE8347F4FE3E8532544561828058
:101F3000011106CE22CC00102326A4FE8327C4FE66
:101F400081EB8545856713850780EF50F0586DA8B4
:101F50000327C4FE85476317F70085450545EF5005
:101F6000105C5DA00327C4FE89476317F700854511
:101F70000945EF50D05A49A80327C4FE8D4763177F
:101F8000F70085451145EF509059BDA80327C4FEC1
:101F900091476317F70085452145EF505058ADA094
:101FA0000327C4FE95476317F70085454145EF5069
:101FB000105799A80327C4FE99476318F700854571
:101FC00013050002EF50B05581A00327C4FE9D47C2
:101FD0006317F70085450965EF50105035A00327BA
:101FE000C4FEA1476318F700854537050800EF5088
:101FF000B04E19A80327C4FEA5476317F70085450F
:1020000037051000EF50504D0100F2406244056169
:102010008280797122D60018232EA4FCB7370140A4
:10202000938707C02326F4FE231504FE0327C4FD6F
:10203000A54763ECE7088327C4FD13972700D16702
:1020400093870746BA979C438287B73701409387A7
:1020500007C02326F4FE95A8B70700402326F4FE08
:10206000ADA0B7070040938707402326F4FEB1A830
:10207000B7170040938707802326F4FEB9A0B7174F
:102080000040938707C02326F4FE81A0B7170040C5
:102090002326F4FE1DA8B717004093870740232688
:1020A000F4FE25A0B7370140938707402326F4FEAE
:1020B00029A8B7570140938707C02326F4FE31A013
:1020C000B75701402326F4FE01000327C4FD0A0789
:1020D00093870194BA9798438947631FF700832732
:1020E000C4FE83D747021397070141838D47B35737
:1020F000F7022315F4FE39A08327C4FE83D74702D5
:102100002315F4FE8357A4FE3E8532544561828038
:10211000797122D60018232EA4FCB737014093878B
:1021200007C02326F4FE0327C4FDA54763ECE70898
:102130008327C4FD13972700D16793878748BA97F1
:102140009C438287B7370140938707C02326F4FE5C
:1021500095A8B70700402326F4FEADA0B7070040BE
:10216000938707402326F4FEB1A8B7170040938752
:1021700007802326F4FEB9A0B7170040938707C055
:102180002326F4FE81A0B71700402326F4FE1DA8E5
:10219000B7170040938707402326F4FE25A0B737E2
:1021A0000140938707402326F4FE29A8B757014032
:1021B000938707C02326F4FE31A0B757014023269A
:1021C000F4FE01008327C4FE23920702010032546B
:1021D00045618280011122CE00102326A4FEAE8725
:1021E000A305F4FE0100D1670327C4FE0A07938705
:1021F000074BBA979C4383D70700C207C18393F765
:102200000708F5D3D1670327C4FE0A079387074B56
:10221000BA979C433E878347B4FEC207C18323120B
:10222000F7000100724405618280011106CE22CCC4
:1022300000102326A4FE2324B4FE2322C4FE8327F9
:1022400084FEB337F00093F7F70F3E8713061004B0
:10225000D167938547EE3A85EF20703E29A8832702
:1022600084FE138717002324E4FE83C70700BE857E
:102270000325C4FE8537832744FE1387F7FF2322F7
:10228000E4FEF1FF0100F240624405618280011129
:1022900006CE22CC00102326A4FE2324B4FE8327DE
:1022A00084FEB337F00093F7F70F3E87130600055F
:1022B000D167938547EE3A85EF20703839A8832798
:1022C00084FE138717002324E4FE8387070093F717
:1022D000F70FBE850325C4FEF53D832784FE838763
:1022E0000700F1FF0100F2406244056182800111A4
:1022F00006CE22CC00102326A4FEAE87A305F4FE52
:10230000D1670327C4FE0A079387074BBA979C43FC
:102310003E878347B4FE3E86930550523A85EF6070
:10232000F04A138701858327C4FEBA9783C7070045
:1023300081453E85EF30F0348347B4FE81CF13876B
:1023400001858327C4FEBA9783C707003E85EF3017
:10235000902F19A8138701858327C4FEBA9783C7D6
:1023600007003E85EF3010300100F2406244056105
:102370008280011122CE00102326A4FE2324B4FE65
:10238000D1670327C4FE0A079387074BBA979C437C
:1023900083D70700C207C18393F707028DC7D167B0
:1023A0000327C4FE0A079387074BBA979C4383D73A
:1023B0004700C207C18313F7F70F832784FE2380EA
:1023C000E700854711A081473E8572440561828000
:1023D000797106D622D40018232EA4FC232CB4FC39
:1023E000232AC4FC2328D4FC032744FD832704FDAF
:1023F0003D8F8327C4FDB207F98F93B7170093F77A
:10240000F70F3E871306A00AD167938547EE3A85FA
:10241000EF20F022832744FD13D78700832704FD94
:10242000A183B307F74093B7170093F7F70F3E87E1
:102430001306B00AD167938547EE3A85EF20302026
:10244000832744FD93F7F70FE146014685453E8516
:10245000EFE00FD2832704FD93F7F70F9306800474
:10246000014681453E85EFE0AFD085450545EF50FB
:10247000B006032744FDC167FD17F98F0D671307E9
:1024800007386387E7200D67130707386369F70488
:102490000567130757166381E71605671307571675
:1024A000636FF7001307F022638AE70C13076030AD
:1024B0006381E710130760126388E70865A6096760
:1024C00013078736638BE7160D67130707126387B9
:1024D000E71809671307A7146380E71461A6156757
:1024E0001307A738638EE72615671307A7386362BB
:1024F000F7021167130787386380E7201567130712
:1025000087126385E722116713074712638CE71A66
:1025100091AE19671307C7386388E72A196713074D
:10252000C7386368F7001967130767106384E726E5
:1025300015AE1D671307E7106382E72C1D671307AD
:10254000E7386387E72E39AEB7070140D44FB707A6
:102550000140370700FC7D17758FD8CFB7070140C2
:10256000D843B70701406D9BD8C3B7070140D84394
:10257000B707014013674700D8C3EDA4B707014070
:10258000D44FB7070140370700FC7D17758FD8CFB0
:10259000B7070140D44FB707014037070004558FF4
:1025A000D8CFB7070140D843B70701406D9BD8C3C8
:1025B00055ACB7070140D44FB7070140370700FCBF
:1025C0007D17758FD8CFB7070140D44FB7070140AB
:1025D00037070004558FD8CFB7070140D843B70756
:1025E00001406D9BD8C3B7070140D843B7070140EE
:1025F00013674700D8C3BDA4B7070140D843B70746
:1026000001405D9BD8C3B7070140D843B7070140DD
:1026100013678700D8C3B9A4B7070140D843B707E9
:1026200001401377F7FCD8C3B7070140D843B70779
:10263000014013670701D8C335A4B7070140D84349
:10264000B70701401377F7FCD8C3B7070140D84359
:10265000B707014013670703D8C329A4B707014090
:10266000D44FB70701403707FDFF7D17758FD8CFCF
:10267000B7070140D44F832744FDA1831397070177
:10268000B70703007D8FB7070140558FD8CFD9AA70
:10269000B7070140D44FB70701403707FDFF7D174B
:1026A000758FD8CFB7070140D44F832744FDA1834E
:1026B00013970701B70703007D8FB7070140558FB8
:1026C000D8CF4DA2B7070140D44FB7070140370715
:1026D000F4FF7D17758FD8CFB7070140D44F8327FC
:1026E00044FDA18313972701B7070C007D8FB7071F
:1026F0000140558FD8CFBDA2B7070140D44FB707CF
:1027000001403707F4FF7D17758FD8CFB707014019
:10271000D44F832744FDA18313972701B7070C00EB
:102720007D8FB7070140558FD8CF2DAAB70701403D
:10273000D44FB70701403707D0FF7D17758FD8CF2B
:10274000B7070140D44F832744FDA1831397470166
:10275000B70730007D8FB7070140558FD8CF19A23A
:10276000B7070140D44FB70701403707D0FF7D17A7
:10277000758FD8CFB7070140D44F832744FDA1837D
:1027800013974701B70730007D8FB7070140558F7A
:10279000D8CFC9A8B7070140D44FB70701403707C2
:1027A00040FF7D17758FD8CFB7070140D44F8327DF
:1027B00044FDA18313976701B707C0007D8FB7075A
:1027C0000140558FD8CF79A8B7070140D44FB7073C
:1027D0000140370740FF7D17758FD8CFB7070140FD
:1027E000D44F832744FDA18313976701B707C00027
:1027F0007D8FB7070140558FD8CFADA0B7070140F7
:10280000D44FB7070140370700FD7D17758FD8CF2C
:10281000B7070140D44F832744FDA1831397870155
:10282000B70700037D8FB7070140558FD8CF1DA88C
:10283000B7070140D44FB7070140370700FD7D17A8
:10284000758FD8CFB7070140D44F832744FDA183AC
:1028500013978701B70700037D8FB7070140558F96
:10286000D8CF01008327C4FD91E785451165EF505E
:10287000A04669A80327C4FD85476318F70085456E
:1028800037050200EF50A04951A00327C4FD894736
:102890006318F700854537050400EF504048BDA098
:1028A0000327C4FD8D476318F700854537050800E9
:1028B000EF50E046A1A80327C4FD91476318F70035
:1028C000854537051000EF50804589A00327C4FDDA
:1028D00095476318F700854513050004EF50204421
:1028E00035A00327C4FD99476318F70085451305F4
:1028F0000008EF50C04219A80327C4FD9D47631785
:10290000F700854513050010EF506041232004FEB9
:10291000232204FE232404FE232604FE832784FDB1
:102920002320F4FE231204FE231304FE231404FECA
:10293000231604FEB1472315F4FED1670327C4FD17
:102940000A079387074BBA979C433E87930704FE79
:10295000BE853A85EF60403ED1670327C4FD0A0774
:102960009387074BBA979C4385453E85EF6000608F
:102970000100B250225445618280411106C622C432
:102980000008A14613860186814513858196EF20B4
:10299000107B0100B240224441018280411106C6F1
:1029A00022C4000883A7C1860547638BE7006388BC
:1029B000070C0947638DE7000D47638FE702E9A025
:1029C00083A781861387170023A4E18675A883A7B0
:1029D00081861387170023A4E18603A78186A54774
:1029E00063F1E70AB70700209387C7049C4B116780
:1029F000D8CB23A4018671A003A701878547631460
:102A0000F7081305F008EFD09FF2AA87ADC3194568
:102A1000EFF02FE0AA873E8783A781861D8F93075B
:102A2000600963F2E7061945EFF08FEE83A7818610
:102A3000D3F717D05385F720EFD0500AD16703A6FC
:102A400087F483A6C7F4EFC0C04EAA872E883E85C0
:102A5000C285EFD06071AA87139707014183B7073A
:102A60000020239CE736094723A8E18629A81945B9
:102A7000EFF02FDAAA873E8723A4E18629A0010080
:102A800021A0010011A001000100B2402244410137
:102A90008280411106C622C4000883A7C186094767
:102AA000637CF7000D47639AE7001945EFF04FE6A6
:102AB000054723A8E18611A001000100B24022448D
:102AC00041018280011106CE22CC0010232204FE97
:102AD00083C75187638A070E09A8930734FE05460A
:102AE000BE8513854198EF205007930734FEBE85BD
:102AF0001D45EFF01F88AA87EDF3034734FEA94771
:102B00006314F70C99472322F4FE130744FE93073E
:102B100084FE85463A86BE8513854198EF20303481
:102B2000930784FE138737000D46D167938507F519
:102B30003A85EFE0C076AA879DEB03A7C187894756
:102B4000630DF706054723AEE18613854198EF2014
:102B5000006BAA872322F4FE930744FE81463E863B
:102B6000938501A213854198EF20702FB9A0930798
:102B700084FE138737000D46D167938547F53A8564
:102B8000EFE0E071AA8795EB03A781878947630689
:102B9000F702054723ACE18613854198EF202066B4
:102BA000AA872322F4FE930744FE81463E8693853E
:102BB000019A13854198EF20902A13854198EF20C0
:102BC00000540547238AE1860100F2406244056112
:102BD0008280397106DE22DC80002326A4FC854732
:102BE000A307F4FE231604FE232404FE232E04FC74
:102BF00083D781883E87930700236316F700A54794
:102C00002324F4FE29A0A1472324F4FE01008DA86B
:102C1000930750FA2300F4FE832784FE8A070327D4
:102C2000C4FCBA978397070093F7F70FA300F4FE4D
:102C3000832784FE8A070327C4FCBA97839727005B
:102C40002313F4FE835764FEA183C207C18393F765
:102C5000F70F2301F4FE835764FE93F7F70FA301E8
:102C6000F4FE930704FE1146BE851145EFF0EFDB3D
:102C70000945EFD06FE3832784FEFD172324F4FE7C
:102C8000032784FE9307E00FE3F4E7F813858196AA
:102C9000EF20E0562A87894763FFE7028D47232EFE
:102CA000F4FC1307C4FD930704FE81463A86BE85F3
:102CB00013858196EF20B01A034714FE9307F00F97
:102CC0006308F700034724FE9307F00F6315F7002E
:102CD000A30704FE31A80545EFD00FDD8357C4FEDE
:102CE000138717002316E4FE1307F007E370F7FAC3
:102CF0008347F4FE3E85F25062542161828039712F
:102D000006DE22DC80002326A4FCA30704FE231693
:102D100004FE232404FE232E04FC83D781883E87EF
:102D2000930700236316F700A5472324F4FE29A088
:102D3000A1472324F4FE0100832784FEFD172324EA
:102D4000F4FE29A203D781889307F02263EDE70000
:102D5000832784FE8A070327C4FCBA9703970700DA
:102D6000A547630FF70C930750FA2300F4FEC557ED
:102D7000A300F4FE832784FE8A070327C4FCBA97C6
:102D8000839707002313F4FE835764FEA183C207D1
:102D9000C18393F7F70F2301F4FE835764FE93F783
:102DA000F70FA301F4FE930704FE1146BE851145FB
:102DB000EFF0AFC7231604FE13858196EF20204461
:102DC0002A87894763F7E7048D47232EF4FC13070E
:102DD000C4FD930704FE81463A86BE85138581961D
:102DE000EF20F007834714FEA20793960701C186E0
:102DF000834724FE139707014187832784FE8A07B0
:102E00000326C4FCB297558F420741872391E70000
:102E100031A80545EFD04FC98357C4FE138717006B
:102E20002316E4FE1307F007E378F7F80357C4FE10
:102E30009307000863F7E7008547A307F4FE19A886
:102E40000100832784FEFD172324F4FE832784FEDC
:102E5000E39A07EE8347F4FE3E85F2506254216107
:102E60008280011106CE22CC0010A30704FE930736
:102E7000F4FEBE851145EFF0CFCF0347F4FE930774
:102E8000500A6316F70013858196EF204027834789
:102E9000F4FEBE8513858196EF20A03A0100F24032
:102EA000624405618280411122C6000805472380E3
:102EB000E1880100324441018280011106CE22CC1A
:102EC0000010231704FE231604FE232004FE93079C
:102ED00050FA2302F4FEC557A302F4FE9307200F15
:102EE0002315F4FE8357A4FEA183C207C18393F781
:102EF000F70F2303F4FE8357A4FE93F7F70FA30302
:102F0000F4FE930744FE1146BE851145EFF0EFB184
:102F100013858196EF20A02E2A87894763F0E70466
:102F20008D472320F4FE130704FE930744FE8146D9
:102F30003A86BE8513858196EF206072834754FEE2
:102F4000A207139707014187834764FEC207C18721
:102F5000D98FC207C1872316F4FE31A80545EFD0EB
:102F6000AFB48357E4FE138717002317E4FE13075B
:102F7000F007E37FF7F88357C4FE3E85F2406244D2
:102F800005618280397106DE22DC8000A30704FE21
:102F9000054723A2E1889307C4FD1307C0049306E5
:102FA00020061306401F81453E85EFE09FA81305CC
:102FB000800CEFD06FAF1307C4FDB70700209385D7
:102FC00007063A85EFA00057AA876389070C23A25A
:102FD000018891679386270691671386C7048967DE
:102FE000938507581145EFF0AFBE85451145EFF0C9
:102FF0000FB01305800CEFD02FABB737000013864E
:1030000067EAB7370000938527E60D45EF10404B80
:10301000EFF0BF965D35AA873E872394E188B70716
:10302000002013850706EFF0DFBAAA878DCB930641
:10303000701BD16713860704D1679385870A014502
:10304000EF107066014681450145EF1060478145EC
:103050001145EFF0CFA98547A307F4FE81A0B7077C
:103060000020138587086139AA878DCB9306401C01
:10307000D16713860704D1679385470C0145EF108C
:103080009062014681450145EF108043814511451D
:10309000EFF0EFA58547A307F4FE0100B737000066
:1030A000138667EAB7370000938527E60D45EF10D2
:1030B000204191473EC495473EC299473EC0930880
:1030C000900213088002930760021307B00493066E
:1030D000900413068004A9452545EFD04FB18546DD
:1030E0009967138607828145B7070020138587619A
:1030F000EFD00FC08347F4FE3E85F2506254216149
:103100008280011106CE22CC0010AA87A307F4FE0C
:10311000B70700209387C704DC4713070008D8CB04
:103120008347F4FEBE850545EFE0DF9BB70700202F
:103130009387C704DC471307000898CB0100F240CF
:10314000624405618280011106CE22CC0010AA875C
:1031500036872317F4FEAE872316F4FEB2872315B5
:10316000F4FEBA872314F4FE83C7C180C207C1836B
:103170000357E4FEB337F70093F7F70F3E871306C4
:10318000A008D1679385070E3A85EF10504B83C78F
:10319000D180C207C1830357C4FEB337F70093F74A
:1031A000F70F3E871306B008D1679385070E3A855F
:1031B000EF10F04883C7C180C207C1830357A4FE44
:1031C000B337F70093F7F70F3E871306C008D167B0
:1031D0009385070E3A85EF10904683C7D180C207CA
:1031E000C183035784FEB337F70093F7F70F3E8789
:1031F0001306D008D1679385070E3A85EF10304447
:1032000083A7C18805476376F7000D476369F71008
:1032100061A01305A002F53581450545EFE09F8CBF
:103220008357E4FE93F7F70F890793F7F70FBE85EF
:103230000545EFE03F8B81450545EFE0BF8A8357A9
:10324000A4FE93F7F70F890793F7F70FBE8505459F
:10325000EFE05F891305B0026D3581450545EFE06C
:103260007F888357C4FE93F7F70F850793F7F70F0F
:10327000BE850545EFE01F8781450545EFE09F8648
:10328000835784FE93F7F70F850793F7F70FBE85F3
:103290000545EFE03F8561A01305A0029D358145FE
:1032A0000545EFE03F848357E4FE93F7F70F85076A
:1032B00093F7F70FBE850545EFE0DF8281450545B1
:1032C000EFE05F828357A4FE93F7F70F850793F72C
:1032D000F70FBE850545EFE0FF801305B0021535F9
:1032E00081450545EFE01F808357C4FE93F7F70F34
:1032F000890793F7F70FBE850545EFE0AFFE8145DF
:103300000545EFE02FFE835784FE93F7F70F8907FB
:1033100093F7F70FBE850545EFE0CFFC01001305DD
:10332000C002C5330100F2406244056182807971B8
:1033300006D622D400189307C4FD3E85EF10903BBB
:103340008547231EF4FC83C7C180C207C183231FA6
:10335000F4FC83C7D180C207C1832310F4FE83A786
:1033600081800547638AE70099EF99472301F4FEBE
:10337000A147A301F4FE09A8A1472301F4FEC14718
:10338000A301F4FE11A00100B74700009387C78096
:103390002324F4FEB73700009387473B2326F4FE2F
:1033A0009307C4FD3E85EF10903A0100B2502254BD
:1033B00045618280011106CE22CC001083C7C180F6
:1033C0003E8783C7D180B307F7022326F4FEB707F1
:1033D00000209387C704DC474147D8CB83C7C1800F
:1033E000C207C183FD1713970701418383C7D180AB
:1033F000C207C183FD17C207C183BE863A868145D5
:103400000145EFF05FD431A8B707002083D7C73755
:10341000BE850545EFE0AFF38327C4FEFD172326E5
:10342000F4FE8327C4FEEDF3B70700209387C7049B
:10343000DC47414798CB0100F2406244056182803D
:10344000797106D622D40018AA87231FF4FC83C7FB
:10345000C1803E8783C7D180B307F7022326F4FEDD
:10346000B70700209387C704DC474147D8CB83C701
:10347000C180C207C183FD1713970701418383C72A
:10348000D180C207C183FD17C207C183BE863A86B9
:1034900081450145EFF03FCB21A88357E4FDBE8570
:1034A0000545EFE0CFEA8327C4FEFD172326F4FE8F
:1034B0008327C4FEFDF3B70700209387C704DC47CA
:1034C000414798CB0100B2502254456182800111DE
:1034D00022CE00102326A4FE0327C4FE23A6E188E3
:1034E00083A7C18805476376F7000D476365F70238
:1034F00011A8130700F82386E180130700FAA386BA
:10350000E18011A8130700FA2386E180130700F871
:10351000A386E180010001007244056182800111EF
:1035200022CE0010AA872E872317F4FEBA8723160F
:10353000F4FEB70700200357E4FE239DE736B707E4
:1035400000200357C4FE239EE73601007244056144
:103550008280797106D622D40018AA87AE86328777
:10356000231FF4FCB687231EF4FCBA87A30DF4FCDA
:1035700083C7C180C207C1830357E4FDB337F70097
:1035800093F7F70F3E8713069019D1679385070EBF
:103590003A85EF10D00A83C7D180C207C183035791
:1035A000C4FDB337F70093F7F70F3E871306A01952
:1035B000D1679385070E3A85EF107008A30704FEC4
:1035C000230704FEB70700209387C704DC47414761
:1035D000D8CB83A781800547638EE70C639B0720C8
:1035E000A30704FED1A08347F4FE1397070141838C
:1035F0008357E4FDBA971395070141818347F4FE91
:103600001397070141838357E4FDBA971397070186
:1036100041838357C4FDA10793960701C182835755
:10362000C4FD3A86BE85EFF01FB28307B4FD138751
:1036300007FE8346F4FE5566BA878607BA97860763
:10364000130706ACBA97B69783C70700A306F4FE24
:10365000230704FE81A08347D4FE858B91CBB70757
:10366000002083D7A737BE850545EFE04FCE09A8D8
:10367000B707002083D7C737BE850545EFE02FCDBC
:103680008347D4FE8583A306F4FE8347E4FE8507C3
:103690002307F4FE0347E4FE9D47E3FEE7FA834772
:1036A000F4FE8507A307F4FE0347F4FE9547E3FC09
:1036B000E7F289A2A30704FE3DA28347F4FE139715
:1036C000070141838357E4FDBA97139507014181B0
:1036D0008347F4FE1397070141838357E4FDBA97AC
:1036E0001397070141838357C4FDBD0793960701D4
:1036F000C1828357C4FD3A86BE85EFF0DFA48307FD
:10370000B4FD938607FE8347F4FE516792061307C4
:10371000074D3697BA9783C707002306F4FE830741
:10372000B4FD938607FE8347F4FEA1075167920616
:103730001307074D3697BA9783C70700A305F4FE12
:10374000230704FE81A08347C4FE858B91CBB70776
:10375000002083D7A737BE850545EFE04FBF09A8F6
:10376000B707002083D7C737BE850545EFE02FBEDA
:103770008347C4FE85832306F4FE8347E4FE850762
:103780002307F4FE0347E4FE9D47E3FEE7FA230721
:1037900004FE81A08347B4FE858B91CBB707002040
:1037A00083D7A737BE850545EFE06FBA09A8B707ED
:1037B000002083D7C737BE850545EFE04FB9834763
:1037C000B4FE8583A305F4FE8347E4FE8507230743
:1037D000F4FE0347E4FE9D47E3FEE7FA8347F4FE69
:1037E0008507A307F4FE0347F4FE9D47E3F7E7ECE4
:1037F00011A00100B70700209387C704DC474147A9
:1038000098CB0100B250225445618280797106D66E
:1038100022D40018AA872E87232CC4FC231FF4FC73
:10382000BA87231EF4FC83C7C180C207C183035734
:10383000E4FDB337F70093F7F70F3E871306D01E6A
:10384000D1679385070E3A85EF10605F83C7D180FB
:10385000C207C1830357C4FDB337F70093F7F70FCF
:103860003E871306E01ED1679385070E3A85EF1059
:10387000005D231704FE71A083A781800547638143
:10388000E704B5EB0357E4FEBA878607BA978607C5
:103890001397070141838357E4FDBA979396070175
:1038A000C1828357E4FE032784FDBA97038707008C
:1038B0008357C4FD3A86BE853685EFF09FC92DA893
:1038C0008357E4FE8E071397070141838357E4FD76
:1038D000BA9793960701C1828357E4FE032784FDBC
:1038E000BA97038707008357C4FD3A86BE8536859D
:1038F000EFF03FC611A001008357E4FE85072317B0
:10390000F4FE8357E4FE032784FDBA9783870700FC
:10391000A5F70100B250225445618280397106DE5C
:1039200022DC8000AA872324C4FC36872317F4FCFA
:10393000AE872316F4FCBA87A303F4FC83C7C180C7
:10394000C207C1830357E4FCB337F70093F7F70FBF
:103950003E871306B020D1679385070E3A85EF1096
:10396000004E83C7D180C207C1830357C4FCB3375D
:10397000F70093F7F70F3E871306C020D1679385B2
:10398000070E3A85EF10A04B834774FCB337F00065
:1039900093F7F70F3E871306D020D1679385070E64
:1039A0003A85EF10C049834774FC93B7B70093F78B
:1039B000F70F3E871306E020D1679385070E3A85FF
:1039C000EF10E047832784FC2326F4FE8547232459
:1039D000F4FE9307C4FD314681453E85EFC05F820A
:1039E000834774FC85073E879307C4FD3A86930599
:1039F00000023E85EFC0DF80034774FCA54763EB00
:103A0000E70231A8032784FEBA878A07BA97860798
:103A10002324F4FE834774FCFD17A303F4FC8347BF
:103A200074FCEDF30327C4FE832784FEB367F7021B
:103A30002326F4FE9307C4FD8325C4FE3E85EF10C4
:103A400070799306C4FD0357C4FC8357E4FC3686A3
:103A5000BA853E85EFF09FDB0100F2506254216190
:103A600082805D7186C6A2C4A6C280082328C4FADB
:103A7000232AD4FABA863E87AA87231FF4FAAE8790
:103A8000231EF4FAB687A30DF4FABA87230DF4FACD
:103A900083C7C180C207C1830357E4FBB337F70074
:103AA00093F7F70F3E871306C025D1679385070E5E
:103AB0003A85EF10C03883C7D180C207C18303574E
:103AC000C4FBB337F70093F7F70F3E871306D025F3
:103AD000D1679385070E3A85EF1060368347B4FBB4
:103AE000B337F00093F7F70F3E871306E025D16751
:103AF0009385070E3A85EF1080348347B4FB93B764
:103B0000970093F7F70F3E871306F025D16793854B
:103B1000070E3A85EF10A0328347A4FBB337F000BD
:103B200093F7F70F3E8713060026D1679385070E9C
:103B30003A85EF10C0308347A4FB93B7770093F723
:103B4000F70F3E8713061026D1679385070E3A8537
:103B5000EF10E02E832704FB032844FB2320F4FE10
:103B6000232204FFD16703A8C71483A78714232443
:103B7000F4FE232604FF9307C4FC454681453E8599
:103B8000EFC00FE80347B4FB8347A4FBBA9789074C
:103B90003E879307C4FC3A86930500023E85EFC03A
:103BA0002FE63DA0D16703A6071583A64715032579
:103BB00084FE8325C4FEEFB0C037AA872E88232455
:103BC000F4FE232604FF8347B4FBFD17A30DF4FA8C
:103BD0008347B4FBE1FB032504FE832544FEEFC0CD
:103BE000204BAA84032584FE8325C4FEEFC0404AEF
:103BF000AA87B3C7F4023E85EFC0E060AA872E888B
:103C0000032684FE8326C4FE3E85C285EFB0603263
:103C1000AA872E883E86C286032504FE832544FE9D
:103C2000EFB09016AA872E882320F4FE232204FFEB
:103C30000347A4FB9307C4FCBA86832504FE03262E
:103C400044FE3E85EF10706A9306C4FC0357C4FB24
:103C50008357E4FB3686BA853E85EFF03FBB010013
:103C6000B64026449644616182805D7186C6A2C4D6
:103C700080082A8E2E832324C4FC3685BA853E868E
:103C8000C2864687F2872317F4FC9A872316F4FC32
:103C9000AA872313F4FCAE872312F4FCB287231106
:103CA000F4FCB6872310F4FCBA87A30FF4FA83C799
:103CB000C180C207C1830357E4FCB337F70093F711
:103CC000F70F3E871306B02BD1679385070E3A8511
:103CD000EF10E01683C7D180C207C1830357C4FC2D
:103CE000B337F70093F7F70F3E871306C02BD16762
:103CF0009385070E3A85EF108014832784FCB33731
:103D0000F00093F7F70F3E871306D02BD16793850A
:103D1000070E3A85EF10A012232604FE232404FE8A
:103D2000231304FE231204FE232004FE232E04FC8E
:103D3000B70700209387C704DC474147D8CB035718
:103D4000E4FC835724FCBA97C207C183FD1713967E
:103D5000070141820357C4FC835704FCBA97C2078A
:103D6000C183FD1793960701C1820357C4FC835793
:103D7000E4FCBA853E85EFF00FBD232404FE19A2B2
:103D8000035744FC832784FE3307F702835704FC60
:103D9000B357F702232EF4FC232604FEC9A80357C9
:103DA00064FC8327C4FE3307F702835724FCB35710
:103DB000F7022320F4FE035764FC8327C4FD330776
:103DC000F702832704FEBA97032784FCBA9783C7B8
:103DD00007002312F4FE8347F4FBB5E3835744FE48
:103DE0008D83C207C183AE072313F4FE835744FEBD
:103DF0008983C207C1839607C207C18793F7077EED
:103E0000139707014187831764FED98FC207C187C3
:103E10002313F4FE835744FE8D83C207C183FD8BB9
:103E2000139707014183835764FED98F2313F4FE50
:103E3000835764FEBE850545EFD07FD125A083471B
:103E4000F4FBC207C183035744FE6377F700814543
:103E50000545EFD0DFCF39A0C1679385F7FF054552
:103E6000EFD0FFCE8327C4FE85072326F4FE8357B9
:103E700024FC0327C4FEE364F7F2832784FE85074E
:103E80002324F4FE835704FC032784FEE36AF7EE41
:103E9000B70700209387C704DC47414798CB010050
:103EA000B6402644616182805D7186C6A2C48008E6
:103EB0002A8E2E832324C4FC3685BA853E86C2868C
:103EC0004687F2872317F4FC9A872316F4FCAA8707
:103ED0002313F4FCAE872312F4FCB2872311F4FC05
:103EE000B6872310F4FCBA87A30FF4FA83C7C18006
:103EF000C207C1830357E4FCB337F70093F7F70F0A
:103F00003E871306602FD1679385070E3A85EF0031
:103F1000107383C7D180C207C1830357C4FCB33772
:103F2000F70093F7F70F3E871306702FD16793853D
:103F3000070E3A85EF00B070832784FCB337F0009A
:103F400093F7F70F3E871306802FD1679385070EEF
:103F50003A85EF00D06E232604FE232404FE2313AB
:103F600004FE232004FE232E04FCB70700209387C1
:103F7000C704DC474147D8CB0357E4FC835724FCF4
:103F8000BA97C207C183FD171396070141820357F1
:103F9000C4FC835704FCBA97C207C183FD179396EC
:103FA0000701C1820357C4FC8357E4FCBA853E85F0
:103FB000EFF06F99232404FE45A8035744FC8327A0
:103FC00084FE3307F702835704FCB357F702232E0E
:103FD000F4FC232604FEB5A8035764FC8327C4FE23
:103FE0003307F702835724FCB357F7022320F4FE6C
:103FF000035764FC8327C4FD3307F702832704FEBD
:10400000BA978607032784FCBA9783D70700231340
:10401000F4FE8347F4FB9DC3835764FEA207139706
:1040200007014187835764FEA183C207C183C2078A
:10403000C187D98FC207C1872313F4FE835764FE5B
:10404000BE850545EFD0BFB08327C4FE8507232674
:10405000F4FE835724FC0327C4FEE36FF7F683279F
:1040600084FE85072324F4FE835704FC032784FE83
:10407000E365F7F4B70700209387C704DC4741479F
:1040800098CB0100B640264461618280411106C68A
:1040900022C400081308F00FC167F917056713075A
:1040A000F70285669386D60237A64A0413060620D1
:1040B00081450545EFD01FB4C1460146854513052E
:1040C0007006EFC0FF8AC1460146854513057002A0
:1040D000EFC01F8AC1460546854513054006EFC05F
:1040E0003F89C1460546854513050006EFC05F8838
:1040F00083A7C1883E85EFF08FBDB707002003D7A7
:10410000A737B707002083D7C737BE853A85EFF0BA
:104110000FC1B70700209387C704DC4313070008CB
:10412000D8CB2945EFC04F98B70700209387C70425
:10413000DC431307000898CB13058007EFC0CF9628
:10414000B70700209387C704DC474147D8CB4545D4
:10415000EFE03FFB13058007EFC00F951305100B31
:10416000EFE03FFA85450545EFD0DF979305C002A4
:104170000545EFD03F979305D0020545EFD09F96B8
:104180001305200BEFE0FFF785450545EFD09F9520
:104190009305C0020545EFD0FF949305D002054575
:1041A000EFD05F941305300BEFE0BFF58545054573
:1041B000EFD05F939305C0020545EFD0BF92930502
:1041C000D0020545EFD01F9285450545EFD09F9160
:1041D0009305C0020545EFD0FF909305D002054539
:1041E000EFD05F901305400BEFE0BFF19D45054513
:1041F000EFD05F8F1305000CEFE0BFF09305200AAE
:104200000545EFD03F8E89450545EFD0BF8D93051D
:1042100040080545EFD01F8D1305100CEFE07FEE31
:104220009305500C0545EFD0FF8B1305200CEFE0F4
:104230005FEDA9450545EFD0FF8A81450545EFD0E3
:104240007F8A1305300CEFE0DFEB9305A0080545EE
:10425000EFD05F899305A0020545EFD0BF88130515
:10426000400CEFE01FEA9305A0080545EFD09F87BB
:104270009305E00E0545EFD0FF861305500CEFE0E7
:104280005FE8B9450545EFD0FF8513056003EFE012
:104290005FE783A7C18805476380E70281CB0947B1
:1042A0006381E7020D476384E70205A89305000CCC
:1042B0000545EFD03F8315A081450545EFD09F828E
:1042C00029A89305000A0545EFD0DF8139A09305A1
:1042D00000060545EFD01F8101001305000EEFE039
:1042E0005FE2BD450545EFD0EFFFE9450545EFD05D
:1042F0006FFFBD450545EFD0EFFEE1450545EFD029
:104300006FFE9305F0020545EFD0CFFD93058002C7
:104310000545EFD02FFD930500020545EFD08FFC3A
:10432000930520020545EFD0EFFBFD450545EFD095
:104330006FFBED450545EFD0EFFA930530020545DB
:10434000EFD04FFA930570030545EFD0AFF98145E3
:104350000545EFD02FF99D450545EFD0AFF88945CC
:104360000545EFD02FF8C1450545EFD0AFF7130550
:10437000100EEFE01FD9BD450545EFD0AFF6ED4576
:104380000545EFD02FF6BD450545EFD0AFF5DD452E
:104390000545EFD02FF5930530030545EFD08FF499
:1043A0009305C0020545EFD0EFF393059002054554
:1043B000EFD04FF39305E0020545EFD0AFF2930540
:1043C00000030545EFD00FF2930500030545EFD03C
:1043D0006FF1930590030545EFD0CFF09305F003FF
:1043E0000545EFD02FF081450545EFD0AFEF9D4556
:1043F0000545EFD02FEF8D450545EFD0AFEEC14518
:104400000545EFD02FEE1305A002EFE09FCF8145C9
:104410000545EFD02FED89450545EFD0AFEC81453F
:104420000545EFD02FEC930520080545EFD08FEB25
:104430001305B002EFE0FFCC81450545EFD08FEAD0
:104440008D450545EFD00FEA81450545EFD08FE951
:10445000930530080545EFD0EFE81305000FEFE0B6
:104460005FCA85450545EFD0EFE71305600FEFE024
:104470005FC981450545EFD0EFE61305A003EFE0E6
:104480005FC895450545EFD0EFE513059002EFE0D5
:104490005FC7B70700209387C704DC47414798CB25
:1044A000EFE05FF1EFE0BFE80100B24022444101DC
:1044B0008280411122C600080100324441018280FD
:1044C000011122CE00102326A4FE2324B4FE2322B1
:1044D000C4FE0327C4FE23A8E188832744FE81C7C6
:1044E000832744FE29A0B74700009387274B23AAC0
:1044F000F180832784FE81C7832784FE29A0B747E4
:1045000000009387274B23A8F180010072440561C6
:104510008280411122C60008B71702409843B7179E
:1045200002401367170098C3B7170240D443B71768
:1045300002403707FFF8758FD8C3B717024094437E
:10454000B71702403707F7FE7D17758F98C3B71767
:1045500002409443B71702403707FCFF7D17758F61
:1045600098C3B7170240D443B7170240370781FFFB
:104570007D17758FD8C3B717024037079F0098C7BC
:104580000100324441018280797106D622D400189C
:10459000232EA4FCEFF0FFF7232604FE232404FEC1
:1045A000B71702409443B71702404167558F98C32D
:1045B000B71702409843B7070200F98F2324F4FE8F
:1045C0008327C4FE85072326F4FE832784FE91E714
:1045D0000327C4FE8567E31DF7FCB7170240984325
:1045E000B7070200F98F89C785472324F4FE19A075
:1045F000232404FE032784FE85476312F71637172A
:104600000240B71702405843D8C337170240B717C4
:1046100002405843D8C337170240B71702405843E7
:10462000D8C3B7170240D443B71702403707C1FFBA
:104630007D17758FD8C30327C4FDB74795089387A7
:104640000740631BF700B7170240D443B717024077
:104650004167558FD8C355A80327C4FDB71727074F
:10466000938707E0631CF700B7170240D443B717DE
:10467000024037073900558FD8C341A80327C4FD2E
:10468000B7E7B80593870780631CF700B7170240A8
:10469000D443B717024037072900558FD8C3B5A0B8
:1046A0000327C4FDB7A74A0493870720631CF700BC
:1046B000B7170240D443B717024037071D00558F84
:1046C000D8C3A1A00327C4FDB777DC02938707C036
:1046D000631CF700B7170240D443B71702403707EF
:1046E0001100558FD8C315A00327C4FDB7376E013D
:1046F00093870760631BF700B7170240D443B717CF
:10470000024037070500558FD8C3B71702409443BE
:10471000B717024037070001558F98C30100B7173C
:1047200002409843B7070002F98FF5DBB717024044
:10473000D843B7170240719BD8C3B7170240D8437C
:10474000B717024013672700D8C30100B71702400C
:10475000DC4313F7C700A147E31AF7FE11A001A03D
:10476000B250225445618280011106CE22CC001045
:104770002326A4FE0327C4FE23A0E182EFF07FD905
:104780000325C4FEEFF05FE0EF1020780100F24057
:10479000624405618280411122C6000801000100C7
:1047A000324441018280011106CE22CC0010232622
:1047B00004FE232404FE232604FE2DA0232404FE4D
:1047C00001A8EFF05FFD832784FE85072324F4FE14
:1047D000032784FEC167E366F7FE8327C4FE8507CF
:1047E0002326F4FE0327C4FE9307F00FE3F8E7FC4B
:1047F0000100F240624405618280411122C6000836
:104800000100324441018280011106CE22CC001009
:104810002326A4FE8325C4FE0945EFD05FA701002F
:10482000F240624405618280130101D923261126DA
:104830002324812623229126801C232EA4D8232CD6
:10484000B4D8232AC4D82328D4D8231504FE23148B
:1048500004FE231304FE231204FE231104FE032589
:1048600084D9EFC0B022AA87C207C1872313F4FE00
:10487000B767002083D747E999C7B76700209387B8
:1048800047E99C4B829783C7518993F7F70F63855C
:10489000074EB767002083D747E963890746B767A4
:1048A0000020938747E9D447835724FE13970701D5
:1048B000418793170701C1838507C207C183C207D8
:1048C000C1872311F4FE93170701C1830326C4D9BE
:1048D000BE8501458296832784D92326F4FE0325CD
:1048E00084D9EFC0B01AAA87C207C1872313F4FE88
:1048F000B7670020938747E983D727003E87B767CC
:104900000020938747E983C76700B347F702C207D0
:10491000C1872312F4FE01008327C4FE138717000A
:104920002326E4FE83870700E5FB231404FEA1A8E9
:104930008327C4FEFD172326F4FE8327C4FE0387C6
:1049400007009307F002630AF7008327C4FE03877A
:1049500007009307C005631BF700835784FEC20757
:10496000C1838507C207C1832314F4FE835764FE05
:10497000C207C187C207C183FD17C207C183C2072F
:10498000C1872313F4FE835784FE139707014183E5
:10499000854763E8E700835764FEC207C187E3D910
:1049A00007F8835764FEC207C18763C207028327E3
:1049B000C4FE85072326F4FE130704EE0326C4FE77
:1049C000D167938587153A85EFC0F0071DA88357F7
:1049D00084FEC207C18381EF130704EE0326C4FEE1
:1049E000D167938547163A85EFC0F00519A81307DC
:1049F00004EE0326C4FED167938587153A85EFC080
:104A00009004231504FE05A2231404FE59A0930765
:104A100004EE3E85EFC090072A87835784FEC207C5
:104A2000C183BE868357A4FEC207C1833E868357D7
:104A300044FEC207C187B307F602B6976367F7065D
:104A4000835784FEC207C1833E878357A4FEC207F3
:104A5000C183BE86835744FEC207C187B387F6026F
:104A6000BA97035784FE42074183BA86130704FFAF
:104A7000BA97038707EF930704FFB6972388E7EAFF
:104A8000835784FEC207C1838507C207C1832314ED
:104A9000F4FE835784FEC207C1833E87835744FEDA
:104AA000C207C187E345F7F611A00100835784FED2
:104AB000C207C183130704FFBA97238807EAB767C1
:104AC0000020938747E903A8C700B76700209387B2
:104AD00047E983C77700139707014183835724FE73
:104AE00093960701C18693970601C1838507C20784
:104AF000C183C207C1872311F4FE93970601C183C6
:104B0000B307F702C207C183130704EA3A86BE85DA
:104B1000014502988357A4FEC207C1838507C207D7
:104B2000C1832315F4FE8357A4FEC207C183BE844C
:104B3000930704EE3E85EFC060752A87835744FED5
:104B4000C207C187B357F7028507E3EFF4EA1307FB
:104B500004EE032644D9D167938547173A85EFC001
:104B6000806EB7670020938747E903A8C700B7673F
:104B70000020938747E983C7770013970701418394
:104B8000835724FE93960701C18693970601C1833C
:104B90008507C207C183C207C1872311F4FE93971B
:104BA0000601C183B307F702C207C183130704EEEE
:104BB0003A86BE8501450298832704D9638E071A79
:104BC000231504FE05A2231404FE59A0032504D9CD
:104BD000EFC0C06B2A87835784FEC207C183BE869D
:104BE0008357A4FEC207C1833E86835744FEC20793
:104BF000C187B307F602B6976368F706835784FE4A
:104C0000C207C1833E878357A4FEC207C183BE8605
:104C1000835744FEC207C187B387F602BA973E871F
:104C2000832704D9BA97035784FE42074183BA8683
:104C300003870700930704FFB6972388E7EA8357A3
:104C400084FEC207C1838507C207C1832314F4FE13
:104C5000835784FEC207C1833E87835744FEC20741
:104C6000C187E345F7F611A00100835784FEC20710
:104C7000C183130704FFBA97238807EAB7670020A8
:104C8000938747E903A8C700B7670020938747E9E0
:104C900083C77700139707014183835724FE9396B8
:104CA0000701C18693970601C1838507C207C183A7
:104CB000C207C1872311F4FE93970601C183B3078E
:104CC000F702C207C183130704EA3A86BE8501458D
:104CD00002988357A4FEC207C1838507C207C18318
:104CE0002315F4FE8357A4FEC207C183BE840325A7
:104CF00004D9EFC0A0592A87835744FEC207C18751
:104D0000B357F7028507E3E0F4ECBDA0930704DA9C
:104D10001306001081453E85EFB08FCEB7670020A7
:104D2000938747E99C470325C4D98297832704D9F1
:104D300099CF130504DA032704D9832644D903261F
:104D400084D9D16793850718EFC0E04F29A81307CE
:104D500004DA832644D9032684D9D1679385C719F9
:104D60003A85EFC0404EB7670020938747E99847E0
:104D7000930704DA3E85029701008320C1260324AD
:104D8000812683244126130101278280411106C612
:104D900022C4000883C7518993F7F70F91CF9385F9
:104DA00041890945EFD0EFDC054693854189B76716
:104DB0000020138587E755230100B24022444101BA
:104DC0008280797106D622D40018232EA4FC232CCD
:104DD000B4FC232AC4FC232604FEA9A00100D16749
:104DE0009387074B9C47930500043E85EF40202D99
:104DF000AA87F5D7D1679387074B9C47BE86832741
:104E000084FD13871700232CE4FC83870700C20767
:104E1000C183BE853685EF40A0278327C4FE850762
:104E20002326F4FE0327C4FE832744FDE348F7FA54
:104E3000832744FD3E85B250225445618280011192
:104E400006CE22CC0010AA872324B4FE2322C4FE5F
:104E5000A307F4FE8347F4FEB1E383C7418293F7CF
:104E6000F70F8DCF83C7618991C301A083C7618983
:104E7000850713F7F70F238BE188EF104006EFF05B
:104E8000DF978146032644FE832584FED167138580
:104E9000471BEFF07F99EFF01F91E5B70100F2405B
:104EA000624405618280011106CE22CC0010AA87DF
:104EB0002324B4FE2322C4FE2320D4FEA307F4FE41
:104EC0008347F4FE95E383C7518993F7F70F91CF9A
:104ED000832684FE032604FE832544FED1671385C2
:104EE000471CEFF07F9411A001000100F2406244E2
:104EF00005618280011122CE00102326A4FE8327A3
:104F0000C4FE239007008327C4FE7D572391E7004A
:104F10008327C4FE7D572392E7008327C4FE7D5775
:104F20002383E7008327C4FE7D57A383E7008327FD
:104F3000C4FE23A407008327C4FE23A607008327FB
:104F4000C4FE23A80700010072440561828001119C
:104F500022CE00102326A4FE8327C4FE03D7070019
:104F6000B7670020239AE7E88327C4FE03D727000A
:104F7000B7670020938747E92391E7008327C4FEA2
:104F800003D74700B7670020938747E92392E700DC
:104F90008327C4FE03C76700B7670020938747E9EC
:104FA0002383E7008327C4FE03C77700B767002089
:104FB000938747E9A383E7008327C4FE9847B76731
:104FC0000020938747E998C78327C4FED847B7676F
:104FD0000020938747E9D8C78327C4FE984BB7675B
:104FE0000020938747E998CB0547A38AE188010011
:104FF000724405618280797106D622D40018930725
:10500000C4FD3E85EFF01FEFB75700009387878000
:105010002322F4FE9307C4FD3E85EFF05FF389671A
:105020009386B70289671386A702F16793850720E5
:105030000945EFD0EFB993060004B7670020138647
:1050400087E38145B7670020138587E7EF00300FBE
:1050500085450945EFD0AFA90100B2502254456102
:105060008280011122CE00102326A4FE2324B4FE48
:105070008327C4FED847832784FE3E978327C4FE38
:10508000D8C719A88327C4FED8478327C4FE9C4FDE
:105090001D8F8327C4FED8C78327C4FE984F83275C
:1050A000C4FEDC47E3F0E7FE010072440561828044
:1050B000011122CE00102326A4FE2324B4FE832750
:1050C000C4FE984B832784FE3E978327C4FE98CB6B
:1050D00019A88327C4FE984B8327C4FE9C4F1D8FBD
:1050E0008327C4FE98CB8327C4FE984F8327C4FE32
:1050F0009C4BE3F0E7FE0100724405618280797108
:1051000006D622D40018232EA4FC8327C4FDB3376F
:10511000F00093F7F70F3E8713064005D16793859C
:10512000071D3A85EFF0BFD1232604FE8327C4FD77
:1051300083C70700858B93F7F70F89C78947232615
:10514000F4FE7DA08327C4FD83C7070093E7170003
:1051500013F7F70F8327C4FD2380E7008327C4FDDF
:1051600023A607008327C4FD23A807008327C4FDC7
:10517000984F8327C4FDD8CB8327C4FDDC43054764
:105180006383E70289C70947638CE702B9A08327D5
:10519000C4FD98478327C4FD9C4F3E8681453A85D0
:1051A000EFB00F861DA88327C4FD98478327C4FD51
:1051B0009C4F86073E8681453A85EFB06F8431A8C3
:1051C0008327C4FD98478327C4FD9C4F8A073E86EA
:1051D00081453A85EFB0CF8201008327C4FD83C7A4
:1051E0000700F99B13F7F70F8327C4FD2380E7001F
:1051F0008327C4FE3E85B25022544561828001114E
:1052000006CE22CC00102326A4FE8327C4FEB3378B
:10521000F00093F7F70F3E871306C007D167938519
:10522000071D3A85EFF0BFC18327C4FE984F83273F
:10523000C4FEDC4BB307F7403E85F2406244056193
:105240008280797106D622D40018232EA4FC232C48
:10525000B4FC8327C4FDB337F00093F7F70F3E8704
:105260001306A008D1679385071D3A85EFF03FBD6F
:10527000232604FE8327C4FD83C70700898B93F789
:10528000F70F89C785472326F4FEC9A08327C4FDED
:1052900083C7070093E7270013F7F70F8327C4FDA1
:1052A0002380E7008327C4FDDC4BD9C38327C4FDDB
:1052B000DC4305476385E70289C709476380E70444
:1052C00091A88327C4FD98478327C4FDDC47BA977C
:1052D000032784FD1377F70F2380E70025A8832792
:1052E000C4FD98478327C4FDDC478607BA97032788
:1052F00084FD420741832390E70029A88327C4FD4A
:1053000098478327C4FDDC478A07BA97032784FDA3
:1053100098C3010085450325C4FDEFF09FD4832782
:10532000C4FDDC4B1387F7FF8327C4FDD8CB21A036
:1053300091472326F4FE8327C4FD83C70700F59B0E
:1053400013F7F70F8327C4FD2380E7008327C4FEEC
:105350003E85B250225445618280797106D622D4AE
:105360000018232EA4FC232CB4FC232AC4FC83277E
:10537000C4FDB337F00093F7F70F3E871306C00B59
:10538000D1679385071D3A85EFF07FAB232604FE96
:10539000232404FE832784FD89E78D472326F4FE1A
:1053A00045AC8327C4FD83C70700898B93F7F70FAC
:1053B00089C785472326F4FE61AC8327C4FD83C7D4
:1053C000070093E7270013F7F70F8327C4FD238017
:1053D000E7008327C4FDDC4B032744FD63ECE7248F
:1053E0008327C4FD984F8327C4FDDC47B307F740EC
:1053F0002324F4FE032744FD832784FE63F2E71889
:105400008327C4FDDC430547638FE70689C7094747
:105410006389E70E31A48327C4FD98478327C4FD21
:10542000DC47BA97032684FE832584FD3E85EFB0D2
:10543000A032832584FE0325C4FDEFF09FC283279D
:10544000C4FD98478327C4FDDC47B306F700032754
:1054500084FD832784FEB305F700032744FD8327DB
:1054600084FEB307F7403E863685EFB0E02E032773
:1054700044FD832784FEB307F740BE850325C4FDA2
:10548000EFF03FBE71AA8327C4FD98478327C4FD70
:10549000DC4786073E97832784FE86073E86832562
:1054A00084FD3A85EFB0402B832584FE0325C4FD9F
:1054B000EFF03FBB8327C4FD98478327C4FDDC473B
:1054C0008607B306F700832784FE8607032784FD3B
:1054D000B305F700032744FD832784FEB307F74095
:1054E00086073E863685EFB02027032744FD8327B5
:1054F00084FEB307F740BE850325C4FDEFF07FB6F9
:1055000005A28327C4FD98478327C4FDDC478A078B
:105510003E97832784FE8A073E86832584FD3A854D
:10552000EFB08023832584FE0325C4FDEFF07FB315
:105530008327C4FD98478327C4FDDC478A07B30649
:10554000F700832784FE8A07032784FDB305F7004D
:10555000032744FD832784FEB307F7408A073E866E
:105560003685EFB0601F032744FD832784FEB30711
:10557000F740BE850325C4FDEFF0BFAE01004DA08E
:105580008327C4FDDC430547638CE70289C70947CD
:105590006380E70671A08327C4FD98478327C4FD75
:1055A000DC47BA97032644FD832584FD3E85EFB092
:1055B000A01A832544FD0325C4FDEFF09FAA8DA00A
:1055C0008327C4FD98478327C4FDDC4786073E97A1
:1055D000832744FD86073E86832584FD3A85EFB008
:1055E000A017832544FD0325C4FDEFF09FA70DA858
:1055F0008327C4FD98478327C4FDDC478A073E976D
:10560000832744FD8A073E86832584FD3A85EFB0D3
:10561000A014832544FD0325C4FDEFF09FA40100E1
:105620008327C4FDD84B832744FD1D8F8327C4FDEA
:10563000D8CB21A091472326F4FE8327C4FD83C73E
:105640000700F59B13F7F70F8327C4FD2380E700BE
:105650008327C4FE3E85B250225445618280797111
:1056600006D622D40018232EA4FC232CB4FC232A13
:10567000C4FC2328D4FC8327C4FDB337F00093F780
:10568000F70F3E8713067016D1679385071D3A857D
:10569000EFF0EFFA832744FDB337F00093F7F70FED
:1056A0003E8713068016D1679385071D3A85EFF074
:1056B0000FF9232604FE832784FD89E78D472326DF
:1056C000F4FEA1AC8327C4FD83C7070093E747001E
:1056D00013F7F70F8327C4FD2380E7000325C4FDDC
:1056E000EFF0FFB12324A4FE832744FD9C4303274E
:1056F00084FE637AF700832744FD032784FE98C362
:1057000095472326F4FE8327C4FD984F8327C4FDC5
:105710009C4BB307F7402322F4FE832744FD9C43B0
:10572000032744FE6365F7088327C4FDDC43054770
:105730006388E70289C709476387E704BDA2832717
:10574000C4FD98478327C4FD9C4B3E97832744FDA7
:105750009C433E86BA85032584FDEFA0F07FB1A26D
:105760008327C4FD98478327C4FD9C4B86073E973B
:10577000832744FD9C4386073E86BA85032584FD26
:10578000EFA0907D1DA28327C4FD98478327C4FD09
:105790009C4B8A073E97832744FD9C438A073E869D
:1057A000BA85032584FDEFA0307B0100FDA8832787
:1057B000C4FDDC430547638AE70489C70947638E54
:1057C000E708E5A08327C4FD98478327C4FD9C4BC9
:1057D000BA97032644FEBE85032584FDEFA0D0774B
:1057E000032784FD832744FEB306F7008327C4FD07
:1057F0008C47832744FD9843832744FEB307F74033
:105800003E863685EFA050754DA08327C4FD98478E
:105810008327C4FD9C4B86073E97832744FE86075B
:105820003E86BA85032584FDEFA01073832744FECE
:105830008607032784FDB306F7008327C4FD8C4742
:10584000832744FD9843832744FEB307F740860728
:105850003E863685EFA0507089A88327C4FD9847FF
:105860008327C4FD9C4B8A073E97832744FE8A0703
:105870003E86BA85032584FDEFA0106E832744FE83
:105880008A07032784FDB306F7008327C4FD8C47EE
:10589000832744FD9843832744FEB307F7408A07D4
:1058A0003E863685EFA0506B0100832704FDB5E7E7
:1058B0008327C4FD83C70700858B93F7F70F89C73C
:1058C00089472326F4FE91A88327C4FD83C70700D8
:1058D00093E7170013F7F70F8327C4FD2380E70032
:1058E000832744FD9C43BE850325C4FDEFF04FFC98
:1058F0008327C4FDD84B832744FD9C433E978327D1
:10590000C4FDD8CB8327C4FD83C70700F99B13F7D9
:10591000F70F8327C4FD2380E7008327C4FD83C7D7
:105920000700918B13F7F70F8327C4FD2380E7004F
:105930008327C4FE3E85B25022544561828079712E
:1059400006D622D40018232EA4FC232CB4FC232A30
:10595000C4FC2328D4FC8327C4FDB337F00093F79D
:10596000F70F3E8713068021D1679385071D3A857F
:10597000EFF0EFCC232604FE832744FD89E78D4713
:105980002326F4FE89A08327C4FD032744FD98C77E
:105990008327C4FD238007008327C4FD032784FDDC
:1059A000D8C38327C4FD23A607008327C4FD23A8EB
:1059B00007008327C4FD032704FDD8CB8327C4FD3C
:1059C000032704FD98CF8327C4FE3E85B25022549E
:1059D00045618280397106DE22DC80002326A4FC2A
:1059E0002324B4FC8327C4FCB337F00093F7F70FEC
:1059F0003E8713060008D167938587233A85EFF029
:105A00000FC4A30704FE232404FE8327C4FCE1CBB8
:105A1000832784FC63D307028327C4FC1387170002
:105A20002326E4FC1307D0022380E700832784FCAD
:105A3000B307F0402324F4FCB9A8832784FCA1EF2A
:105A40008327C4FC130700032380E70051A8032722
:105A500084FCA947B367F7022324F4FE832784FE5E
:105A600013D7F741832784FEB98F998F0347F4FE3C
:105A700093061700A307D4FEBA8613F7F70F930710
:105A800004FFB6972384E7FE032784FCA947B347A6
:105A9000F7022324F4FC832784FCD5FB2DA883473D
:105AA000F4FEFD17130704FFBA9783C787FE938799
:105AB000070393F6F70F8327C4FC138717002326E9
:105AC000E4FC1397860161872380E7008347F4FE97
:105AD000FD17A307F4FE8347F4FEF1F311A00100C4
