:100000006F70405B1300000013000000130000003D
:100010001300000013000000130000001300000094
:100020001300000013000000130000001300000084
:08003000130000007300100032
:100038000000000000000000547400006474000018
:1000480000000000FA74000000000000000000003A
:10005800FC740000FE7400000000000000000000B6
:10006800007500000000000002750000000000009C
:100078000475000006750000087500000A75000088
:100088000C7500000E7500001E670000D2670000A6
:10009800866800003A690000EE6900001A750000E1
:1000A8001C7500001E7500002075000022750000F8
:1000B8002475000026750000287500002A750000C8
:1000C8002C7500002E75000030750000A26A000033
:1000D80034750000EC6C0000387500003A750000BB
:1000E800AC6D0000646E0000246F000042750000D3
:1000F8004475000046750000487500004A75000008
:100108004C7500002A600000EE600000B26100003B
:10011800BA6B000056750000587500005A7500004B
:100128001C7200005E7500006075000062750000BA
:100138006475000066750000E46F00006A750000D1
:100148007A6200003E630000A47000005C71000049
:100158007475000076750000787500007A750000E7
:100168007C7500007E7500008075000082750000B7
:10017800847500008675000088750000AE94000044
:100188008C7500008E7500004E660000006400004B
:10019800C46400008E65000098750000DC720000E1
:1001A8009C7500009E750000A07500009C730000FF
:1001B800A4750000A6750000A8750000AA750000C7
:1001C800AC750000AE750000B0750000B275000097
:1001D8000000000000000000000000000000000017
:1001E8000000000000000000000000000000000007
:0801F8000000000000000000FF
:100200003D432A876373C3029377F700BDEFADE5E3
:10021000937606FF3D8ABA960CC34CC30CC74CC7F5
:100220004107E36BD7FE11E28280B306C3408A0622
:100230009702000096966780A6002307B700A306E2
:10024000B7002306B700A305B7002305B700A30432
:10025000B7002304B700A303B7002303B700A3022A
:10026000B7002302B700A301B7002301B700A30022
:10027000B7002300B700828093F5F50F93968500B1
:10028000D58D93960501D58D61B79396270097027A
:10029000000096968682E78086FA9680C1171D8FA9
:1002A0003E96E374C3F8A5B7011122CE00102326B1
:1002B000A4FE37F500E08328450037F500E093F809
:1002C000E8FF2322150183A801820965130505F4BF
:1002D00033D5A802AA8601470325C4FEAA87014890
:1002E00037F500E03303F702B308D8029A98338356
:1002F000F60233B6F6029A85B387C8003E860CC96B
:1003000050C9B7F700E09843B7F700E0136707015B
:1003100098C3B7F700E09843B7F700E013671702F8
:1003200098C30100B7F700E0DC4313F717008547D7
:10033000E31AF7FEB7F700E09843B7F700E0799BC0
:1003400098C30100724405618280011122CE001021
:100350002326A4FE37F500E08328450037F500E0AA
:1003600093F8E8FF2322150183A8018237157A004C
:100370001305052033D5A802AA8601470325C4FE2C
:10038000AA87014837F500E03303F702B308D80223
:100390009A983383F60233B6F6029A85B387C8007B
:1003A0003E860CC950C9B7F700E09843B7F700E0A4
:1003B0001367070198C3B7F700E09843B7F700E069
:1003C0001367170298C30100B7F700E0DC4313F787
:1003D00017008547E31AF7FEB7F700E09843B7F731
:1003E00000E0799B98C3010072440561828001118D
:1003F00006CE22CC0010AA8E2E8E32833685BA8588
:100400003E86C2864687F687A307F4FEF287230757
:10041000F4FE9A87A306F4FEAA872306F4FEAE87AD
:10042000A305F4FEB2872305F4FEB687A304F4FE09
:10043000BA872304F4FE8347F4FE93068004014642
:1004400081453E8535238347E4FE930680040146BB
:1004500081453E85312B8347D4FE930680040146B7
:1004600081453E8531238347C4FE930680040146BF
:1004700081453E85F5298347B4FE930680040146F5
:1004800081453E85F5218347A4FE930680040146FD
:1004900081453E85F129834794FE930680040146F9
:1004A00081453E85F121834784FE93068004014601
:1004B00081453E85752983474400930680040146A3
:1004C00081453E85752183470400930680040146DB
:1004D00081453E8571298347840093068004014647
:1004E00081453E8571210100F240624405618280B0
:1004F000011106CE22CC00102326A4FE2324B4FE34
:10050000B28736872313F4FEBA872312F4FE85459B
:100510000965EF703009B707055083C7070013F767
:10052000F70FB70705501377F7FC1377F70F238002
:10053000E700B707055083C7070013F7F70FB707A2
:100540000550136727041377F70F2380E700B707D9
:10055000055083C7170013F7F70FB7070550659BC2
:100560001377F70FA380E700B7070550035744FE42
:100570002392E700B7070550035764FE2393E70073
:10058000B70705500327C4FE98C7B70705500327D0
:1005900084FED8C7B707055083C7170013F7F70FB6
:1005A000B70705501377F7031377F70FA380E7001A
:1005B00037070550B7070550034717001377F70FA4
:1005C000A380E700B707055083C7270013F7F70F8D
:1005D000B7070550136747001377F70F2381E7002C
:1005E000B707055083C7170013F7F70FB707055074
:1005F000136717001377F70FA380E700B7070550BD
:1006000083C7070013F7F70FB707055013671700E5
:100610001377F70F2380E7008D4513056005EF5032
:10062000D01613056005EF5090120100F2406244AD
:1006300005618280397106DE22DC80002326A4FC5D
:100640002324B4FC2322C4FC232604FE9145032565
:10065000C4FCEF109007AA873E871306100DD167E0
:10066000938587CC3A85EF40100E8327C4FC1397FF
:10067000C700832784FC7D8F8327C4FCB207B307A0
:10068000F74093B7170093F7F70F3E871306200D37
:10069000D167938587CC3A85EF40F00A8327C4FC65
:1006A0001397C700832744FC7D8F8327C4FCB207C0
:1006B000B307F74093B7170093F7F70F3E8713067A
:1006C000300DD167938587CC3A85EF40D00703255D
:1006D000C4FCEF10F005832784FC93F7F70F930613
:1006E0008004014681453E856124832744FC93F7BD
:1006F000F70F93068004014681453E85952C83279C
:1007000084FC13F7F70FB7070020938607048327AD
:10071000C4FCB6972380E7000327C4FCA54763E029
:10072000E7088327C4FC13972700D1679387472DD9
:10073000BA979C438287B7370140938707C0232429
:10074000F4FE8DA0B70700402324F4FEA1A8B7074C
:100750000040938707402324F4FEA9A0B717004068
:10076000938707802324F4FE35A8B71700409387AA
:1007700007C02324F4FE3DA0B7370140938707400C
:100780002324F4FE05A0B7570140938707C0232414
:10079000F4FE09A8B75701402324F4FE21A08547A1
:1007A0002326F4FE85450545EF702064832784FCED
:1007B00013D787008D47631AF7008545B7071600E2
:1007C0001385070CEF702015E5A8832784FC13D749
:1007D0008700C547631AF7008545B70718001385DA
:1007E0000710EF704013E9A8832784FC13D7870014
:1007F00093072002631AF7008545B7171A0013857F
:100800000780EF7040116DA8832784FC13D7870001
:1008100093073002631AF7008545B7171A0013854E
:1008200007C0EF70400F69A8832784FC13D78700A7
:10083000930710036317F70085450565EF70A00D5A
:1008400041A0832784FC13D7870093071007631AFE
:10085000F7008545B707008013854700EF70A00BB0
:1008600085A0832784FC13D7870093073008631A79
:10087000F7008545B707138013850701EF70A009BE
:1008800081A0832784FC13D7870093071009631A7C
:10089000F7008545B707158013850702EF70A0079D
:1008A00005A0832784FC13D78700930730096319B9
:1008B000F7008545B707158013850704EF70A0057D
:1008C0008327C4FEA5E3232E04FC232004FE231269
:1008D00004FE9307C4FD3E85EF800004231E04FC44
:1008E000FD572310F4FE231104FE231F04FC2302F2
:1008F00004FE9307C4FDBE85032584FEEF70E07CF3
:1009000093050006032584FEEF8040109D460146B6
:100910008145032584FEEF80C0138545032584FEB1
:10092000EF8040030100F250625421618280011186
:1009300022CE00102326A4FE8327C4FE958313F73E
:100940007700B70700200A079387C704BA979C432C
:100950009C470327C4FE7D8B85463397E600F98FBD
:10096000B337F00093F7F70F3E857244056182803C
:10097000797106D622D40018232EA4FC232CB4FCB3
:10098000B2872328D4FCA30BF4FC232004FE2322EB
:1009900004FE232404FE8327C4FD958393F7F70FF9
:1009A0009D8BA307F4FE8327C4FD93F7F70FFD8B00
:1009B0002307F4FE8347F4FE91E785451145EF7068
:1009C000C04291A80347F4FE85476317F7008545A9
:1009D0002145EF70804181A00347F4FE89476317EA
:1009E000F70085454145EF70404035A00347F4FED0
:1009F0008D476318F700854513050002EF70E03E50
:100A000019A80347F4FE91476317F70085451305BE
:100A10000004EF70803D8347E4FE0547B317F700FD
:100A2000C207C1832310F4FE032784FD85476317A3
:100A3000F702832704FDC207C183A183C207C183D4
:100A400089E78D472322F4FE11A8832704FDC207FE
:100A5000C183A183C207C1832322F4FE832704FD3F
:100A6000C207C18393F7F70F2324F4FE0347F4FE74
:100A7000B70700200A079387C704BA979C43130758
:100A800004FEBA853E85EF60F042032784FD85476A
:100A90006319F7020347F4FEB70700200A0793879C
:100AA000C704BA9794438347E4FE0547B317F7009A
:100AB000C207C183034774FD3A86BE853685EF6061
:100AC00010620100B250225445618280797106D6CD
:100AD00022D40018232EA4FC232CB4FC032784FD6D
:100AE000896793871771B337F70093F7F70F3E873E
:100AF00013065003D167938507D23A85EF40A0448F
:100B0000B7370140938707C02326F4FE8327C4FD2F
:100B1000C183BD8B2547636EF70613972700D16706
:100B20009387C72FBA979C438287B7370140938733
:100B300007C02326F4FEB1A8B70700402326F4FE21
:100B400089A8B7070040938707402326F4FE91A0A9
:100B5000B7170040938707802326F4FE1DA8B71718
:100B60000040938707C02326F4FE25A0B737014035
:100B7000938707402326F4FE29A8B757014093879F
:100B800007C02326F4FE31A0B75701402326F4FE08
:100B900001008327C4FE83D7C7022315F4FE035741
:100BA000A4FE832784FD3307F702896793870771C3
:100BB000B357F7022314F4FE8327C4FDA1838D8B62
:100BC00081EB8327C4FE035784FE239AE702A9A87A
:100BD0008327C4FDA18313F7370085476319F70006
:100BE0008327C4FE035784FE239CE70235A883278E
:100BF000C4FDA18313F7370089476319F7008327E2
:100C0000C4FE035784FE239EE70239A88327C4FD50
:100C1000A18313F737008D476318F7008327C4FEBD
:100C2000035784FE2390E7040100B250225445612B
:100C300082805D7186C6A2C48008232EA4FA232C6C
:100C4000B4FA232AC4FA8327C4FBC1838D453E85A9
:100C5000EF10A027AA873E871306D00AD167938595
:100C600007D23A85EF40202E032744FB89679387FC
:100C70001771B337F70093F7F70F3E871306F00AA3
:100C8000D167938507D23A85EF40E02B232E04FCF1
:100C9000232004FE231204FE232604FC232804FC44
:100CA000232A04FC232C04FC231504FE8327C4FB05
:100CB000C183BD8B3E85EF10A0278327C4FB93F72C
:100CC000F70F93068031014685453E8555318545B0
:100CD0000545EF708011B7370140938707C0232681
:100CE000F4FE8327C4FBC183BD8B2547636EF706E3
:100CF00013972700D16793874732BA979C4382871F
:100D0000B7370140938707C02326F4FEB1A8B70781
:100D100000402326F4FE89A8B707004093870740C8
:100D20002326F4FE91A0B71700409387078023265F
:100D3000F4FE1DA8B7170040938707C02326F4FED2
:100D400025A0B7370140938707402326F4FE29A842
:100D5000B7570140938707C02326F4FE31A0B75749
:100D600001402326F4FE01008327C4FB13D7C700EC
:100D70008D47631AF7008545B70716001385070CE2
:100D8000EF60703915AA8327C4FB13D7C700C54786
:100D9000631AF7008545B707180013850710EF6041
:100DA000903719AA8327C4FB13D7C700C947631A12
:100DB000F7008545B707180013850720EF60B035A9
:100DC000E5A88327C4FB13D7C700CD47631AF700F4
:100DD0008545B707180013850730EF60D033E9A8C1
:100DE0008327C4FB13D7C70093072002631AF700B9
:100DF0008545B7171A0013850780EF60D0316DA8BD
:100E00008327C4FB13D7C70093073002631AF70088
:100E10008545B7171A00138507C0EF60D02F69A862
:100E20008327C4FB13D7C700930710036317F7008A
:100E300085450565EF60302E41A08327C4FB13D79D
:100E4000C70093071007631AF7008545B7070080AE
:100E500013854700EF60302C85A08327C4FB13D790
:100E6000C70093073008631AF7008545B70713805A
:100E700013850701EF60302A81A08327C4FB13D7B5
:100E8000C70093071009631AF7008545B707158057
:100E900013850702EF60302805A08327C4FB13D712
:100EA000C700930730096319F7008545B707158018
:100EB00013850704EF60302603A70182832784FB94
:100EC000B357F702C1832315F4FE03A701828357AA
:100ED000A4FE8507BE86832784FBB387F602B3573B
:100EE000F7022314F4FE035784FE832744FB3307E1
:100EF000F702896793870771B357F7022313F4FE4C
:100F0000835784FEFD17C207C1832310F4FE835765
:100F1000A4FE231EF4FC231104FE231F04FC230261
:100F200004FE9307C4FDBE850325C4FEEF70E019DF
:100F3000930700072316F4FC85472317F4FC2318B6
:100F400004FC835764FE2319F4FC8947231AF4FC3C
:100F50008947231BF4FC231C04FC231D04FC83276A
:100F6000C4FBA1838D8B9DE39307C4FCBE85032541
:100F7000C4FEEF70602DA1450325C4FEEF70103A4A
:100F800091450325C4FEEF70304E45A08327C4FB76
:100F9000A18313F7370085476315F7029307C4FC55
:100FA000BE850325C4FEEF70E043A1450325C4FEC2
:100FB000EF70903B930500400325C4FEEF70904F07
:100FC000ADA08327C4FBA18313F7370089476314BF
:100FD000F7029307C4FCBE850325C4FEEF70A05E34
:100FE000A1450325C4FEEF70D03D91450325C4FE05
:100FF000EF70B0511DA88327C4FBA18313F73700FE
:101000008D476314F7029307C4FCBE850325C4FE15
:10101000EF702079A1450325C4FEEF70503F930582
:1010200000400325C4FEEF70105385450325C4FE20
:10103000EF70D01785450325C4FEEF70B011010095
:10104000B640264461618280797106D622D40018A8
:10105000232EA4FC8327C4FDB337F00093F7F70FCA
:101060003E8713061004D167938547D73A85EF3042
:10107000906D8327C4FD9C43BD8B0547B317F700D4
:1010800093960701C1828327C4FD9C4313D7570061
:10109000B70700200A079387C704BA979C4336878F
:1010A00098CB8327C4FDDC43BD8B0547B317F700FE
:1010B00093960701C1828327C4FDDC4313D75700F1
:1010C000B70700200A079387C704BA979C4336875F
:1010D00098CB8327C4FDDC472326F4FE0100832739
:1010E000C4FE1387F7FF2326E4FEF5FB8327C4FD28
:1010F000DC43BD8B0547B317F70093960701C18208
:101100008327C4FDDC4313D75700B70700200A0725
:101110009387C704BA979C433687D8CB8327C4FDEF
:10112000DC472324F4FE0100832784FE1387F7FFA6
:101130002324E4FEF5FB8327C4FD9C43BD8B0547B8
:10114000B317F70093960701C1828327C4FD9C4320
:1011500013D75700B70700200A079387C704BA9729
:101160009C433687D8CB0100B2502254456182801F
:10117000797106D622D40018232EA4FC8327C4FD3F
:10118000B337F00093F7F70F3E8713064005D1679A
:10119000938547D73A85EF30105B8327C4FDDC4346
:1011A000BD8B0547B317F70093960701C1828327CC
:1011B000C4FDDC4313D75700B70700200A07938705
:1011C000C704BA979C433687D8CB8327C4FD9C437A
:1011D000BD8B0547B317F70093960701C18283279C
:1011E000C4FD9C4313D75700B70700200A07938715
:1011F000C704BA979C433687D8CB8327C4FDDC4706
:101200002326F4FE01008327C4FE1387F7FF23265D
:10121000E4FEF5FB8327C4FD9C43BD8B0547B31754
:10122000F70093960701C1828327C4FD9C4313D71F
:101230005700B70700200A079387C704BA979C4353
:10124000368798CB8327C4FDDC472324F4FE0100B6
:10125000832784FE1387F7FF2324E4FEF5FB83270F
:10126000C4FDDC43BD8B0547B317F7009396070118
:10127000C1828327C4FDDC4313D75700B707002082
:101280000A079387C704BA979C43368798CB83276E
:10129000C4FDDC472322F4FE0100832744FE1387AC
:1012A000F7FF2322E4FEF5FB0100B2502254456112
:1012B0008280797106D622D40018232EA4FCAE8732
:1012C000A30DF4FC8327C4FDB337F00093F7F70FA9
:1012D0003E8713069006D167938547D73A85EF304E
:1012E00090468327C4FD9C43BD8B0547B317F70089
:1012F00093960701C1828327C4FD9C4313D75700EF
:10130000B70700200A079387C704BA979C4336871C
:10131000D8CB8347B4FD95CB8327C4FDDC43BD8B7D
:101320000547B317F70093960701C1828327C4FDD1
:10133000DC4313D75700B70700200A079387C70479
:10134000BA979C43368798CB0DA88327C4FDDC430E
:10135000BD8B0547B317F70093960701C18283271A
:10136000C4FDDC4313D75700B70700200A07938753
:10137000C704BA979C433687D8CB8327C4FDDC4784
:101380002326F4FE01008327C4FE1387F7FF2326DC
:10139000E4FEF5FB8327C4FD9C43BD8B0547B317D3
:1013A000F70093960701C1828327C4FD9C4313D79E
:1013B0005700B70700200A079387C704BA979C43D2
:1013C000368798CB8327C4FDDC472324F4FE010035
:1013D000832784FE1387F7FF2324E4FEF5FB83278E
:1013E000C4FD9C43BD8B0547B317F70093960701D7
:1013F000C1828327C4FD9C4313D75700B707002041
:101400000A079387C704BA979C433687D8CB8327AC
:10141000C4FDDC43BD8B0547B317F7009396070166
:10142000C1828327C4FDDC4313D75700B7070020D0
:101430000A079387C704BA979C43368798CB010065
:10144000B250225445618280797106D622D40018A8
:10145000232EA4FC8327C4FDB337F00093F7F70FC6
:101460003E8713065008D167938547D73A85EF30FA
:10147000902DA30704FE8327C4FD9C43BD8B054725
:10148000B317F70093960701C1828327C4FD9C43DD
:1014900013D75700B70700200A079387C704BA97E6
:1014A0009C433687D8CB8327C4FDDC43BD8B0547DF
:1014B000B317F70093960701C1828327C4FDDC436D
:1014C00013D75700B70700200A079387C704BA97B6
:1014D0009C43368798CB8327C4FDDC472324F4FE46
:1014E0000100832784FE1387F7FF2324E4FEF5FB26
:1014F0008327C4FD9C43BD8B0547B317F700939624
:101500000701C1828327C4FD9C4313D75700B70747
:1015100000200A079387C704BA979C43368798CB65
:101520008327C4FDDC472322F4FE0100832744FE09
:101530001387F7FF2322E4FEF5FB8327C4FDDC437A
:101540003E85EFF0CFBEAA8781C78547A307F4FE8B
:101550008327C4FD9C43BD8B0547B317F7009396C3
:101560000701C1828327C4FD9C4313D75700B707E7
:1015700000200A079387C704BA979C433687D8CBC5
:101580008327C4FDDC472320F4FE0100832704FEEB
:101590001387F7FF2320E4FEF5FB8347F4FE3E8527
:1015A000B250225445618280797106D622D4001847
:1015B000232EA4FCAE87A30DF4FC8327C4FDB33710
:1015C000F00093F7F70F3E871306700AD1679385F3
:1015D00047D73A85EF303017930700F8A307F4FE9A
:1015E00009AA0347B4FD8347F4FEF98F93F7F70F79
:1015F00095CB8327C4FDDC43BD8B0547B317F700AC
:1016000093960701C1828327C4FDDC4313D757009B
:10161000B70700200A079387C704BA979C43368709
:1016200098CB0DA88327C4FDDC43BD8B0547B317BA
:10163000F70093960701C1828327C4FDDC4313D7CB
:101640005700B70700200A079387C704BA979C433F
:101650003687D8CB8347F4FE8583A307F4FE832720
:10166000C4FDDC472324F4FE0100832784FE138796
:10167000F7FF2324E4FEF5FB8327C4FD9C43BD8BC9
:101680000547B317F70093960701C1828327C4FD6E
:101690009C4313D75700B70700200A079387C70456
:1016A000BA979C43368798CB8327C4FDDC47232217
:1016B000F4FE0100832744FE1387F7FF2322E4FE94
:1016C000F5FB8327C4FD9C43BD8B0547B317F7008B
:1016D00093960701C1828327C4FD9C4313D757000B
:1016E000B70700200A079387C704BA979C43368739
:1016F000D8CB8347F4FEE39607EE0325C4FDA93358
:10170000AA87FD17B337F00093F7F70F3E85B25065
:10171000225445618280397106DE22DC26DA80009F
:101720002326A4FCAE87A305F4FC8327C4FCB337AF
:10173000F00093F7F70F3E871306000CD1679385EF
:1017400047D73A85EF303000A30704FEA1472307AF
:10175000F4FE8327C4FC9C43BD8B0547B317F700F9
:1017600093960701C1828327C4FC9C4313D757007B
:10177000B70700200A079387C704BA979C433687A8
:10178000D8CB8327C4FCDC472324F4FE0100832745
:1017900084FE1387F7FF2324E4FEF5FB8327C4FCB4
:1017A000DC43BD8B0547B317F70093960701C18251
:1017B0008327C4FCDC4313D75700B70700200A0770
:1017C0009387C704BA979C43368798CB7DA8832715
:1017D000C4FC9C43BD8B0547B317F70093960701E4
:1017E000C1828327C4FC9C4313D75700B70700204E
:1017F0000A079387C704BA979C433687D8CB8327B9
:10180000C4FCDC472322F4FE0100832744FE138737
:10181000F7FF2322E4FEF5FB8327C4FC9C43BD8B2A
:101820000547B317F70093960701C1828327C4FCCD
:101830009C4313D75700B70700200A079387C704B4
:10184000BA979C43368798CB8327C4FCDC47232078
:10185000F4FE0100832704FE1387F7FF2320E4FE34
:10186000F5FB8347F4FE860793948701E184832781
:10187000C4FCDC433E85EFF08F8BAA87E207E1874B
:10188000C58FE207E187A307F4FE8347E4FE1387D1
:10189000F7FF2307E4FE85FF8327C4FC9C43BD8B31
:1018A0000547B317F70093960701C1828327C4FC4D
:1018B0009C4313D75700B70700200A079387C70434
:1018C000BA979C433687D8CB8327C4FCDC47232EAA
:1018D000F4FC01008327C4FD1387F7FF232EE4FCEB
:1018E000F5FB8347B4FCBE850325C4FCD93283478E
:1018F000F4FE3E85F2506254D2542161828001117F
:1019000006CE22CC00102326A4FEAE873287A30584
:10191000F4FEBA872305F4FE8327C4FEB337F00034
:1019200093F7F70F3E8713062029D167938547D792
:101930003A85EF3040610325C4FEEFF0EFF08327D6
:10194000C4FE83C78700860793F7F70FBE8503257C
:10195000C4FE99398347B4FEBE850325C4FEA93170
:101960008347A4FEBE850325C4FE3D390325C4FE7E
:10197000EFF01F800100F2406244056182807971BE
:1019800006D622D40018232EA4FCAE87A30DF4FCA7
:101990008327C4FDB337F00093F7F70F3E87130694
:1019A000402AD167938547D73A85EF30C059A307BE
:1019B00004FE0325C4FDEFF02FE98327C4FD83C790
:1019C0008700860793F7F70FBE850325C4FDE93E20
:1019D0008347B4FDBE850325C4FDF9360325C4FD48
:1019E000EFF00FF90325C4FDEFF00FE68327C4FDE8
:1019F00083C787008607E207E18793E71700E207BE
:101A0000E18793F7F70FBE850325C4FD713E854539
:101A10000325C4FD0933AA87A307F4FE0325C4FDEB
:101A2000EFF00FF58347F4FE3E85B2502254456136
:101A30008280797106D622D400182326A4FEAE87B0
:101A40002322C4FE2320D4FE232EE4FCA305F4FEAF
:101A50008327C4FEB337F00093F7F70F3E871306D2
:101A6000F02BD167938547D73A85EF30C04D0327D8
:101A700004FE8327C4FDB307F740B337F00093F7A4
:101A8000F70F3E871306002CD167938547D73A8519
:101A9000EF30604B8327C4FE032704FE98C38327DF
:101AA000C4FE0327C4FDD8C38327C4FE0347B4FE86
:101AB0002384E7008327C4FE032744FED8C7C1461A
:101AC00005468545032504FEEFE09FEAD14605461D
:101AD00085450325C4FDEFE0BFE90100B250225463
:101AE00045618280011122CE00102326A4FEAE871C
:101AF000A305F4FED1670327C4FE0A079387C73402
:101B0000BA979C433E878347B4FEC207C18323161E
:101B1000F7000100D1670327C4FE0A079387C73483
:101B2000BA979C4383D78700C207C18393F70708FE
:101B3000F5F3D1670327C4FE0A079387C734BA9722
:101B40009C4383D7C7000100724405618280011164
:101B500022CE00102326A4FEAE872315F4FE835761
:101B6000A4FEA183C207C18393F6F70FD1670327B1
:101B7000C4FE0A079387C734BA979C433E8793975E
:101B80000601C1832316F7000100D1670327C4FEB5
:101B90000A079387C734BA979C4383D78700C20745
:101BA000C18393F70708F5F38357A4FE93F6F70F65
:101BB000D1670327C4FE0A079387C734BA979C43AB
:101BC0003E8793970601C1832316F7000100D16772
:101BD0000327C4FE0A079387C734BA979C4383D769
:101BE0008700C207C18393F70708F5F30100724429
:101BF000056182805D7186C6A2C480082326A4FC8C
:101C00002324B4FC2322C4FC2320D4FC232EE4FA96
:101C1000232CF4FA232A04FBD1670327C4FC0A0708
:101C20009387C734BA979C433E85EF60802D8545E6
:101C30000545EF60801B032704FC93073012631DEA
:101C4000F7000327C4FB930750126317F70085457D
:101C50000545EF50504C25A0032704FC8967938766
:101C6000A714631EF7000327C4FB89679387C71473
:101C70006317F700854537152000EF50D0498327BB
:101C8000C4FC91E785450565EF60201625A0032774
:101C9000C4FC85476317F70085451165EF6040195F
:101CA00011A80327C4FC89476316F7008545216501
:101CB000EF600018832704FC93F7F70F9306803139
:101CC000054685453E85EFE0BFCA8327C4FB93F7F1
:101CD000F70F93068031054685453E85EFE05FC9E5
:101CE000032784FBC167F917630DF700832784FB83
:101CF00093F7F70F93068034054681453E85EFE064
:101D00003FC7032744FB9307F00F630DF7008327BA
:101D100044FB93F7F70F93060031014685453E8556
:101D2000EFE01FC5232E04FC232004FE232204FE23
:101D3000232404FE231604FE231E04FC93074010F4
:101D4000231FF4FC231004FE032784FC854763054E
:101D5000F702832784FC81CF032784FC8947630330
:101D6000F702032784FC8D476304F7020DA82311B3
:101D700004FE231204FE25A0231104FE854723122E
:101D8000F4FE31A889472311F4FE231204FE01A8B2
:101D900089472311F4FE85472312F4FE010023171F
:101DA00004FE03A70182832744FCB357F7022317DD
:101DB000F4FE03A70182832744FCB377F70291E77F
:101DC0008357E4FEFD172317F4FE0357E4FE930741
:101DD000F00763F7E700930780032317F4FE49A891
:101DE0000357E4FE9307F00363F7E700930700034C
:101DF0002317F4FEB5A80357E4FEFD4763F7E70099
:101E0000930780022317F4FEA5A00357E4FEBD4705
:101E100063F7E700930700022317F4FE91A8035726
:101E2000E4FE9D4763F6E700E1472317F4FE89A02F
:101E30000357E4FE8D4763F6E700C1472317F4FE1E
:101E400005A80357E4FE854763F6E700A14723177B
:101E5000F4FE39A88357E4FE81C7231704FE09A8BE
:101E600013067021D1679385C7DC0145EF30A00DC3
:101E70008357E4FE2314F4FE930700202313F4FE9B
:101E8000231504FE9D472316F4FED1670327C4FCE7
:101E90000A079387C734BA979C433E879307C4FDCC
:101EA000BE853A85EF60400DD1670327C4FC0A0761
:101EB0009387C734BA979C4385453E85EF60401BA6
:101EC0000100B640264461618280797122D60018F3
:101ED000232EA4FC232CB4FC8547A307F4FE032780
:101EE000C4FD0A079387C191BA979C4399EB0327D6
:101EF000C4FD0A079387C191BA97032784FD98C34D
:101F000015A00327C4FD0A079387C191BA979C4384
:101F1000032784FD6316F7008547A307F4FE19A085
:101F2000A30704FE8347F4FE3E8532544561828058
:101F3000011106CE22CC00102326A4FE8327C4FE66
:101F400081EB8545856713850780EF50106A6DA882
:101F50000327C4FE85476317F70085450545EF5005
:101F6000306D5DA00327C4FE89476317F7008545E0
:101F70000945EF50F06B49A80327C4FE8D4763174E
:101F8000F70085451145EF50B06ABDA80327C4FE90
:101F900091476317F70085452145EF507069ADA063
:101FA0000327C4FE95476317F70085454145EF5069
:101FB000306899A80327C4FE99476318F700854540
:101FC00013050002EF50D06681A00327C4FE9D4791
:101FD0006317F70085450965EF50306135A0032789
:101FE000C4FEA1476318F700854537050800EF5088
:101FF000D05F19A80327C4FEA5476317F7008545DE
:1020000037051000EF50705E0100F2406244056138
:102010008280797122D60018232EA4FCB7370140A4
:10202000938707C02326F4FE231504FE0327C4FD6F
:10203000A54763ECE7088327C4FD13972700D16702
:1020400093878735BA979C438287B7370140938738
:1020500007C02326F4FE95A8B70700402326F4FE08
:10206000ADA0B7070040938707402326F4FEB1A830
:10207000B7170040938707802326F4FEB9A0B7174F
:102080000040938707C02326F4FE81A0B7170040C5
:102090002326F4FE1DA8B717004093870740232688
:1020A000F4FE25A0B7370140938707402326F4FEAE
:1020B00029A8B7570140938707C02326F4FE31A013
:1020C000B75701402326F4FE01000327C4FD0A0789
:1020D00093874194BA9798438947631FF7008327F2
:1020E000C4FE83D747021397070141838D47B35737
:1020F000F7022315F4FE39A08327C4FE83D74702D5
:102100002315F4FE8357A4FE3E8532544561828038
:10211000797122D60018232EA4FCB737014093878B
:1021200007C02326F4FE0327C4FDA54763ECE70898
:102130008327C4FD13972700D16793870738BA9781
:102140009C438287B7370140938707C02326F4FE5C
:1021500095A8B70700402326F4FEADA0B7070040BE
:10216000938707402326F4FEB1A8B7170040938752
:1021700007802326F4FEB9A0B7170040938707C055
:102180002326F4FE81A0B71700402326F4FE1DA8E5
:10219000B7170040938707402326F4FE25A0B737E2
:1021A0000140938707402326F4FE29A8B757014032
:1021B000938707C02326F4FE31A0B757014023269A
:1021C000F4FE01008327C4FE23920702010032546B
:1021D00045618280011122CE00102326A4FEAE8725
:1021E000A305F4FE0100D1670327C4FE0A07938705
:1021F000873ABA979C4383D70700C207C18393F7F6
:102200000708F5D3D1670327C4FE0A079387873AE7
:10221000BA979C433E878347B4FEC207C18323120B
:10222000F7000100724405618280011106CE22CCC4
:1022300000102326A4FE2324B4FE2322C4FE8327F9
:1022400084FEB337F00093F7F70F3E8713061004B0
:10225000D167938507E23A85EF20F04E29A88327BE
:1022600084FE138717002324E4FE83C70700BE857E
:102270000325C4FE8537832744FE1387F7FF2322F7
:10228000E4FEF1FF0100F240624405618280011129
:1022900006CE22CC00102326A4FE2324B4FE8327DE
:1022A00084FEB337F00093F7F70F3E87130600055F
:1022B000D167938507E23A85EF20F04839A8832754
:1022C00084FE138717002324E4FE8387070093F717
:1022D000F70FBE850325C4FEF53D832784FE838763
:1022E0000700F1FF0100F2406244056182800111A4
:1022F00006CE22CC00102326A4FEAE87A305F4FE52
:10230000D1670327C4FE0A079387873ABA979C438D
:102310003E878347B4FE3E86930550523A85EF6070
:10232000105C138701858327C4FEBA9783C7070013
:1023300081453E85EF3070458347B4FE81CF1387DA
:1023400001858327C4FEBA9783C707003E85EF3017
:10235000104019A8138701858327C4FEBA9783C745
:1023600007003E85EF3090400100F2406244056175
:102370008280011122CE00102326A4FE2324B4FE65
:10238000D1670327C4FE0A079387873ABA979C430D
:1023900083D70700C207C18393F707028DC7D167B0
:1023A0000327C4FE0A079387873ABA979C4383D7CB
:1023B0004700C207C18313F7F70F832784FE2380EA
:1023C000E700854711A081473E8572440561828000
:1023D000797106D622D40018232EA4FC232CB4FC39
:1023E000232AC4FC2328D4FC032744FD832704FDAF
:1023F0003D8F8327C4FDB207F98F93B7170093F77A
:10240000F70F3E871306A00AD167938507E23A8546
:10241000EF207033832744FD13D78700832704FD03
:10242000A183B307F74093B7170093F7F70F3E87E1
:102430001306B00AD167938507E23A85EF20B030E2
:10244000832744FD93F7F70FE146014685453E8516
:10245000EFE00FD2832704FD93F7F70F9306800474
:10246000014681453E85EFE0AFD085450545EF50FB
:10247000D017032744FDC167FD17F98F0D671307B8
:1024800007386387E7200D67130707386369F70488
:102490000567130757166381E71605671307571675
:1024A000636FF7001307F022638AE70C13076030AD
:1024B0006381E710130760126388E70865A6096760
:1024C00013078736638BE7160D67130707126387B9
:1024D000E71809671307A7146380E71461A6156757
:1024E0001307A738638EE72615671307A7386362BB
:1024F000F7021167130787386380E7201567130712
:1025000087126385E722116713074712638CE71A66
:1025100091AE19671307C7386388E72A196713074D
:10252000C7386368F7001967130767106384E726E5
:1025300015AE1D671307E7106382E72C1D671307AD
:10254000E7386387E72E39AEB7070140D44FB707A6
:102550000140370700FC7D17758FD8CFB7070140C2
:10256000D843B70701406D9BD8C3B7070140D84394
:10257000B707014013674700D8C3EDA4B707014070
:10258000D44FB7070140370700FC7D17758FD8CFB0
:10259000B7070140D44FB707014037070004558FF4
:1025A000D8CFB7070140D843B70701406D9BD8C3C8
:1025B00055ACB7070140D44FB7070140370700FCBF
:1025C0007D17758FD8CFB7070140D44FB7070140AB
:1025D00037070004558FD8CFB7070140D843B70756
:1025E00001406D9BD8C3B7070140D843B7070140EE
:1025F00013674700D8C3BDA4B7070140D843B70746
:1026000001405D9BD8C3B7070140D843B7070140DD
:1026100013678700D8C3B9A4B7070140D843B707E9
:1026200001401377F7FCD8C3B7070140D843B70779
:10263000014013670701D8C335A4B7070140D84349
:10264000B70701401377F7FCD8C3B7070140D84359
:10265000B707014013670703D8C329A4B707014090
:10266000D44FB70701403707FDFF7D17758FD8CFCF
:10267000B7070140D44F832744FDA1831397070177
:10268000B70703007D8FB7070140558FD8CFD9AA70
:10269000B7070140D44FB70701403707FDFF7D174B
:1026A000758FD8CFB7070140D44F832744FDA1834E
:1026B00013970701B70703007D8FB7070140558FB8
:1026C000D8CF4DA2B7070140D44FB7070140370715
:1026D000F4FF7D17758FD8CFB7070140D44F8327FC
:1026E00044FDA18313972701B7070C007D8FB7071F
:1026F0000140558FD8CFBDA2B7070140D44FB707CF
:1027000001403707F4FF7D17758FD8CFB707014019
:10271000D44F832744FDA18313972701B7070C00EB
:102720007D8FB7070140558FD8CF2DAAB70701403D
:10273000D44FB70701403707D0FF7D17758FD8CF2B
:10274000B7070140D44F832744FDA1831397470166
:10275000B70730007D8FB7070140558FD8CF19A23A
:10276000B7070140D44FB70701403707D0FF7D17A7
:10277000758FD8CFB7070140D44F832744FDA1837D
:1027800013974701B70730007D8FB7070140558F7A
:10279000D8CFC9A8B7070140D44FB70701403707C2
:1027A00040FF7D17758FD8CFB7070140D44F8327DF
:1027B00044FDA18313976701B707C0007D8FB7075A
:1027C0000140558FD8CF79A8B7070140D44FB7073C
:1027D0000140370740FF7D17758FD8CFB7070140FD
:1027E000D44F832744FDA18313976701B707C00027
:1027F0007D8FB7070140558FD8CFADA0B7070140F7
:10280000D44FB7070140370700FD7D17758FD8CF2C
:10281000B7070140D44F832744FDA1831397870155
:10282000B70700037D8FB7070140558FD8CF1DA88C
:10283000B7070140D44FB7070140370700FD7D17A8
:10284000758FD8CFB7070140D44F832744FDA183AC
:1028500013978701B70700037D8FB7070140558F96
:10286000D8CF01008327C4FD91E785451165EF505E
:10287000C05769A80327C4FD85476318F70085453D
:1028800037050200EF50C05A51A00327C4FD894705
:102890006318F700854537050400EF506059BDA067
:1028A0000327C4FD8D476318F700854537050800E9
:1028B000EF500058A1A80327C4FD91476318F70003
:1028C000854537051000EF50A05689A00327C4FDA9
:1028D00095476318F700854513050004EF504055F0
:1028E00035A00327C4FD99476318F70085451305F4
:1028F0000008EF50E05319A80327C4FD9D47631754
:10290000F700854513050010EF508052232004FE88
:10291000232204FE232404FE232604FE832784FDB1
:102920002320F4FE231204FE231304FE231404FECA
:10293000231604FEB1472315F4FED1670327C4FD17
:102940000A079387873ABA979C433E87930704FE0A
:10295000BE853A85EF60604FD1670327C4FD0A0743
:102960009387873ABA979C4385453E85EF602071EF
:102970000100B250225445618280411106C622C432
:102980000008A1461386018681451385C196EF3064
:10299000800B0100B240224441018280411106C6F1
:1029A00022C4000883A7C1860547638BE7006388BC
:1029B000070C0947638DE7000D47638FE702E9A025
:1029C00083A781861387170023A4E18675A883A7B0
:1029D00081861387170023A4E18603A78186A54774
:1029E00063F1E70AB70700209387C7049C4B116780
:1029F000D8CB23A4018671A003A701878547631460
:102A0000F7081305F008EFD09FF2AA87ADC3194568
:102A1000EFF02FE0AA873E8783A781861D8F93075B
:102A2000600963F2E7061945EFF08FEE83A7818610
:102A3000D3F717D05385F720EFD03033D16703A6F3
:102A400087E783A6C7E7EFC0A077AA872E883E85D1
:102A5000C285EFD0501AAA87139707014183B707A1
:102A60000020239CE736094723A8E18629A81945B9
:102A7000EFF02FDAAA873E8723A4E18629A0010080
:102A800021A0010011A001000100B2402244410137
:102A90008280411106C622C4000883A7C186094767
:102AA000637CF7000D47639AE7001945EFF04FE6A6
:102AB000054723A8E18611A001000100B24022448D
:102AC00041018280011106CE22CC0010232204FE97
:102AD00083C75187638A070E09A8930734FE05460A
:102AE000BE8513858198EF20D017930734FEBE85ED
:102AF0001D45EFF01F88AA87EDF3034734FEA94771
:102B00006314F70C99472322F4FE130744FE93073E
:102B100084FE85463A86BE8513858198EF20B044B1
:102B2000930784FE138737000D46D167938507E826
:102B30003A85EFE0C06DAA879DEB03A7C18789475F
:102B4000630DF706054723AEE18613858198EF20D4
:102B5000807BAA872322F4FE930744FE81463E86AB
:102B6000938541A213858198EF20F03FB9A0930788
:102B700084FE138737000D46D167938547E83A8571
:102B8000EFE0E068AA8795EB03A781878947630692
:102B9000F702054723ACE18613858198EF20A076E4
:102BA000AA872322F4FE930744FE81463E8693853E
:102BB000419A13858198EF20103B13858198EF206F
:102BC00080640547238AE1860100F2406244056182
:102BD0008280397106DE22DC80002326A4FC854732
:102BE000A307F4FE231604FE232404FE232E04FC74
:102BF00083D781883E87930700236316F700A54794
:102C00002324F4FE29A0A1472324F4FE01008DA86B
:102C1000930750FA2300F4FE832784FE8A070327D4
:102C2000C4FCBA978397070093F7F70FA300F4FE4D
:102C3000832784FE8A070327C4FCBA97839727005B
:102C40002313F4FE835764FEA183C207C18393F765
:102C5000F70F2301F4FE835764FE93F7F70FA301E8
:102C6000F4FE930704FE1146BE851145EFF0EFDB3D
:102C70000945EFD06FE3832784FEFD172324F4FE7C
:102C8000032784FE9307E00FE3F4E7F81385C1966A
:102C9000EF2060672A87894763FFE7028D47232E6D
:102CA000F4FC1307C4FD930704FE81463A86BE85F3
:102CB0001385C196EF20302B034714FE9307F00FC6
:102CC0006308F700034724FE9307F00F6315F7002E
:102CD000A30704FE31A80545EFD00FDD8357C4FEDE
:102CE000138717002316E4FE1307F007E370F7FAC3
:102CF0008347F4FE3E85F25062542161828039712F
:102D000006DE22DC80002326A4FCA30704FE231693
:102D100004FE232404FE232E04FC83D781883E87EF
:102D2000930700236316F700A5472324F4FE29A088
:102D3000A1472324F4FE0100832784FEFD172324EA
:102D4000F4FE29A203D781889307F02263EDE70000
:102D5000832784FE8A070327C4FCBA9703970700DA
:102D6000A547630FF70C930750FA2300F4FEC557ED
:102D7000A300F4FE832784FE8A070327C4FCBA97C6
:102D8000839707002313F4FE835764FEA183C207D1
:102D9000C18393F7F70F2301F4FE835764FE93F783
:102DA000F70FA301F4FE930704FE1146BE851145FB
:102DB000EFF0AFC7231604FE1385C196EF20A05491
:102DC0002A87894763F7E7048D47232EF4FC13070E
:102DD000C4FD930704FE81463A86BE851385C196DD
:102DE000EF207018834714FEA20793960701C1864F
:102DF000834724FE139707014187832784FE8A07B0
:102E00000326C4FCB297558F420741872391E70000
:102E100031A80545EFD04FC98357C4FE138717006B
:102E20002316E4FE1307F007E378F7F80357C4FE10
:102E30009307000863F7E7008547A307F4FE19A886
:102E40000100832784FEFD172324F4FE832784FEDC
:102E5000E39A07EE8347F4FE3E85F2506254216107
:102E60008280011106CE22CC0010A30704FE930736
:102E7000F4FEBE851145EFF0CFCF0347F4FE930774
:102E8000500A6316F7001385C196EF20C0378347B9
:102E9000F4FEBE851385C196EF20204B0100F24061
:102EA000624405618280411122C6000805472380E3
:102EB000E1880100324441018280011106CE22CC1A
:102EC0000010231704FE231604FE232004FE93079C
:102ED00050FA2302F4FEC557A302F4FE9307200F15
:102EE0002315F4FE8357A4FEA183C207C18393F781
:102EF000F70F2303F4FE8357A4FE93F7F70FA30302
:102F0000F4FE930744FE1146BE851145EFF0EFB184
:102F10001385C196EF20203F2A87894763F0E70495
:102F20008D472320F4FE130704FE930744FE8146D9
:102F30003A86BE851385C196EF20F002834754FE82
:102F4000A207139707014187834764FEC207C18721
:102F5000D98FC207C1872316F4FE31A80545EFD0EB
:102F6000AFB48357E4FE138717002317E4FE13075B
:102F7000F007E37FF7F88357C4FE3E85F2406244D2
:102F800005618280797106D622D40018AA87231F92
:102F9000F4FCA30704FE83A74188E9EB231504FE94
:102FA000232004FE930750FA2302F4FEC157A30224
:102FB000F4FE8357E4FD2316F4FE8357C4FEA18379
:102FC000C207C18393F7F70F2303F4FE8357C4FEB0
:102FD00093F7F70FA303F4FE930744FE1146BE8553
:102FE0001145EFF08FA41385C196EF20C0312A87D9
:102FF000894763F0E7048D472320F4FE130704FE9E
:10300000930744FE81463A86BE851385C196EF201C
:103010008075834754FEA2071397070141878347B2
:1030200064FEC207C187D98FC207C1872316F4FE89
:1030300031A80545EFD04FA78357A4FE138717008B
:103040002315E4FE1307F007E37FF7F80357C4FEE8
:103050008357E4FD6318F7000357A4FE9307F007B6
:1030600063FEE7008547A307F4FE09A88357E4FD44
:103070003E85EFA0904EAA87A307F4FE8347F4FE97
:103080003E85B250225445618280397106DE22DCD1
:103090008000A30704FE054723A2E1889307C4FD2F
:1030A0001307C004930620061306401F81453E8582
:1030B000EFE03F981305800CEFD00F9F1307C4FD7E
:1030C000B7070020938507063A85EFA0E068AA8736
:1030D000638A070C23A2018891679386270691676C
:1030E0001386C7048967938507581145EFF04FAEE3
:1030F00085451145EFF0AF9F1305800CEFD0CF9AB7
:10310000B7370000138667EAB7370000938527E6D4
:103110000D45EF10604BEFF05F864533AA873E8781
:103120002394E188B707002013850706EFF07FAAF4
:10313000AA878DCB9306701BD167138607F7D167DB
:103140009385C7FC0145EF10906601468145014516
:10315000EF10804781451145EFF06F998547A30730
:10316000F4FE89A0B707002013858708EFF03FB968
:10317000AA878DCB9306401CD167138607F7D167CA
:10318000938587FE0145EF10906201468145014518
:10319000EF10804381451145EFF06F958547A307F8
:1031A000F4FE0100B7370000138667EAB737000066
:1031B000938527E60D45EF10204191473EC4954782
:1031C0003EC299473EC093089002130880029307BD
:1031D00060021307B0049306900413068004A94507
:1031E0002545EFD0CFA08546996713860782814594
:1031F000B70700201385C761EFD08FAF8347F4FE78
:103200003E85F250625421618280011106CE22CCAB
:103210000010AA87A307F4FEB70700209387C7040E
:10322000DC4713070008D8CB8347F4FEBE8505456D
:10323000EFE05F8BB70700209387C704DC471307D5
:10324000000898CB0100F2406244056182800111C0
:1032500006CE22CC0010AA8736872317F4FEAE874D
:103260002316F4FEB2872315F4FEBA872314F4FE66
:1032700083C7C180C207C1830357E4FEB337F70099
:1032800093F7F70F3E871306A008D1679385870051
:103290003A85EF10504B83C7D180C207C1830357D3
:1032A000C4FEB337F70093F7F70F3E871306B00855
:1032B000D167938587003A85EF10F04883C7C180B6
:1032C000C207C1830357A4FEB337F70093F7F70F84
:1032D0003E871306C008D167938587003A85EF10B3
:1032E000904683C7D180C207C183035784FEB3379A
:1032F000F70093F7F70F3E871306D008D167938541
:1033000087003A85EF10304483A7C188054763766C
:10331000F7000D476369F71061A01305A002F535AA
:1033200081450545EFE00FFC8357E4FE93F7F70F67
:10333000890793F7F70FBE850545EFE0AFFA8145A2
:103340000545EFE02FFA8357A4FE93F7F70F89079F
:1033500093F7F70FBE850545EFE0CFF81305B002F0
:103360006D3581450545EFE0EFF78357C4FE93F7D0
:10337000F70F850793F7F70FBE850545EFE08FF64A
:1033800081450545EFE00FF6835784FE93F7F70F6D
:10339000850793F7F70FBE850545EFE0AFF461A011
:1033A0001305A0029D3581450545EFE0AFF3835736
:1033B000E4FE93F7F70F850793F7F70FBE850545F2
:1033C000EFE04FF281450545EFE0CFF18357A4FED2
:1033D00093F7F70F850793F7F70FBE850545EFE0E5
:1033E0006FF01305B002153581450545EFE08FEF0D
:1033F0008357C4FE93F7F70F890793F7F70FBE853E
:103400000545EFE02FEE81450545EFE0AFED835731
:1034100084FE93F7F70F890793F7F70FBE850545ED
:10342000EFE04FEC01001305C002C5330100F2408C
:10343000624405618280797106D622D40018930710
:10344000C4FD3E85EF10903B8547231EF4FC83C7E7
:10345000C180C207C183231FF4FC83C7D180C20788
:10346000C1832310F4FE83A781800547638AE700A8
:1034700099EF99472301F4FEA147A301F4FE09A89F
:10348000A1472301F4FEC147A301F4FE11A00100EE
:10349000B7470000938747912324F4FEB737000015
:1034A0009387C74B2326F4FE9307C4FD3E85EF1098
:1034B000903A0100B250225445618280011106CE3B
:1034C00022CC001083C7C1803E8783C7D180B30759
:1034D000F7022326F4FEB70700209387C704DC47D2
:1034E0004147D8CB83C7C180C207C183FD1713975B
:1034F0000701418383C7D180C207C183FD17C2077B
:10350000C183BE863A8681450145EFF05FD431A87C
:10351000B707002083D7C737BE850545EFE02FE307
:103520008327C4FEFD172326F4FE8327C4FEEDF394
:10353000B70700209387C704DC47414798CB0100B9
:10354000F240624405618280797106D622D4001867
:10355000AA87231FF4FC83C7C1803E8783C7D1801D
:10356000B307F7022326F4FEB70700209387C704AA
:10357000DC474147D8CB83C7C180C207C183FD1751
:1035800013970701418383C7D180C207C183FD1709
:10359000C207C183BE863A8681450145EFF03FCB25
:1035A00021A88357E4FDBE850545EFE04FDA832768
:1035B000C4FEFD172326F4FE8327C4FEFDF3B707E0
:1035C00000209387C704DC47414798CB0100B250E5
:1035D000225445618280011122CE00102326A4FED0
:1035E0000327C4FE23A6E18883A7C1880547637625
:1035F000F7000D476365F70211A8130700F823864B
:10360000E180130700FAA386E18011A8130700FAEE
:103610002386E180130700F8A386E1800100010002
:10362000724405618280011122CE0010AA872E8784
:103630002317F4FEBA872316F4FEB70700200357BA
:10364000E4FE239DE736B70700200357C4FE239E00
:10365000E7360100724405618280797106D622D472
:103660000018AA87AE863287231FF4FCB687231E74
:10367000F4FCBA87A30DF4FC83C7C180C207C183E1
:103680000357E4FDB337F70093F7F70F3E871306B0
:103690009019D167938587003A85EF10D00A83C7C8
:1036A000D180C207C1830357C4FDB337F70093F736
:1036B000F70F3E871306A019D167938587003A85D7
:1036C000EF107008A30704FE230704FEB7070020CD
:1036D0009387C704DC474147D8CB83A78180054740
:1036E000638EE70C639B0720A30704FED1A08347EA
:1036F000F4FE1397070141838357E4FDBA971395AE
:10370000070141818347F4FE1397070141838357E3
:10371000E4FDBA971397070141838357C4FDA107BE
:1037200093960701C1828357C4FD3A86BE85EFF0A8
:103730001FB28307B4FD138707FE8346F4FE556668
:10374000BA878607BA9786071307869BBA97B697F4
:1037500083C70700A306F4FE230704FE81A0834766
:10376000D4FE858B91CBB707002083D7A737BE85C2
:103770000545EFE0CFBD09A8B707002083D7C737BD
:10378000BE850545EFE0AFBC8347D4FE8583A30625
:10379000F4FE8347E4FE85072307F4FE0347E4FEB7
:1037A0009D47E3FEE7FA8347F4FE8507A307F4FE8F
:1037B0000347F4FE9547E3FCE7F289A2A30704FE62
:1037C0003DA28347F4FE1397070141838357E4FD2D
:1037D000BA971395070141818347F4FE13970701B8
:1037E00041838357E4FDBA971397070141838357B9
:1037F000C4FDBD0793960701C1828357C4FD3A8675
:10380000BE85EFF0DFA48307B4FD938607FE8347F0
:10381000F4FE516792061307873C3697BA9783C721
:1038200007002306F4FE8307B4FD938607FE834753
:10383000F4FEA107516792061307873C3697BA97A3
:1038400083C70700A305F4FE230704FE81A0834776
:10385000C4FE858B91CBB707002083D7A737BE85E1
:103860000545EFE0CFAE09A8B707002083D7C737DB
:10387000BE850545EFE0AFAD8347C4FE85832306D3
:10388000F4FE8347E4FE85072307F4FE0347E4FEC6
:103890009D47E3FEE7FA230704FE81A08347B4FEB9
:1038A000858B91CBB707002083D7A737BE85054509
:1038B000EFE0EFA909A8B707002083D7C737BE8577
:1038C0000545EFE0CFA88347B4FE8583A305F4FE4A
:1038D0008347E4FE85072307F4FE0347E4FE9D4784
:1038E000E3FEE7FA8347F4FE8507A307F4FE0347E8
:1038F000F4FE9D47E3F7E7EC11A00100B7070020B5
:103900009387C704DC47414798CB0100B25022544B
:1039100045618280797106D622D40018AA872E8745
:10392000232CC4FC231FF4FCBA87231EF4FC83C79A
:10393000C180C207C1830357E4FDB337F70093F793
:10394000F70F3E871306D01ED167938587003A850F
:10395000EF10605F83C7D180C207C1830357C4FDE6
:10396000B337F70093F7F70F3E871306E01ED167D2
:10397000938587003A85EF10005D231704FE71A040
:1039800083A7818005476381E704B5EB0357E4FE15
:10399000BA878607BA97860713970701418383572B
:1039A000E4FDBA9793960701C1828357E4FE03278B
:1039B00084FDBA97038707008357C4FD3A86BE8506
:1039C0003685EFF09FC92DA88357E4FE8E07139725
:1039D000070141838357E4FDBA9793960701C1829B
:1039E0008357E4FE032784FDBA97038707008357B4
:1039F000C4FD3A86BE853685EFF03FC611A00100B2
:103A00008357E4FE85072317F4FE8357E4FE03275C
:103A100084FDBA9783870700A5F70100B2502254AE
:103A200045618280397106DE22DC8000AA8723246A
:103A3000C4FC36872317F4FCAE872316F4FCBA8740
:103A4000A303F4FC83C7C180C207C1830357E4FC0E
:103A5000B337F70093F7F70F3E871306B020D1670F
:103A6000938587003A85EF10004E83C7D180C20747
:103A7000C1830357C4FCB337F70093F7F70F3E87B2
:103A80001306C020D167938587003A85EF10A04BBD
:103A9000834774FCB337F00093F7F70F3E871306A4
:103AA000D020D167938587003A85EF10C0498347BE
:103AB00074FC93B7B70093F7F70F3E871306E02027
:103AC000D167938587003A85EF10E047832784FC10
:103AD0002326F4FE85472324F4FE9307C4FD3146D4
:103AE00081453E85EFC0CFF1834774FC85073E8753
:103AF0009307C4FD3A86930500023E85EFC04FF060
:103B0000034774FCA54763EBE70231A8032784FE53
:103B1000BA878A07BA9786072324F4FE834774FC82
:103B2000FD17A303F4FC834774FCEDF30327C4FEE5
:103B3000832784FEB367F7022326F4FE9307C4FDB0
:103B40008325C4FE3E85EF1070799306C4FD0357AC
:103B5000C4FC8357E4FC3686BA853E85EFF09FDBD4
:103B60000100F2506254216182805D7186C6A2C458
:103B7000A6C280082328C4FA232AD4FABA863E872C
:103B8000AA87231FF4FAAE87231EF4FAB687A30D83
:103B9000F4FABA87230DF4FA83C7C180C207C18340
:103BA0000357E4FBB337F70093F7F70F3E8713068D
:103BB000C025D167938587003A85EF10C03883C749
:103BC000D180C207C1830357C4FBB337F70093F713
:103BD000F70F3E871306D025D167938587003A8576
:103BE000EF1060368347B4FBB337F00093F7F70F5D
:103BF0003E871306E025D167938587003A85EF104D
:103C000080348347B4FB93B7970093F7F70F3E8751
:103C10001306F025D167938587003A85EF10A0320F
:103C20008347A4FBB337F00093F7F70F3E871306E3
:103C30000026D167938587003A85EF10C03083470F
:103C4000A4FB93B7770093F7F70F3E871306102670
:103C5000D167938587003A85EF10E02E832704FB18
:103C6000032844FB2320F4FE232204FFD16703A88A
:103C7000470683A707062324F4FE232604FF9307A1
:103C8000C4FC454681453E85EFC08FD70347B4FB52
:103C90008347A4FBBA9789073E879307C4FC3A86FB
:103CA000930500023E85EFC0AFD53DA0D16703A6C6
:103CB000870683A6C706032584FE8325C4FEEFB0CE
:103CC0002050AA872E882324F4FE232604FF83474E
:103CD000B4FBFD17A30DF4FA8347B4FBE1FB032506
:103CE00004FE832544FEEFC08063AA84032584FE7E
:103CF0008325C4FEEFC0A062AA87B3C7F4023E8545
:103D0000EFC04079AA872E88032684FE8326C4FE4E
:103D10003E85C285EFB0C04AAA872E883E86C286FD
:103D2000032504FE832544FEEFB0F02EAA872E88DB
:103D30002320F4FE232204FF0347A4FB9307C4FCC3
:103D4000BA86832504FE032644FE3E85EF10706A82
:103D50009306C4FC0357C4FB8357E4FB3686BA853D
:103D60003E85EFF03FBB0100B640264496446161BA
:103D700082805D7186C6A2C480082A8E2E83232489
:103D8000C4FC3685BA853E86C2864687F2872317ED
:103D9000F4FC9A872316F4FCAA872313F4FCAE875D
:103DA0002312F4FCB2872311F4FCB6872310F4FC31
:103DB000BA87A30FF4FA83C7C180C207C183035730
:103DC000E4FCB337F70093F7F70F3E871306B02BE9
:103DD000D167938587003A85EF10E01683C7D180BD
:103DE000C207C1830357C4FCB337F70093F7F70F3B
:103DF0003E871306C02BD167938587003A85EF1065
:103E00008014832784FCB337F00093F7F70F3E87C5
:103E10001306D02BD167938587003A85EF10A01247
:103E2000232604FE232404FE231304FE231204FE8F
:103E3000232004FE232E04FCB70700209387C70429
:103E4000DC474147D8CB0357E4FC835724FCBA979F
:103E5000C207C183FD171396070141820357C4FCB3
:103E6000835704FCBA97C207C183FD1793960701D5
:103E7000C1820357C4FC8357E4FCBA853E85EFF04A
:103E80000FBD232404FE19A2035744FC832784FE9C
:103E90003307F702835704FCB357F702232EF4FCD1
:103EA000232604FEC9A8035764FC8327C4FE3307F6
:103EB000F702835724FCB357F7022320F4FE03577D
:103EC00064FC8327C4FD3307F702832704FEBA97F7
:103ED000032784FCBA9783C707002312F4FE8347A5
:103EE000F4FBB5E3835744FE8D83C207C183AE075D
:103EF0002313F4FE835744FE8983C207C1839607C8
:103F0000C207C18793F7077E13970701418783177D
:103F100064FED98FC207C1872313F4FE835744FE82
:103F20008D83C207C183FD8B13970701418383579C
:103F300064FED98F2313F4FE835764FEBE850545C6
:103F4000EFD0FFC025A08347F4FBC207C18303570E
:103F500044FE6377F70081450545EFD05FBF39A088
:103F6000C1679385F7FF0545EFD07FBE8327C4FE69
:103F700085072326F4FE835724FC0327C4FEE3644D
:103F8000F7F2832784FE85072324F4FE835704FC7D
:103F9000032784FEE36AF7EEB70700209387C70480
:103FA000DC47414798CB0100B640264461618280DE
:103FB0005D7186C6A2C480082A8E2E832324C4FC89
:103FC0003685BA853E86C2864687F2872317F4FC7B
:103FD0009A872316F4FCAA872313F4FCAE872312D6
:103FE000F4FCB2872311F4FCB6872310F4FCBA87E3
:103FF000A30FF4FA83C7C180C207C1830357E4FC4F
:10400000B337F70093F7F70F3E871306602FD1679A
:10401000938587003A85EF00107383C7D180C2076C
:10402000C1830357C4FCB337F70093F7F70F3E87FC
:104030001306702FD167938587003A85EF00B07023
:10404000832784FCB337F00093F7F70F3E871306FE
:10405000802FD167938587003A85EF00D06E2326A5
:1040600004FE232404FE231304FE232004FE232E37
:1040700004FCB70700209387C704DC474147D8CB2F
:104080000357E4FC835724FCBA97C207C183FD178A
:104090001396070141820357C4FC835704FCBA9767
:1040A000C207C183FD1793960701C1820357C4FC61
:1040B0008357E4FCBA853E85EFF06F99232404FE14
:1040C00045A8035744FC832784FE3307F702835730
:1040D00004FCB357F702232EF4FC232604FEB5A8F4
:1040E000035764FC8327C4FE3307F702835724FC7D
:1040F000B357F7022320F4FE035764FC8327C4FD63
:104100003307F702832704FEBA978607032784FC48
:10411000BA9783D707002313F4FE8347F4FB9DC3AC
:10412000835764FEA207139707014187835764FEF4
:10413000A183C207C183C207C187D98FC207C187C4
:104140002313F4FE835764FEBE850545EFD03FA0E0
:104150008327C4FE85072326F4FE835724FC032708
:10416000C4FEE36FF7F6832784FE85072324F4FE5D
:10417000835704FC032784FEE365F7F4B7070020A8
:104180009387C704DC47414798CB0100B6402644DB
:1041900061618280411106C622C400081308F00F35
:1041A000C167F91705671307F70285669386D6027C
:1041B00037A64A041306062081450545EFD09FA384
:1041C000C1460146854513057006EFC06FFAC1462A
:1041D0000146854513057002EFC08FF9C1460546BB
:1041E000854513054006EFC0AFF8C1460546854535
:1041F00013050006EFC0CFF783A7C1883E85EFF017
:104200008FBDB707002003D7A737B707002083D794
:10421000C737BE853A85EFF00FC1B70700209387F7
:10422000C704DC4313070008D8CB2945EFC0CF876C
:10423000B70700209387C704DC431307000898CB17
:1042400013058007EFC04F86B70700209387C70488
:10425000DC474147D8CB4545EFE03FFB13058007DE
:10426000EFC08F841305100BEFE03FFA854505453D
:10427000EFD05F879305C0020545EFD0BF86930559
:10428000D0020545EFD01F861305200BEFE0FFF7A6
:1042900085450545EFD01F859305C0020545EFD044
:1042A0007F849305D0020545EFD0DF831305300BE3
:1042B000EFE0BFF585450545EFD0DF829305C002ED
:1042C0000545EFD03F829305D0020545EFD09F8191
:1042D00085450545EFD01F819305C0020545EFD008
:1042E0007F809305D0020545EFD0CFFF1305400B2B
:1042F000EFE0BFF19D450545EFD0CFFE1305000C63
:10430000EFE0BFF09305200A0545EFD0AFFD8945EA
:104310000545EFD02FFD930540080545EFD08FFCF4
:104320001305100CEFE07FEE9305500C0545EFD020
:104330006FFB1305200CEFE05FEDA9450545EFD0BD
:104340006FFA81450545EFD0EFF91305300CEFE02A
:10435000DFEB9305A0080545EFD0CFF89305A00249
:104360000545EFD02FF81305400CEFE01FEA930549
:10437000A0080545EFD00FF79305E00E0545EFD0F7
:104380006FF61305500CEFE05FE8B9450545EFD037
:104390006FF513056003EFE05FE783A7C18805476A
:1043A0006380E70281CB09476381E7020D4763849D
:1043B000E70205A89305000C0545EFD0AFF215A064
:1043C00081450545EFD00FF229A89305000A054560
:1043D000EFD04FF139A0930500060545EFD08FF0DF
:1043E00001001305000EEFE05FE2BD450545EFD08B
:1043F0006FEFE9450545EFD0EFEEBD450545EFD040
:104400006FEEE1450545EFD0EFED9305F002054570
:10441000EFD04FED930580020545EFD0AFEC93054B
:1044200000020545EFD00FEC930520020545EFD0C3
:104430006FEBFD450545EFD0EFEAED450545EFD0C3
:104440006FEA930530020545EFD0CFE9930570037D
:104450000545EFD02FE981450545EFD0AFE89D45F3
:104460000545EFD02FE889450545EFD0AFE7C145B9
:104470000545EFD02FE71305100EEFE01FD9BD451E
:104480000545EFD02FE6ED450545EFD0AFE5BD453D
:104490000545EFD02FE5DD450545EFD0AFE49305A9
:1044A00030030545EFD00FE49305C0020545EFD07A
:1044B0006FE3930590020545EFD0CFE29305E0024C
:1044C0000545EFD02FE2930500030545EFD08FE1BE
:1044D000930500030545EFD0EFE0930590030545F4
:1044E000EFD04FE09305F0030545EFD0AFDF8145F6
:1044F0000545EFD02FDF9D450545EFD0AFDE8D455B
:104500000545EFD02FDEC1450545EFD0AFDD1305E2
:10451000A002EFE09FCF81450545EFD0AFDC894594
:104520000545EFD02FDC81450545EFD0AFDB930586
:1045300020080545EFD00FDB1305B002EFE0FFCCFC
:1045400081450545EFD00FDA8D450545EFD08FD970
:1045500081450545EFD00FD9930530080545EFD0CB
:104560006FD81305000FEFE05FCA85450545EFD012
:104570006FD71305600FEFE05FC981450545EFD0A8
:104580006FD61305A003EFE05FC895450545EFD052
:104590006FD513059002EFE05FC7B7070020938740
:1045A000C704DC47414798CBEFE05FF1EFE0BFE89D
:1045B0000100B240224441018280411122C600081C
:1045C0000100324441018280011122CE00102326D5
:1045D000A4FE2324B4FE2322C4FE0327C4FE23A882
:1045E000E188832744FE81C7832744FE29A0B7477B
:1045F00000009387A75B23AAF180832784FE81C7ED
:10460000832784FE29A0B74700009387A75B23A8D0
:10461000F1800100724405618280411122C60008C8
:10462000B71702409843B71702401367170098C3A3
:10463000B7170240D443B71702403707FFF8758F0A
:10464000D8C3B71702409443B71702403707F7FEA5
:104650007D17758F98C3B71702409443B717024070
:104660003707FCFF7D17758F98C3B7170240D443F7
:10467000B7170240370781FF7D17758FD8C3B7176B
:10468000024037079F0098C70100324441018280F1
:10469000797106D622D40018232EA4FCEFF0FFF780
:1046A000232604FE232404FEB71702409443B717C1
:1046B00002404167558F98C3B71702409843B70728
:1046C0000200F98F2324F4FE8327C4FE85072326E6
:1046D000F4FE832784FE91E70327C4FE8567E31D6C
:1046E000F7FCB71702409843B7070200F98F89C754
:1046F00085472324F4FE19A0232404FE032784FE07
:1047000085476312F71637170240B7170240584320
:10471000D8C337170240B71702405843D8C33717DA
:104720000240B71702405843D8C3B7170240D443DA
:10473000B71702403707C1FF7D17758FD8C303270E
:10474000C4FDB747950893870740631BF700B71769
:104750000240D443B71702404167558FD8C355A8CC
:104760000327C4FDB7172707938707E0631CF700EB
:10477000B7170240D443B717024037073900558FA7
:10478000D8C341A80327C4FDB7E7B80593870780BE
:10479000631CF700B7170240D443B717024037072E
:1047A0002900558FD8C3B5A00327C4FDB7A74A0475
:1047B00093870720631CF700B7170240D443B7174D
:1047C000024037071D00558FD8C3A1A00327C4FDA1
:1047D000B777DC02938707C0631CF700B717024066
:1047E000D443B717024037071100558FD8C315A01F
:1047F0000327C4FDB7376E0193870760631BF7007B
:10480000B7170240D443B717024037070500558F4A
:10481000D8C3B71702409443B717024037070001C7
:10482000558F98C30100B71702409843B70700029D
:10483000F98FF5DBB7170240D843B7170240719BD9
:10484000D8C3B7170240D843B717024013672700F1
:10485000D8C30100B7170240DC4313F7C700A147D4
:10486000E31AF7FE11A001A0B250225445618280E4
:10487000011106CE22CC00102326A4FE0327C4FE7D
:1048800023A0E182EFF07FD90325C4FEEFF05FE0C3
:10489000EF1020780100F2406244056182804111EE
:1048A00022C600080100010032444101828001114A
:1048B00006CE22CC0010232604FE232404FE232649
:1048C00004FE2DA0232404FE01A8EFF05FFD832742
:1048D00084FE85072324F4FE032784FEC167E36674
:1048E000F7FE8327C4FE85072326F4FE0327C4FEB4
:1048F0009307F00FE3F8E7FC0100F2406244056122
:104900008280411122C600080100324441018280A8
:10491000011106CE22CC00102326A4FE8325C4FE5E
:104920000945EFD0DF960100F240624405618280C4
:10493000130101D92326112623248126232291261F
:10494000801C232EA4D8232CB4D8232AC4D82328EF
:10495000D4D8231504FE231404FE231304FE2312CB
:1049600004FE231104FE032584D9EFC03009AA8771
:10497000C207C1872313F4FEB767002083D787E9F6
:1049800099C7B7670020938787E99C4B829783C7B5
:10499000518993F7F70F6385074EB767002083D7D8
:1049A00087E963890746B7670020938787E9D4477B
:1049B000835724FE13970701418793170701C1838B
:1049C0008507C207C183C207C1872311F4FE93176D
:1049D0000701C1830326C4D9BE850145829683277A
:1049E00084D92326F4FE032584D9EFC03001AA8799
:1049F000C207C1872313F4FEB7670020938787E9B6
:104A000083D727003E87B7670020938787E983C74E
:104A10006700B347F702C207C1872312F4FE010003
:104A20008327C4FE138717002326E4FE838707002D
:104A3000E5FB231404FEA1A88327C4FEFD1723264B
:104A4000F4FE8327C4FE038707009307F002630A7E
:104A5000F7008327C4FE038707009307C005631B85
:104A6000F700835784FEC207C1838507C207C1834D
:104A70002314F4FE835764FEC207C187C207C183B3
:104A8000FD17C207C183C207C1872313F4FE8357F2
:104A900084FE139707014183854763E8E700835746
:104AA00064FEC207C187E3D907F8835764FEC207D3
:104AB000C18763C207028327C4FE85072326F4FE4D
:104AC000130704EE0326C4FED167938507073A85D2
:104AD000EFC0606E1DA8835784FEC207C18381EFBB
:104AE000130704EE0326C4FED1679385C7073A85F2
:104AF000EFC0606C19A8130704EE0326C4FED1674B
:104B0000938507073A85EFC0006B231504FE05A2C5
:104B1000231404FE59A0930704EE3E85EFC0006EF7
:104B20002A87835784FEC207C183BE868357A4FEAB
:104B3000C207C1833E86835744FEC207C187B307BD
:104B4000F602B6976367F706835784FEC207C183F0
:104B50003E878357A4FEC207C183BE86835744FEA7
:104B6000C207C187B387F602BA97035784FE42078C
:104B70004183BA86130704FFBA97038707EF9307A9
:104B800004FFB6972388E7EA835784FEC207C183F0
:104B90008507C207C1832314F4FE835784FEC2072E
:104BA000C1833E87835744FEC207C187E345F7F6BA
:104BB00011A00100835784FEC207C183130704FFBD
:104BC000BA97238807EAB7670020938787E903A885
:104BD000C700B7670020938787E983C777001397DB
:104BE00007014183835724FE93960701C18693975B
:104BF0000601C1838507C207C183C207C18723118C
:104C0000F4FE93970601C183B307F702C207C1837D
:104C1000130704EA3A86BE85014502988357A4FE2D
:104C2000C207C1838507C207C1832315F4FE8357DA
:104C3000A4FEC207C183BE84930704EE3E85EFC085
:104C4000E05B2A87835744FEC207C187B357F70248
:104C50008507E3EFF4EA130704EE032644D9D1678E
:104C60009385C7083A85EFC00055B7670020938742
:104C700087E903A8C700B7670020938787E983C740
:104C80007700139707014183835724FE939607010A
:104C9000C18693970601C1838507C207C183C207F6
:104CA000C1872311F4FE93970601C183B307F7026E
:104CB000C207C183130704EE3A86BE8501450298F8
:104CC000832704D9638E071A231504FE05A2231433
:104CD00004FE59A0032504D9EFC040522A87835708
:104CE00084FEC207C183BE868357A4FEC207C18368
:104CF0003E86835744FEC207C187B307F602B697C4
:104D00006368F706835784FEC207C1833E878357D3
:104D1000A4FEC207C183BE86835744FEC207C18773
:104D2000B387F602BA973E87832704D9BA97035709
:104D300084FE42074183BA8603870700930704FF76
:104D4000B6972388E7EA835784FEC207C1838507A5
:104D5000C207C1832314F4FE835784FEC207C183B4
:104D60003E87835744FEC207C187E345F7F611A08B
:104D70000100835784FEC207C183130704FFBA975B
:104D8000238807EAB7670020938787E903A8C7004D
:104D9000B7670020938787E983C7770013970701D8
:104DA0004183835724FE93960701C186939706019A
:104DB000C1838507C207C183C207C1872311F4FEDF
:104DC00093970601C183B307F702C207C183130794
:104DD00004EA3A86BE85014502988357A4FEC207BD
:104DE000C1838507C207C1832315F4FE8357A4FE40
:104DF000C207C183BE84032504D9EFC020402A879F
:104E0000835744FEC207C187B357F7028507E3E023
:104E1000F4ECBDA0930704DA1306001081453E852B
:104E2000EFB00FBEB7670020938787E99C47032543
:104E3000C4D98297832704D999CF130504DA0327AD
:104E400004D9832644D9032684D9D1679385870959
:104E5000EFC0603629A8130704DA832644D9032655
:104E600084D9D1679385470B3A85EFC0C034B767C3
:104E70000020938787E99847930704DA3E850297D5
:104E800001008320C12603248126832441261301A7
:104E900001278280411106C622C4000883C75189B8
:104EA00093F7F70F91CF938541890945EFD06FCCE8
:104EB000054693854189B76700201385C7E75523C9
:104EC0000100B240224441018280797106D622D489
:104ED0000018232EA4FC232CB4FC232AC4FC232674
:104EE00004FEA9A00100D1679387873A9C479305E8
:104EF00000043E85EF40C02DAA87F5D7D167938780
:104F0000873A9C47BE86832784FD13871700232C8E
:104F1000E4FC83870700C207C183BE853685EF4066
:104F200040288327C4FE85072326F4FE0327C4FEFA
:104F3000832744FDE348F7FA832744FD3E85B250BA
:104F4000225445618280011106CE22CC0010AA872E
:104F50002324B4FE2322C4FEA307F4FE8347F4FEF9
:104F6000B1E383C7418293F7F70F8DCF83C7618980
:104F700091C301A083C76189850713F7F70F238BBE
:104F8000E188EF104006EFF0DF978146032644FEEC
:104F9000832584FED1671385C70CEFF07F99EFF06E
:104FA0001F91E5B70100F240624405618280011162
:104FB00006CE22CC0010AA872324B4FE2322C4FEEE
:104FC0002320D4FEA307F4FE8347F4FE95E383C7B2
:104FD000518993F7F70F91CF832684FE032604FEB1
:104FE000832544FED1671385C70DEFF07F9411A090
:104FF00001000100F240624405618280011122CE6D
:1050000000102326A4FE8327C4FE239007008327D5
:10501000C4FE7D572391E7008327C4FE7D5723926A
:10502000E7008327C4FE7D572383E7008327C4FE60
:105030007D57A383E7008327C4FE23A407008327AB
:10504000C4FE23A607008327C4FE23A8070001008F
:10505000724405618280011122CE00102326A4FE35
:105060008327C4FE03D70700B7670020239CE7E827
:105070008327C4FE03D72700B7670020938787E9FB
:105080002391E7008327C4FE03D74700B7670020BA
:10509000938787E92392E7008327C4FE03C767004D
:1050A000B7670020938787E92383E7008327C4FE3F
:1050B00003C77700B7670020938787E9A383E700DA
:1050C0008327C4FE9847B7670020938787E998C76E
:1050D0008327C4FED847B7670020938787E9D8C7DE
:1050E0008327C4FE984BB7670020938787E998CB46
:1050F0000547A38AE18801007244056182807971C5
:1051000006D622D400189307C4FD3E85EFF01FEFAA
:10511000B7570000938707912322F4FE9307C4FD3D
:105120003E85EFF05FF389679386B7028967138640
:10513000A702F167938507200945EFD06FA9930671
:105140000004B76700201386C7E38145B7670020D6
:105150001385C7E7EF00300F85450945EFD02F993C
:105160000100B250225445618280011122CE00100C
:105170002326A4FE2324B4FE8327C4FED847832716
:1051800084FE3E978327C4FED8C719A88327C4FE90
:10519000D8478327C4FE9C4F1D8F8327C4FED8C7E2
:1051A0008327C4FE984F8327C4FEDC47E3F0E7FE65
:1051B0000100724405618280011122CE0010232675
:1051C000A4FE2324B4FE8327C4FE984B832784FEC9
:1051D0003E978327C4FE98CB19A88327C4FE984B1B
:1051E0008327C4FE9C4F1D8F8327C4FE98CB832743
:1051F000C4FE984F8327C4FE9C4BE3F0E7FE0100FA
:10520000724405618280797106D622D40018232E5B
:10521000A4FC8327C4FDB337F00093F7F70F3E8754
:1052200013064005D1679385870E3A85EFF0BFD10D
:10523000232604FE8327C4FD83C70700858B93F7CD
:10524000F70F89C789472326F4FE7DA08327C4FD75
:1052500083C7070093E7170013F7F70F8327C4FDF1
:105260002380E7008327C4FD23A607008327C4FD0E
:1052700023A807008327C4FD984F8327C4FDD8CBFC
:105280008327C4FDDC4305476383E70289C70947D9
:10529000638CE702B9A08327C4FD98478327C4FD28
:1052A0009C4F3E8681453A85EFA09FF51DA8832738
:1052B000C4FD98478327C4FD9C4F86073E868145E1
:1052C0003A85EFA0FFF331A88327C4FD98478327D1
:1052D000C4FD9C4F8A073E8681453A85EFA05FF268
:1052E00001008327C4FD83C70700F99B13F7F70F5D
:1052F0008327C4FD2380E7008327C4FE3E85B25088
:10530000225445618280011106CE22CC0010232652
:10531000A4FE8327C4FEB337F00093F7F70F3E8750
:105320001306C007D1679385870E3A85EFF0BFC19A
:105330008327C4FE984F8327C4FEDC4BB307F74096
:105340003E85F240624405618280797106D622D49E
:105350000018232EA4FC232CB4FC8327C4FDB337F0
:10536000F00093F7F70F3E871306A008D1679385E7
:10537000870E3A85EFF03FBD232604FE8327C4FD48
:1053800083C70700898B93F7F70F89C785472326C3
:10539000F4FEC9A08327C4FD83C7070093E7270055
:1053A00013F7F70F8327C4FD2380E7008327C4FD8D
:1053B000DC4BD9C38327C4FDDC4305476385E70283
:1053C00089C709476380E70491A88327C4FD9847EC
:1053D0008327C4FDDC47BA97032784FD1377F70FB3
:1053E0002380E70025A88327C4FD98478327C4FDB1
:1053F000DC478607BA97032784FD42074183239041
:10540000E70029A88327C4FD98478327C4FDDC470C
:105410008A07BA97032784FD98C3010085450325B1
:10542000C4FDEFF09FD48327C4FDDC4B1387F7FF47
:105430008327C4FDD8CB21A091472326F4FE8327E0
:10544000C4FD83C70700F59B13F7F70F8327C4FD3F
:105450002380E7008327C4FE3E85B2502254456175
:105460008280797106D622D40018232EA4FC232C26
:10547000B4FC232AC4FC8327C4FDB337F00093F7A0
:10548000F70F3E871306C00BD1679385870E3A85C9
:10549000EFF07FAB232604FE232404FE832784FD44
:1054A00089E78D472326F4FE45AC8327C4FD83C7D7
:1054B0000700898B93F7F70F89C785472326F4FEEA
:1054C00061AC8327C4FD83C7070093E7270013F768
:1054D000F70F8327C4FD2380E7008327C4FDDC4B3F
:1054E000032744FD63ECE7248327C4FD984F8327FB
:1054F000C4FDDC47B307F7402324F4FE032744FD33
:10550000832784FE63F2E7188327C4FDDC43054745
:10551000638FE70689C709476389E70E31A48327AC
:10552000C4FD98478327C4FDDC47BA97032684FE51
:10553000832584FD3E85EFB02019832584FE032555
:10554000C4FDEFF09FC28327C4FD98478327C4FDA5
:10555000DC47B306F700032784FD832784FEB305E9
:10556000F700032744FD832784FEB307F7403E86F8
:105570003685EFB06015032744FD832784FEB3070B
:10558000F740BE850325C4FDEFF03FBE71AA832717
:10559000C4FD98478327C4FDDC4786073E978327D1
:1055A00084FE86073E86832584FD3A85EFB0C011D0
:1055B000832584FE0325C4FDEFF03FBB8327C4FD94
:1055C00098478327C4FDDC478607B306F700832787
:1055D00084FE8607032784FDB305F700032744FDF7
:1055E000832784FEB307F74086073E863685EFB0F3
:1055F000A00D032744FD832784FEB307F740BE8533
:105600000325C4FDEFF07FB605A28327C4FD9847AC
:105610008327C4FDDC478A073E97832784FE8A07D9
:105620003E86832584FD3A85EFB0000A832584FEFB
:105630000325C4FDEFF07FB38327C4FD984783277C
:10564000C4FDDC478A07B306F700832784FE8A0778
:10565000032784FDB305F700032744FD832784FE59
:10566000B307F7408A073E863685EFB0E00503278B
:1056700044FD832784FEB307F740BE850325C4FDA0
:10568000EFF0BFAE01004DA08327C4FDDC4305470A
:10569000638CE70289C709476380E70671A0832707
:1056A000C4FD98478327C4FDDC47BA97032644FD11
:1056B000832584FD3E85EFB02001832544FD03252D
:1056C000C4FDEFF09FAA8DA08327C4FD98478327D0
:1056D000C4FDDC4786073E97832744FD86073E8648
:1056E000832584FD3A85EFA0307E832544FD032584
:1056F000C4FDEFF09FA70DA88327C4FD984783271B
:10570000C4FDDC478A073E97832744FD8A073E860F
:10571000832584FD3A85EFA0307B832544FD032556
:10572000C4FDEFF09FA401008327C4FDD84B83275D
:1057300044FD1D8F8327C4FDD8CB21A0914723268C
:10574000F4FE8327C4FD83C70700F59B13F7F70F0B
:105750008327C4FD2380E7008327C4FE3E85B25023
:10576000225445618280797106D622D40018232EF6
:10577000A4FC232CB4FC232AC4FC2328D4FC8327B8
:10578000C4FDB337F00093F7F70F3E87130670168A
:10579000D1679385870E3A85EFF0EFFA832744FDB2
:1057A000B337F00093F7F70F3E8713068016D167E3
:1057B0009385870E3A85EFF00FF9232604FE8327A1
:1057C00084FD89E78D472326F4FEA1AC8327C4FD21
:1057D00083C7070093E7470013F7F70F8327C4FD3C
:1057E0002380E7000325C4FDEFF0FFB12324A4FECE
:1057F000832744FD9C43032784FE637AF7008327B5
:1058000044FD032784FE98C395472326F4FE83278F
:10581000C4FD984F8327C4FD9C4BB307F740232258
:10582000F4FE832744FD9C43032744FE6365F70889
:105830008327C4FDDC4305476388E70289C709471E
:105840006387E704BDA28327C4FD98478327C4FD6F
:105850009C4B3E97832744FD9C433E86BA85032597
:1058600084FDEFA07066B1A28327C4FD984783270B
:10587000C4FD9C4B86073E97832744FD9C438607C7
:105880003E86BA85032584FDEFA010641DA2832700
:10589000C4FD98478327C4FD9C4B8A073E97832706
:1058A00044FD9C438A073E86BA85032584FDEFA00C
:1058B000B0610100FDA88327C4FDDC430547638A6E
:1058C000E70489C70947638EE708E5A08327C4FD7D
:1058D00098478327C4FD9C4BBA97032644FEBE8598
:1058E000032584FDEFA0505E032784FD832744FE3B
:1058F000B306F7008327C4FD8C47832744FD9843F4
:10590000832744FEB307F7403E863685EFA0D05B81
:105910004DA08327C4FD98478327C4FD9C4B860771
:105920003E97832744FE86073E86BA85032584FD7D
:10593000EFA09059832744FE8607032784FDB30612
:10594000F7008327C4FD8C47832744FD98438327B2
:1059500044FEB307F74086073E863685EFA0D05653
:1059600089A88327C4FD98478327C4FD9C4B8A07D9
:105970003E97832744FE8A073E86BA85032584FD29
:10598000EFA09054832744FE8A07032784FDB306C3
:10599000F7008327C4FD8C47832744FD9843832762
:1059A00044FEB307F7408A073E863685EFA0D05104
:1059B0000100832704FDB5E78327C4FD83C70700E3
:1059C000858B93F7F70F89C789472326F4FE91A8A3
:1059D0008327C4FD83C7070093E7170013F7F70F6A
:1059E0008327C4FD2380E700832744FD9C43BE85B5
:1059F0000325C4FDEFF04FFC8327C4FDD84B83275C
:105A000044FD9C433E978327C4FDD8CB8327C4FD28
:105A100083C70700F99B13F7F70F8327C4FD238083
:105A2000E7008327C4FD83C70700918B13F7F70FA7
:105A30008327C4FD2380E7008327C4FE3E85B25040
:105A4000225445618280797106D622D40018232E13
:105A5000A4FC232CB4FC232AC4FC2328D4FC8327D5
:105A6000C4FDB337F00093F7F70F3E87130680218C
:105A7000D1679385870E3A85EFF0EFCC232604FE9D
:105A8000832744FD89E78D472326F4FE89A08327D9
:105A9000C4FD032744FD98C78327C4FD2380070066
:105AA0008327C4FD032784FDD8C38327C4FD23A611
:105AB00007008327C4FD23A807008327C4FD03270D
:105AC00004FDD8CB8327C4FD032704FD98CF83278B
:105AD000C4FE3E85B250225445618280397106DE93
