:100000006F70902613000000130000001300000022
:100010001300000013000000130000001300000094
:100020001300000013000000130000001300000084
:08003000130000007300100032
:1000380000000000000000000E7900001E7900009A
:1000480000000000AE790000000000000000000081
:10005800B0790000B2790000000000000000000044
:10006800B479000000000000B6790000000000002C
:10007800B8790000BA790000BC790000BE790000A8
:10008800C0790000C2790000966B00004A6C00003D
:10009800FE6C0000B26D0000666E0000CE790000B4
:1000A800D0790000D2790000D4790000D679000018
:1000B800D8790000DA790000DC790000DE790000E8
:1000C800E0790000E2790000E47900001A6F00008E
:1000D800E879000064710000EC790000EE79000016
:1000E80024720000DC720000DE730000F679000064
:1000F800F8790000FA790000FC790000FE79000028
:10010800007A0000A2640000666500002A6600000C
:10011800327000000A7A00000C7A00000E7A0000A3
:10012800D6760000127A0000147A0000167A0000D1
:10013800187A00001A7A00009E7400001E7A0000E7
:10014800F2660000B66700005E75000016760000D3
:10015800287A00002A7A00002C7A00002E7A000003
:10016800307A0000327A0000347A0000367A0000D3
:10017800387A00003A7A00003C7A00002E9A000093
:10018800407A0000427A0000C66A000078680000E1
:100198003C690000066A00004C7A0000967700006F
:1001A800507A0000527A0000547A00005678000015
:1001B800587A00005A7A00005C7A00005E7A0000E3
:1001C800607A0000627A0000647A0000667A0000B3
:1001D8000000000000000000000000000000000017
:1001E8000000000000000000000000000000000007
:0801F8000000000000000000FF
:100200003D432A876373C3029377F700BDEFADE5E3
:10021000937606FF3D8ABA960CC34CC30CC74CC7F5
:100220004107E36BD7FE11E28280B306C3408A0622
:100230009702000096966780A6002307B700A306E2
:10024000B7002306B700A305B7002305B700A30432
:10025000B7002304B700A303B7002303B700A3022A
:10026000B7002302B700A301B7002301B700A30022
:10027000B7002300B700828093F5F50F93968500B1
:10028000D58D93960501D58D61B79396270097027A
:10029000000096968682E78086FA9680C1171D8FA9
:1002A0003E96E374C3F8A5B7011122CE00102326B1
:1002B000A4FE37F500E08328450037F500E093F809
:1002C000E8FF2322150183A801820965130505F4BF
:1002D00033D5A802AA8601470325C4FEAA87014890
:1002E00037F500E03303F702B308D8029A98338356
:1002F000F60233B6F6029A85B387C8003E860CC96B
:1003000050C9B7F700E09843B7F700E0136707015B
:1003100098C3B7F700E09843B7F700E013671702F8
:1003200098C30100B7F700E0DC4313F717008547D7
:10033000E31AF7FEB7F700E09843B7F700E0799BC0
:1003400098C30100724405618280011122CE001021
:100350002326A4FE37F500E08328450037F500E0AA
:1003600093F8E8FF2322150183A8018237157A004C
:100370001305052033D5A802AA8601470325C4FE2C
:10038000AA87014837F500E03303F702B308D80223
:100390009A983383F60233B6F6029A85B387C8007B
:1003A0003E860CC950C9B7F700E09843B7F700E0A4
:1003B0001367070198C3B7F700E09843B7F700E069
:1003C0001367170298C30100B7F700E0DC4313F787
:1003D00017008547E31AF7FEB7F700E09843B7F731
:1003E00000E0799B98C3010072440561828001118D
:1003F00006CE22CC0010AA8E2E8E32833685BA8588
:100400003E86C2864687F687A307F4FEF287230757
:10041000F4FE9A87A306F4FEAA872306F4FEAE87AD
:10042000A305F4FEB2872305F4FEB687A304F4FE09
:10043000BA872304F4FE8347F4FE93068004014642
:1004400081453E85C52D8347E4FE93068004014621
:1004500081453E85C5258347D4FE93068004014629
:1004600081453E85C12D8347C4FE93068004014625
:1004700081453E85C1258347B4FE9306800401462D
:1004800081453E85452D8347A4FE930680040146A1
:1004900081453E854525834794FE930680040146A9
:1004A00081453E85412D834784FE930680040146A5
:1004B00081453E85412583474400930680040146DB
:1004C00081453E85852D83470400930680040146BF
:1004D00081453E8585258347840093068004014637
:1004E00081453E85812D0100F24062440561828094
:1004F000011106CE22CC00102326A4FE2324B4FE34
:10050000B28736872313F4FEBA872312F4FE85459B
:100510000965EF707054B707055083C7070013F7DC
:10052000F70FB70705501377F7FC1377F70F238002
:10053000E700B707055083C7070013F7F70FB707A2
:100540000550136727041377F70F2380E700B707D9
:10055000055083C7170013F7F70FB7070550659BC2
:100560001377F70FA380E700B7070550035744FE42
:100570002392E700B7070550035764FE2393E70073
:10058000B70705500327C4FE98C7B70705500327D0
:1005900084FED8C7B707055083C7170013F7F70FB6
:1005A000B70705501377F7031377F70FA380E7001A
:1005B00037070550B7070550034717001377F70FA4
:1005C000A380E700B707055083C7270013F7F70F8D
:1005D000B7070550136747001377F70F2381E7002C
:1005E000B707055083C7170013F7F70FB707055074
:1005F000136717001377F70FA380E700B7070550BD
:1006000083C7070013F7F70FB707055013671700E5
:100610001377F70F2380E7008D4513056005EF5032
:10062000505E13056005EF50105A0100F24062441D
:1006300005618280797106D622D40018232EA4FC8D
:10064000231704FE231604FE0327C4FDA54763E019
:10065000E70C8327C4FD13972700D1679387477C56
:10066000BA979C438287B7370140938707C083D7E7
:100670004702C207C1832317F4FE69A8B7070040E9
:1006800083D74702C207C1832317F4FE61A0B707CF
:1006900000409387074083D74702C207C1832317CF
:1006A000F4FE8DA8B71700409387078083D74702D1
:1006B000C207C1832317F4FEB1A8B7170040938780
:1006C00007C083D74702C207C1832317F4FE99A04E
:1006D000B73701409387074083D74702C207C183DA
:1006E0002317F4FE05A8B7570140938707C083D7A7
:1006F0004702C207C1832317F4FE29A8B757014058
:1007000083D74702C207C1832317F4FE21A0231712
:1007100004FE0100B7070020138707048327C4FDE8
:10072000BA9783C7070013F7F70F9307F00F631704
:10073000F7008357E4FE2316F4FE2DA8B707002028
:10074000138707048327C4FDBA9783C7070093F76D
:10075000F70F3E85792EAA8791EB8357E4FEB30706
:10076000F040C207C1832316F4FE29A08357E4FE9C
:100770002316F4FE8317C4FE3E85B2502254456111
:100780008280011122CE00102326A4FE0327C4FE7E
:10079000A54763E0E7088327C4FE13972700D167C6
:1007A0009387C77EBA979C438287B7370140938768
:1007B00007C023920702B9A8B70700402392070297
:1007C00091A8B7070040938707402392070299A09A
:1007D000B7170040938707802392070225A8B71711
:1007E0000040938707C0239207022DA0B73701402E
:1007F000938707402392070231A8B7570140938798
:1008000007C02392070239A0B7570140239207027D
:1008100011A001000100724405618280397106DE79
:1008200022DC80002326A4FC2324B4FC2322C4FC65
:10083000232604FE91450325C4FCEF10F026AA8769
:100840003E8713060008D167938547ED3A85EF4050
:100850001037832784FCB1830327C4FCB307F74018
:1008600093B7170093F7F70F3E8713061008D16769
:10087000938547ED3A85EF409034832744FCB1835C
:100880000327C4FCB307F74093B7170093F7F70F9C
:100890003E8713062008D167938547ED3A85EF40E0
:1008A00010320325C4FCEF109026832784FC93F7B5
:1008B000F70F93068004014681453E85A52C8327CA
:1008C00044FC93F7F70F93068004014681453E856B
:1008D00095240327C4FCA54763E0E7088327C4FCED
:1008E00013972700D56793874781BA979C438287E0
:1008F000B7370140938707C02324F4FE8DA0B707C4
:1009000000402324F4FEA1A8B707004093870740C6
:100910002324F4FEA9A0B71700409387078023245F
:10092000F4FE35A8B7170040938707C02324F4FED0
:100930003DA0B7370140938707402324F4FE05A06C
:10094000B7570140938707C02324F4FE09A8B7577F
:1009500001402324F4FE21A085472326F4FE8327AB
:1009600084FC13D787008D47631AF7008545B707C6
:1009700016001385070CEF704045E5A8832784FC1B
:1009800013D78700C547631AF7008545B7071800D6
:1009900013850710EF706043E9A8832784FC13D701
:1009A000870093072002631AF7008545B7171A00DE
:1009B00013850780EF7060416DA8832784FC13D7EF
:1009C000870093073002631AF7008545B7171A00AE
:1009D000138507C0EF70603F69A8832784FC13D795
:1009E0008700930710036317F70085450565EF70CF
:1009F000C03D41A0832784FC13D7870093071007CD
:100A0000631AF7008545B707008013854700EF702C
:100A1000C03B85A0832784FC13D787009307300849
:100A2000631AF7008545B707138013850701EF7038
:100A3000C03981A0832784FC13D78700930710094E
:100A4000631AF7008545B707158013850702EF7015
:100A5000C03705A0832784FC13D78700930730098C
:100A60006319F7008545B707158013850704EF70F4
:100A7000C0358327C4FEADEB85450545EF703002D8
:100A8000232E04FC232004FE231204FE9307C4FD3E
:100A90003E85EF80A033231E04FCFD572310F4FE97
:100AA000231104FE231F04FC230204FE9307C4FD4C
:100AB000BE85032584FEEF70902C93050006032568
:100AC00084FEEF80E0468545032584FEEF80C03339
:100AD000814601468945032584FEEF80A04E854569
:100AE000032584FEEF8040320100F2506254216100
:100AF0008280011122CE00102326A4FE8327C4FE8B
:100B0000958313F77700B70700200A079387C70478
:100B1000BA979C439C470327C4FE7D8B8546339739
:100B2000E600F98FB337F00093F7F70F3E85724474
:100B300005618280797106D622D40018232EA4FC88
:100B4000232CB4FCB2872328D4FCA30BF4FC232071
:100B500004FE232204FE232404FE8327C4FD958380
:100B600093F7F70F9D8BA307F4FE8327C4FD93F73C
:100B7000F70FFD8B2307F4FE8347F4FE91E78545CD
:100B80001145EF70C07191A80347F4FE85476317C4
:100B9000F70085452145EF70807081A00347F4FE82
:100BA00089476317F70085454145EF70406F35A0D1
:100BB0000347F4FE8D476318F700854513050002CF
:100BC000EF70E06D19A80347F4FE91476317F70033
:100BD000854513050004EF70806C8347E4FE0547EC
:100BE000B317F700C207C1832310F4FE032784FD67
:100BF00085476317F702832704FDC207C183A183DA
:100C0000C207C18389E78D472322F4FE11A88327F9
:100C100004FDC207C183A183C207C1832322F4FE5E
:100C2000832704FDC207C18393F7F70F2324F4FE43
:100C30000347F4FEB70700200A079387C704BA9753
:100C40009C43130704FEBA853E85EF60F0710327CD
:100C500084FD85476319F7020347F4FEB7070020B8
:100C60000A079387C704BA9794438347E4FE05476E
:100C7000B317F700C207C183034774FD3A86BE85E8
:100C80003685EF7000110100B25022544561828018
:100C90001D7186CEA2CC80102326A4FA2324B4FA98
:100CA00085450325C4FAEF102060AA873E87130606
:100CB000D006D167938587F83A85EF404070832747
:100CC00084FAB337F00093F7F70F3E871306F00668
:100CD000D167938587F83A85EF40606E832784FA61
:100CE000BD832315F4FE8357A4FE85073E87832723
:100CF00084FAB3D7E7022314F4FE0325C4FAEF10F5
:100D00000061B7370140938707C02326F4FE03270D
:100D1000C4FAA54763ECE7088327C4FA13972700B2
:100D2000D5679387C783BA979C438287B7370140BB
:100D3000938707C02326F4FE95A8B7070040232613
:100D4000F4FEADA0B7070040938707402326F4FECA
:100D5000B1A8B7170040938707802326F4FEB9A0F7
:100D6000B7170040938707C02326F4FE81A0B7176A
:100D700000402326F4FE1DA8B717004093870740C4
:100D80002326F4FE25A0B73701409387074023268A
:100D9000F4FE29A8B7570140938707C02326F4FE25
:100DA00031A0B75701402326F4FE0100232E04FC96
:100DB000232004FE231204FE835784FE2310F4FE36
:100DC0008357A4FE231EF4FC231104FE231F04FCFE
:100DD000230204FE9307C4FDBE850325C4FEEF7005
:100DE000007A054685450325C4FEEF80600D8545E4
:100DF0000325C4FEEF80805AD16703AE07F6138740
:100E000007F603234700138707F683288700138715
:100E100007F60328C700138707F6084B138707F662
:100E20004C4B138707F6104F138707F6544F138761
:100E300007F61853938707F6DC53232AC4FB232CA9
:100E400064FA232E14FB232004FD2322A4FC232474
:100E5000B4FC2326C4FC2328D4FC232AE4FC232C42
:100E6000F4FC8327C4FA93F7F70F8A07130704FFEC
:100E7000BA9783A747FC8D453E85EF50805883275E
:100E8000C4FA8A07130704FFBA9783A747FC3E8575
:100E9000EF50605385450325C4FEEF70F0760100E6
:100EA000F640664425618280797106D622D4001806
:100EB000232EA4FC232CB4FC032784FD896793878D
:100EC0001771B337F70093F7F70F3E8713065003F8
:100ED000D167938507013A85EF40604EB7370140EF
:100EE000938707C02326F4FE8327C4FDC183BD8BEF
:100EF0002547636EF70613972700D56793874786C4
:100F0000BA979C438287B7370140938707C023264F
:100F1000F4FEB1A8B70700402326F4FE89A8B7075E
:100F20000040938707402326F4FE91A0B7170040A6
:100F3000938707802326F4FE1DA8B71700409387E8
:100F400007C02326F4FE25A0B7370140938707404A
:100F50002326F4FE29A8B7570140938707C023260C
:100F6000F4FE31A0B75701402326F4FE0100832789
:100F7000C4FE83D7C7022315F4FE0357A4FE8327BC
:100F800084FD3307F702896793870771B357F70228
:100F90002314F4FE8327C4FDA1838D8B81EB83276B
:100FA000C4FE035784FE239AE702A9A88327C4FD41
:100FB000A18313F7370085476319F7008327C4FE21
:100FC000035784FE239CE70235A88327C4FDA18331
:100FD00013F7370089476319F7008327C4FE0357C7
:100FE00084FE239EE70239A88327C4FDA18313F75B
:100FF00037008D476318F7008327C4FE035784FE2C
:101000002390E7040100B2502254456182805D7153
:1010100086C6A2C48008232EA4FA232CB4FA232A5D
:10102000C4FA8327C4FBC1838D453E85EF10C027DA
:10103000AA873E871306D00AD167938507013A85B0
:10104000EF40E037032744FB896793871771B33775
:10105000F70093F7F70F3E871306F00AD1679385E1
:1010600007013A85EF40A035232E04FC232004FE1F
:10107000231204FE232604FC232804FC232A04FC58
:10108000232C04FC231504FE8327C4FBC183BD8BE2
:101090003E85EF10C0278327C4FB93F7F70F930615
:1010A0008031014685453E85713485450545EF70A3
:1010B000001FB7370140938707C02326F4FE83271C
:1010C000C4FBC183BD8B2547636EF70613972700CA
:1010D000D5679387C788BA979C438287B737014003
:1010E000938707C02326F4FEB1A8B7070040232644
:1010F000F4FE89A8B7070040938707402326F4FE33
:1011000091A0B7170040938707802326F4FE1DA8FF
:10111000B7170040938707C02326F4FE25A0B737F2
:101120000140938707402326F4FE29A8B7570140C2
:10113000938707C02326F4FE31A0B757014023262A
:10114000F4FE01008327C4FB13D7C7008D47631A41
:10115000F7008545B70716001385070CEF60F046CA
:1011600015AA8327C4FB13D7C700C547631AF70026
:101170008545B707180013850710EF60104519AAB9
:101180008327C4FB13D7C700C947631AF7008545F7
:10119000B707180013850720EF603043E5A88327C1
:1011A000C4FB13D7C700CD47631AF7008545B707BF
:1011B000180013850730EF605041E9A88327C4FB6E
:1011C00013D7C70093072002631AF7008545B717A6
:1011D0001A0013850780EF60503F6DA88327C4FB7A
:1011E00013D7C70093073002631AF7008545B71776
:1011F0001A00138507C0EF60503D69A88327C4FB20
:1012000013D7C700930710036317F70085450565DB
:10121000EF60B03B41A08327C4FB13D7C7009307FF
:101220001007631AF7008545B7070080138547004C
:10123000EF60B03985A08327C4FB13D7C70093079D
:101240003008631AF7008545B70713801385070137
:10125000EF60B03781A08327C4FB13D7C700930783
:101260001009631AF7008545B70715801385070233
:10127000EF60B03505A08327C4FB13D7C7009307E1
:1012800030096319F7008545B707158013850704F2
:10129000EF60B03303A70182832784FBB357F702C3
:1012A000C1832315F4FE03A701828357A4FE85079B
:1012B000BE86832784FBB387F602B357F702231455
:1012C000F4FE035784FE832744FB3307F702896744
:1012D00093870771B357F7022313F4FE835784FEF5
:1012E000FD17C207C1832310F4FE8357A4FE231EFB
:1012F000F4FC231104FE231F04FC230204FE9307C5
:10130000C4FDBE850325C4FEEF7060279307000768
:101310002316F4FC85472317F4FC231804FC835799
:1013200064FE2319F4FC8947231AF4FC8947231B24
:10133000F4FC231C04FC231D04FC8327C4FBA183B1
:101340008D8B9DE39307C4FCBE850325C4FEEF701F
:10135000E03AA1450325C4FEEF70505491450325A2
:10136000C4FEEF70706845A08327C4FBA18313F708
:10137000370085476315F7029307C4FCBE85032534
:10138000C4FEEF706051A1450325C4FEEF70D05537
:10139000930500400325C4FEEF70D069ADA08327FC
:1013A000C4FBA18313F7370089476314F70293073F
:1013B000C4FCBE850325C4FEEF70206CA145032547
:1013C000C4FEEF70105891450325C4FEEF70F06B1A
:1013D0001DA88327C4FBA18313F737008D4763142F
:1013E000F7029307C4FCBE850325C4FEEF70B00668
:1013F000A1450325C4FEEF709059930500400325D5
:10140000C4FEEF70506D85450325C4FEEF70502576
:1014100085450325C4FEEF70301F0100B640264409
:1014200061618280797106D622D40018232EA4FC33
:101430008327C4FDB337F00093F7F70F3E871306F9
:101440001004D167938587093A85EF305077832759
:10145000C4FD9C43BD8B0547B317F7009396070166
:10146000C1828327C4FD9C4313D75700B7070020D0
:101470000A079387C704BA979C43368798CB83277C
:10148000C4FDDC43BD8B0547B317F70093960701F6
:10149000C1828327C4FDDC4313D75700B707002060
:1014A0000A079387C704BA979C43368798CB83274C
:1014B000C4FDDC472326F4FE01008327C4FE138706
:1014C000F7FF2326E4FEF5FB8327C4FDDC43BD8B39
:1014D0000547B317F70093960701C1828327C4FD20
:1014E000DC4313D75700B70700200A079387C704C8
:1014F000BA979C433687D8CB8327C4FDDC47232487
:10150000F4FE0100832784FE1387F7FF2324E4FE03
:10151000F5FB8327C4FD9C43BD8B0547B317F7003C
:1015200093960701C1828327C4FD9C4313D75700BC
:10153000B70700200A079387C704BA979C433687EA
:10154000D8CB0100B250225445618280797106D611
:1015500022D40018232EA4FC8327C4FDB337F00047
:1015600093F7F70F3E8713064005D16793858709E8
:101570003A85EF30D0648327C4FDDC43BD8B05473B
:10158000B317F70093960701C1828327C4FDDC439C
:1015900013D75700B70700200A079387C704BA97E5
:1015A0009C433687D8CB8327C4FD9C43BD8B05471E
:1015B000B317F70093960701C1828327C4FD9C43AC
:1015C00013D75700B70700200A079387C704BA97B5
:1015D0009C433687D8CB8327C4FDDC472326F4FE03
:1015E00001008327C4FE1387F7FF2326E4FEF5FBE3
:1015F0008327C4FD9C43BD8B0547B317F700939623
:101600000701C1828327C4FD9C4313D75700B70746
:1016100000200A079387C704BA979C43368798CB64
:101620008327C4FDDC472324F4FE0100832784FEC6
:101630001387F7FF2324E4FEF5FB8327C4FDDC4377
:10164000BD8B0547B317F70093960701C182832727
:10165000C4FDDC4313D75700B70700200A07938760
:10166000C704BA979C43368798CB8327C4FDDC47D1
:101670002322F4FE0100832744FE1387F7FF232271
:10168000E4FEF5FB0100B25022544561828079717D
:1016900006D622D40018232EA4FCAE87A30DF4FC9A
:1016A0008327C4FDB337F00093F7F70F3E87130687
:1016B0009006D167938587093A85EF30505083278C
:1016C000C4FD9C43BD8B0547B317F70093960701F4
:1016D000C1828327C4FD9C4313D75700B70700205E
:1016E0000A079387C704BA979C433687D8CB8347AA
:1016F000B4FD95CB8327C4FDDC43BD8B0547B317F1
:10170000F70093960701C1828327C4FDDC4313D7FA
:101710005700B70700200A079387C704BA979C436E
:10172000368798CB0DA88327C4FDDC43BD8B0547C6
:10173000B317F70093960701C1828327C4FDDC43EA
:1017400013D75700B70700200A079387C704BA9733
:101750009C433687D8CB8327C4FDDC472326F4FE81
:1017600001008327C4FE1387F7FF2326E4FEF5FB61
:101770008327C4FD9C43BD8B0547B317F7009396A1
:101780000701C1828327C4FD9C4313D75700B707C5
:1017900000200A079387C704BA979C43368798CBE3
:1017A0008327C4FDDC472324F4FE0100832784FE45
:1017B0001387F7FF2324E4FEF5FB8327C4FD9C4336
:1017C000BD8B0547B317F70093960701C1828327A6
:1017D000C4FD9C4313D75700B70700200A0793871F
:1017E000C704BA979C433687D8CB8327C4FDDC4314
:1017F000BD8B0547B317F70093960701C182832776
:10180000C4FDDC4313D75700B70700200A079387AE
:10181000C704BA979C43368798CB0100B250225434
:1018200045618280797106D622D40018232EA4FC4B
:101830008327C4FDB337F00093F7F70F3E871306F5
:101840005008D167938587093A85EF305037A30751
:1018500004FE8327C4FD9C43BD8B0547B317F700E7
:1018600093960701C1828327C4FD9C4313D7570079
:10187000B70700200A079387C704BA979C433687A7
:10188000D8CB8327C4FDDC43BD8B0547B317F700D6
:1018900093960701C1828327C4FDDC4313D7570009
:1018A000B70700200A079387C704BA979C43368777
:1018B00098CB8327C4FDDC472324F4FE0100832753
:1018C00084FE1387F7FF2324E4FEF5FB8327C4FD82
:1018D0009C43BD8B0547B317F70093960701C18260
:1018E0008327C4FD9C4313D75700B70700200A077E
:1018F0009387C704BA979C43368798CB8327C4FD48
:10190000DC472322F4FE0100832744FE1387F7FF00
:101910002322E4FEF5FB8327C4FDDC433E85EFF084
:101920004F9DAA8781C78547A307F4FE8327C4FD7F
:101930009C43BD8B0547B317F70093960701C182FF
:101940008327C4FD9C4313D75700B70700200A071D
:101950009387C704BA979C433687D8CB8327C4FDA7
:10196000DC472320F4FE0100832704FE1387F7FFE2
:101970002320E4FEF5FB8347F4FE3E85B25022545B
:1019800045618280797106D622D40018232EA4FCEA
:10199000AE87A30DF4FC8327C4FDB337F00093F7A3
:1019A000F70F3E871306700AD167938587093A853A
:1019B000EF30F020930700F8A307F4FE09AA0347CD
:1019C000B4FD8347F4FEF98F93F7F70F95CB832788
:1019D000C4FDDC43BD8B0547B317F70093960701A1
:1019E000C1828327C4FDDC4313D75700B70700200B
:1019F0000A079387C704BA979C43368798CB0DA8EC
:101A00008327C4FDDC43BD8B0547B317F7009396CE
:101A10000701C1828327C4FDDC4313D75700B707F2
:101A200000200A079387C704BA979C433687D8CB10
:101A30008347F4FE8583A307F4FE8327C4FDDC47B8
:101A40002324F4FE0100832784FE1387F7FF232459
:101A5000E4FEF5FB8327C4FD9C43BD8B0547B3170C
:101A6000F70093960701C1828327C4FD9C4313D7D7
:101A70005700B70700200A079387C704BA979C430B
:101A8000368798CB8327C4FDDC472322F4FE010070
:101A9000832744FE1387F7FF2322E4FEF5FB832709
:101AA000C4FD9C43BD8B0547B317F7009396070110
:101AB000C1828327C4FD9C4313D75700B70700207A
:101AC0000A079387C704BA979C433687D8CB8347C6
:101AD000F4FEE39607EE0325C4FDA933AA87FD179C
:101AE000B337F00093F7F70F3E85B25022544561AB
:101AF0008280397106DE22DC26DA80002326A4FCEF
:101B0000AE87A305F4FC8327C4FCB337F00093F73A
:101B1000F70F3E871306000CD167938587093A8536
:101B2000EF30F009A30704FEA1472307F4FE832743
:101B3000C4FC9C43BD8B0547B317F7009396070180
:101B4000C1828327C4FC9C4313D75700B7070020EA
:101B50000A079387C704BA979C433687D8CB832755
:101B6000C4FCDC472324F4FE0100832784FE138792
:101B7000F7FF2324E4FEF5FB8327C4FCDC43BD8B85
:101B80000547B317F70093960701C1828327C4FC6A
:101B9000DC4313D75700B70700200A079387C70411
:101BA000BA979C43368798CB7DA88327C4FC9C4377
:101BB000BD8B0547B317F70093960701C1828327B2
:101BC000C4FC9C4313D75700B70700200A0793872C
:101BD000C704BA979C433687D8CB8327C4FCDC471D
:101BE0002322F4FE0100832744FE1387F7FF2322FC
:101BF000E4FEF5FB8327C4FC9C43BD8B0547B3176C
:101C0000F70093960701C1828327C4FC9C4313D736
:101C10005700B70700200A079387C704BA979C4369
:101C2000368798CB8327C4FCDC472320F4FE0100D1
:101C3000832704FE1387F7FF2320E4FEF5FB834789
:101C4000F4FE860793948701E1848327C4FCDC4378
:101C50003E85EFE01FEAAA87E207E187C58FE2072A
:101C6000E187A307F4FE8347E4FE1387F7FF23070A
:101C7000E4FE85FF8327C4FC9C43BD8B0547B31757
:101C8000F70093960701C1828327C4FC9C4313D7B6
:101C90005700B70700200A079387C704BA979C43E9
:101CA0003687D8CB8327C4FCDC47232EF4FC010005
:101CB0008327C4FD1387F7FF232EE4FCF5FB83473E
:101CC000B4FCBE850325C4FCEFF07F9C8347F4FE83
:101CD0003E85F2506254D25421618280011106CEB9
:101CE00022CC00102326A4FEAE873287A305F4FE83
:101CF000BA872305F4FE8327C4FEB337F00093F7B9
:101D0000F70F3E8713062029D167938587093A8507
:101D1000EF30E06A0325C4FEEFF0CFF08327C4FE66
:101D200083C78700860793F7F70FBE850325C4FE98
:101D300091398347B4FEBE850325C4FEA131834794
:101D4000A4FEBE850325C4FE35390325C4FEEFF08D
:101D5000EFFF0100F240624405618280797106D68E
:101D600022D40018232EA4FCAE87A30DF4FC8327F5
:101D7000C4FDB337F00093F7F70F3E871306402AF0
:101D8000D167938587093A85EF306063A30704FE26
:101D90000325C4FDEFF00FE98327C4FD83C7870047
:101DA000860793F7F70FBE850325C4FDE13E834701
:101DB000B4FDBE850325C4FDF1360325C4FDEFF057
:101DC000EFF80325C4FDEFF0EFE58327C4FD83C7DB
:101DD00087008607E207E18793E71700E207E187BC
:101DE00093F7F70FBE850325C4FD693E854503259E
:101DF000C4FD0133AA87A307F4FE0325C4FDEFF059
:101E0000EFF48347F4FE3E85B25022544561828050
:101E1000797106D622D400182326A4FEAE87232289
:101E2000C4FE2320D4FE232EE4FCA305F4FE832766
:101E3000C4FEB337F00093F7F70F3E871306F02B7D
:101E4000D167938587093A85EF306057032704FEF1
:101E50008327C4FDB307F740B337F00093F7F70FBC
:101E60003E871306002CD167938587093A85EF30AA
:101E700000558327C4FE032704FE98C38327C4FEAE
:101E80000327C4FDD8C38327C4FE0347B4FE2384BD
:101E9000E7008327C4FE032744FED8C7C146054692
:101EA0008545032504FEEFE0FFC8D146054685457C
:101EB0000325C4FDEFE01FC80100B2502254456164
:101EC0008280011122CE00102326A4FEAE87A30536
:101ED000F4FED5670327C4FE0A079387478BBA979A
:101EE0009C433E878347B4FEC207C1832316F70095
:101EF0000100D5670327C4FE0A079387478BBA976B
:101F00009C4383D78700C207C18393F70708F5F383
:101F1000D5670327C4FE0A079387478BBA979C436C
:101F200083D7C7000100724405618280011122CE6F
:101F300000102326A4FEAE872315F4FE8357A4FECB
:101F4000A183C207C18393F6F70FD5670327C4FEA9
:101F50000A079387478BBA979C433E87939706015E
:101F6000C1832316F7000100D5670327C4FE0A07C3
:101F70009387478BBA979C4383D78700C207C18357
:101F800093F70708F5F38357A4FE93F6F70FD56789
:101F90000327C4FE0A079387478BBA979C433E8763
:101FA00093970601C1832316F7000100D567032725
:101FB000C4FE0A079387478BBA979C4383D7870051
:101FC000C207C18393F70708F5F301007244056166
:101FD00082805D7186C6A2C480082326A4FC2324C7
:101FE000B4FC2322C4FC2320D4FC232EE4FA232CAB
:101FF000F4FA232A04FBD5670327C4FC0A07938756
:10200000478BBA979C433E85EF60E03A854505458E
:10201000EF60E028032704FC93073012631DF700EC
:102020000327C4FB930750126317F7008545054546
:10203000EF50B05925A0032704FC89679387A714A4
:10204000631EF7000327C4FB89679387C7146317D0
:10205000F700854537152000EF5030578327C4FC23
:1020600091E785450565EF60802325A00327C4FC23
:1020700085476317F70085451165EF60A02611A815
:102080000327C4FC89476316F70085452165EF6087
:102090006025832704FC93F7F70F930680310546EC
:1020A00085453E85EFE01FA98327C4FB93F7F70F13
:1020B00093068031054685453E85EFE0BFA703279F
:1020C00084FBC167F917630DF700832784FB93F73F
:1020D000F70F93068034054681453E85EFE09FA5C6
:1020E000032744FB9307F00F630DF700832744FB9E
:1020F00093F7F70F93060031014685453E85EFE0E3
:102100007FA3232E04FC232004FE232204FE232489
:1021100004FE231604FE231E04FC93074010231F15
:10212000F4FC231004FE032784FC85476305F702B3
:10213000832784FC81CF032784FC89476303F7024C
:10214000032784FC8D476304F7020DA8231104FEC6
:10215000231204FE25A0231104FE85472312F4FE5A
:1021600031A889472311F4FE231204FE01A88947F0
:102170002311F4FE85472312F4FE0100231704FE09
:1021800003A70182832744FCB357F7022317F4FE09
:1021900003A70182832744FCB377F70291E78357B3
:1021A000E4FEFD172317F4FE0357E4FE9307F00740
:1021B00063F7E700930780032317F4FE49A803574A
:1021C000E4FE9307F00363F7E70093070003231788
:1021D000F4FEB5A80357E4FEFD4763F7E700930755
:1021E00080022317F4FEA5A00357E4FEBD4763F762
:1021F000E700930700022317F4FE91A80357E4FEBB
:102200009D4763F6E700E1472317F4FE89A00357D3
:10221000E4FE8D4763F6E700C1472317F4FE05A8E7
:102220000357E4FE854763F6E700A1472317F4FE52
:1022300039A88357E4FE81C7231704FE09A81306B3
:102240007021D167938547120145EF3040178357BE
:10225000E4FE2314F4FE930700202313F4FE231559
:1022600004FE9D472316F4FED5670327C4FC0A0726
:102270009387478BBA979C433E879307C4FDBE85DF
:102280003A85EF60A01AD5670327C4FC0A07938735
:10229000478BBA979C4385453E85EF60A028010097
:1022A000B640264461618280797122D60018232EBF
:1022B000A4FC232CB4FC8547A307F4FE0327C4FD2C
:1022C0000A0793874192BA979C4399EB0327C4FD71
:1022D0000A0793874192BA97032784FD98C315A0F4
:1022E0000327C4FD0A0793874192BA979C430327AB
:1022F00084FD6316F7008547A307F4FE19A0A30722
:1023000004FE8347F4FE3E8532544561828001110C
:1023100006CE22CC00102326A4FE8327C4FE81EB28
:102320008545856713850780EF5070776DA8032773
:10233000C4FE85476317F70085450545EF50907A41
:102340005DA00327C4FE89476317F700854509454B
:10235000EF50507949A80327C4FE8D476317F70053
:1023600085451145EF501078BDA80327C4FE91475D
:102370006317F70085452145EF50D076ADA00327C0
:10238000C4FE95476317F70085454145EF509075AA
:1023900099A80327C4FE99476318F70085451305DC
:1023A0000002EF50307481A00327C4FE9D476317DD
:1023B000F70085450965EF50906E35A00327C4FEF0
:1023C000A1476318F700854537050800EF50306DC9
:1023D00019A80327C4FEA5476317F70085453705ED
:1023E0001000EF50D06B0100F24062440561828022
:1023F000797122D60018232EA4FCB73701409387A9
:1024000007C02326F4FE231504FE0327C4FDA547B9
:1024100063ECE7088327C4FD13972700D5679387EC
:10242000078CBA979C438287B7370140938707C0D0
:102430002326F4FE95A8B70700402326F4FEADA09E
:10244000B7070040938707402326F4FEB1A8B717CB
:102450000040938707802326F4FEB9A0B7170040F9
:10246000938707C02326F4FE81A0B71700402326D8
:10247000F4FE1DA8B7170040938707402326F4FEFB
:1024800025A0B7370140938707402326F4FE29A8EB
:10249000B7570140938707C02326F4FE31A0B757F2
:1024A00001402326F4FE01000327C4FD0A07938799
:1024B000C194BA9798438947631FF7008327C4FEE6
:1024C00083D747021397070141838D47B357F7021C
:1024D0002315F4FE39A08327C4FE83D747022315B2
:1024E000F4FE8357A4FE3E853254456182807971A3
:1024F00022D60018232EA4FCB7370140938707C0CB
:102500002326F4FE0327C4FDA54763ECE7088327D1
:10251000C4FD13972700D5679387878EBA979C438E
:102520008287B7370140938707C02326F4FE95A81A
:10253000B70700402326F4FEADA0B70700409387FD
:1025400007402326F4FEB1A8B71700409387078001
:102550002326F4FEB9A0B7170040938707C02326AF
:10256000F4FE81A0B71700402326F4FE1DA8B7177C
:102570000040938707402326F4FE25A0B73701408B
:10258000938707402326F4FE29A8B7570140938775
:1025900007C02326F4FE31A0B75701402326F4FEDE
:1025A00001008327C4FE23920702010032544561D3
:1025B0008280797106D622D40018232EA4FC232C05
:1025C000B4FC85450325C4FDC531AA873E871306A3
:1025D000200FD1679385C71A3A85EF20505E0327F5
:1025E000C4FD0A0793874192BA97054798C3B73746
:1025F0000140938707C02326F4FE0327C4FDA547A7
:1026000063ECE7088327C4FD13972700D5679387FA
:102610000791BA979C438287B7370140938707C0D9
:102620002326F4FE95A8B70700402326F4FEADA0AC
:10263000B7070040938707402326F4FEB1A8B717D9
:102640000040938707802326F4FEB9A0B717004007
:10265000938707C02326F4FE81A0B71700402326E6
:10266000F4FE1DA8B7170040938707402326F4FE09
:1026700025A0B7370140938707402326F4FE29A8F9
:10268000B7570140938707C02326F4FE31A0B75700
:1026900001402326F4FE01000325C4FD8D390327E4
:1026A000C4FD0A079387C194BA97032784FD98C392
:1026B000232004FE232204FE231404FE032784FDAA
:1026C00085476315F702FD572312F4FE03A7018225
:1026D000B7470F0093870724B357F702C207C18398
:1026E000FD17C207C1832310F4FE2DA8032784FD24
:1026F00089476314F702FD572312F4FE03A70182F2
:102700008567938787BBB357F702C207C183FD175D
:10271000C207C1832310F4FE31A0FD572312F4FE3B
:10272000231004FE231304FE231104FE230404FEDD
:10273000930704FEBE850325C4FEEF505064854513
:102740000325C4FEEF60406C0100B2502254456185
:102750008280011122CE00102326A4FEAE87A3059D
:10276000F4FE0100D5670327C4FE0A079387879309
:10277000BA979C4383D70700C207C18393F7070822
:10278000F5D3D5670327C4FE0A0793878793BA97C3
:102790009C433E878347B4FEC207C1832312F700E0
:1027A0000100724405618280011106CE22CC001026
:1027B0002326A4FE2324B4FE2322C4FE832784FE02
:1027C000B337F00093F7F70F3E8713061004D16775
:1027D000938547233A85EF20903E29A8832784FEDE
:1027E000138717002324E4FE83C70700BE85032553
:1027F000C4FE8537832744FE1387F7FF2322E4FEB8
:10280000F1FF0100F240624405618280011106CEB1
:1028100022CC00102326A4FE2324B4FE832784FEAA
:10282000B337F00093F7F70F3E8713060005D16723
:10283000938547233A85EF20903839A8832784FE73
:10284000138717002324E4FE8387070093F7F70F0D
:10285000BE850325C4FEF53D832784FE83870700DC
:10286000F1FF0100F240624405618280011106CE51
:1028700022CC00102326A4FEAE87A305F4FED56764
:102880000327C4FE0A0793878793BA979C433E8722
:102890008347B4FE3E86930550523A85EF60305C24
:1028A000138741858327C4FEBA9783C707008145F4
:1028B0003E85EF3010358347B4FE81CF13874185C5
:1028C0008327C4FEBA9783C707003E85EF30B02F39
:1028D00019A8138741858327C4FEBA9783C70700C9
:1028E0003E85EF3030300100F24062440561828065
:1028F000011122CE00102326A4FE2324B4FED567A6
:102900000327C4FE0A0793878793BA979C4383D70C
:102910000700C207C18393F707028DC7D567032756
:10292000C4FE0A0793878793BA979C4383D74700CF
:10293000C207C18313F7F70F832784FE2380E700C4
:10294000854711A081473E85724405618280797177
:1029500006D622D40018232EA4FC232CB4FC232A50
:10296000C4FC2328D4FC032744FD832704FD3D8FAA
:102970008327C4FDB207F98F93B7170093F7F70FBA
:102980003E871306A00AD167938547233A85EF2037
:102990001023832744FD13D78700832704FDA183D9
:1029A000B307F74093B7170093F7F70F3E87130667
:1029B000B00AD167938547233A85EF2050208327BB
:1029C00044FD93F7F70FE146014685453E85EFE06C
:1029D0006F96832704FD93F7F70F93068004014653
:1029E00081453E85EFE00F9585450545EF50300B5D
:1029F000032744FDC167FD17F98F0D6713070738DB
:102A00006387E7200D67130707386369F7040567D5
:102A1000130757166381E716056713075716636F89
:102A2000F7001307F022638AE70C13076030638115
:102A3000E710130760126388E70865A609671307A4
:102A40008736638BE7160D67130707126387E7184E
:102A500009671307A7146380E71461A615671307B6
:102A6000A738638EE72615671307A7386362F70256
:102A70001167130787386380E720156713078712EC
:102A80006385E722116713074712638CE71A91AE3B
:102A900019671307C7386388E72A19671307C73808
:102AA0006368F7001967130767106384E72615AE9C
:102AB0001D671307E7106382E72C1D671307E738CC
:102AC0006387E72E39AEB7070140D44FB7070140FF
:102AD000370700FC7D17758FD8CFB7070140D84363
:102AE000B70701406D9BD8C3B7070140D843B7076C
:102AF000014013674700D8C3EDA4B7070140D44F86
:102B0000B7070140370700FC7D17758FD8CFB7078F
:102B10000140D44FB707014037070004558FD8CF85
:102B2000B7070140D843B70701406D9BD8C355ACE8
:102B3000B7070140D44FB7070140370700FC7D17A6
:102B4000758FD8CFB7070140D44FB707014037077B
:102B50000004558FD8CFB7070140D843B7070140CD
:102B60006D9BD8C3B7070140D843B707014013672F
:102B70004700D8C3BDA4B7070140D843B7070140F9
:102B80005D9BD8C3B7070140D843B707014013671F
:102B90008700D8C3B9A4B7070140D843B70701409D
:102BA0001377F7FCD8C3B7070140D843B7070140F4
:102BB00013670701D8C335A4B7070140D843B70747
:102BC00001401377F7FCD8C3B7070140D843B707D4
:102BD000014013670703D8C329A4B7070140D44FA6
:102BE000B70701403707FDFF7D17758FD8CFB707AF
:102BF0000140D44F832744FDA18313970701B707F2
:102C000003007D8FB7070140558FD8CFD9AAB707EA
:102C10000140D44FB70701403707FDFF7D17758F7F
:102C2000D8CFB7070140D44F832744FDA183139722
:102C30000701B70703007D8FB7070140558FD8CF35
:102C40004DA2B7070140D44FB70701403707F4FF43
:102C50007D17758FD8CFB7070140D44F832744FD28
:102C6000A18313972701B7070C007D8FB707014099
:102C7000558FD8CFBDA2B7070140D44FB707014049
:102C80003707F4FF7D17758FD8CFB7070140D44FB2
:102C9000832744FDA18313972701B7070C007D8F7D
:102CA000B7070140558FD8CF2DAAB7070140D44FA1
:102CB000B70701403707D0FF7D17758FD8CFB7070B
:102CC0000140D44F832744FDA18313974701B707E1
:102CD00030007D8FB7070140558FD8CF19A2B707B5
:102CE0000140D44FB70701403707D0FF7D17758FDC
:102CF000D8CFB7070140D44F832744FDA183139752
:102D00004701B70730007D8FB7070140558FD8CFF7
:102D1000C9A8B7070140D44FB7070140370740FFA4
:102D20007D17758FD8CFB7070140D44F832744FD57
:102D3000A18313976701B707C0007D8FB7070140D4
:102D4000558FD8CF79A8B7070140D44FB7070140B6
:102D5000370740FF7D17758FD8CFB7070140D44F95
:102D6000832744FDA18313976701B707C0007D8FB8
:102D7000B7070140558FD8CFADA0B7070140D44F5A
:102D8000B7070140370700FD7D17758FD8CFB7070C
:102D90000140D44F832744FDA18313978701B707D0
:102DA00000037D8FB7070140558FD8CF1DA8B70707
:102DB0000140D44FB7070140370700FD7D17758FDD
:102DC000D8CFB7070140D44F832744FDA183139781
:102DD0008701B70700037D8FB7070140558FD8CF14
:102DE00001008327C4FD91E785451165EF50204B15
:102DF00069A80327C4FD85476318F7008545370593
:102E00000200EF50204E51A00327C4FD89476318EC
:102E1000F700854537050400EF50C04CBDA00327DF
:102E2000C4FD8D476318F700854537050800EF504E
:102E3000604BA1A80327C4FD91476318F70085459F
:102E400037051000EF50004A89A00327C4FD9547BD
:102E50006318F700854513050004EF50A04835A01E
:102E60000327C4FD99476318F7008545130500083B
:102E7000EF50404719A80327C4FD9D476317F7008B
:102E8000854513050010EF50E045232004FE232262
:102E900004FE232404FE232604FE832784FD23202E
:102EA000F4FE231204FE231304FE231404FE23164F
:102EB00004FEB1472315F4FED5670327C4FD0A07B6
:102EC00093878793BA979C433E87930704FEBE85FA
:102ED0003A85EF60804FD5670327C4FD0A079387C3
:102EE0008793BA979C4385453E85EF60407101000A
:102EF000B250225445618280411106C622C40008A6
:102F0000A14613868186814513854197EF20307B4A
:102F10000100B240224441018280411106C622C410
:102F2000000883A741870547638BE7006388070C88
:102F30000947638DE7000D47638FE702E9A083A788
:102F400001871387170023A8E18675A883A7018747
:102F50001387170023A8E18603A70187A54763F11C
:102F6000E70AB70700209387C7049C4B1167D8CBAB
:102F700023A8018671A003A7818785476314F708FA
:102F80001305F008EFD0FFB6AA87ADC31945EFF0DF
:102F90002FC6AA873E8783A701871D8F93076009E5
:102FA00063F2E7061945EFF08FD483A70187D3F7C3
:102FB00017D05385F720EFD0207CD16703A6072CCC
:102FC00083A6472CEFC0A040AA872E883E85C285E5
:102FD000EFD04063AA87139707014183B70700200A
:102FE000239CE736094723ACE18629A81945EFF071
:102FF0002FC0AA873E8723A8E18629A0010021A02F
:10300000010011A001000100B24022444101828070
:10301000411106C622C4000883A741870947637C83
:10302000F7000D47639AE7001945EFF04FCC0547CD
:1030300023ACE18611A001000100B240224441010D
:103040008280011106CE22CC0010232204FE83C709
:10305000D187638A070E09A8930734FE0546BE850B
:1030600013850199EF207007930734FEBE851D4537
:10307000EFF01F88AA87EDF3034734FEA9476314D6
:10308000F70C99472322F4FE130744FE930784FEAE
:1030900085463A86BE8513850199EF205034930703
:1030A00084FE138737000D46D1679385872C3A85B8
:1030B000EFE0C036AA879DEB03A741888947630DDF
:1030C000F706054723A2E18813850199EF20206BBD
:1030D000AA872322F4FE930744FE81463E86938509
:1030E000C1A213850199EF20902FB9A0930784FE08
:1030F000138737000D46D1679385C72C3A85EFE0DB
:10310000E031AA8795EB03A7018889476306F70298
:10311000054723A0E18813850199EF204066AA871F
:103120002322F4FE930744FE81463E869385C19A8E
:1031300013850199EF20B02A13850199EF202054BF
:103140000547238EE1860100F240624405618280DA
:10315000397106DE22DC80002326A4FC8547A30704
:10316000F4FE231604FE232404FE232E04FC83D73E
:1031700001893E87930700236316F700A5472324A0
:10318000F4FE29A0A1472324F4FE01008DA8930793
:1031900050FA2300F4FE832784FE8A070327C4FC29
:1031A000BA978397070093F7F70FA300F4FE8327DE
:1031B00084FE8A070327C4FCBA978397270023134A
:1031C000F4FE835764FEA183C207C18393F7F70F10
:1031D0002301F4FE835764FE93F7F70FA301F4FE77
:1031E000930704FE1146BE851145EFF0EFDB09455C
:1031F000EFD08F8B832784FEFD172324F4FE032753
:1032000084FE9307E00FE3F4E7F813854197EF207E
:1032100000572A87894763FFE7028D47232EF4FC76
:103220001307C4FD930704FE81463A86BE851385C5
:103230004197EF20D01A034714FE9307F00F63085D
:10324000F700034724FE9307F00F6315F700A30769
:1032500004FE31A80545EFD02F858357C4FE1387A0
:1032600017002316E4FE1307F007E370F7FA83470D
:10327000F4FE3E85F250625421618280397106DE8F
:1032800022DC80002326A4FCA30704FE231604FEF0
:10329000232404FE232E04FC83D701893E87930751
:1032A00000236316F700A5472324F4FE29A0A147B5
:1032B0002324F4FE0100832784FEFD172324F4FE5B
:1032C00029A203D701899307F02263EDE700832742
:1032D00084FE8A070327C4FCBA9703970700A54713
:1032E000630FF70C930750FA2300F4FEC557A300B1
:1032F000F4FE832784FE8A070327C4FCBA978397CA
:1033000007002313F4FE835764FEA183C207C18321
:1033100093F7F70F2301F4FE835764FE93F7F70F3B
:10332000A301F4FE930704FE1146BE851145EFF09C
:10333000AFC7231604FE13854197EF2040442A8728
:10334000894763F7E7048D47232EF4FC1307C4FD78
:10335000930704FE81463A86BE8513854197EF2088
:103360001008834714FEA20793960701C18683477E
:1033700024FE139707014187832784FE8A070326CB
:10338000C4FCB297558F420741872391E70031A8CB
:103390000545EFC07FF18357C4FE1387170023163E
:1033A000E4FE1307F007E378F7F80357C4FE93072A
:1033B000000863F7E7008547A307F4FE19A801009A
:1033C000832784FEFD172324F4FE832784FEE39ADB
:1033D00007EE8347F4FE3E85F250625421618280FD
:1033E000011106CE22CC0010A30704FE9307F4FEC1
:1033F000BE851145EFF0CFCF0347F4FE9307500A87
:103400006316F70013854197EF2060278347F4FE8A
:10341000BE8513854197EF20C03A0100F240624417
:1034200005618280411122C6000805472384E18896
:103430000100324441018280011106CE22CC0010ED
:10344000231704FE231604FE232004FE930750FADC
:103450002302F4FEC557A302F4FE9307200F2315A1
:10346000F4FE8357A4FEA183C207C18393F7F70F2D
:103470002303F4FE8357A4FE93F7F70FA303F4FE90
:10348000930744FE1146BE851145EFF0EFB1138559
:103490004197EF20C02E2A87894763F0E7048D47C4
:1034A0002320F4FE130704FE930744FE81463A8668
:1034B000BE8513854197EF208072834754FEA20793
:1034C000139707014187834764FEC207C187D98FDD
:1034D000C207C1872316F4FE31A80545EFC0DFDC23
:1034E0008357E4FE138717002317E4FE1307F00742
:1034F000E37FF7F88357C4FE3E85F24062440561DE
:103500008280397106DE22DC8000A30704FE0547B5
:1035100023A6E1889307C4FD1307C0049306200681
:103520001306401F81453E85EFE09F8E1305800CFA
:10353000EFC09FD71307C4FDB70700209385070688
:103540003A85EFA0E048AA87638A070C23A6018882
:1035500091679386270691671386C70489679385C9
:1035600007581145EFF0AFBE85451145EFF00FB09C
:103570001305800CEFC05FD3B737000013864742B6
:10358000B73700009385073E0D45EF10604BEFF015
:10359000BF965D35AA873E872398E188B70700204C
:1035A00013850706EFF0DFBAAA878DCB9306701B51
:1035B000D1671386873BD167938587440145EF1018
:1035C0009066014681450145EF10804781451145D0
:1035D000EFF0CFA98547A307F4FE89A0B707002025
:1035E00013858708EFF09FC9AA878DCB9306401CEF
:1035F000D1671386873BD167938547460145EF1016
:103600009062014681450145EF1080438145114597
:10361000EFF0CFA58547A307F4FE0100B737000000
:1036200013864742B73700009385073E0D45EF10DC
:10363000204191473EC495473EC299473EC09308FA
:10364000900213088002930760021307B0049306E8
:10365000900413068004A9452545EFC05FD985462F
:103660009967138607828145B70700201385476253
:10367000EFC01FE88347F4FE3E85F250625421619B
:103680008280011106CE22CC0010AA87A307F4FE87
:10369000B70700209387C704DC4713070008D8CB7F
:1036A0008347F4FEBE850545EFE0BF81B7070020E4
:1036B0009387C704DC471307000898CB0100F2404A
:1036C000624405618280011106CE22CC0010AA87D7
:1036D00036872317F4FEAE872316F4FEB287231530
:1036E000F4FEBA872314F4FE83C7C180C207C183E6
:1036F0000357E4FEB337F70093F7F70F3E8713063F
:10370000A008D167938507483A85EF10504B83C7CF
:10371000D180C207C1830357C4FEB337F70093F7C4
:10372000F70F3E871306B008D167938507483A859F
:10373000EF10F04883C7C180C207C1830357A4FEBE
:10374000B337F70093F7F70F3E871306C008D1672A
:10375000938507483A85EF10904683C7D180C2070A
:10376000C183035784FEB337F70093F7F70F3E8703
:103770001306D008D167938507483A85EF10304487
:1037800083A7418905476376F7000D476369F71002
:1037900061A01305A002F53581450545EFE06FF204
:1037A0008357E4FE93F7F70F890793F7F70FBE856A
:1037B0000545EFE00FF181450545EFE08FF08357B8
:1037C000A4FE93F7F70F890793F7F70FBE8505451A
:1037D000EFE02FEF1305B0026D3581450545EFE0B1
:1037E0004FEE8357C4FE93F7F70F850793F7F70F54
:1037F000BE850545EFE0EFEC81450545EFE06FEC58
:10380000835784FE93F7F70F850793F7F70FBE856D
:103810000545EFE00FEB61A01305A0029D35814542
:103820000545EFE00FEA8357E4FE93F7F70F8507AE
:1038300093F7F70FBE850545EFE0AFE881450545F5
:10384000EFE02FE88357A4FE93F7F70F850793F770
:10385000F70FBE850545EFE0CFE61305B00215353D
:1038600081450545EFE0EFE58357C4FE93F7F70F79
:10387000890793F7F70FBE850545EFE08FE4814593
:103880000545EFE00FE4835784FE93F7F70F8907B0
:1038900093F7F70FBE850545EFE0AFE20100130592
:1038A000C002C5330100F240624405618280797133
:1038B00006D622D400189307C4FD3E85EF10903B36
:1038C0008547231EF4FC83C7C180C207C183231F21
:1038D000F4FC83C7D180C207C1832310F4FE83A701
:1038E00081800547638AE70099EF99472301F4FE39
:1038F000A147A301F4FE09A8A1472301F4FEC14793
:10390000A301F4FE11A00100B74700009387C7D8B8
:103910002324F4FEB7470000938747932326F4FE41
:103920009307C4FD3E85EF10903A0100B250225437
:1039300045618280011106CE22CC001083C7C18070
:103940003E8783C7D180B307F7022326F4FEB7076B
:1039500000209387C704DC474147D8CB83C7C18089
:10396000C207C183FD1713970701418383C7D18025
:10397000C207C183FD17C207C183BE863A8681454F
:103980000145EFF05FD431A8B707002083D7C737D0
:10399000BE850545EFE08FD98327C4FEFD1723269A
:1039A000F4FE8327C4FEEDF3B70700209387C70416
:1039B000DC47414798CB0100F240624405618280B8
:1039C000797106D622D40018AA87231FF4FC83C776
:1039D000C1803E8783C7D180B307F7022326F4FE58
:1039E000B70700209387C704DC474147D8CB83C77C
:1039F000C180C207C183FD1713970701418383C7A5
:103A0000D180C207C183FD17C207C183BE863A8633
:103A100081450145EFF03FCB21A88357E4FDBE85EA
:103A20000545EFE0AFD08327C4FEFD172326F4FE43
:103A30008327C4FEFDF3B70700209387C704DC4744
:103A4000414798CB0100B250225445618280011158
:103A500022CE00102326A4FE0327C4FE23AAE18859
:103A600083A7418905476376F7000D476365F70231
:103A700011A8130700F82386E180130700FAA38634
:103A8000E18011A8130700FA2386E180130700F8EC
:103A9000A386E1800100010072440561828001116A
:103AA00022CE0010AA872E872317F4FEBA8723168A
:103AB000F4FEB70700200357E4FE239DE736B7075F
:103AC00000200357C4FE239EE736010072440561BF
:103AD0008280797106D622D40018AA87AE863287F2
:103AE000231FF4FCB687231EF4FCBA87A30DF4FC55
:103AF00083C7C180C207C1830357E4FDB337F70012
:103B000093F7F70F3E8713069019D16793850748FF
:103B10003A85EF10D00A83C7D180C207C18303570B
:103B2000C4FDB337F70093F7F70F3E871306A019CC
:103B3000D167938507483A85EF107008A30704FE04
:103B4000230704FEB70700209387C704DC474147DB
:103B5000D8CB83A781800547638EE70C639B072042
:103B6000A30704FED1A08347F4FE13970701418306
:103B70008357E4FDBA971395070141818347F4FE0B
:103B80001397070141838357E4FDBA971397070101
:103B900041838357C4FDA10793960701C1828357D0
:103BA000C4FD3A86BE85EFF01FB28307B4FD1387CC
:103BB00007FE8346F4FE5566BA878607BA978607DE
:103BC000130786F4BA97B69783C70700A306F4FED7
:103BD000230704FE81A08347D4FE858B91CBB707D2
:103BE000002083D7A737BE850545EFE02FB409A88D
:103BF000B707002083D7C737BE850545EFE00FB371
:103C00008347D4FE8583A306F4FE8347E4FE85073D
:103C10002307F4FE0347E4FE9D47E3FEE7FA8347EC
:103C2000F4FE8507A307F4FE0347F4FE9547E3FC83
:103C3000E7F289A2A30704FE3DA28347F4FE13978F
:103C4000070141838357E4FDBA971395070141812A
:103C50008347F4FE1397070141838357E4FDBA9726
:103C60001397070141838357C4FDBD07939607014E
:103C7000C1828357C4FD3A86BE85EFF0DFA4830777
:103C8000B4FD938607FE8347F4FE5567920613073B
:103C900087953697BA9783C707002306F4FE8307F4
:103CA000B4FD938607FE8347F4FEA107556792068D
:103CB000130787953697BA9783C70700A305F4FEC5
:103CC000230704FE81A08347C4FE858B91CBB707F1
:103CD000002083D7A737BE850545EFE02FA509A8AB
:103CE000B707002083D7C737BE850545EFE00FA48F
:103CF0008347C4FE85832306F4FE8347E4FE8507DD
:103D00002307F4FE0347E4FE9D47E3FEE7FA23079B
:103D100004FE81A08347B4FE858B91CBB7070020BA
:103D200083D7A737BE850545EFE04FA009A8B707A1
:103D3000002083D7C737BE850545EFE02F9F834717
:103D4000B4FE8583A305F4FE8347E4FE85072307BD
:103D5000F4FE0347E4FE9D47E3FEE7FA8347F4FEE3
:103D60008507A307F4FE0347F4FE9D47E3F7E7EC5E
:103D700011A00100B70700209387C704DC47414723
:103D800098CB0100B250225445618280797106D6E9
:103D900022D40018AA872E87232CC4FC231FF4FCEE
:103DA000BA87231EF4FC83C7C180C207C1830357AF
:103DB000E4FDB337F70093F7F70F3E871306D01EE5
:103DC000D167938507483A85EF10605F83C7D1803C
:103DD000C207C1830357C4FDB337F70093F7F70F4A
:103DE0003E871306E01ED167938507483A85EF109A
:103DF000005D231704FE71A083A7818005476381BE
:103E0000E704B5EB0357E4FEBA878607BA9786073F
:103E10001397070141838357E4FDBA9793960701EF
:103E2000C1828357E4FE032784FDBA970387070006
:103E30008357C4FD3A86BE853685EFF09FC92DA80D
:103E40008357E4FE8E071397070141838357E4FDF0
:103E5000BA9793960701C1828357E4FE032784FD36
:103E6000BA97038707008357C4FD3A86BE85368517
:103E7000EFF03FC611A001008357E4FE850723172A
:103E8000F4FE8357E4FE032784FDBA978387070077
:103E9000A5F70100B250225445618280397106DED7
:103EA00022DC8000AA872324C4FC36872317F4FC75
:103EB000AE872316F4FCBA87A303F4FC83C7C18042
:103EC000C207C1830357E4FCB337F70093F7F70F3A
:103ED0003E871306B020D167938507483A85EF10D7
:103EE000004E83C7D180C207C1830357C4FCB337D8
:103EF000F70093F7F70F3E871306C020D16793852D
:103F000007483A85EF10A04B834774FCB337F000A5
:103F100093F7F70F3E871306D020D16793850748A4
:103F20003A85EF10C049834774FC93B7B70093F705
:103F3000F70F3E871306E020D167938507483A853F
:103F4000EF10E047832784FC2326F4FE85472324D3
:103F5000F4FE9307C4FD314681453E85EFC04FAA6C
:103F6000834774FC85073E879307C4FD3A86930513
:103F700000023E85EFC0CFA8034774FCA54763EB62
:103F8000E70231A8032784FEBA878A07BA97860713
:103F90002324F4FE834774FCFD17A303F4FC83473A
:103FA00074FCEDF30327C4FE832784FEB367F70296
:103FB0002326F4FE9307C4FD8325C4FE3E85EF103F
:103FC00070799306C4FD0357C4FC8357E4FC36861E
:103FD000BA853E85EFF09FDB0100F250625421610B
:103FE00082805D7186C6A2C4A6C280082328C4FA56
:103FF000232AD4FABA863E87AA87231FF4FAAE870B
:10400000231EF4FAB687A30DF4FABA87230DF4FA47
:1040100083C7C180C207C1830357E4FBB337F700EE
:1040200093F7F70F3E871306C025D167938507489E
:104030003A85EF10C03883C7D180C207C1830357C8
:10404000C4FBB337F70093F7F70F3E871306D0256D
:10405000D167938507483A85EF1060368347B4FBF4
:10406000B337F00093F7F70F3E871306E025D167CB
:10407000938507483A85EF1080348347B4FB93B7A4
:10408000970093F7F70F3E871306F025D1679385C6
:1040900007483A85EF10A0328347A4FBB337F000FE
:1040A00093F7F70F3E8713060026D16793850748DD
:1040B0003A85EF10C0308347A4FB93B7770093F79E
:1040C000F70F3E8713061026D167938507483A8578
:1040D000EF10E02E832704FB032844FB2320F4FE8B
:1040E000232204FFD16703A8C75083A78750232446
:1040F000F4FE232604FF9307C4FC454681453E8514
:10410000EFC00F900347B4FB8347A4FBBA9789071E
:104110003E879307C4FC3A86930500023E85EFC0B4
:104120002F8E3DA0D16703A6075183A647510325D3
:1041300084FE8325C4FEEFB08029AA872E8823241D
:10414000F4FE232604FF8347B4FBFD17A30DF4FA06
:104150008347B4FBE1FB032504FE832544FEEFC047
:10416000E03CAA84032584FE8325C4FEEFC0003C06
:10417000AA87B3C7F4023E85EFC0A052AA872E8853
:10418000032684FE8326C4FE3E85C285EFB020242C
:10419000AA872E883E86C286032504FE832544FE18
:1041A000EFB05008AA872E882320F4FE232204FFB4
:1041B0000347A4FB9307C4FCBA86832504FE0326A9
:1041C00044FE3E85EF10706A9306C4FC0357C4FB9F
:1041D0008357E4FB3686BA853E85EFF03FBB01008E
:1041E000B64026449644616182805D7186C6A2C451
:1041F00080082A8E2E832324C4FC3685BA853E8609
:10420000C2864687F2872317F4FC9A872316F4FCAC
:10421000AA872313F4FCAE872312F4FCB287231180
:10422000F4FCB6872310F4FCBA87A30FF4FA83C713
:10423000C180C207C1830357E4FCB337F70093F78B
:10424000F70F3E871306B02BD167938507483A8551
:10425000EF10E01683C7D180C207C1830357C4FCA7
:10426000B337F70093F7F70F3E871306C02BD167DC
:10427000938507483A85EF108014832784FCB33771
:10428000F00093F7F70F3E871306D02BD167938585
:1042900007483A85EF10A012232604FE232404FECB
:1042A000231304FE231204FE232004FE232E04FC09
:1042B000B70700209387C704DC474147D8CB035793
:1042C000E4FC835724FCBA97C207C183FD171396F9
:1042D000070141820357C4FC835704FCBA97C20705
:1042E000C183FD1793960701C1820357C4FC83570E
:1042F000E4FCBA853E85EFF00FBD232404FE19A22D
:10430000035744FC832784FE3307F702835704FCDA
:10431000B357F702232EF4FC232604FEC9A8035743
:1043200064FC8327C4FE3307F702835724FCB3578A
:10433000F7022320F4FE035764FC8327C4FD3307F0
:10434000F702832704FEBA97032784FCBA9783C732
:1043500007002312F4FE8347F4FBB5E3835744FEC2
:104360008D83C207C183AE072313F4FE835744FE37
:104370008983C207C1839607C207C18793F7077E67
:10438000139707014187831764FED98FC207C1873E
:104390002313F4FE835744FE8D83C207C183FD8B34
:1043A000139707014183835764FED98F2313F4FECB
:1043B000835764FEBE850545EFD05FB725A08347D0
:1043C000F4FBC207C183035744FE6377F7008145BE
:1043D0000545EFD0BFB539A0C1679385F7FF054507
:1043E000EFD0DFB48327C4FE85072326F4FE83576E
:1043F00024FC0327C4FEE364F7F2832784FE8507C9
:104400002324F4FE835704FC032784FEE36AF7EEBB
:10441000B70700209387C704DC47414798CB0100CA
:10442000B6402644616182805D7186C6A2C4800860
:104430002A8E2E832324C4FC3685BA853E86C28606
:104440004687F2872317F4FC9A872316F4FCAA8781
:104450002313F4FCAE872312F4FCB2872311F4FC7F
:10446000B6872310F4FCBA87A30FF4FA83C7C18080
:10447000C207C1830357E4FCB337F70093F7F70F84
:104480003E871306602FD167938507483A85EF0072
:10449000107383C7D180C207C1830357C4FCB337ED
:1044A000F70093F7F70F3E871306702FD1679385B8
:1044B00007483A85EF00B070832784FCB337F000DB
:1044C00093F7F70F3E871306802FD1679385074830
:1044D0003A85EF00D06E232604FE232404FE231326
:1044E00004FE232004FE232E04FCB707002093873C
:1044F000C704DC474147D8CB0357E4FC835724FC6F
:10450000BA97C207C183FD1713960701418203576B
:10451000C4FC835704FCBA97C207C183FD17939666
:104520000701C1820357C4FC8357E4FCBA853E856A
:10453000EFF06F99232404FE45A8035744FC83271A
:1045400084FE3307F702835704FCB357F702232E88
:10455000F4FC232604FEB5A8035764FC8327C4FE9D
:104560003307F702835724FCB357F7022320F4FEE6
:10457000035764FC8327C4FD3307F702832704FE37
:10458000BA978607032784FCBA9783D707002313BB
:10459000F4FE8347F4FB9DC3835764FEA207139781
:1045A00007014187835764FEA183C207C183C20705
:1045B000C187D98FC207C1872313F4FE835764FED6
:1045C000BE850545EFD09F968327C4FE8507232629
:1045D000F4FE835724FC0327C4FEE36FF7F683271A
:1045E00084FE85072324F4FE835704FC032784FEFE
:1045F000E365F7F4B70700209387C704DC4741471A
:1046000098CB0100B640264461618280411106C604
:1046100022C400081308F00FC167F91705671307D4
:10462000F70285669386D60237A64A04130606204B
:1046300081450545EFD0FF99C146014685451305E3
:104640007006EFC02FCFC1460146854513057002A5
:10465000EFC04FCEC1460546854513054006EFC065
:104660006FCDC1460546854513050006EFC08FCCCA
:1046700083A741893E85EFF08FBDB707002003D7A0
:10468000A737B707002083D7C737BE853A85EFF035
:104690000FC1B70700209387C704DC431307000846
:1046A000D8CB2945EFB05FC0B70700209387C70478
:1046B000DC431307000898CB13058007EFB0DFBE7B
:1046C000B70700209387C704DC474147D8CB45454F
:1046D000EFE03FFB13058007EFB01FBD1305100B84
:1046E000EFE03FFA85450545EFD0AFFD9305C002E9
:1046F0000545EFD00FFD9305D0020545EFD06FFCC7
:104700001305200BEFE0FFF785450545EFD06FFB64
:104710009305C0020545EFD0CFFA9305D0020545B9
:10472000EFD02FFA1305300BEFE0BFF585450545B7
:10473000EFD02FF99305C0020545EFD08FF8930510
:10474000D0020545EFD0EFF785450545EFD06FF76F
:104750009305C0020545EFD0CFF69305D00205457D
:10476000EFD02FF61305400BEFE0BFF19D45054557
:10477000EFD02FF51305000CEFE0BFF09305200AF2
:104780000545EFD00FF489450545EFD08FF393052C
:1047900040080545EFD0EFF21305100CEFE07FEE77
:1047A0009305500C0545EFD0CFF11305200CEFE039
:1047B0005FEDA9450545EFD0CFF081450545EFD028
:1047C0004FF01305300CEFE0DFEB9305A008054533
:1047D000EFD02FEF9305A0020545EFD08FEE130524
:1047E000400CEFE01FEA9305A0080545EFD06FED00
:1047F0009305E00E0545EFD0CFEC1305500CEFE02C
:104800005FE8B9450545EFD0CFEB13056003EFE056
:104810005FE783A7418905476380E70281CB0947AA
:104820006381E7020D476384E70205A89305000C46
:104830000545EFD00FE915A081450545EFD06FE89C
:1048400029A89305000A0545EFD0AFE739A09305E5
:1048500000060545EFD0EFE601001305000EEFE07E
:104860005FE2BD450545EFD0CFE5E9450545EFD011
:104870004FE5BD450545EFD0CFE4E1450545EFD017
:104880004FE49305F0020545EFD0AFE393058002B6
:104890000545EFD00FE3930500020545EFD06FE229
:1048A000930520020545EFD0CFE1FD450545EFD04A
:1048B0004FE1ED450545EFD0CFE0930530020545CA
:1048C000EFD02FE0930570030545EFD08FDF8145D2
:1048D0000545EFD00FDF9D450545EFD08FDE8945BB
:1048E0000545EFD00FDEC1450545EFD08FDD13053F
:1048F000100EEFE01FD9BD450545EFD08FDCED452B
:104900000545EFD00FDCBD450545EFD08FDBDD451C
:104910000545EFD00FDB930530030545EFD06FDA87
:104920009305C0020545EFD0CFD993059002054508
:10493000EFD02FD99305E0020545EFD08FD893052E
:1049400000030545EFD0EFD7930500030545EFD0F1
:104950004FD7930590030545EFD0AFD69305F003ED
:104960000545EFD00FD681450545EFD08FD59D4544
:104970000545EFD00FD58D450545EFD08FD4C14506
:104980000545EFD00FD41305A002EFE09FCF81457E
:104990000545EFD00FD389450545EFD08FD281452E
:1049A0000545EFD00FD2930520080545EFD06FD114
:1049B0001305B002EFE0FFCC81450545EFD06FD085
:1049C0008D450545EFD0EFCF81450545EFD06FCF41
:1049D000930530080545EFD0CFCE1305000FEFE06B
:1049E0005FCA85450545EFD0CFCD1305600FEFE0D9
:1049F0005FC981450545EFD0CFCC1305A003EFE09B
:104A00005FC895450545EFD0CFCB13059002EFE089
:104A10005FC7B70700209387C704DC47414798CB9F
:104A2000EFE05FF1EFE0BFE80100B2402244410156
:104A30008280411122C60008010032444101828077
:104A4000011122CE00102326A4FE2324B4FE23222B
:104A5000C4FE0327C4FE23ACE188832744FE81C73C
:104A6000832744FE29A0B7570000938727A323AAD2
:104A7000F180832784FE81C7832784FE29A0B7574E
:104A80000000938727A323A8F180010072440561E9
:104A90008280411122C60008B71702409843B71719
:104AA00002401367170098C3B7170240D443B717E3
:104AB00002403707FFF8758FD8C3B71702409443F9
:104AC000B71702403707F7FE7D17758F98C3B717E2
:104AD00002409443B71702403707FCFF7D17758FDC
:104AE00098C3B7170240D443B7170240370781FF76
:104AF0007D17758FD8C3B717024037079F0098C737
:104B00000100324441018280797106D622D4001816
:104B1000232EA4FCEFF0FFF7232604FE232404FE3B
:104B2000B71702409443B71702404167558F98C3A7
:104B3000B71702409843B7070200F98F2324F4FE09
:104B40008327C4FE85072326F4FE832784FE91E78E
:104B50000327C4FE8567E31DF7FCB717024098439F
:104B6000B7070200F98F89C785472324F4FE19A0EF
:104B7000232404FE032784FE85476312F7163717A4
:104B80000240B71702405843D8C337170240B7173F
:104B900002405843D8C337170240B7170240584362
:104BA000D8C3B7170240D443B71702403707C1FF35
:104BB0007D17758FD8C30327C4FDB7479508938722
:104BC0000740631BF700B7170240D443B7170240F2
:104BD0004167558FD8C355A80327C4FDB7172707CA
:104BE000938707E0631CF700B7170240D443B71759
:104BF000024037073900558FD8C341A80327C4FDA9
:104C0000B7E7B80593870780631CF700B717024022
:104C1000D443B717024037072900558FD8C3B5A032
:104C20000327C4FDB7A74A0493870720631CF70036
:104C3000B7170240D443B717024037071D00558FFE
:104C4000D8C3A1A00327C4FDB777DC02938707C0B0
:104C5000631CF700B7170240D443B7170240370769
:104C60001100558FD8C315A00327C4FDB7376E01B7
:104C700093870760631BF700B7170240D443B71749
:104C8000024037070500558FD8C3B7170240944339
:104C9000B717024037070001558F98C30100B717B7
:104CA00002409843B7070002F98FF5DBB7170240BF
:104CB000D843B7170240719BD8C3B7170240D843F7
:104CC000B717024013672700D8C30100B717024087
:104CD000DC4313F7C700A147E31AF7FE11A001A0B8
:104CE000B250225445618280011106CE22CC0010C0
:104CF0002326A4FE0327C4FE23A0E182EFF07FD980
:104D00000325C4FEEFF05FE0EF1020780100F240D1
:104D1000624405618280411122C600080100010041
:104D2000324441018280011106CE22CC001023269C
:104D300004FE232404FE232604FE2DA0232404FEC7
:104D400001A8EFF05FFD832784FE85072324F4FE8E
:104D5000032784FEC167E366F7FE8327C4FE850749
:104D60002326F4FE0327C4FE9307F00FE3F8E7FCC5
:104D70000100F240624405618280411122C60008B0
:104D80000100324441018280011106CE22CC001084
:104D90002326A4FE8325C4FE0945EFD03FA70100CA
:104DA000F240624405618280130101D92326112655
:104DB0002324812623229126801C232EA4D8232C51
:104DC000B4D8232AC4D82328D4D8231504FE231406
:104DD00004FE231304FE231204FE231104FE032504
:104DE00084D9EFC08062AA87C207C1872313F4FE6B
:104DF000B767002083D707EA99C7B7670020938772
:104E000007EA9C4B829783C7D18993F7F70F638595
:104E1000074EB767002083D707EA63890746B7675D
:104E20000020938707EAD447835724FE139707018E
:104E3000418793170701C1838507C207C183C20752
:104E4000C1872311F4FE93170701C1830326C4D938
:104E5000BE8501458296832784D92326F4FE032547
:104E600084D9EFC0805AAA87C207C1872313F4FEF2
:104E7000B7670020938707EA83D727003E87B76785
:104E80000020938707EA83C76700B347F702C2078A
:104E9000C1872312F4FE01008327C4FE1387170085
:104EA0002326E4FE83870700E5FB231404FEA1A864
:104EB0008327C4FEFD172326F4FE8327C4FE038741
:104EC00007009307F002630AF7008327C4FE0387F5
:104ED00007009307C005631BF700835784FEC207D2
:104EE000C1838507C207C1832314F4FE835764FE80
:104EF000C207C187C207C183FD17C207C183C207AA
:104F0000C1872313F4FE835784FE1397070141835F
:104F1000854763E8E700835764FEC207C187E3D98A
:104F200007F8835764FEC207C18763C2070283275D
:104F3000C4FE85072326F4FE130704EE0326C4FEF1
:104F4000D167938587513A85EFC0C0471DA8835725
:104F500084FEC207C18381EF130704EE0326C4FE5B
:104F6000D167938547523A85EFC0C04519A813070A
:104F700004EE0326C4FED167938587513A85EFC0BE
:104F80006044231504FE05A2231404FE59A09307D0
:104F900004EE3E85EFC060472A87835784FEC20730
:104FA000C183BE868357A4FEC207C1833E86835752
:104FB00044FEC207C187B307F602B6976367F706D8
:104FC000835784FEC207C1833E878357A4FEC2076E
:104FD000C183BE86835744FEC207C187B387F602EA
:104FE000BA97035784FE42074183BA86130704FF2A
:104FF000BA97038707EF930704FFB6972388E7EA7A
:10500000835784FEC207C1838507C207C183231467
:10501000F4FE835784FEC207C1833E87835744FE54
:10502000C207C187E345F7F611A00100835784FE4C
:10503000C207C183130704FFBA97238807EAB7673B
:105040000020938707EA03A8C700B767002093876B
:1050500007EA83C77700139707014183835724FE2C
:1050600093960701C18693970601C1838507C207FE
:10507000C183C207C1872311F4FE93970601C18340
:10508000B307F702C207C183130704EA3A86BE8555
:10509000014502988357A4FEC207C1838507C20752
:1050A000C1832315F4FE8357A4FEC207C183BE84C7
:1050B000930704EE3E85EFC040352A87835744FEB0
:1050C000C207C187B357F7028507E3EFF4EA130776
:1050D00004EE032644D9D167938547533A85EFC040
:1050E000602EB7670020938707EA03A8C700B76759
:1050F0000020938707EA83C777001397070141834E
:10510000835724FE93960701C18693970601C183B6
:105110008507C207C183C207C1872311F4FE939795
:105120000601C183B307F702C207C183130704EE68
:105130003A86BE8501450298832704D9638E071AF3
:10514000231504FE05A2231404FE59A0032504D947
:10515000EFC0A02B2A87835784FEC207C183BE8677
:105160008357A4FEC207C1833E86835744FEC2070D
:10517000C187B307F602B6976368F706835784FEC4
:10518000C207C1833E878357A4FEC207C183BE8680
:10519000835744FEC207C187B387F602BA973E879A
:1051A000832704D9BA97035784FE42074183BA86FE
:1051B00003870700930704FFB6972388E7EA83571E
:1051C00084FEC207C1838507C207C1832314F4FE8E
:1051D000835784FEC207C1833E87835744FEC207BC
:1051E000C187E345F7F611A00100835784FEC2078B
:1051F000C183130704FFBA97238807EAB767002023
:10520000938707EA03A8C700B7670020938707EAD8
:1052100083C77700139707014183835724FE939632
:105220000701C18693970601C1838507C207C18321
:10523000C207C1872311F4FE93970601C183B30708
:10524000F702C207C183130704EA3A86BE85014507
:1052500002988357A4FEC207C1838507C207C18392
:105260002315F4FE8357A4FEC207C183BE84032521
:1052700004D9EFC080192A87835744FEC207C1872B
:10528000B357F7028507E3E0F4ECBDA0930704DA17
:105290001306001081453E85EFA09FF6B7670020FA
:1052A000938707EA9C470325C4D98297832704D9AB
:1052B00099CF130504DA032704D9832644D903269A
:1052C00084D9D16793850754EFC0C00F29A813076D
:1052D00004DA832644D9032684D9D1679385C75538
:1052E0003A85EFC0200EB7670020938707EA9847FA
:1052F000930704DA3E85029701008320C126032428
:10530000812683244126130101278280411106C68C
:1053100022C4000883C7D18993F7F70F91CF9385F3
:10532000C1890945EFD0CFDC05469385C189B767B0
:105330000020138547E855230100B2402244410173
:105340008280797106D622D40018232EA4FC232C47
:10535000B4FC232AC4FC232604FEA9A00100D567BF
:10536000938787939C47930500043E85EF40403E1A
:10537000AA87F5D7D567938787939C47BE868327EF
:1053800084FD13871700232CE4FC83870700C207E2
:10539000C183BE853685EF40C0388327C4FE8507AC
:1053A0002326F4FE0327C4FE832744FDE348F7FACF
:1053B000832744FD3E85B25022544561828001110D
:1053C00006CE22CC0010AA872324B4FE2322C4FEDA
:1053D000A307F4FE8347F4FEB1E383C7418293F74A
:1053E000F70F8DCF83C7E18991C301A083C7E189FE
:1053F000850713F7F70F238FE188EF104006EFF0D2
:10540000DF978146032644FE832584FED1671385FA
:105410004757EFF07F99EFF01F91E5B70100F24099
:10542000624405618280011106CE22CC0010AA8759
:105430002324B4FE2322C4FE2320D4FEA307F4FEBB
:105440008347F4FE95E383C7D18993F7F70F91CF94
:10545000832684FE032604FE832544FED16713853C
:105460004758EFF07F9411A001000100F240624420
:1054700005618280011122CE00102326A4FE83271D
:10548000C4FE239007008327C4FE7D572391E700C5
:105490008327C4FE7D572392E7008327C4FE7D57F0
:1054A0002383E7008327C4FE7D57A383E700832778
:1054B000C4FE23A407008327C4FE23A60700832776
:1054C000C4FE23A807000100724405618280011117
:1054D00022CE00102326A4FE8327C4FE03D7070094
:1054E000B76700202390E7EA8327C4FE03D727008D
:1054F000B7670020938707EA2391E7008327C4FE5C
:1055000003D74700B7670020938707EA2392E70095
:105510008327C4FE03C76700B7670020938707EAA5
:105520002383E7008327C4FE03C77700B767002003
:10553000938707EAA383E7008327C4FE9847B767EA
:105540000020938707EA98C78327C4FED847B76728
:105550000020938707EAD8C78327C4FE984BB76714
:105560000020938707EA98CB0547A38EE1880100C6
:10557000724405618280797106D622D4001893079F
:10558000C4FD3E85EFF01FEFB7570000938787D823
:105590002322F4FE9307C4FD3E85EFF05FF3896795
:1055A0009386B70289671386A702F1679385072060
:1055B0000945EFD0CFB993060004B76700201386E2
:1055C00047E48145B7670020138547E8EF00300FB7
:1055D00085450945EFD08FA90100B250225445619D
:1055E0008280011122CE00102326A4FE2324B4FEC3
:1055F0008327C4FED847832784FE3E978327C4FEB3
:10560000D8C719A88327C4FED8478327C4FE9C4F58
:105610001D8F8327C4FED8C78327C4FE984F8327D6
:10562000C4FEDC47E3F0E7FE0100724405618280BE
:10563000011122CE00102326A4FE2324B4FE8327CA
:10564000C4FE984B832784FE3E978327C4FE98CBE5
:1056500019A88327C4FE984B8327C4FE9C4F1D8F37
:105660008327C4FE98CB8327C4FE984F8327C4FEAC
:105670009C4BE3F0E7FE0100724405618280797182
:1056800006D622D40018232EA4FC8327C4FDB337EA
:10569000F00093F7F70F3E8713064005D167938517
:1056A00007593A85EFF0BFD1232604FE8327C4FDB6
:1056B00083C70700858B93F7F70F89C78947232690
:1056C000F4FE7DA08327C4FD83C7070093E717007E
:1056D00013F7F70F8327C4FD2380E7008327C4FD5A
:1056E00023A607008327C4FD23A807008327C4FD42
:1056F000984F8327C4FDD8CB8327C4FDDC430547DF
:105700006383E70289C70947638CE702B9A083274F
:10571000C4FD98478327C4FD9C4F3E8681453A854A
:10572000EFA01FAE1DA88327C4FD98478327C4FDA3
:105730009C4F86073E8681453A85EFA07FAC31A815
:105740008327C4FD98478327C4FD9C4F8A073E8664
:1057500081453A85EFA0DFAA01008327C4FD83C7F6
:105760000700F99B13F7F70F8327C4FD2380E70099
:105770008327C4FE3E85B2502254456182800111C8
:1057800006CE22CC00102326A4FE8327C4FEB33706
:10579000F00093F7F70F3E871306C007D167938594
:1057A00007593A85EFF0BFC18327C4FE984F83277E
:1057B000C4FEDC4BB307F7403E85F240624405610E
:1057C0008280797106D622D40018232EA4FC232CC3
:1057D000B4FC8327C4FDB337F00093F7F70F3E877F
:1057E0001306A008D167938507593A85EFF03FBDAE
:1057F000232604FE8327C4FD83C70700898B93F704
:10580000F70F89C785472326F4FEC9A08327C4FD67
:1058100083C7070093E7270013F7F70F8327C4FD1B
:105820002380E7008327C4FDDC4BD9C38327C4FD55
:10583000DC4305476385E70289C709476380E704BE
:1058400091A88327C4FD98478327C4FDDC47BA97F6
:10585000032784FD1377F70F2380E70025A883270C
:10586000C4FD98478327C4FDDC478607BA97032702
:1058700084FD420741832390E70029A88327C4FDC4
:1058800098478327C4FDDC478A07BA97032784FD1E
:1058900098C3010085450325C4FDEFF09FD48327FD
:1058A000C4FDDC4B1387F7FF8327C4FDD8CB21A0B1
:1058B00091472326F4FE8327C4FD83C70700F59B89
:1058C00013F7F70F8327C4FD2380E7008327C4FE67
:1058D0003E85B250225445618280797106D622D429
:1058E0000018232EA4FC232CB4FC232AC4FC8327F9
:1058F000C4FDB337F00093F7F70F3E871306C00BD4
:10590000D167938507593A85EFF07FAB232604FED4
:10591000232404FE832784FD89E78D472326F4FE94
:1059200045AC8327C4FD83C70700898B93F7F70F26
:1059300089C785472326F4FE61AC8327C4FD83C74E
:10594000070093E7270013F7F70F8327C4FD238091
:10595000E7008327C4FDDC4B032744FD63ECE72409
:105960008327C4FD984F8327C4FDDC47B307F74066
:105970002324F4FE032744FD832784FE63F2E71803
:105980008327C4FDDC430547638FE70689C70947C2
:105990006389E70E31A48327C4FD98478327C4FD9C
:1059A000DC47BA97032684FE832584FD3E85EFA05D
:1059B0009072832584FE0325C4FDEFF09FC28327E8
:1059C000C4FD98478327C4FDDC47B306F7000327CF
:1059D00084FD832784FEB305F700032744FD832756
:1059E00084FEB307F7403E863685EFA0D06E0327CE
:1059F00044FD832784FEB307F740BE850325C4FD1D
:105A0000EFF03FBE71AA8327C4FD98478327C4FDEA
:105A1000DC4786073E97832784FE86073E868325DC
:105A200084FD3A85EFA0306B832584FE0325C4FDF9
:105A3000EFF03FBB8327C4FD98478327C4FDDC47B5
:105A40008607B306F700832784FE8607032784FDB5
:105A5000B305F700032744FD832784FEB307F7400F
:105A600086073E863685EFA01067032744FD83270F
:105A700084FEB307F740BE850325C4FDEFF07FB673
:105A800005A28327C4FD98478327C4FDDC478A0706
:105A90003E97832784FE8A073E86832584FD3A85C8
:105AA000EFA07063832584FE0325C4FDEFF07FB370
:105AB0008327C4FD98478327C4FDDC478A07B306C4
:105AC000F700832784FE8A07032784FDB305F700C8
:105AD000032744FD832784FEB307F7408A073E86E9
