:100000006F70E04F130000001300000013000000A9
:100010001300000013000000130000001300000094
:100020001300000013000000130000001300000084
:08003000130000007300100032
:10003800000000000000000096730000A673000096
:1000480000000000447400000000000000000000F0
:100058004674000048740000000000000000000022
:100068004A740000000000004C740000000000000A
:100078004E74000050740000527400005474000064
:1000880056740000587400004A660000FE660000BE
:10009800B2670000666800001A6900006474000016
:1000A80066740000687400006A7400006C740000D4
:1000B8006E740000707400007274000074740000A4
:1000C80076740000787400007A740000CE6900002D
:1000D8007E740000186C00008274000084740000B4
:1000E800D86C0000906D0000666E00008C740000F3
:1000F8008E740000907400009274000094740000E4
:1001080096740000565F00001A600000DE60000070
:10011800E66A0000A0740000A2740000A474000045
:100128005E710000A8740000AA740000AC7400009E
:10013800AE740000B0740000266F0000B4740000B4
:10014800A66100006A620000E66F00009E70000071
:10015800BE740000C0740000C2740000C4740000C3
:10016800C6740000C8740000CA740000CC74000093
:10017800CE740000D0740000D274000068940000AF
:10018800D6740000D87400007A6500002C63000063
:10019800F0630000BA640000E27400001E72000000
:1001A800E6740000E8740000EA740000DE720000E3
:1001B800EE740000F0740000F2740000F4740000A3
:1001C800F6740000F8740000FA740000FC74000073
:1001D8000000000000000000000000000000000017
:1001E8000000000000000000000000000000000007
:0801F8000000000000000000FF
:100200003D432A876373C3029377F700BDEFADE5E3
:10021000937606FF3D8ABA960CC34CC30CC74CC7F5
:100220004107E36BD7FE11E28280B306C3408A0622
:100230009702000096966780A6002307B700A306E2
:10024000B7002306B700A305B7002305B700A30432
:10025000B7002304B700A303B7002303B700A3022A
:10026000B7002302B700A301B7002301B700A30022
:10027000B7002300B700828093F5F50F93968500B1
:10028000D58D93960501D58D61B79396270097027A
:10029000000096968682E78086FA9680C1171D8FA9
:1002A0003E96E374C3F8A5B7011122CE00102326B1
:1002B000A4FE37F500E08328450037F500E093F809
:1002C000E8FF2322150183A801820965130505F4BF
:1002D00033D5A802AA8601470325C4FEAA87014890
:1002E00037F500E03303F702B308D8029A98338356
:1002F000F60233B6F6029A85B387C8003E860CC96B
:1003000050C9B7F700E09843B7F700E0136707015B
:1003100098C3B7F700E09843B7F700E013671702F8
:1003200098C30100B7F700E0DC4313F717008547D7
:10033000E31AF7FEB7F700E09843B7F700E0799BC0
:1003400098C30100724405618280011122CE001021
:100350002326A4FE37F500E08328450037F500E0AA
:1003600093F8E8FF2322150183A8018237157A004C
:100370001305052033D5A802AA8601470325C4FE2C
:10038000AA87014837F500E03303F702B308D80223
:100390009A983383F60233B6F6029A85B387C8007B
:1003A0003E860CC950C9B7F700E09843B7F700E0A4
:1003B0001367070198C3B7F700E09843B7F700E069
:1003C0001367170298C30100B7F700E0DC4313F787
:1003D00017008547E31AF7FEB7F700E09843B7F731
:1003E00000E0799B98C3010072440561828001118D
:1003F00006CE22CC0010AA8E2E8E32833685BA8588
:100400003E86C2864687F687A307F4FEF287230757
:10041000F4FE9A87A306F4FEAA872306F4FEAE87AD
:10042000A305F4FEB2872305F4FEB687A304F4FE09
:10043000BA872304F4FE8347F4FE93068004014642
:1004400081453E8555238347E4FE9306800401469B
:1004500081453E85512B8347D4FE93068004014697
:1004600081453E8551238347C4FE9306800401469F
:1004700081453E85952B8347B4FE93068004014653
:1004800081453E8595238347A4FE9306800401465B
:1004900081453E85912B834794FE93068004014657
:1004A00081453E859123834784FE9306800401465F
:1004B00081453E85152B8347440093068004014601
:1004C00081453E8515238347040093068004014639
:1004D00081453E85112B83478400930680040146A5
:1004E00081453E8511230100F2406244056182800E
:1004F000011106CE22CC00102326A4FE2324B4FE34
:10050000B28736872313F4FEBA872312F4FE85459B
:100510000965EF70C07DB707055083C7070013F763
:10052000F70FB70705501377F7FC1377F70F238002
:10053000E700B707055083C7070013F7F70FB707A2
:100540000550136727041377F70F2380E700B707D9
:10055000055083C7170013F7F70FB7070550659BC2
:100560001377F70FA380E700B7070550035744FE42
:100570002392E700B7070550035764FE2393E70073
:10058000B70705500327C4FE98C7B70705500327D0
:1005900084FED8C7B707055083C7170013F7F70FB6
:1005A000B70705501377F7031377F70FA380E7001A
:1005B00037070550B7070550034717001377F70FA4
:1005C000A380E700B707055083C7270013F7F70F8D
:1005D000B7070550136747001377F70F2381E7002C
:1005E000B707055083C7170013F7F70FB707055074
:1005F000136717001377F70FA380E700B7070550BD
:1006000083C7070013F7F70FB707055013671700E5
:100610001377F70F2380E7008D4513056005EF5032
:10062000900913056005EF5050050100F240624447
:1006300005618280397106DE22DC80002326A4FC5D
:100640002324B4FC2322C4FC232604FE9145032565
:10065000C4FCEF109030AA873E871306100DD167B7
:10066000938507593A85EF4030128327C4FC1397CE
:10067000C700832784FC7D8F8327C4FCB207B307A0
:10068000F74093B7170093F7F70F3E871306200D37
:10069000D167938507593A85EF40100F8327C4FC33
:1006A0001397C700832744FC7D8F8327C4FCB207C0
:1006B000B307F74093B7170093F7F70F3E8713067A
:1006C000300DD167938507593A85EF40F00B03252C
:1006D000C4FCEF10F02E832784FC93F7F70F9306EA
:1006E0008004014681453E850126832744FC93F71B
:1006F000F70F93068004014681453E85F524832744
:1007000084FC13F7F70FB7070020938607048327AD
:10071000C4FCB6972380E7000327C4FCA54763E029
:10072000E7088327C4FC13972700D5679387C70979
:10073000BA979C438287B7370140938707C0232429
:10074000F4FE8DA0B70700402324F4FEA1A8B7074C
:100750000040938707402324F4FEA9A0B717004068
:10076000938707802324F4FE35A8B71700409387AA
:1007700007C02324F4FE3DA0B7370140938707400C
:100780002324F4FE05A0B7570140938707C0232414
:10079000F4FE09A8B75701402324F4FE21A08547A1
:1007A0002326F4FE85450545EF70C058832784FC59
:1007B00013D787008D47631AF7008545B7071600E2
:1007C0001385070CEF70C009E5A8832784FC13D7B5
:1007D0008700C547631AF7008545B70718001385DA
:1007E0000710EF70E007E9A8832784FC13D7870080
:1007F00093072002631AF7008545B7171A0013857F
:100800000780EF70E0056DA8832784FC13D787006D
:1008100093073002631AF7008545B7171A0013854E
:1008200007C0EF70E00369A8832784FC13D7870013
:10083000930710036317F70085450565EF704002C5
:1008400041A0832784FC13D7870093071007631AFE
:10085000F7008545B707008013854700EF7040001B
:1008600085A0832784FC13D7870093073008631A79
:10087000F7008545B707138013850701EF60507EA9
:1008800081A0832784FC13D7870093071009631A7C
:10089000F7008545B707158013850702EF60507C88
:1008A00005A0832784FC13D78700930730096319B9
:1008B000F7008545B707158013850704EF60507A68
:1008C0008327C4FEA5E3232E04FC232004FE231269
:1008D00004FE9307C4FD3E85EF70B078231E04FC30
:1008E000FD572310F4FE231104FE231F04FC2302F2
:1008F00004FE9307C4FDBE85032584FEEF7080715E
:1009000093050006032584FEEF80E00B9D4601461B
:100910008145032584FEEF80600F8545032584FE15
:10092000EF70F0770100F250625421618280011172
:1009300022CE00102326A4FEAE87A305F4FE834733
:10094000B4FE85CB8327C4FEBD8B0547B317F700E4
:1009500093960701C1828327C4FE13D75700B707B8
:1009600000200A079387C704BA979C43368798CB21
:100970003DA08327C4FEBD8B0547B317F7009396B0
:100980000701C1828327C4FE13D75700B707002091
:100990000A079387C704BA979C433687D8CB0100D0
:1009A000724405618280011122CE00102326A4FE2C
:1009B0008327C4FE958313F77700B70700200A0743
:1009C0009387C704BA979C439C470327C4FE7D8B3B
:1009D00085463397E600F98FB337F00093F7F70FAA
:1009E0003E85724405618280797106D622D4001852
:1009F000232EA4FC232CB4FCB2872328D4FCA30B05
:100A0000F4FC232004FE232204FE232404FE832777
:100A1000C4FD958393F7F70F9D8BA307F4FE8327FF
:100A2000C4FD93F7F70FFD8B2307F4FE8347F4FE15
:100A300091E785451145EF70E02F91A80347F4FE3B
:100A400085476317F70085452145EF70A02E81A0EB
:100A50000347F4FE89476317F70085454145EF706A
:100A6000602D35A00347F4FE8D476318F7008545D8
:100A700013050002EF70002C19A80347F4FE9147FC
:100A80006317F700854513050004EF70A02A83471C
:100A9000E4FE0547B317F700C207C1832310F4FE35
:100AA000032784FD85476317F702832704FDC207E8
:100AB000C183A183C207C18389E78D472322F4FE46
:100AC00011A8832704FDC207C183A183C207C18384
:100AD0002322F4FE832704FDC207C18393F7F70F97
:100AE0002324F4FE0347F4FEB70700200A07938788
:100AF000C704BA979C43130704FEBA853E85EF608E
:100B00001030032784FD85476319F7020347F4FE7D
:100B1000B70700200A079387C704BA97944383470F
:100B2000E4FE0547B317F700C207C183034774FD0E
:100B30003A86BE853685EF60304F0100B2502254B0
:100B4000456182801D7186CEA2CC80102326A4FA36
:100B50002324B4FA85450325C4FAEF100060AA8760
:100B60003E871306D006D167938547683A85EF40E4
:100B7000A041832784FAB337F00093F7F70F3E873D
:100B80001306F006D167938547683A85EF40C03F6A
:100B9000832784FABD832315F4FE8357A4FE8507BB
:100BA0003E87832784FAB3D7E7022314F4FE032594
:100BB000C4FAEF10E060B7370140938707C02326DF
:100BC000F4FE0327C4FAA54763ECE7088327C4FAB9
:100BD00013972700D5679387470CBA979C43828762
:100BE000B7370140938707C02326F4FE95A8B707BF
:100BF00000402326F4FEADA0B707004093870740CE
:100C00002326F4FEB1A8B717004093870780232658
:100C1000F4FEB9A0B7170040938707C02326F4FE5F
:100C200081A0B71700402326F4FE1DA8B717004087
:100C3000938707402326F4FE25A0B737014093870A
:100C400007402326F4FE29A8B7570140938707C021
:100C50002326F4FE31A0B75701402326F4FE0100FD
:100C6000232E04FC232004FE231204FE835784FE5B
:100C70002310F4FE8357A4FE231EF4FC231104FE6C
:100C8000231F04FC230204FE9307C4FDBE85032535
:100C9000C4FEEF702038054685450325C4FEEF707D
:100CA000904B85450325C4FEEF80E012D16703AE6B
:100CB000C7651387C765032347001387C765832864
:100CC00087001387C7650328C7001387C765084BCC
:100CD0001387C7654C4B1387C765104F1387C765CC
:100CE000544F1387C76518539387C765DC53232A6E
:100CF000C4FB232C64FA232E14FB232004FD23229F
:100D0000A4FC2324B4FC2326C4FC2328D4FC232ADB
:100D1000E4FC232CF4FC8327C4FA93F7F70F8A072B
:100D2000130704FFBA9783A747FC8D453E85EF5014
:100D300080188327C4FA8A07130704FFBA9783A78A
:100D400047FC3E85EF50601385450325C4FEEF70D8
:100D500010350100F640664425618280797106D61F
:100D600022D40018232EA4FC232CB4FC032784FDDA
:100D7000896793871771B337F70093F7F70F3E87AB
:100D800013065003D1679385C7743A85EF40C01F9F
:100D9000B7370140938707C02326F4FE8327C4FD9D
:100DA000C183BD8B2547636EF70613972700D56770
:100DB0009387C70EBA979C438287B73701409387C2
:100DC00007C02326F4FEB1A8B70700402326F4FE8F
:100DD00089A8B7070040938707402326F4FE91A017
:100DE000B7170040938707802326F4FE1DA8B71786
:100DF0000040938707C02326F4FE25A0B7370140A3
:100E0000938707402326F4FE29A8B757014093870C
:100E100007C02326F4FE31A0B75701402326F4FE75
:100E200001008327C4FE83D7C7022315F4FE0357AE
:100E3000A4FE832784FD3307F70289679387077130
:100E4000B357F7022314F4FE8327C4FDA1838D8BCF
:100E500081EB8327C4FE035784FE239AE702A9A8E7
:100E60008327C4FDA18313F7370085476319F70073
:100E70008327C4FE035784FE239CE70235A88327FB
:100E8000C4FDA18313F7370089476319F70083274F
:100E9000C4FE035784FE239EE70239A88327C4FDBE
:100EA000A18313F737008D476318F7008327C4FE2B
:100EB000035784FE2390E7040100B2502254456199
:100EC00082805D7186C6A2C48008232EA4FA232CDA
:100ED000B4FA232AC4FA8327C4FBC1838D453E8517
:100EE000EF10A027AA873E871306D00AD167938503
:100EF000C7743A85EF404009032744FB896793870D
:100F00001771B337F70093F7F70F3E871306F00A10
:100F1000D1679385C7743A85EF400007232E04FC00
:100F2000232004FE231204FE232604FC232804FCB1
:100F3000232A04FC232C04FC231504FE8327C4FB72
:100F4000C183BD8B3E85EF10A0278327C4FB93F799
:100F5000F70F93068031014685453E8571348545FE
:100F60000545EF60305DB7370140938707C0232602
:100F7000F4FE8327C4FBC183BD8B2547636EF70650
:100F800013972700D56793874711BA979C438287A9
:100F9000B7370140938707C02326F4FEB1A8B707EF
:100FA00000402326F4FE89A8B70700409387074036
:100FB0002326F4FE91A0B7170040938707802326CD
:100FC000F4FE1DA8B7170040938707C02326F4FE40
:100FD00025A0B7370140938707402326F4FE29A8B0
:100FE000B7570140938707C02326F4FE31A0B757B7
:100FF00001402326F4FE01008327C4FB13D7C7005A
:101000008D47631AF7008545B70716001385070C4F
:10101000EF60100515AA8327C4FB13D7C700C54787
:10102000631AF7008545B707180013850710EF60AE
:10103000300319AA8327C4FB13D7C700C947631A13
:10104000F7008545B707180013850720EF605001AA
:10105000E5A88327C4FB13D7C700CD47631AF70061
:101060008545B707180013850730EF60607FE9A852
:101070008327C4FB13D7C70093072002631AF70026
:101080008545B7171A0013850780EF60607D6DA84E
:101090008327C4FB13D7C70093073002631AF700F6
:1010A0008545B7171A00138507C0EF60607B69A8F4
:1010B0008327C4FB13D7C700930710036317F700F8
:1010C00085450565EF60C07941A08327C4FB13D730
:1010D000C70093071007631AF7008545B70700801C
:1010E00013854700EF60C07785A08327C4FB13D723
:1010F000C70093073008631AF7008545B7071380C8
:1011000013850701EF60C07581A08327C4FB13D747
:10111000C70093071009631AF7008545B7071580C4
:1011200013850702EF60C07305A08327C4FB13D7A4
:10113000C700930730096319F7008545B707158085
:1011400013850704EF60C07103A70182832784FB26
:10115000B357F702C1832315F4FE03A70182835717
:10116000A4FE8507BE86832784FBB387F602B357A8
:10117000F7022314F4FE035784FE832744FB33074E
:10118000F702896793870771B357F7022313F4FEB9
:10119000835784FEFD17C207C1832310F4FE8357D3
:1011A000A4FE231EF4FC231104FE231F04FC2302CF
:1011B00004FE9307C4FDBE850325C4FEEF60906561
:1011C000930700072316F4FC85472317F4FC231824
:1011D00004FC835764FE2319F4FC8947231AF4FCAA
:1011E0008947231BF4FC231C04FC231D04FC8327D8
:1011F000C4FBA1838D8B9DE39307C4FCBE850325AF
:10120000C4FEEF601079A1450325C4FEEF70B00C59
:1012100091450325C4FEEF70D02045A08327C4FB71
:10122000A18313F7370085476315F7029307C4FCC2
:10123000BE850325C4FEEF70800FA1450325C4FEC3
:10124000EF70300E930500400325C4FEEF7030228E
:10125000ADA08327C4FBA18313F73700894763142C
:10126000F7029307C4FCBE850325C4FEEF70402A35
:10127000A1450325C4FEEF70701091450325C4FEFF
:10128000EF7050241DA88327C4FBA18313F73700F8
:101290008D476314F7029307C4FCBE850325C4FE83
:1012A000EF70C044A1450325C4FEEF70F011930513
:1012B00000400325C4FEEF70B02585450325C4FE1C
:1012C000EF70606385450325C4FEEF70405D01004B
:1012D000B640264461618280797106D622D4001816
:1012E000232EA4FC8327C4FDB337F00093F7F70F38
:1012F0003E8713061004D567938547813A85EF3002
:10130000B0488327C4FD9C43BD8B0547B317F70046
:1013100093960701C1828327C4FD9C4313D75700CE
:10132000B70700200A079387C704BA979C433687FC
:1013300098CB8327C4FDDC43BD8B0547B317F7006B
:1013400093960701C1828327C4FDDC4313D757005E
:10135000B70700200A079387C704BA979C433687CC
:1013600098CB8327C4FDDC472326F4FE01008327A6
:10137000C4FE1387F7FF2326E4FEF5FB8327C4FD95
:10138000DC43BD8B0547B317F70093960701C18275
:101390008327C4FDDC4313D75700B70700200A0793
:1013A0009387C704BA979C433687D8CB8327C4FD5D
:1013B000DC472324F4FE0100832784FE1387F7FF14
:1013C0002324E4FEF5FB8327C4FD9C43BD8B054726
:1013D000B317F70093960701C1828327C4FD9C438E
:1013E00013D75700B70700200A079387C704BA9797
:1013F0009C433687D8CB0100B2502254456182808D
:10140000797106D622D40018232EA4FC8327C4FDAC
:10141000B337F00093F7F70F3E8713064005D56703
:10142000938547813A85EF3030368327C4FDDC430E
:10143000BD8B0547B317F70093960701C182832739
:10144000C4FDDC4313D75700B70700200A07938772
:10145000C704BA979C433687D8CB8327C4FD9C43E7
:10146000BD8B0547B317F70093960701C182832709
:10147000C4FD9C4313D75700B70700200A07938782
:10148000C704BA979C433687D8CB8327C4FDDC4773
:101490002326F4FE01008327C4FE1387F7FF2326CB
:1014A000E4FEF5FB8327C4FD9C43BD8B0547B317C2
:1014B000F70093960701C1828327C4FD9C4313D78D
:1014C0005700B70700200A079387C704BA979C43C1
:1014D000368798CB8327C4FDDC472324F4FE010024
:1014E000832784FE1387F7FF2324E4FEF5FB83277D
:1014F000C4FDDC43BD8B0547B317F7009396070186
:10150000C1828327C4FDDC4313D75700B7070020EF
:101510000A079387C704BA979C43368798CB8327DB
:10152000C4FDDC472322F4FE0100832744FE138719
:10153000F7FF2322E4FEF5FB0100B250225445617F
:101540008280797106D622D40018232EA4FCAE879F
:10155000A30DF4FC8327C4FDB337F00093F7F70F16
:101560003E8713069006D567938547813A85EF300D
:10157000B0218327C4FD9C43BD8B0547B317F700FB
:1015800093960701C1828327C4FD9C4313D757005C
:10159000B70700200A079387C704BA979C4336878A
:1015A000D8CB8347B4FD95CB8327C4FDDC43BD8BEB
:1015B0000547B317F70093960701C1828327C4FD3F
:1015C000DC4313D75700B70700200A079387C704E7
:1015D000BA979C43368798CB0DA88327C4FDDC437C
:1015E000BD8B0547B317F70093960701C182832788
:1015F000C4FDDC4313D75700B70700200A079387C1
:10160000C704BA979C433687D8CB8327C4FDDC47F1
:101610002326F4FE01008327C4FE1387F7FF232649
:10162000E4FEF5FB8327C4FD9C43BD8B0547B31740
:10163000F70093960701C1828327C4FD9C4313D70B
:101640005700B70700200A079387C704BA979C433F
:10165000368798CB8327C4FDDC472324F4FE0100A2
:10166000832784FE1387F7FF2324E4FEF5FB8327FB
:10167000C4FD9C43BD8B0547B317F7009396070144
:10168000C1828327C4FD9C4313D75700B7070020AE
:101690000A079387C704BA979C433687D8CB83271A
:1016A000C4FDDC43BD8B0547B317F70093960701D4
:1016B000C1828327C4FDDC4313D75700B70700203E
:1016C0000A079387C704BA979C43368798CB0100D3
:1016D000B250225445618280797106D622D4001816
:1016E000232EA4FC8327C4FDB337F00093F7F70F34
:1016F0003E8713065008D567938547813A85EF30BA
:10170000B008A30704FE8327C4FD9C43BD8B054797
:10171000B317F70093960701C1828327C4FD9C434A
:1017200013D75700B70700200A079387C704BA9753
:101730009C433687D8CB8327C4FDDC43BD8B05474C
:10174000B317F70093960701C1828327C4FDDC43DA
:1017500013D75700B70700200A079387C704BA9723
:101760009C43368798CB8327C4FDDC472324F4FEB3
:101770000100832784FE1387F7FF2324E4FEF5FB93
:101780008327C4FD9C43BD8B0547B317F700939691
:101790000701C1828327C4FD9C4313D75700B707B5
:1017A00000200A079387C704BA979C43368798CBD3
:1017B0008327C4FDDC472322F4FE0100832744FE77
:1017C0001387F7FF2322E4FEF5FB8327C4FDDC43E8
:1017D0003E85EFF04F9DAA8781C78547A307F4FE9A
:1017E0008327C4FD9C43BD8B0547B317F700939631
:1017F0000701C1828327C4FD9C4313D75700B70755
:1018000000200A079387C704BA979C433687D8CB32
:101810008327C4FDDC472320F4FE0100832704FE58
:101820001387F7FF2320E4FEF5FB8347F4FE3E8594
:10183000B250225445618280797106D622D40018B4
:10184000232EA4FCAE87A30DF4FC8327C4FDB3377D
:10185000F00093F7F70F3E871306700AD56793855C
:1018600047813A85EF304072930700F8A307F4FEF2
:1018700009AA0347B4FD8347F4FEF98F93F7F70FE6
:1018800095CB8327C4FDDC43BD8B0547B317F70019
:1018900093960701C1828327C4FDDC4313D7570009
:1018A000B70700200A079387C704BA979C43368777
:1018B00098CB0DA88327C4FDDC43BD8B0547B31728
:1018C000F70093960701C1828327C4FDDC4313D739
:1018D0005700B70700200A079387C704BA979C43AD
:1018E0003687D8CB8347F4FE8583A307F4FE83278E
:1018F000C4FDDC472324F4FE0100832784FE138704
:10190000F7FF2324E4FEF5FB8327C4FD9C43BD8B36
:101910000547B317F70093960701C1828327C4FDDB
:101920009C4313D75700B70700200A079387C704C3
:10193000BA979C43368798CB8327C4FDDC47232284
:10194000F4FE0100832744FE1387F7FF2322E4FE01
:10195000F5FB8327C4FD9C43BD8B0547B317F700F8
:1019600093960701C1828327C4FD9C4313D7570078
:10197000B70700200A079387C704BA979C433687A6
:10198000D8CB8347F4FEE39607EE0325C4FDA933C5
:10199000AA87FD17B337F00093F7F70F3E85B250D3
:1019A000225445618280397106DE22DC26DA80000D
:1019B0002326A4FCAE87A305F4FC8327C4FCB3371D
:1019C000F00093F7F70F3E871306000CD567938559
:1019D00047813A85EF30405BA30704FEA147230708
:1019E000F4FE8327C4FC9C43BD8B0547B317F70067
:1019F00093960701C1828327C4FC9C4313D75700E9
:101A0000B70700200A079387C704BA979C43368715
:101A1000D8CB8327C4FCDC472324F4FE01008327B2
:101A200084FE1387F7FF2324E4FEF5FB8327C4FC21
:101A3000DC43BD8B0547B317F70093960701C182BE
:101A40008327C4FCDC4313D75700B70700200A07DD
:101A50009387C704BA979C43368798CB7DA8832782
:101A6000C4FC9C43BD8B0547B317F7009396070151
:101A7000C1828327C4FC9C4313D75700B7070020BB
:101A80000A079387C704BA979C433687D8CB832726
:101A9000C4FCDC472322F4FE0100832744FE1387A5
:101AA000F7FF2322E4FEF5FB8327C4FC9C43BD8B98
:101AB0000547B317F70093960701C1828327C4FC3B
:101AC0009C4313D75700B70700200A079387C70422
:101AD000BA979C43368798CB8327C4FCDC472320E6
:101AE000F4FE0100832704FE1387F7FF2320E4FEA2
:101AF000F5FB8347F4FE860793948701E1848327EF
:101B0000C4FCDC433E85EFE01FEAAA87E207E187D9
:101B1000C58FE207E187A307F4FE8347E4FE13873E
:101B2000F7FF2307E4FE85FF8327C4FC9C43BD8B9E
:101B30000547B317F70093960701C1828327C4FCBA
:101B40009C4313D75700B70700200A079387C704A1
:101B5000BA979C433687D8CB8327C4FCDC47232E17
:101B6000F4FC01008327C4FD1387F7FF232EE4FC58
:101B7000F5FB8347B4FCBE850325C4FCD9328347FB
:101B8000F4FE3E85F2506254D254216182800111EC
:101B900006CE22CC00102326A4FEAE873287A305F2
:101BA000F4FEBA872305F4FE8327C4FEB337F000A2
:101BB00093F7F70F3E8713062029D5679385478152
:101BC0003A85EF30603C0325C4FEEFF0EFF0832749
:101BD000C4FE83C78700860793F7F70FBE850325EA
:101BE000C4FE99398347B4FEBE850325C4FEA931DE
:101BF0008347A4FEBE850325C4FE3D390325C4FEEC
:101C0000EFF01F800100F24062440561828079712B
:101C100006D622D40018232EA4FCAE87A30DF4FC14
:101C20008327C4FDB337F00093F7F70F3E87130601
:101C3000402AD567938547813A85EF30E034A30782
:101C400004FE0325C4FDEFF02FE98327C4FD83C7FD
:101C50008700860793F7F70FBE850325C4FDE93E8D
:101C60008347B4FDBE850325C4FDF9360325C4FDB5
:101C7000EFF00FF90325C4FDEFF00FE68327C4FD55
:101C800083C787008607E207E18793E71700E2072B
:101C9000E18793F7F70FBE850325C4FD713E8545A7
:101CA0000325C4FD0933AA87A307F4FE0325C4FD59
:101CB000EFF00FF58347F4FE3E85B25022544561A4
:101CC0008280797106D622D400182326A4FEAE871E
:101CD0002322C4FE2320D4FE232EE4FCA305F4FE1D
:101CE0008327C4FEB337F00093F7F70F3E87130640
:101CF000F02BD567938547813A85EF30E02803279D
:101D000004FE8327C4FDB307F740B337F00093F711
:101D1000F70F3E871306002CD567938547813A85D8
:101D2000EF3080268327C4FE032704FE98C3832751
:101D3000C4FE0327C4FDD8C38327C4FE0347B4FEF3
:101D40002384E7008327C4FE032744FED8C7C14687
:101D500005468545032504FEEFE01FC9D14605462B
:101D600085450325C4FDEFE03FC80100B250225471
:101D700045618280011122CE00102326A4FEAE8789
:101D8000A305F4FED5670327C4FE0A079387C7138C
:101D9000BA979C433E878347B4FEC207C18323168C
:101DA000F7000100D5670327C4FE0A079387C7130E
:101DB000BA979C4383D78700C207C18393F707086C
:101DC000F5F3D5670327C4FE0A079387C713BA97AD
:101DD0009C4383D7C70001007244056182800111D2
:101DE00022CE00102326A4FEAE872315F4FE8357CF
:101DF000A4FEA183C207C18393F6F70FD56703271B
:101E0000C4FE0A079387C713BA979C433E879397EC
:101E10000601C1832316F7000100D5670327C4FE1E
:101E20000A079387C713BA979C4383D78700C207D3
:101E3000C18393F70708F5F38357A4FE93F6F70FD2
:101E4000D5670327C4FE0A079387C713BA979C4335
:101E50003E8793970601C1832316F7000100D567DB
:101E60000327C4FE0A079387C713BA979C4383D7F7
:101E70008700C207C18393F70708F5F30100724496
:101E8000056182805D7186C6A2C480082326A4FCF9
:101E90002324B4FC2322C4FC2320D4FC232EE4FA04
:101EA000232CF4FA232A04FBD5670327C4FC0A0772
:101EB0009387C713BA979C433E85EF503079854589
:101EC0000545EF503067032704FC93073012631D6C
:101ED000F7000327C4FB930750126317F7008545EB
:101EE0000545EF50F01725A0032704FC8967938769
:101EF000A714631EF7000327C4FB89679387C714E1
:101F00006317F700854537152000EF5070158327BC
:101F1000C4FC91E785450565EF50D06125A00327F6
:101F2000C4FC85476317F70085451165EF50F064E1
:101F300011A80327C4FC89476316F700854521656E
:101F4000EF50B063832704FC93F7F70F93068031BB
:101F5000054685453E85EFE03FA98327C4FB93F7FF
:101F6000F70F93068031054685453E85EFE0DFA7F4
:101F7000032784FBC167F917630DF700832784FBF0
:101F800093F7F70F93068034054681453E85EFE0D1
:101F9000BFA5032744FB9307F00F630DF7008327CA
:101FA00044FB93F7F70F93060031014685453E85C4
:101FB000EFE09FA3232E04FC232004FE232204FE33
:101FC000232404FE231604FE231E04FC9307401062
:101FD000231FF4FC231004FE032784FC85476305BC
:101FE000F702832784FC81CF032784FC894763039E
:101FF000F702032784FC8D476304F7020DA8231121
:1020000004FE231204FE25A0231104FE854723129B
:10201000F4FE31A889472311F4FE231204FE01A81F
:1020200089472311F4FE85472312F4FE010023178C
:1020300004FE03A70182832744FCB357F70223174A
:10204000F4FE03A70182832744FCB377F70291E7EC
:102050008357E4FEFD172317F4FE0357E4FE9307AE
:10206000F00763F7E700930780032317F4FE49A8FE
:102070000357E4FE9307F00363F7E70093070003B9
:102080002317F4FEB5A80357E4FEFD4763F7E70006
:10209000930780022317F4FEA5A00357E4FEBD4773
:1020A00063F7E700930700022317F4FE91A8035794
:1020B000E4FE9D4763F6E700E1472317F4FE89A09D
:1020C0000357E4FE8D4763F6E700C1472317F4FE8C
:1020D00005A80357E4FE854763F6E700A1472317E9
:1020E000F4FE39A88357E4FE81C7231704FE09A82C
:1020F00013067021D5679385078E0145EF20D068C0
:102100008357E4FE2314F4FE930700202313F4FE08
:10211000231504FE9D472316F4FED5670327C4FC50
:102120000A079387C713BA979C433E879307C4FD5A
:10213000BE853A85EF50F058D5670327C4FC0A07DF
:102140009387C713BA979C4385453E85EF50F06649
:102150000100B640264461618280797122D6001860
:10216000232EA4FC232CB4FC8547A307F4FE0327ED
:10217000C4FD0A0793870194BA979C4399EB032700
:10218000C4FD0A0793870194BA97032784FD98C377
:1021900015A00327C4FD0A0793870194BA979C43AF
:1021A000032784FD6316F7008547A307F4FE19A0F3
:1021B000A30704FE8347F4FE3E85325445618280C6
:1021C000011106CE22CC00102326A4FE8327C4FED4
:1021D00081EB8545856713850780EF50B0356DA885
:1021E0000327C4FE85476317F70085450545EF5073
:1021F000D0385DA00327C4FE89476317F7008545E3
:102200000945EF50903749A80327C4FE8D4763174F
:10221000F70085451145EF505036BDA80327C4FE91
:1022200091476317F70085452145EF501035ADA064
:102230000327C4FE95476317F70085454145EF50D6
:10224000D03399A80327C4FE99476318F700854542
:1022500013050002EF50703281A00327C4FE9D4792
:102260006317F70085450965EF50D02C35A003278B
:10227000C4FEA1476318F700854537050800EF50F5
:10228000702B19A80327C4FEA5476317F7008545DF
:1022900037051000EF50102A0100F240624405613A
:1022A0008280797122D60018232EA4FCB737014012
:1022B000938707C02326F4FE231504FE0327C4FDDD
:1022C000A54763ECE7088327C4FD13972700D5676C
:1022D00093878714BA979C438287B73701409387C7
:1022E00007C02326F4FE95A8B70700402326F4FE76
:1022F000ADA0B7070040938707402326F4FEB1A89E
:10230000B7170040938707802326F4FEB9A0B717BC
:102310000040938707C02326F4FE81A0B717004032
:102320002326F4FE1DA8B7170040938707402326F5
:10233000F4FE25A0B7370140938707402326F4FE1B
:1023400029A8B7570140938707C02326F4FE31A080
:10235000B75701402326F4FE01000327C4FD0A07F6
:1023600093878196BA9798438947631FF70083271D
:10237000C4FE83D747021397070141838D47B357A4
:10238000F7022315F4FE39A08327C4FE83D7470242
:102390002315F4FE8357A4FE3E85325445618280A6
:1023A000797122D60018232EA4FCB73701409387F9
:1023B00007C02326F4FE0327C4FDA54763ECE70806
:1023C0008327C4FD13972700D56793870717BA970C
:1023D0009C438287B7370140938707C02326F4FECA
:1023E00095A8B70700402326F4FEADA0B70700402C
:1023F000938707402326F4FEB1A8B71700409387C0
:1024000007802326F4FEB9A0B7170040938707C0C2
:102410002326F4FE81A0B71700402326F4FE1DA852
:10242000B7170040938707402326F4FE25A0B7374F
:102430000140938707402326F4FE29A8B75701409F
:10244000938707C02326F4FE31A0B7570140232607
:10245000F4FE01008327C4FE2392070201003254D8
:1024600045618280011122CE00102326A4FEAE8792
:10247000A305F4FE0100D5670327C4FE0A0793876E
:102480008719BA979C4383D70700C207C18393F784
:102490000708F5D3D5670327C4FE0A079387871972
:1024A000BA979C433E878347B4FEC207C183231279
:1024B000F7000100724405618280011106CE22CC32
:1024C00000102326A4FE2324B4FE2322C4FE832767
:1024D00084FEB337F00093F7F70F3E87130610041E
:1024E000D5679385879A3A85EF20102A29A88327F4
:1024F00084FE138717002324E4FE83C70700BE85EC
:102500000325C4FE8537832744FE1387F7FF232264
:10251000E4FEF1FF0100F240624405618280011196
:1025200006CE22CC00102326A4FE2324B4FE83274B
:1025300084FEB337F00093F7F70F3E8713060005CC
:10254000D5679385879A3A85EF20102439A8832789
:1025500084FE138717002324E4FE8387070093F784
:10256000F70FBE850325C4FEF53D832784FE8387D0
:102570000700F1FF0100F240624405618280011111
:1025800006CE22CC00102326A4FEAE87A305F4FEBF
:10259000D5670327C4FE0A0793878719BA979C4318
:1025A0003E878347B4FE3E86930550523A85EF60DE
:1025B000B02E138701868327C4FEBA9783C707000E
:1025C00081453E85EF30300F8347B4FE81CF1387BE
:1025D00001868327C4FEBA9783C707003E85EF3084
:1025E000D00919A8138701868327C4FEBA9783C729
:1025F00007003E85EF30500A0100F2406244056159
:102600008280011122CE00102326A4FE2324B4FED2
:10261000D5670327C4FE0A0793878719BA979C4397
:1026200083D70700C207C18393F707028DC7D56719
:102630000327C4FE0A0793878719BA979C4383D759
:102640004700C207C18313F7F70F832784FE238057
:10265000E700854711A081473E857244056182806D
:10266000797106D622D40018232EA4FC232CB4FCA6
:10267000232AC4FC2328D4FC032744FD832704FD1C
:102680003D8F8327C4FDB207F98F93B7170093F7E7
:10269000F70F3E871306A00AD5679385879A3A8578
:1026A000EF20900E832744FD13D78700832704FD76
:1026B000A183B307F74093B7170093F7F70F3E874F
:1026C0001306B00AD5679385879A3A85EF20D00B19
:1026D000832744FD93F7F70FE146014685453E8584
:1026E000EFE08FB0832704FD93F7F70F9306800484
:1026F000014681453E85EFE02FAF85450545EF500A
:102700006063032744FDC167FD17F98F0D67130749
:1027100007386387E7200D67130707386369F704F5
:102720000567130757166381E716056713075716E2
:10273000636FF7001307F022638AE70C130760301A
:102740006381E710130760126388E70865A60967CD
:1027500013078736638BE7160D6713070712638726
:10276000E71809671307A7146380E71461A61567C4
:102770001307A738638EE72615671307A738636228
:10278000F7021167130787386380E720156713077F
:1027900087126385E722116713074712638CE71AD4
:1027A00091AE19671307C7386388E72A19671307BB
:1027B000C7386368F7001967130767106384E72653
:1027C00015AE1D671307E7106382E72C1D6713071B
:1027D000E7386387E72E39AEB7070140D44FB70714
:1027E0000140370700FC7D17758FD8CFB707014030
:1027F000D843B70701406D9BD8C3B7070140D84302
:10280000B707014013674700D8C3EDA4B7070140DD
:10281000D44FB7070140370700FC7D17758FD8CF1D
:10282000B7070140D44FB707014037070004558F61
:10283000D8CFB7070140D843B70701406D9BD8C335
:1028400055ACB7070140D44FB7070140370700FC2C
:102850007D17758FD8CFB7070140D44FB707014018
:1028600037070004558FD8CFB7070140D843B707C3
:1028700001406D9BD8C3B7070140D843B70701405B
:1028800013674700D8C3BDA4B7070140D843B707B3
:1028900001405D9BD8C3B7070140D843B70701404B
:1028A00013678700D8C3B9A4B7070140D843B70757
:1028B00001401377F7FCD8C3B7070140D843B707E7
:1028C000014013670701D8C335A4B7070140D843B7
:1028D000B70701401377F7FCD8C3B7070140D843C7
:1028E000B707014013670703D8C329A4B7070140FE
:1028F000D44FB70701403707FDFF7D17758FD8CF3D
:10290000B7070140D44F832744FDA18313970701E4
:10291000B70703007D8FB7070140558FD8CFD9AADD
:10292000B7070140D44FB70701403707FDFF7D17B8
:10293000758FD8CFB7070140D44F832744FDA183BB
:1029400013970701B70703007D8FB7070140558F25
:10295000D8CF4DA2B7070140D44FB7070140370782
:10296000F4FF7D17758FD8CFB7070140D44F832769
:1029700044FDA18313972701B7070C007D8FB7078C
:102980000140558FD8CFBDA2B7070140D44FB7073C
:1029900001403707F4FF7D17758FD8CFB707014087
:1029A000D44F832744FDA18313972701B7070C0059
:1029B0007D8FB7070140558FD8CF2DAAB7070140AB
:1029C000D44FB70701403707D0FF7D17758FD8CF99
:1029D000B7070140D44F832744FDA18313974701D4
:1029E000B70730007D8FB7070140558FD8CF19A2A8
:1029F000B7070140D44FB70701403707D0FF7D1715
:102A0000758FD8CFB7070140D44F832744FDA183EA
:102A100013974701B70730007D8FB7070140558FE7
:102A2000D8CFC9A8B7070140D44FB707014037072F
:102A300040FF7D17758FD8CFB7070140D44F83274C
:102A400044FDA18313976701B707C0007D8FB707C7
:102A50000140558FD8CF79A8B7070140D44FB707A9
:102A60000140370740FF7D17758FD8CFB70701406A
:102A7000D44F832744FDA18313976701B707C00094
:102A80007D8FB7070140558FD8CFADA0B707014064
:102A9000D44FB7070140370700FD7D17758FD8CF9A
:102AA000B7070140D44F832744FDA18313978701C3
:102AB000B70700037D8FB7070140558FD8CF1DA8FA
:102AC000B7070140D44FB7070140370700FD7D1716
:102AD000758FD8CFB7070140D44F832744FDA1831A
:102AE00013978701B70700037D8FB7070140558F04
:102AF000D8CF01008327C4FD91E785451165EF50CC
:102B0000602369A80327C4FD85476318F70085453E
:102B100037050200EF50602651A00327C4FD894706
:102B20006318F700854537050400EF500025BDA068
:102B30000327C4FD8D476318F70085453705080056
:102B4000EF50A023A1A80327C4FD91476318F70005
:102B5000854537051000EF50402289A00327C4FDAA
:102B600095476318F700854513050004EF50E020F2
:102B700035A00327C4FD99476318F7008545130561
:102B80000008EF50801F19A80327C4FD9D47631755
:102B9000F700854513050010EF50201E232004FE8A
:102BA000232204FE232404FE232604FE832784FD1F
:102BB0002320F4FE231204FE231304FE231404FE38
:102BC000231604FEB1472315F4FED5670327C4FD81
:102BD0000A0793878719BA979C433E87930704FE99
:102BE000BE853A85EF600022D5670327C4FD0A073A
:102BF00093878719BA979C4385453E85EF60C0430C
:102C00000100B250225445618280411106C622C49F
:102C10000008A14613860187814513850199EF209D
:102C2000B0660100B240224441018280411106C6D3
:102C300022C4000883A7C1870547638BE700638828
:102C4000070C0947638DE7000D47638FE702E9A092
:102C500083A781871387170023ACE18675A883A714
:102C600081871387170023ACE18603A78187A547D7
:102C700063F1E70AB70700209387C7049C4B1167ED
:102C8000D8CB23AC018671A003A7018885476314C4
:102C9000F7081305F008EFD01FD1AA87ADC3194577
:102CA000EFF02FE0AA873E8783A781871D8F9307C8
:102CB000600963F2E7061945EFF08FEE83A781877D
:102CC000D3F717D05385F720EFD0D064D56703A68C
:102CD00007A783A647A7EFC05029AA872E883E855D
:102CE000C285EFD0F04BAA87139707014183B7073E
:102CF0000020239CE73A094723A0E18829A8194529
:102D0000EFF02FDAAA873E8723ACE18629A00100E5
:102D100021A0010011A001000100B24022444101A4
:102D20008280411106C622C4000883A7C1870947D3
:102D3000637CF7000D47639AE7001945EFF04FE613
:102D4000054723A0E18811A001000100B240224400
:102D500041018280011106CE22CC0010232204FE04
:102D600083C75188638A070E09A8930734FE054676
:102D7000BE851385C19AEF20E072930734FEBE85AD
:102D80001D45EFF01F88AA87EDF3034734FEA947DE
:102D90006314F70C99472322F4FE130744FE9307AC
:102DA00084FE85463A86BE851385C19AEF20D01FE2
:102DB000930784FE138737000D46D567938587A751
:102DC0003A85EFE05051AA879DEB03A7C188894758
:102DD000630DF706054723A6E1881385C19AEF2006
:102DE000A056AA872322F4FE930744FE81463E861E
:102DF000938581A41385C19AEF20101BB9A0930776
:102E000084FE138737000D46D5679385C7A73A859B
:102E1000EFE0704CAA8795EB03A78188894763068A
:102E2000F702054723A4E1881385C19AEF20C0511A
:102E3000AA872322F4FE930744FE81463E869385AB
:102E4000819C1385C19AEF2030161385C19AEF201B
:102E5000A03F05472382E1880100F24062440561FA
:102E60008280397106DE22DC80002326A4FC85479F
:102E7000A307F4FE231604FE232404FE232E04FCE1
:102E800083D781893E87930700236316F700A54700
:102E90002324F4FE29A0A1472324F4FE01008DA8D9
:102EA000930750FA2300F4FE832784FE8A07032742
:102EB000C4FCBA978397070093F7F70FA300F4FEBB
:102EC000832784FE8A070327C4FCBA9783972700C9
:102ED0002313F4FE835764FEA183C207C18393F7D3
:102EE000F70F2301F4FE835764FE93F7F70FA30156
:102EF000F4FE930704FE1146BE851145EFF0EFDBAB
:102F00000945EFD06FBA832784FEFD172324F4FE12
:102F1000032784FE9307E00FE3F4E7F81385019994
:102F2000EF2080422A87894763FFE7028D47232EDF
:102F3000F4FC1307C4FD930704FE81463A86BE8560
:102F400013850199EF205006034714FE9307F00FF5
:102F50006308F700034724FE9307F00F6315F7009B
:102F6000A30704FE31A80545EFD00FB48357C4FE74
:102F7000138717002316E4FE1307F007E370F7FA30
:102F80008347F4FE3E85F25062542161828039719C
:102F900006DE22DC80002326A4FCA30704FE231601
:102FA00004FE232404FE232E04FC83D781893E875C
:102FB000930700236316F700A5472324F4FE29A0F6
:102FC000A1472324F4FE0100832784FEFD17232458
:102FD000F4FE29A203D781899307F02263EDE7006D
:102FE000832784FE8A070327C4FCBA970397070048
:102FF000A547630FF70C930750FA2300F4FEC5575B
:10300000A300F4FE832784FE8A070327C4FCBA9733
:10301000839707002313F4FE835764FEA183C2073E
:10302000C18393F7F70F2301F4FE835764FE93F7F0
:10303000F70FA301F4FE930704FE1146BE85114568
:10304000EFF0AFC7231604FE13850199EF20C02FC0
:103050002A87894763F7E7048D47232EF4FC13077B
:10306000C4FD930704FE81463A86BE851385019907
:10307000EF208073834714FEA20793960701C18651
:10308000834724FE139707014187832784FE8A071D
:103090000326C4FCB297558F420741872391E7006E
:1030A00031A80545EFD04FA08357C4FE1387170002
:1030B0002316E4FE1307F007E378F7F80357C4FE7E
:1030C0009307000863F7E7008547A307F4FE19A8F4
:1030D0000100832784FEFD172324F4FE832784FE4A
:1030E000E39A07EE8347F4FE3E85F2506254216175
:1030F0008280011106CE22CC0010A30704FE9307A4
:10310000F4FEBE851145EFF0CFCF0347F4FE9307E1
:10311000500A6316F70013850199EF20E0128347E8
:10312000F4FEBE8513850199EF2040260100F24090
:10313000624405618280411122C600080547238848
:10314000E1880100324441018280011106CE22CC87
:103150000010231704FE231604FE232004FE930709
:1031600050FA2302F4FEC557A302F4FE9307200F82
:103170002315F4FE8357A4FEA183C207C18393F7EE
:10318000F70F2303F4FE8357A4FE93F7F70FA3036F
:10319000F4FE930744FE1146BE851145EFF0EFB1F2
:1031A00013850199EF20401A2A87894763F0E704C5
:1031B0008D472320F4FE130704FE930744FE814647
:1031C0003A86BE8513850199EF20005E834754FE41
:1031D000A207139707014187834764FEC207C1878F
:1031E000D98FC207C1872316F4FE31A80545EFD059
:1031F000AF8B8357E4FE138717002317E4FE1307F2
:10320000F007E37FF7F88357C4FE3E85F24062443F
:1032100005618280397106DE22DC8000A30704FE8E
:10322000054723AAE1889307C4FD1307C00493064A
:1032300020061306401F81453E85EFE09FA8130539
:10324000800CEFD06F861307C4FDB707002093856D
:1032500007063A85EFA09031AA876389070C23AA55
:10326000018891679386270691671386C70489674B
:10327000938507581145EFF0AFBE85451145EFF036
:103280000FB01305800CEFD02F82B73700001386E4
:103290006713B73700009385270F0D45EF10E03611
:1032A000EFF0BF965D35AA873E87239CE188B7077C
:1032B000002013850706EFF0DFBAAA878DCB9306AF
:1032C000701BD567138687B6D567938587C301457D
:1032D000EF101052014681450145EF100033814542
:1032E0001145EFF0CFA98547A307F4FE81A0B707EA
:1032F0000020138587086139AA878DCB9306401C6F
:10330000D567138687B6D567938547C50145EF1006
:10331000304E014681450145EF10202F8145114572
:10332000EFF0EFA58547A307F4FE0100B7370000D3
:1033300013866713B73700009385270F0D45EF10ED
:10334000C02C91473EC495473EC299473EC0930862
:10335000900213088002930760021307B0049306DB
:10336000900413068004A9452545EFD04F88854673
:103370009967138607828145B70700201385076880
:10338000EFD00F978347F4FE3E85F25062542161DF
:103390008280011106CE22CC0010AA87A307F4FE7A
:1033A000B70700209387C704DC4713070008D8CB72
:1033B0008347F4FEBE850545EFE0DF9BB70700209D
:1033C0009387C704DC471307000898CB0100F2403D
:1033D000624405618280011106CE22CC0010AA87CA
:1033E00036872317F4FEAE872316F4FEB287231523
:1033F000F4FEBA872314F4FE83C7C180C207C183D9
:103400000357E4FEB337F70093F7F70F3E87130631
:10341000A008D567938507C73A85EF10F03683C7B4
:10342000D180C207C1830357C4FEB337F70093F7B7
:10343000F70F3E871306B008D567938507C73A850F
:10344000EF10903483C7C180C207C1830357A4FE25
:10345000B337F70093F7F70F3E871306C008D56719
:10346000938507C73A85EF10303283C7D180C207F2
:10347000C183035784FEB337F70093F7F70F3E87F6
:103480001306D008D567938507C73A85EF10D02F6C
:1034900083A7C18905476376F7000D476369F71075
:1034A00061A01305A002F53581450545EFE09F8C2D
:1034B0008357E4FE93F7F70F890793F7F70FBE855D
:1034C0000545EFE03F8B81450545EFE0BF8A835717
:1034D000A4FE93F7F70F890793F7F70FBE8505450D
:1034E000EFE05F891305B0026D3581450545EFE0DA
:1034F0007F888357C4FE93F7F70F850793F7F70F7D
:10350000BE850545EFE01F8781450545EFE09F86B5
:10351000835784FE93F7F70F850793F7F70FBE8560
:103520000545EFE03F8561A01305A0029D3581456B
:103530000545EFE03F848357E4FE93F7F70F8507D7
:1035400093F7F70FBE850545EFE0DF82814505451E
:10355000EFE05F828357A4FE93F7F70F850793F799
:10356000F70FBE850545EFE0FF801305B002153566
:1035700081450545EFE01F808357C4FE93F7F70FA1
:10358000890793F7F70FBE850545EFE0AFFE81454C
:103590000545EFE02FFE835784FE93F7F70F890769
:1035A00093F7F70FBE850545EFE0CFFC010013054B
:1035B000C002C5330100F240624405618280797126
:1035C00006D622D400189307C4FD3E85EF1030279D
:1035D0008547231EF4FC83C7C180C207C183231F14
:1035E000F4FC83C7D180C207C1832310F4FE83A7F4
:1035F00081800547638AE70099EF99472301F4FE2C
:10360000A147A301F4FE09A8A1472301F4FEC14785
:10361000A301F4FE11A00100B74700009387C7A9DA
:103620002324F4FEB7370000938747642326F4FE73
:103630009307C4FD3E85EF1030260100B25022549E
:1036400045618280011106CE22CC001083C7C18063
:103650003E8783C7D180B307F7022326F4FEB7075E
:1036600000209387C704DC474147D8CB83C7C1807C
:10367000C207C183FD1713970701418383C7D18018
:10368000C207C183FD17C207C183BE863A86814542
:103690000145EFF05FD431A8B707002083D7C73BBF
:1036A000BE850545EFE0AFF38327C4FEFD17232653
:1036B000F4FE8327C4FEEDF3B70700209387C70409
:1036C000DC47414798CB0100F240624405618280AB
:1036D000797106D622D40018AA87231FF4FC83C769
:1036E000C1803E8783C7D180B307F7022326F4FE4B
:1036F000B70700209387C704DC474147D8CB83C76F
:10370000C180C207C183FD1713970701418383C797
:10371000D180C207C183FD17C207C183BE863A8626
:1037200081450145EFF03FCB21A88357E4FDBE85DD
:103730000545EFE0CFEA8327C4FEFD172326F4FEFC
:103740008327C4FEFDF3B70700209387C704DC4737
:10375000414798CB0100B25022544561828001114B
:1037600022CE00102326A4FE0327C4FE23AEE18848
:1037700083A7C18905476376F7000D476365F702A4
:1037800011A8130700F82386E180130700FAA38627
:10379000E18011A8130700FA2386E180130700F8DF
:1037A000A386E1800100010072440561828001115D
:1037B00022CE0010AA872E872317F4FEBA8723167D
:1037C000F4FEB70700200357E4FE239DE73AB7074E
:1037D00000200357C4FE239EE73A010072440561AE
:1037E0008280797106D622D40018AA87AE863287E5
:1037F000231FF4FCB687231EF4FCBA87A30DF4FC48
:1038000083C7C180C207C1830357E4FDB337F70004
:1038100093F7F70F3E8713069019D567938507C76F
:103820003A85EF10607683C7D180C207C183035702
:10383000C4FDB337F70093F7F70F3E871306A019BF
:10384000D567938507C73A85EF100074A30704FE78
:10385000230704FEB70700209387C704DC474147CE
:10386000D8CB83A781800547638EE70C639B072035
:10387000A30704FED1A08347F4FE139707014183F9
:103880008357E4FDBA971395070141818347F4FEFE
:103890001397070141838357E4FDBA9713970701F4
:1038A00041838357C4FDA10793960701C1828357C3
:1038B000C4FD3A86BE85EFF01FB28307B4FD1387BF
:1038C00007FE8346F4FE5566BA878607BA978607D1
:1038D0001307867ABA97B69783C70700A306F4FE44
:1038E000230704FE81A08347D4FE858B91CBB707C5
:1038F000002083D7A73BBE850545EFE04FCE09A842
:10390000B707002083D7C73BBE850545EFE02FCD25
:103910008347D4FE8583A306F4FE8347E4FE850730
:103920002307F4FE0347E4FE9D47E3FEE7FA8347DF
:10393000F4FE8507A307F4FE0347F4FE9547E3FC76
:10394000E7F289A2A30704FE3DA28347F4FE139782
:10395000070141838357E4FDBA971395070141811D
:103960008347F4FE1397070141838357E4FDBA9719
:103970001397070141838357C4FDBD079396070141
:10398000C1828357C4FD3A86BE85EFF0DFA483076A
:10399000B4FD938607FE8347F4FE5567920613072E
:1039A000871B3697BA9783C707002306F4FE830761
:1039B000B4FD938607FE8347F4FEA1075567920680
:1039C0001307871B3697BA9783C70700A305F4FE32
:1039D000230704FE81A08347C4FE858B91CBB707E4
:1039E000002083D7A73BBE850545EFE04FBF09A860
:1039F000B707002083D7C73BBE850545EFE02FBE44
:103A00008347C4FE85832306F4FE8347E4FE8507CF
:103A10002307F4FE0347E4FE9D47E3FEE7FA23078E
:103A200004FE81A08347B4FE858B91CBB7070020AD
:103A300083D7A73BBE850545EFE06FBA09A8B70756
:103A4000002083D7C73BBE850545EFE04FB98347CC
:103A5000B4FE8583A305F4FE8347E4FE85072307B0
:103A6000F4FE0347E4FE9D47E3FEE7FA8347F4FED6
:103A70008507A307F4FE0347F4FE9D47E3F7E7EC51
:103A800011A00100B70700209387C704DC47414716
:103A900098CB0100B250225445618280797106D6DC
:103AA00022D40018AA872E87232CC4FC231FF4FCE1
:103AB000BA87231EF4FC83C7C180C207C1830357A2
:103AC000E4FDB337F70093F7F70F3E871306D01ED8
:103AD000D567938507C73A85EF10004B83C7D18020
:103AE000C207C1830357C4FDB337F70093F7F70F3D
:103AF0003E871306E01ED567938507C73A85EF100A
:103B0000A048231704FE71A083A781800547638125
:103B1000E704B5EB0357E4FEBA878607BA97860732
:103B20001397070141838357E4FDBA9793960701E2
:103B3000C1828357E4FE032784FDBA9703870700F9
:103B40008357C4FD3A86BE853685EFF09FC92DA800
:103B50008357E4FE8E071397070141838357E4FDE3
:103B6000BA9793960701C1828357E4FE032784FD29
:103B7000BA97038707008357C4FD3A86BE8536850A
:103B8000EFF03FC611A001008357E4FE850723171D
:103B9000F4FE8357E4FE032784FDBA97838707006A
:103BA000A5F70100B2502254456182805D7186C63E
:103BB000A2C4A6C280082328C4FA232AD4FABA864B
:103BC0003E87AA87231FF4FAAE87231EF4FAB6872E
:103BD000A30DF4FABA87230DF4FA83C7C180C20794
:103BE000C1830357E4FBB337F70093F7F70F3E8722
:103BF0001306C025D567938507C73A85EF10C038EF
:103C000083C7D180C207C1830357C4FBB337F70012
:103C100093F7F70F3E871306D025D567938507C71F
:103C20003A85EF1060368347B4FBB337F00093F763
:103C3000F70F3E871306E025D567938507C73A85BA
:103C4000EF1080348347B4FB93B7970093F7F70FD7
:103C50003E871306F025D567938507C73A85EF1091
:103C6000A0328347A4FBB337F00093F7F70F3E87EA
:103C700013060026D567938507C73A85EF10C03035
:103C80008347A4FB93B7770093F7F70F3E8713069C
:103C90001026D567938507C73A85EF10E02E832756
:103CA00004FB032844FB2320F4FE232204FFD567F2
:103CB00003A847D483A707D42324F4FE232604FFB4
:103CC0009307C4FC454681453E85EFC06FD303474B
:103CD000B4FB8347A4FBBA9789073E879307C4FCCC
:103CE0003A86930500023E85EFC08FD13DA0D5678F
:103CF00003A687D483A6C7D4032584FE8325C4FEE8
:103D0000EFB0B026AA872E882324F4FE232604FFD2
:103D10008347B4FBFD17A30DF4FA8347B4FBE1FB23
:103D2000032504FE832544FEEFC0103AAA84032530
:103D300084FE8325C4FEEFC03039AA87B3C7F402DE
:103D40003E85EFC0D04FAA872E88032684FE8326A7
:103D5000C4FE3E85C285EFB05021AA872E883E86DC
:103D6000C286032504FE832544FEEFC06005AA87B2
:103D70002E882320F4FE232204FF0347A4FB93078D
:103D8000C4FCBA86832504FE032644FE3E85EF105C
:103D900010599306C4FC0357C4FB8357E4FB3686D3
:103DA000BA853E85EFF09FCF0100B6402644964489
:103DB000616182805D7186C6A2C480082A8E2E83CE
:103DC0002324C4FC3685BA853E86C2864687F287A0
:103DD0002317F4FC9A872316F4FCAA872313F4FC18
:103DE000AE872312F4FCB2872311F4FCB6872310AC
:103DF000F4FCBA87A30FF4FA83C7C180C207C1835A
:103E00000357E4FCB337F70093F7F70F3E87130629
:103E1000B02BD567938507C73A85EF10E01683C7A7
:103E2000D180C207C1830357C4FCB337F70093F7AF
:103E3000F70F3E871306C02BD567938507C73A85D2
:103E4000EF108014832784FCB337F00093F7F70F4B
:103E50003E871306D02BD567938507C73A85EF10A9
:103E6000A012232604FE232404FE231304FE23129F
:103E700004FE232004FE232E04FCB70700209387B2
:103E8000C704DC474147D8CB0357E4FC835724FCE5
:103E9000BA97C207C183FD171396070141820357E2
:103EA000C4FC835704FCBA97C207C183FD179396DD
:103EB0000701C1820357C4FC8357E4FCBA853E85E1
:103EC000EFF06FD1232404FE19A2035744FC83278B
:103ED00084FE3307F702835704FCB357F702232EFF
:103EE000F4FC232604FEC9A8035764FC8327C4FE00
:103EF0003307F702835724FCB357F7022320F4FE5D
:103F0000035764FC8327C4FD3307F702832704FEAD
:103F1000BA97032784FCBA9783C707002312F4FEDD
:103F20008347F4FBB5E3835744FE8D83C207C18307
:103F3000AE072313F4FE835744FE8983C207C1836F
:103F40009607C207C18793F7077E1397070141873A
:103F5000831764FED98FC207C1872313F4FE8357EA
:103F600044FE8D83C207C183FD8B139707014183F4
:103F7000835764FED98F2313F4FE835764FEBE85F6
:103F80000545EFD0DFE525A08347F4FBC207C183D9
:103F9000035744FE6377F70081450545EFD03FE4C2
:103FA00039A0C1679385F7FF0545EFD05FE383270D
:103FB000C4FE85072326F4FE835724FC0327C4FE92
:103FC000E364F7F2832784FE85072324F4FE8357F6
:103FD00004FC032784FEE36AF7EEB707002093870B
:103FE000C704DC47414798CB0100B64026446161D5
:103FF00082805D7186C6A2C480082A8E2E83232407
:10400000C4FC3685BA853E86C2864687F28723176A
:10401000F4FC9A872316F4FCAA872313F4FCAE87DA
:104020002312F4FCB2872311F4FCB6872310F4FCAE
:10403000BA87A30FF4FA83C7C180C207C1830357AD
:10404000E4FCB337F70093F7F70F3E871306602FB2
:10405000D567938507C73A85EF00107383C7D18072
:10406000C207C1830357C4FCB337F70093F7F70FB8
:104070003E871306702FD567938507C73A85EF00F3
:10408000B070832784FCB337F00093F7F70F3E87B7
:104090001306802FD567938507C73A85EF00D06E4A
:1040A000232604FE232404FE231304FE232004FEFF
:1040B000232E04FCB70700209387C704DC47414741
:1040C000D8CB0357E4FC835724FCBA97C207C183BB
:1040D000FD171396070141820357C4FC835704FC64
:1040E000BA97C207C183FD1793960701C182035790
:1040F000C4FC8357E4FCBA853E85EFF0CFAD2324A2
:1041000004FE45A8035744FC832784FE3307F702C7
:10411000835704FCB357F702232EF4FC232604FE36
:10412000B5A8035764FC8327C4FE3307F7028357FF
:1041300024FCB357F7022320F4FE035764FC8327C3
:10414000C4FD3307F702832704FEBA9786070327C7
:1041500084FCBA9783D707002313F4FE8347F4FB4C
:104160009DC3835764FEA2071397070141878357B6
:1041700064FEA183C207C183C207C187D98FC2076A
:10418000C1872313F4FE835764FEBE850545EFD037
:104190001FC58327C4FE85072326F4FE835724FC0E
:1041A0000327C4FEE36FF7F6832784FE85072324E5
:1041B000F4FE835704FC032784FEE365F7F4B70796
:1041C00000209387C704DC47414798CB0100B640E5
:1041D000264461618280411106C622C4000813088A
:1041E000F00FC167F91705671307F7028566938615
:1041F000D60237A64A041306062081450545EFD0AE
:104200007FC8C1460146854513057006EFC0CFFD46
:10421000C1460146854513057002EFC0EFFCC1465B
:104220000546854513054006EFC00FFCC14605460F
:10423000854513050006EFC02FFB83A7C1893E8586
:10424000EFF0EFD1B707002003D7A73BB707002057
:1042500083D7C73BBE853A85EFF06FD5B7070020FF
:104260009387C704DC4313070008D8CB2945EFC068
:10427000AF83B70700209387C704DC431307000808
:1042800098CB13058007EFC02F82B70700209387D4
:10429000C704DC474147D8CB4545EFF08F8F130566
:1042A0008007EFC06F801305100BEFF08F8E8545F0
:1042B0000545EFD03FAC9305C0020545EFD09FAB5D
:1042C0009305D0020545EFD0FFAA1305200BEFF0B0
:1042D0004F8C85450545EFD0FFA99305C0020545E4
:1042E000EFD05FA99305D0020545EFD0BFA8130515
:1042F000300BEFF00F8A85450545EFD0BFA793053A
:10430000C0020545EFD01FA79305D0020545EFD0A9
:104310007FA685450545EFD0FFA59305C00205455D
:10432000EFD05FA59305D0020545EFD0BFA41305DC
:10433000400BEFF00F869D450545EFD0BFA3130559
:10434000000CEFF00F859305200A0545EFD09FA2E2
:1043500089450545EFD01FA2930540080545EFD0DC
:104360007FA11305100CEFF0CF829305500C05458B
:10437000EFD05FA01305200CEFF0AF81A9450545F4
:10438000EFD05F9F81450545EFD0DF9E1305300CD0
:10439000EFF02F809305A0080545EFD0BF9D930552
:1043A000A0020545EFD01F9D1305400CEFE07FFEF6
:1043B0009305A0080545EFD0FF9B9305E00E05454A
:1043C000EFD05F9B1305500CEFE0BFFCB9450545EE
:1043D000EFD05F9A13056003EFE0BFFB83A7C189AD
:1043E00005476380E70281CB09476381E7020D47F8
:1043F0006384E70205A89305000C0545EFD09F975D
:1044000015A081450545EFD0FF9629A89305000A20
:104410000545EFD03F9639A0930500060545EFD03E
:104420007F9501001305000EEFE0BFF6BD45054581
:10443000EFD05F94E9450545EFD0DF93BD450545D5
:10444000EFD05F93E1450545EFD0DF929305F00291
:104450000545EFD03F92930580020545EFD09F912F
:10446000930500020545EFD0FF9093052002054516
:10447000EFD05F90FD450545EFD0DF8FED45054559
:10448000EFD05F8F930530020545EFD0BF8E9305C7
:1044900070030545EFD01F8E81450545EFD09F8DF8
:1044A0009D450545EFD01F8D89450545EFD09F8C73
:1044B000C1450545EFD01F8C1305100EEFE07FEDD1
:1044C000BD450545EFD01F8BED450545EFD09F8AD3
:1044D000BD450545EFD01F8ADD450545EFD09F89D5
:1044E000930530030545EFD0FF889305C0020545CD
:1044F000EFD05F88930590020545EFD0BF87930505
:10450000E0020545EFD01F87930500030545EFD076
:104510007F86930500030545EFD0DF859305900363
:104520000545EFD03F859305F0030545EFD09F8407
:1045300081450545EFD01F849D450545EFD09F83FC
:104540008D450545EFD01F83C1450545EFD09F82BE
:104550001305A002EFE0FFE381450545EFD09F8101
:1045600089450545EFD01F8181450545EFD09F80E6
:10457000930520080545EFD0EFFF1305B002EFE0EB
:104580005FE181450545EFD0EFFE8D450545EFD054
:104590006FFE81450545EFD0EFFD930530080545D9
:1045A000EFD04FFD1305000FEFE0BFDE8545054559
:1045B000EFD04FFC1305600FEFE0BFDD81450545EF
:1045C000EFD04FFB1305A003EFE0BFDC9545054599
:1045D000EFD04FFA13059002EFE0BFDBB7070020E2
:1045E0009387C704DC47414798CBEFF0AF85EFE0F6
:1045F0001FFD0100B240224441018280411122C6C8
:1046000000080100324441018280011122CE0010D5
:104610002326A4FE2324B4FE2322C4FE0327C4FEC3
:1046200023A0E18A832744FE81C7832744FE29A073
:10463000B74700009387C75F23AAF180832784FED2
:1046400081C7832784FE29A0B74700009387C75FEF
:1046500023A8F1800100724405618280411122C6C5
:104660000008B71702409843B717024013671700B6
:1046700098C3B7170240D443B71702403707FFF873
:10468000758FD8C3B71702409443B7170240370756
:10469000F7FE7D17758F98C3B71702409443B7177D
:1046A00002403707FCFF7D17758F98C3B71702408C
:1046B000D443B7170240370781FF7D17758FD8C3E2
:1046C000B717024037079F0098C7010032444101E5
:1046D0008280797106D622D40018232EA4FCEFF034
:1046E000FFF7232604FE232404FEB7170240944359
:1046F000B71702404167558F98C3B71702409843D8
:10470000B7070200F98F2324F4FE8327C4FE850730
:104710002326F4FE832784FE91E70327C4FE8567E2
:10472000E31DF7FCB71702409843B7070200F98F63
:1047300089C785472324F4FE19A0232404FE0327F8
:1047400084FE85476312F71637170240B7170240F9
:104750005843D8C337170240B71702405843D8C34D
:1047600037170240B71702405843D8C3B717024063
:10477000D443B71702403707C1FF7D17758FD8C3E1
:104780000327C4FDB747950893870740631BF700CD
:10479000B7170240D443B71702404167558FD8C3BB
:1047A00055A80327C4FDB7172707938707E0631CA5
:1047B000F700B7170240D443B71702403707390054
:1047C000558FD8C341A80327C4FDB7E7B805938721
:1047D0000780631CF700B7170240D443B7170240A5
:1047E00037072900558FD8C3B5A00327C4FDB7A745
:1047F0004A0493870720631CF700B7170240D4438D
:10480000B717024037071D00558FD8C3A1A0032753
:10481000C4FDB777DC02938707C0631CF700B717A6
:104820000240D443B717024037071100558FD8C351
:1048300015A00327C4FDB7376E0193870760631B7C
:10484000F700B7170240D443B717024037070500F7
:10485000558FD8C3B71702409443B71702403707A4
:104860000001558F98C30100B71702409843B7075E
:104870000002F98FF5DBB7170240D843B7170240A3
:10488000719BD8C3B7170240D843B71702401367CC
:104890002700D8C30100B7170240DC4313F7C70055
:1048A000A147E31AF7FE11A001A0B25022544561BE
:1048B0008280011106CE22CC00102326A4FE0327FD
:1048C000C4FE23A0E182EFF07FD90325C4FEEFF000
:1048D0005FE0EF10C0660100F24062440561828033
:1048E000411122C6000801000100324441018280CA
:1048F000011106CE22CC0010232604FE232404FE40
:10490000232604FE2DA0232404FE01A8EFF05FFD62
:10491000832784FE85072324F4FE032784FEC167D2
:10492000E366F7FE8327C4FE85072326F4FE0327EC
:10493000C4FE9307F00FE3F8E7FC0100F240624485
:1049400005618280411122C6000801003244410104
:104950008280011106CE22CC00102326A4FE8325DE
:10496000C4FE0945EFD0BFBB0100F24062440561BF
:104970008280130101D92326112623248126232294
:104980009126801C232EA4D8232CB4D8232AC4D843
:104990002328D4D8231504FE231404FE231304FE75
:1049A000231204FE231104FE032584D9EFD08011C5
:1049B000AA87C207C1872313F4FEB767002083D7F5
:1049C000C7EF99C7B76700209387C7EF9C4B8297C3
:1049D00083C7518A93F7F70F6385074EB7670020A7
:1049E00083D7C7EF63890746B76700209387C7EF70
:1049F000D447835724FE1397070141879317070174
:104A0000C1838507C207C183C207C1872311F4FE92
:104A100093170701C1830326C4D9BE850145829639
:104A2000832784D92326F4FE032584D9EFD0800977
:104A3000AA87C207C1872313F4FEB76700209387B4
:104A4000C7EF83D727003E87B76700209387C7EF5C
:104A500083C76700B347F702C207C1872312F4FE7A
:104A600001008327C4FE138717002326E4FE8387F3
:104A70000700E5FB231404FEA1A88327C4FEFD174D
:104A80002326F4FE8327C4FE038707009307F00262
:104A9000630AF7008327C4FE038707009307C00556
:104AA000631BF700835784FEC207C1838507C207D3
:104AB000C1832314F4FE835764FEC207C187C20773
:104AC000C183FD17C207C183C207C1872313F4FE48
:104AD000835784FE139707014183854763E8E70006
:104AE000835764FEC207C187E3D907F8835764FE82
:104AF000C207C18763C207028327C4FE8507232636
:104B0000F4FE130704EE0326C4FED567938507D58C
:104B10003A85EFC0D0761DA8835784FEC207C183B3
:104B200081EF130704EE0326C4FED5679385C7D52E
:104B30003A85EFC0D07419A8130704EE0326C4FE0B
:104B4000D567938507D53A85EFC07073231504FEAA
:104B500005A2231404FE59A0930704EE3E85EFC07E
:104B600070762A87835784FEC207C183BE86835727
:104B7000A4FEC207C1833E86835744FEC207C18795
:104B8000B307F602B6976367F706835784FEC2073A
:104B9000C1833E878357A4FEC207C183BE86835765
:104BA00044FEC207C187B387F602BA97035784FE53
:104BB00042074183BA86130704FFBA97038707EFBA
:104BC000930704FFB6972388E7EA835784FEC2075A
:104BD000C1838507C207C1832314F4FE835784FE73
:104BE000C207C1833E87835744FEC207C187E3459E
:104BF000F7F611A00100835784FEC207C183130793
:104C000004FFBA97238807EAB76700209387C7EFA6
:104C100003A8C700B76700209387C7EF83C7770053
:104C2000139707014183835724FE93960701C1869A
:104C300093970601C1838507C207C183C207C18755
:104C40002311F4FE93970601C183B307F702C2074D
:104C5000C183130704EA3A86BE850145029883574B
:104C6000A4FEC207C1838507C207C1832315F4FED2
:104C70008357A4FEC207C183BE84930704EE3E851A
:104C8000EFC050642A87835744FEC207C187B357D9
:104C9000F7028507E3EFF4EA130704EE032644D98D
:104CA000D5679385C7D63A85EFC0705DB76700209A
:104CB0009387C7EF03A8C700B76700209387C7EFA4
:104CC00083C77700139707014183835724FE939688
:104CD0000701C18693970601C1838507C207C18377
:104CE000C207C1872311F4FE93970601C183B3075E
:104CF000F702C207C183130704EE3A86BE85014559
:104D00000298832704D9638E071A231504FE05A28F
:104D1000231404FE59A0032504D9EFC0B05A2A87F2
:104D2000835784FEC207C183BE868357A4FEC20791
:104D3000C1833E86835744FEC207C187B307F6028C
:104D4000B6976368F706835784FEC207C1833E8720
:104D50008357A4FEC207C183BE86835744FEC207A1
:104D6000C187B387F602BA973E87832704D9BA97DB
:104D7000035784FE42074183BA86038707009307DF
:104D800004FFB6972388E7EA835784FEC207C183EE
:104D90008507C207C1832314F4FE835784FEC2072C
:104DA000C1833E87835744FEC207C187E345F7F6B8
:104DB00011A00100835784FEC207C183130704FFBB
:104DC000BA97238807EAB76700209387C7EF03A83D
:104DD000C700B76700209387C7EF83C77700139793
:104DE00007014183835724FE93960701C186939759
:104DF0000601C1838507C207C183C207C18723118A
:104E0000F4FE93970601C183B307F702C207C1837B
:104E1000130704EA3A86BE85014502988357A4FE2B
:104E2000C207C1838507C207C1832315F4FE8357D8
:104E3000A4FEC207C183BE84032504D9EFC09048F5
:104E40002A87835744FEC207C187B357F7028507F5
:104E5000E3E0F4ECBDA0930704DA130600108145EB
:104E60003E85EFB0EFB9B76700209387C7EF9C4747
:104E70000325C4D98297832704D999CF130504DA6F
:104E8000032704D9832644D9032684D9D56793857B
:104E900087D7EFC0D03E29A8130704DA832644D968
:104EA000032684D9D567938547D93A85EFC0303D2D
:104EB000B76700209387C7EF9847930704DA3E85CA
:104EC000029701008320C1260324812683244126E2
:104ED000130101278280411106C622C4000883C73E
:104EE000518A93F7F70F91CF9385418A0945EFD007
:104EF0004FF105469385418AB7670020138507EE79
:104F000055230100B240224441018280797106D6C6
:104F100022D40018232EA4FC232CB4FC232AC4FC86
:104F2000232604FEA9A00100D567938787199C4713
:104F3000930500043E85EF404025AA87F5D7D56745
:104F4000938787199C47BE86832784FD13871700A4
:104F5000232CE4FC83870700C207C183BE85368506
:104F6000EF40C01F8327C4FE85072326F4FE0327D6
:104F7000C4FE832744FDE348F7FA832744FD3E85BA
:104F8000B250225445618280011106CE22CC00101D
:104F9000AA872324B4FE2322C4FEA307F4FE83477A
:104FA000F4FEB1E383C7418293F7F70F8DCF83C738
:104FB000618A91C301A083C7618A850713F7F70F40
:104FC0002383E18AEF00F074EFF0DF978146032638
:104FD00044FE832584FED5671385C7DAEFF07F99F9
:104FE000EFF01F91E5B70100F24062440561828055
:104FF000011106CE22CC0010AA872324B4FE23225E
:10500000C4FE2320D4FEA307F4FE8347F4FE95E3F9
:1050100083C7518A93F7F70F91CF832684FE032627
:1050200004FE832544FED5671385C7DBEFF07F942C
:1050300011A001000100F24062440561828001116B
:1050400022CE00102326A4FE8327C4FE239007004F
:105050008327C4FE7D572391E7008327C4FE7D5735
:105060002392E7008327C4FE7D572383E70083272D
:10507000C4FE7D57A383E7008327C4FE23A4070053
:105080008327C4FE23A607008327C4FE23A80700A6
:105090000100724405618280011122CE0010232696
:1050A000A4FE8327C4FE03D70700B7670020239E12
:1050B000E7EE8327C4FE03D72700B7670020938756
:1050C000C7EF2391E7008327C4FE03D74700B767E4
:1050D00000209387C7EF2392E7008327C4FE03C70E
:1050E0006700B76700209387C7EF2383E700832714
:1050F000C4FE03C77700B76700209387C7EFA38379
:10510000E7008327C4FE9847B76700209387C7EF5F
:1051100098C78327C4FED847B76700209387C7EF97
:10512000D8C78327C4FE984BB76700209387C7EF83
:1051300098CB0547A382E18A010072440561828011
:10514000797106D622D400189307C4FD3E85EFF08E
:105150001FEFB7570000938727952322F4FE93078C
:10516000C4FD3E85EFF05FF389679386B7028967D8
:105170001386A702F167938507200945EFD04FCE2C
:1051800093060004B7670020138607EA8145B767D6
:105190000020138507EEEF00300F85450945EFD05D
:1051A0000FBE0100B250225445618280011122CE0F
:1051B00000102326A4FE2324B4FE8327C4FED84770
:1051C000832784FE3E978327C4FED8C719A8832768
:1051D000C4FED8478327C4FE9C4F1D8F8327C4FE7F
:1051E000D8C78327C4FE984F8327C4FEDC47E3F06B
:1051F000E7FE0100724405618280011122CE001099
:105200002326A4FE2324B4FE8327C4FE984B8327C1
:1052100084FE3E978327C4FE98CB19A88327C4FE3B
:10522000984B8327C4FE9C4F1D8F8327C4FE98CBC9
:105230008327C4FE984F8327C4FE9C4BE3F0E7FE10
:105240000100724405618280797106D622D400186B
:10525000232EA4FC8327C4FDB337F00093F7F70F88
:105260003E8713064005D567938587DC3A85EFF0C6
:10527000BFD1232604FE8327C4FD83C70700858B87
:1052800093F7F70F89C789472326F4FE7DA083276C
:10529000C4FD83C7070093E7170013F7F70F8327B1
:1052A000C4FD2380E7008327C4FD23A607008327CE
:1052B000C4FD23A807008327C4FD984F8327C4FD9E
:1052C000D8CB8327C4FDDC4305476383E70289C746
:1052D0000947638CE702B9A08327C4FD9847832759
:1052E000C4FD9C4F3E8681453A85EFA07FF11DA805
:1052F0008327C4FD98478327C4FD9C4F86073E86BD
:1053000081453A85EFA0DFEF31A88327C4FD984798
:105310008327C4FD9C4F8A073E8681453A85EFA0CE
:105320003FEE01008327C4FD83C70700F99B13F7F5
:10533000F70F8327C4FD2380E7008327C4FE3E8543
:10534000B250225445618280011106CE22CC001059
:105350002326A4FE8327C4FEB337F00093F7F70F8C
:105360003E871306C007D567938587DC3A85EFF043
:10537000BFC18327C4FE984F8327C4FEDC4BB3070D
:10538000F7403E85F240624405618280797106D61D
:1053900022D40018232EA4FC232CB4FC8327C4FDA4
:1053A000B337F00093F7F70F3E871306A008D567D1
:1053B000938587DC3A85EFF03FBD232604FE8327E3
:1053C000C4FD83C70700898B93F7F70F89C785470B
:1053D0002326F4FEC9A08327C4FD83C7070093E7F3
:1053E000270013F7F70F8327C4FD2380E7008327E7
:1053F000C4FDDC4BD9C38327C4FDDC43054763856B
:10540000E70289C709476380E70491A88327C4FDA1
:1054100098478327C4FDDC47BA97032784FD137799
:10542000F70F2380E70025A88327C4FD984783272B
:10543000C4FDDC478607BA97032784FD42074183F2
:105440002390E70029A88327C4FD98478327C4FD3C
:10545000DC478A07BA97032784FD98C30100854576
:105460000325C4FDEFF09FD48327C4FDDC4B1387D5
:10547000F7FF8327C4FDD8CB21A091472326F4FE54
:105480008327C4FD83C70700F59B13F7F70F832716
:10549000C4FD2380E7008327C4FE3E85B25022541A
:1054A00045618280797106D622D40018232EA4FC8F
:1054B000232CB4FC232AC4FC8327C4FDB337F0009B
:1054C00093F7F70F3E871306C00BD567938587DCEC
:1054D0003A85EFF07FAB232604FE232404FE8327C6
:1054E00084FD89E78D472326F4FE45AC8327C4FD60
:1054F00083C70700898B93F7F70F89C78547232652
:10550000F4FE61AC8327C4FD83C7070093E727003F
:1055100013F7F70F8327C4FD2380E7008327C4FD1B
:10552000DC4B032744FD63ECE7248327C4FD984F3D
:105530008327C4FDDC47B307F7402324F4FE032789
:1055400044FD832784FE63F2E7188327C4FDDC4310
:105550000547638FE70689C709476389E70E31A4CA
:105560008327C4FD98478327C4FDDC47BA970326E9
:1055700084FE832584FD3E85EFB09021832584FE43
:105580000325C4FDEFF09FC28327C4FD98478327FE
:10559000C4FDDC47B306F700032784FD832784FEA0
:1055A000B305F700032744FD832784FEB307F740C4
:1055B0003E863685EFB0D01D032744FD832784FE49
:1055C000B307F740BE850325C4FDEFF03FBE71AAC7
:1055D0008327C4FD98478327C4FDDC4786073E9791
:1055E000832784FE86073E86832584FD3A85EFB0B7
:1055F000301A832584FE0325C4FDEFF03FBB8327CB
:10560000C4FD98478327C4FDDC478607B306F7002F
:10561000832784FE8607032784FDB305F70003274D
:1056200044FD832784FEB307F74086073E86368510
:10563000EFB01016032744FD832784FEB307F7401D
:10564000BE850325C4FDEFF07FB605A28327C4FD08
:1056500098478327C4FDDC478A073E97832784FE4B
:105660008A073E86832584FD3A85EFB07012832534
:1056700084FE0325C4FDEFF07FB38327C4FD984764
:105680008327C4FDDC478A07B306F700832784FE1F
:105690008A07032784FDB305F700032744FD83270A
:1056A00084FEB307F7408A073E863685EFB0500E7A
:1056B000032744FD832784FEB307F740BE850325F7
:1056C000C4FDEFF0BFAE01004DA08327C4FDDC4355
:1056D0000547638CE70289C709476380E70671A025
:1056E0008327C4FD98478327C4FDDC47BA97032668
:1056F00044FD832584FD3E85EFB09009832544FD5C
:105700000325C4FDEFF09FAA8DA08327C4FD984711
:105710008327C4FDDC4786073E97832744FD860721
:105720003E86832584FD3A85EFB09006832544FDAF
:105730000325C4FDEFF09FA70DA88327C4FD98475C
:105740008327C4FDDC478A073E97832744FD8A07E9
:105750003E86832584FD3A85EFB09003832544FD82
:105760000325C4FDEFF09FA401008327C4FDD84B9F
:10577000832744FD1D8F8327C4FDD8CB21A09147EB
:105780002326F4FE8327C4FD83C70700F59B13F788
:10579000F70F8327C4FD2380E7008327C4FE3E85DF
:1057A000B250225445618280797106D622D4001805
:1057B000232EA4FC232CB4FC232AC4FC2328D4FCD1
:1057C0008327C4FDB337F00093F7F70F3E87130626
:1057D0007016D567938587DC3A85EFF0EFFA83275B
:1057E00044FDB337F00093F7F70F3E87130680169A
:1057F000D567938587DC3A85EFF00FF9232604FE01
:10580000832784FD89E78D472326F4FEA1AC8327F7
:10581000C4FD83C7070093E7470013F7F70F8327FB
:10582000C4FD2380E7000325C4FDEFF0FFB123246E
:10583000A4FE832744FD9C43032784FE637AF7007C
:10584000832744FD032784FE98C395472326F4FE4F
:105850008327C4FD984F8327C4FD9C4BB307F740B3
:105860002322F4FE832744FD9C43032744FE636503
:10587000F7088327C4FDDC4305476388E70289C72F
:1058800009476387E704BDA28327C4FD98478327A0
:10589000C4FD9C4B3E97832744FD9C433E86BA85BE
:1058A000032584FDEFB0C06EB1A28327C4FD9847E5
:1058B0008327C4FD9C4B86073E97832744FD9C436A
:1058C00086073E86BA85032584FDEFB0606C1DA275
:1058D0008327C4FD98478327C4FD9C4B8A073E97C6
:1058E000832744FD9C438A073E86BA85032584FDB1
:1058F000EFB0006A0100FDA88327C4FDDC43054723
:10590000638AE70489C70947638EE708E5A0832710
:10591000C4FD98478327C4FD9C4BBA97032644FED9
:10592000BE85032584FDEFB0A066032784FD832791
:1059300044FEB306F7008327C4FD8C47832744FD4C
:105940009843832744FEB307F7403E863685EFB081
:1059500020644DA08327C4FD98478327C4FD9C4B3A
:1059600086073E97832744FE86073E86BA85032531
:1059700084FDEFB0E061832744FE8607032784FDA2
:10598000B306F7008327C4FD8C47832744FD984363
:10599000832744FEB307F74086073E863685EFB07F
:1059A000205F89A88327C4FD98478327C4FD9C4BAB
:1059B0008A073E97832744FE8A073E86BA850325D9
:1059C00084FDEFB0E05C832744FE8A07032784FD53
:1059D000B306F7008327C4FD8C47832744FD984313
:1059E000832744FEB307F7408A073E863685EFB02B
:1059F000205A0100832704FDB5E78327C4FD83C730
:105A00000700858B93F7F70F89C789472326F4FE94
:105A100091A88327C4FD83C7070093E7170013F7F6
:105A2000F70F8327C4FD2380E700832744FD9C43B1
:105A3000BE850325C4FDEFF04FFC8327C4FDD84B82
:105A4000832744FD9C433E978327C4FDD8CB8327FF
:105A5000C4FD83C70700F99B13F7F70F8327C4FD25
:105A60002380E7008327C4FD83C70700918B13F7CA
:105A7000F70F8327C4FD2380E7008327C4FE3E85FC
:105A8000B250225445618280797106D622D4001822
:105A9000232EA4FC232CB4FC232AC4FC2328D4FCEE
:105AA0008327C4FDB337F00093F7F70F3E87130643
:105AB0008021D567938587DC3A85EFF0EFCC2326EC
:105AC00004FE832744FD89E78D472326F4FE89A041
:105AD0008327C4FD032744FD98C78327C4FD238083
