:100000006F603006130000001300000013000000B2
:100010001300000013000000130000001300000094
:100020001300000013000000130000001300000084
:08003000130000007300100032
:100038000000000000000000246700003467000092
:1000480000000000A8670000000000000000000099
:10005800AA670000AC670000000000000000000074
:10006800AE67000000000000B0670000000000005C
:10007800B2670000B4670000B6670000B867000008
:10008800BA670000BC670000EE590000A25A0000E1
:10009800565B00000A5C0000BE5C0000C8670000F8
:1000A800CA670000CC670000CE670000D067000078
:1000B800D2670000D4670000D6670000D867000048
:1000C800DA670000DC670000DE670000725D000090
:1000D800E2670000BC5F0000E6670000E867000018
:1000E8007C60000034610000F4610000F0670000EB
:1000F800F2670000F4670000F6670000F867000088
:10010800FA670000FA520000BE5300008254000053
:100118008A5E0000046800000668000008680000A5
:10012800EC6400000C6800000E6800001068000015
:100138001268000014680000B4620000186800002B
:100148004A5500000E560000746300002C6400003D
:100158002268000024680000266800002868000063
:100168002A6800002C6800002E6800003068000033
:100178003268000034680000366800007A7A0000AF
:100188003A6800003C6800001E590000D056000084
:10019800945700005E58000046680000AC650000F7
:1001A8004A6800004C6800004E6800006C66000059
:1001B8005268000054680000566800005868000043
:1001C8005A6800005C6800005E6800006068000013
:1001D8000000000000000000000000000000000017
:1001E8000000000000000000000000000000000007
:0801F8000000000000000000FF
:100200003D432A876373C3029377F700BDEFADE5E3
:10021000937606FF3D8ABA960CC34CC30CC74CC7F5
:100220004107E36BD7FE11E28280B306C3408A0622
:100230009702000096966780A6002307B700A306E2
:10024000B7002306B700A305B7002305B700A30432
:10025000B7002304B700A303B7002303B700A3022A
:10026000B7002302B700A301B7002301B700A30022
:10027000B7002300B700828093F5F50F93968500B1
:10028000D58D93960501D58D61B79396270097027A
:10029000000096968682E78086FA9680C1171D8FA9
:1002A0003E96E374C3F8A5B7011122CE00102326B1
:1002B000A4FE37F500E08328450037F500E093F809
:1002C000E8FF2322150183A801820965130505F4BF
:1002D00033D5A802AA8601470325C4FEAA87014890
:1002E00037F500E03303F702B308D8029A98338356
:1002F000F60233B6F6029A85B387C8003E860CC96B
:1003000050C9B7F700E09843B7F700E0136707015B
:1003100098C3B7F700E09843B7F700E013671702F8
:1003200098C30100B7F700E0DC4313F717008547D7
:10033000E31AF7FEB7F700E09843B7F700E0799BC0
:1003400098C30100724405618280011122CE001021
:100350002326A4FE37F500E08328450037F500E0AA
:1003600093F8E8FF2322150183A8018237157A004C
:100370001305052033D5A802AA8601470325C4FE2C
:10038000AA87014837F500E03303F702B308D80223
:100390009A983383F60233B6F6029A85B387C8007B
:1003A0003E860CC950C9B7F700E09843B7F700E0A4
:1003B0001367070198C3B7F700E09843B7F700E069
:1003C0001367170298C30100B7F700E0DC4313F787
:1003D00017008547E31AF7FEB7F700E09843B7F731
:1003E00000E0799B98C3010072440561828001118D
:1003F00006CE22CC0010AA8E2E8E32833685BA8588
:100400003E86C2864687F687A307F4FEF287230757
:10041000F4FE9A87A306F4FEAA872306F4FEAE87AD
:10042000A305F4FEB2872305F4FEB687A304F4FE09
:10043000BA872304F4FE8347F4FE93068004014642
:1004400081453E850D2C8347E4FE930680040146DA
:1004500081453E850D248347D4FE930680040146E2
:1004600081453E85092C8347C4FE930680040146DE
:1004700081453E8509248347B4FE930680040146E6
:1004800081453E85CD2A8347A4FE9306800401461C
:1004900081453E85CD22834794FE93068004014624
:1004A00081453E85C92A834784FE93068004014620
:1004B00081453E85C9228347440093068004014656
:1004C00081453E854D2A83470400930680040146FA
:1004D00081453E854D228347840093068004014672
:1004E00081453E85492A0100F240624405618280CF
:1004F000011106CE22CC00102326A4FE2324B4FE34
:10050000B28736872313F4FEBA872312F4FE85459B
:100510000965EF601034B707055083C7070013F76C
:10052000F70FB70705501377F7FC1377F70F238002
:10053000E700B707055083C7070013F7F70FB707A2
:100540000550136727041377F70F2380E700B707D9
:10055000055083C7170013F7F70FB7070550659BC2
:100560001377F70FA380E700B7070550035744FE42
:100570002392E700B7070550035764FE2393E70073
:10058000B70705500327C4FE98C7B70705500327D0
:1005900084FED8C7B707055083C7170013F7F70FB6
:1005A000B70705501377F7031377F70FA380E7001A
:1005B00037070550B7070550034717001377F70FA4
:1005C000A380E700B707055083C7270013F7F70F8D
:1005D000B7070550136747001377F70F2381E7002C
:1005E000B707055083C7170013F7F70FB707055074
:1005F000136717001377F70FA380E700B7070550BD
:1006000083C7070013F7F70FB707055013671700E5
:100610001377F70F2380E7008D4513056005EF4042
:10062000D04313056005EF40903F0100F240624463
:1006300005618280011122CE00102326A4FE8327AB
:10064000C4FE958313F77700B70700200A07938746
:100650000704BA979C439C470327C4FE7D8B8546BD
:100660003397E600F98FB337F00093F7F70F3E8525
:10067000724405618280797106D622D40018232E37
:10068000A4FC232CB4FCB2872328D4FCA30BF4FCD9
:10069000232004FE232204FE232404FE8327C4FD1A
:1006A000958393F7F70F9D8BA307F4FE8327C4FD73
:1006B00093F7F70FFD8B2307F4FE8347F4FE91E7D2
:1006C00085451145EF60501D91A80347F4FE85470D
:1006D0006317F70085452145EF60101C81A0034793
:1006E000F4FE89476317F70085454145EF60D01A4E
:1006F00035A00347F4FE8D476318F70085451305C1
:100700000002EF60701919A80347F4FE91476317C0
:10071000F700854513050004EF6010188347E4FED9
:100720000547B317F700C207C1832310F4FE032760
:1007300084FD85476317F702832704FDC207C18341
:10074000A183C207C18389E78D472322F4FE11A844
:10075000832704FDC207C183A183C207C18323226B
:10076000F4FE832704FDC207C18393F7F70F232408
:10077000F4FE0347F4FEB70700200A079387070437
:10078000BA979C43130704FEBA853E85EF60601D4F
:10079000032784FD85476319F7020347F4FEB70773
:1007A00000200A0793870704BA9794438347E4FE1F
:1007B0000547B317F700C207C183034774FD3A86A4
:1007C000BE853685EF60803C0100B2502254456101
:1007D0008280797106D622D40018232EA4FC8327A8
:1007E000C4FDB337F00093F7F70F3E8713061004EC
:1007F000C9679385C79D3A85EF3050338327C4FD81
:100800009C43BD8B0547B317F70093960701C18240
:100810008327C4FD9C4313D75700B70700200A075E
:1008200093870704BA979C43368798CB8327C4FDE8
:10083000DC43BD8B0547B317F70093960701C182D0
:100840008327C4FDDC4313D75700B70700200A07EE
:1008500093870704BA979C43368798CB8327C4FDB8
:10086000DC472326F4FE01008327C4FE1387F7FF2D
:100870002326E4FEF5FB8327C4FDDC43BD8B05473F
:10088000B317F70093960701C1828327C4FDDC43A9
:1008900013D75700B70700200A0793870704BA97B2
:1008A0009C433687D8CB8327C4FDDC472324F4FE42
:1008B0000100832784FE1387F7FF2324E4FEF5FB62
:1008C0008327C4FD9C43BD8B0547B317F700939660
:1008D0000701C1828327C4FD9C4313D75700B70784
:1008E00000200A0793870704BA979C433687D8CB22
:1008F0000100B250225445618280797106D622D41B
:100900000018232EA4FC8327C4FDB337F00093F70F
:10091000F70F3E8713064005C9679385C79D3A8543
:10092000EF30D0208327C4FDDC43BD8B0547B317D0
:10093000F70093960701C1828327C4FDDC4313D7D8
:100940005700B70700200A0793870704BA979C430C
:100950003687D8CB8327C4FD9C43BD8B0547B3178F
:10096000F70093960701C1828327C4FD9C4313D7E8
:100970005700B70700200A0793870704BA979C43DC
:100980003687D8CB8327C4FDDC472326F4FE01003D
:100990008327C4FE1387F7FF2326E4FEF5FB832796
:1009A000C4FD9C43BD8B0547B317F7009396070121
:1009B000C1828327C4FD9C4313D75700B70700208B
:1009C0000A0793870704BA979C43368798CB8327F7
:1009D000C4FDDC472324F4FE0100832784FE138733
:1009E000F7FF2324E4FEF5FB8327C4FDDC43BD8B26
:1009F0000547B317F70093960701C1828327C4FD0B
:100A0000DC4313D75700B70700200A079387070472
:100A1000BA979C43368798CB8327C4FDDC472322B3
:100A2000F4FE0100832744FE1387F7FF2322E4FE30
:100A3000F5FB0100B250225445618280797106D6DF
:100A400022D40018232EA4FCAE87A30DF4FC832728
:100A5000C4FDB337F00093F7F70F3E8713069006F7
:100A6000C9679385C79D3A85EF30500C8327C4FD35
:100A70009C43BD8B0547B317F70093960701C182CE
:100A80008327C4FD9C4313D75700B70700200A07EC
:100A900093870704BA979C433687D8CB8347B4FD26
:100AA00095CB8327C4FDDC43BD8B0547B317F70007
:100AB00093960701C1828327C4FDDC4313D75700F7
:100AC000B70700200A0793870704BA979C43368725
:100AD00098CB0DA88327C4FDDC43BD8B0547B31716
:100AE000F70093960701C1828327C4FDDC4313D727
:100AF0005700B70700200A0793870704BA979C435B
:100B00003687D8CB8327C4FDDC472326F4FE0100BB
:100B10008327C4FE1387F7FF2326E4FEF5FB832714
:100B2000C4FD9C43BD8B0547B317F700939607019F
:100B3000C1828327C4FD9C4313D75700B707002009
:100B40000A0793870704BA979C43368798CB832775
:100B5000C4FDDC472324F4FE0100832784FE1387B1
:100B6000F7FF2324E4FEF5FB8327C4FD9C43BD8BE4
:100B70000547B317F70093960701C1828327C4FD89
:100B80009C4313D75700B70700200A079387070431
:100B9000BA979C433687D8CB8327C4FDDC43BD8BF3
:100BA0000547B317F70093960701C1828327C4FD59
:100BB000DC4313D75700B70700200A0793870704C1
:100BC000BA979C43368798CB0100B25022544561B6
:100BD0008280797106D622D40018232EA4FC8327A4
:100BE000C4FDB337F00093F7F70F3E8713065008A4
:100BF000C9679385C79D3A85EF304073A30704FE0C
:100C00008327C4FD9C43BD8B0547B317F70093961C
:100C10000701C1828327C4FD9C4313D75700B70740
:100C200000200A0793870704BA979C433687D8CBDE
:100C30008327C4FDDC43BD8B0547B317F7009396AC
:100C40000701C1828327C4FDDC4313D75700B707D0
:100C500000200A0793870704BA979C43368798CBEE
:100C60008327C4FDDC472324F4FE0100832784FE90
:100C70001387F7FF2324E4FEF5FB8327C4FD9C4381
:100C8000BD8B0547B317F70093960701C1828327F1
:100C9000C4FD9C4313D75700B70700200A0793876A
:100CA0000704BA979C43368798CB8327C4FDDC475B
:100CB0002322F4FE0100832744FE1387F7FF23223B
:100CC000E4FEF5FB8327C4FDDC433E85A532AA87FD
:100CD00081C78547A307F4FE8327C4FD9C43BD8BD2
:100CE0000547B317F70093960701C1828327C4FD18
:100CF0009C4313D75700B70700200A0793870704C0
:100D0000BA979C433687D8CB8327C4FDDC47232082
:100D1000F4FE0100832704FE1387F7FF2320E4FE7F
:100D2000F5FB8347F4FE3E85B25022544561828034
:100D3000797106D622D40018232EA4FCAE87A30D09
:100D4000F4FC8327C4FDB337F00093F7F70F3E8719
:100D50001306700AC9679385C79D3A85EF30005D19
:100D6000930700F8A307F4FE09AA0347B4FD8347DD
:100D7000F4FEF98F93F7F70F95CB8327C4FDDC437F
:100D8000BD8B0547B317F70093960701C1828327F0
:100D9000C4FDDC4313D75700B70700200A07938729
:100DA0000704BA979C43368798CB0DA88327C4FDC8
:100DB000DC43BD8B0547B317F70093960701C1824B
:100DC0008327C4FDDC4313D75700B70700200A0769
:100DD00093870704BA979C433687D8CB8347F4FEA2
:100DE0008583A307F4FE8327C4FDDC472324F4FE98
:100DF0000100832784FE1387F7FF2324E4FEF5FB1D
:100E00008327C4FD9C43BD8B0547B317F70093961A
:100E10000701C1828327C4FD9C4313D75700B7073E
:100E200000200A0793870704BA979C43368798CB1C
:100E30008327C4FDDC472322F4FE0100832744FE00
:100E40001387F7FF2322E4FEF5FB8327C4FD9C43B1
:100E5000BD8B0547B317F70093960701C18283271F
:100E6000C4FD9C4313D75700B70700200A07938798
:100E70000704BA979C433687D8CB8347F4FEE396A2
:100E800007EE0325C4FDB133AA87FD17B337F00081
:100E900093F7F70F3E85B250225445618280397135
:100EA00006DE22DC26DA80002326A4FCAE87A3051A
:100EB000F4FC8327C4FCB337F00093F7F70F3E87A9
:100EC0001306000CC9679385C79D3A85EF3000462D
:100ED000A30704FEA1472307F4FE8327C4FC9C4319
:100EE000BD8B0547B317F70093960701C18283278F
:100EF000C4FC9C4313D75700B70700200A07938709
:100F00000704BA979C433687D8CB8327C4FCDC47B9
:100F10002324F4FE0100832784FE1387F7FF232494
:100F2000E4FEF5FB8327C4FCDC43BD8B0547B31708
:100F3000F70093960701C1828327C4FCDC4313D7D3
:100F40005700B70700200A0793870704BA979C4306
:100F5000368798CB7DA88327C4FC9C43BD8B05476F
:100F6000B317F70093960701C1828327C4FC9C4303
:100F700013D75700B70700200A0793870704BA97CB
:100F80009C433687D8CB8327C4FCDC472322F4FE5E
:100F90000100832744FE1387F7FF2322E4FEF5FBBD
:100FA0008327C4FC9C43BD8B0547B317F70093967A
:100FB0000701C1828327C4FC9C4313D75700B7079E
:100FC00000200A0793870704BA979C43368798CB7B
:100FD0008327C4FCDC472320F4FE0100832704FEA2
:100FE0001387F7FF2320E4FEF5FB8347F4FE860713
:100FF00093948701E1848327C4FCDC433E85EFF0B2
:101000006FE3AA87E207E187C58FE207E187A307BD
:10101000F4FE8347E4FE1387F7FF2307E4FE85FF12
:101020008327C4FC9C43BD8B0547B317F7009396F9
:101030000701C1828327C4FC9C4313D75700B7071D
:1010400000200A0793870704BA979C433687D8CBBA
:101050008327C4FCDC47232EF4FC01008327C4FD56
:101060001387F7FF232EE4FCF5FB8347B4FCBE8512
:101070000325C4FCE1328347F4FE3E85F2506254FE
:10108000D25421618280011106CE22CC0010232689
:10109000A4FEAE873287A305F4FEBA872305F4FECB
:1010A0008327C4FEB337F00093F7F70F3E8713068C
:1010B0002029C9679385C79D3A85EF3020270325EE
:1010C000C4FEEFF00FF18327C4FE83C787008607B5
:1010D00093F7F70FBE850325C4FE99398347B4FE05
:1010E000BE850325C4FEA9318347A4FEBE85032522
:1010F000C4FE3D390325C4FEEFF03F800100F240FD
:10110000624405618280797106D622D40018232EAC
:10111000A4FCAE87A30DF4FC8327C4FDB337F00015
:1011200093F7F70F3E871306402AC9679385C79D3B
:101130003A85EF30A01FA30704FE0325C4FDEFF09E
:101140004FE98327C4FD83C78700860793F7F70F0E
:10115000BE850325C4FDE93E8347B4FDBE85032556
:10116000C4FDF9360325C4FDEFF02FF90325C4FDB6
:10117000EFF02FE68327C4FD83C787008607E207C9
:10118000E18793E71700E207E18793F7F70FBE8542
:101190000325C4FD713E85450325C4FD0933AA8797
:1011A000A307F4FE0325C4FDEFF02FF58347F4FEFB
:1011B0003E85B250225445618280797106D622D490
:1011C00000182326A4FEAE872322C4FE2320D4FECB
:1011D000232EE4FCA305F4FE8327C4FEB337F000FE
:1011E00093F7F70F3E871306F02BC9679385C79DCA
:1011F0003A85EF30A013032704FE8327C4FDB3070D
:10120000F740B337F00093F7F70F3E871306002C33
:10121000C9679385C79D3A85EF3040118327C4FE87
:10122000032704FE98C38327C4FE0327C4FDD8C345
:101230008327C4FE0347B4FE2384E7008327C4FE4C
:10124000032744FED8C7C14605468545032504FE4D
:10125000EFF06FC2D146054685450325C4FDEFF08A
:101260008FC10100B250225445618280011122CE0B
:1012700000102326A4FEAE87A305F4FEC96703274A
:10128000C4FE0A079387C703BA979C433E878347E8
:10129000B4FEC207C1832316F7000100C967032704
:1012A000C4FE0A079387C703BA979C4383D7870076
:1012B000C207C18393F70708F5F3C9670327C4FE84
:1012C0000A079387C703BA979C4383D7C7000100D7
:1012D000724405618280011122CE00102326A4FEF3
:1012E000AE872315F4FE8357A4FEA183C207C183F2
:1012F00093F6F70FC9670327C4FE0A079387C7034E
:10130000BA979C433E8793970601C1832316F70043
:101310000100C9670327C4FE0A079387C703BA976A
:101320009C4383D78700C207C18393F70708F5F36F
:101330008357A4FE93F6F70FC9670327C4FE0A0775
:101340009387C703BA979C433E8793970601C1834F
:101350002316F7000100C9670327C4FE0A07938715
:10136000C703BA979C4383D78700C207C18393F70B
:101370000708F5F301007244056182805D7186C63D
:10138000A2C480082326A4FC2324B4FC2322C4FC8A
:101390002320D4FC232EE4FA232CF4FA232A04FB82
:1013A000C9670327C4FC0A079387C703BA979C43FE
:1013B0003E85EF50F05F85450545EF50F04D032722
:1013C00004FC93073012631DF7000327C4FB930747
:1013D00050126317F70085450545EF50A07E25A004
:1013E000032704FC89679387A714631EF70003276C
:1013F000C4FB89679387C7146317F70085453715C2
:101400002000EF50207C8327C4FC91E785450565CB
:10141000EF50904825A00327C4FC85476317F700C9
:1014200085451165EF50B04B11A80327C4FC8947CF
:101430006316F70085452165EF50704A832704FC49
:1014400093F7F70F93068031054685453E85EFF00B
:101450008FA28327C4FB93F7F70F930680310546CD
:1014600085453E85EFF02FA1032784FBC167F9175F
:10147000630DF700832784FB93F7F70F93068034FF
:10148000054681453E85EFF00F9F032744FB9307F8
:10149000F00F630DF700832744FB93F7F70F9306D4
:1014A0000031014685453E85EFF0EF9C232E04FC7C
:1014B000232004FE232204FE232404FE231604FE1C
:1014C000231E04FC93074010231FF4FC231004FE8A
:1014D000032784FC85476305F702832784FC81CFBB
:1014E000032784FC89476303F702032784FC8D47A5
:1014F0006304F7020DA8231104FE231204FE25A0A5
:10150000231104FE85472312F4FE31A889472311D5
:10151000F4FE231204FE01A889472311F4FE854737
:101520002312F4FE0100231704FE03A70182832780
:1015300044FCB357F7022317F4FE03A70182832765
:1015400044FCB377F70291E78357E4FEFD172317B6
:10155000F4FE0357E4FE9307F00763F7E7009307F1
:1015600080032317F4FE49A80357E4FE9307F00312
:1015700063F7E700930700032317F4FEB5A80357AA
:10158000E4FEFD4763F7E700930780022317F4FEAC
:10159000A5A00357E4FEBD4763F7E70093070002E9
:1015A0002317F4FE91A80357E4FE9D4763F6E70076
:1015B000E1472317F4FE89A00357E4FE8D4763F645
:1015C000E700C1472317F4FE05A80357E4FE85474B
:1015D00063F6E700A1472317F4FE39A88357E4FE1A
:1015E00081C7231704FE09A813067021C9679385D4
:1015F00087A60145EF2090538357E4FE2314F4FEA1
:10160000930700202313F4FE231504FE9D472316A1
:10161000F4FEC9670327C4FC0A079387C703BA9778
:101620009C433E879307C4FDBE853A85EF50B03F8B
:10163000C9670327C4FC0A079387C703BA979C436B
:1016400085453E85EF50B04D0100B64026446161AE
:101650008280797122D60018232EA4FCB73701406E
:10166000938707C02326F4FE231504FE0327C4FD39
:10167000A54763ECE7088327C4FD13972700C967D4
:1016800093878704BA979C438287B7370140938733
:1016900007C02326F4FE95A8B70700402326F4FED2
:1016A000ADA0B7070040938707402326F4FEB1A8FA
:1016B000B7170040938707802326F4FEB9A0B71719
:1016C0000040938707C02326F4FE81A0B71700408F
:1016D0002326F4FE1DA8B717004093870740232652
:1016E000F4FE25A0B7370140938707402326F4FE78
:1016F00029A8B7570140938707C02326F4FE31A0DD
:10170000B75701402326F4FE01000327C4FD0A0752
:1017100093878190BA9798438947631FF70083277F
:10172000C4FE83D747021397070141838D47B35700
:10173000F7022315F4FE39A08327C4FE83D747029E
:101740002315F4FE8357A4FE3E8532544561828002
:10175000797122D60018232EA4FCB7370140938755
:1017600007C02326F4FE0327C4FDA54763ECE70862
:101770008327C4FD13972700C96793870707BA9784
:101780009C438287B7370140938707C02326F4FE26
:1017900095A8B70700402326F4FEADA0B707004088
:1017A000938707402326F4FEB1A8B717004093871C
:1017B00007802326F4FEB9A0B7170040938707C01F
:1017C0002326F4FE81A0B71700402326F4FE1DA8AF
:1017D000B7170040938707402326F4FE25A0B737AC
:1017E0000140938707402326F4FE29A8B7570140FC
:1017F000938707C02326F4FE31A0B7570140232664
:10180000F4FE01008327C4FE239207020100325434
:1018100045618280011122CE00102326A4FEAE87EE
:10182000A305F4FE0100C9670327C4FE0A079387D6
:101830008709BA979C4383D70700C207C18393F7F0
:101840000708F5D3C9670327C4FE0A0793878709EA
:10185000BA979C433E878347B4FEC207C1832312D5
:10186000F7000100724405618280011106CE22CC8E
:1018700000102326A4FE2324B4FE2322C4FE8327C3
:1018800084FEB337F00093F7F70F3E87130610047A
:10189000C967938507AF3A85EF20502929A8832788
:1018A00084FE138717002324E4FE83C70700BE8548
:1018B0000325C4FE8537832744FE1387F7FF2322C1
:1018C000E4FEF1FF0100F2406244056182800111F3
:1018D00006CE22CC00102326A4FE2324B4FE8327A8
:1018E00084FEB337F00093F7F70F3E871306000529
:1018F000C967938507AF3A85EF20502339A883271E
:1019000084FE138717002324E4FE8387070093F7E0
:10191000F70FBE850325C4FEF53D832784FE83872C
:101920000700F1FF0100F24062440561828001116D
:1019300006CE22CC00102326A4FEAE87A305F4FE1B
:10194000C9670327C4FE0A0793878709BA979C4390
:101950003E878347B4FE3E86930550523A85EF504A
:10196000D0541387C1848327C4FEBA9783C7070066
:1019700081453E85EF30700E8347B4FE81CF1387DB
:10198000C1848327C4FEBA9783C707003E85EF3022
:10199000100919A81387C1848327C4FEBA9783C787
:1019A00007003E85EF3090090100F2406244056176
:1019B0008280011122CE00102326A4FE2324B4FE2F
:1019C000C9670327C4FE0A0793878709BA979C4310
:1019D00083D70700C207C18393F707028DC7C96782
:1019E0000327C4FE0A0793878709BA979C4383D7C6
:1019F0004700C207C18313F7F70F832784FE2380B4
:101A0000E700854711A081473E85724405618280C9
:101A1000797106D622D40018232EA4FC232CB4FC02
:101A2000232AC4FC2328D4FC032744FD832704FD78
:101A30003D8F8327C4FDB207F98F93B7170093F743
:101A4000F70F3E871306A00AC967938507AF3A854B
:101A5000EF20D00D832744FD13D78700832704FD93
:101A6000A183B307F74093B7170093F7F70F3E87AB
:101A70001306B00AC967938507AF3A85EF20100BAC
:101A8000832744FD93F7F70FE146014685453E85E0
:101A9000EFE07FBE832704FD93F7F70F93068004E2
:101AA000014681453E85EFE01FBD85450545EF5068
:101AB000A05E032744FDC167FD17F98F0D6713076B
:101AC00007386387E7200D67130707386369F70452
:101AD0000567130757166381E7160567130757163F
:101AE000636FF7001307F022638AE70C1307603077
:101AF0006381E710130760126388E70865A609672A
:101B000013078736638BE7160D6713070712638782
:101B1000E71809671307A7146380E71461A6156720
:101B20001307A738638EE72615671307A738636284
:101B3000F7021167130787386380E72015671307DB
:101B400087126385E722116713074712638CE71A30
:101B500091AE19671307C7386388E72A1967130717
:101B6000C7386368F7001967130767106384E726AF
:101B700015AE1D671307E7106382E72C1D67130777
:101B8000E7386387E72E39AEB7070140D44FB70770
:101B90000140370700FC7D17758FD8CFB70701408C
:101BA000D843B70701406D9BD8C3B7070140D8435E
:101BB000B707014013674700D8C3EDA4B70701403A
:101BC000D44FB7070140370700FC7D17758FD8CF7A
:101BD000B7070140D44FB707014037070004558FBE
:101BE000D8CFB7070140D843B70701406D9BD8C392
:101BF00055ACB7070140D44FB7070140370700FC89
:101C00007D17758FD8CFB7070140D44FB707014074
:101C100037070004558FD8CFB7070140D843B7071F
:101C200001406D9BD8C3B7070140D843B7070140B7
:101C300013674700D8C3BDA4B7070140D843B7070F
:101C400001405D9BD8C3B7070140D843B7070140A7
:101C500013678700D8C3B9A4B7070140D843B707B3
:101C600001401377F7FCD8C3B7070140D843B70743
:101C7000014013670701D8C335A4B7070140D84313
:101C8000B70701401377F7FCD8C3B7070140D84323
:101C9000B707014013670703D8C329A4B70701405A
:101CA000D44FB70701403707FDFF7D17758FD8CF99
:101CB000B7070140D44F832744FDA1831397070141
:101CC000B70703007D8FB7070140558FD8CFD9AA3A
:101CD000B7070140D44FB70701403707FDFF7D1715
:101CE000758FD8CFB7070140D44F832744FDA18318
:101CF00013970701B70703007D8FB7070140558F82
:101D0000D8CF4DA2B7070140D44FB70701403707DE
:101D1000F4FF7D17758FD8CFB7070140D44F8327C5
:101D200044FDA18313972701B7070C007D8FB707E8
:101D30000140558FD8CFBDA2B7070140D44FB70798
:101D400001403707F4FF7D17758FD8CFB7070140E3
:101D5000D44F832744FDA18313972701B7070C00B5
:101D60007D8FB7070140558FD8CF2DAAB707014007
:101D7000D44FB70701403707D0FF7D17758FD8CFF5
:101D8000B7070140D44F832744FDA1831397470130
:101D9000B70730007D8FB7070140558FD8CF19A204
:101DA000B7070140D44FB70701403707D0FF7D1771
:101DB000758FD8CFB7070140D44F832744FDA18347
:101DC00013974701B70730007D8FB7070140558F44
:101DD000D8CFC9A8B7070140D44FB707014037078C
:101DE00040FF7D17758FD8CFB7070140D44F8327A9
:101DF00044FDA18313976701B707C0007D8FB70724
:101E00000140558FD8CF79A8B7070140D44FB70705
:101E10000140370740FF7D17758FD8CFB7070140C6
:101E2000D44F832744FDA18313976701B707C000F0
:101E30007D8FB7070140558FD8CFADA0B7070140C0
:101E4000D44FB7070140370700FD7D17758FD8CFF6
:101E5000B7070140D44F832744FDA183139787011F
:101E6000B70700037D8FB7070140558FD8CF1DA856
:101E7000B7070140D44FB7070140370700FD7D1772
:101E8000758FD8CFB7070140D44F832744FDA18376
:101E900013978701B70700037D8FB7070140558F60
:101EA000D8CF01008327C4FD91E785451165EF5028
:101EB000A01E69A80327C4FD85476318F700854560
:101EC00037050200EF50A02151A00327C4FD894728
:101ED0006318F700854537050400EF504020BDA08A
:101EE0000327C4FD8D476318F700854537050800B3
:101EF000EF50E01EA1A80327C4FD91476318F70027
:101F0000854537051000EF50801D89A00327C4FDCB
:101F100095476318F700854513050004EF50201C12
:101F200035A00327C4FD99476318F70085451305BD
:101F30000008EF50C01A19A80327C4FD9D47631776
:101F4000F700854513050010EF506019232004FEAB
:101F5000232204FE232404FE232604FE832784FD7B
:101F60002320F4FE231204FE231304FE231404FE94
:101F7000231604FEB1472315F4FEC9670327C4FDE9
:101F80000A0793878709BA979C433E87930704FE05
:101F9000BE853A85EF502048C9670327C4FD0A076C
:101FA00093878709BA979C4385453E85EF50E06942
:101FB0000100B250225445618280411106C622C4FC
:101FC0000008A14613860186814513850193EF2001
:101FD000F0650100B240224441018280411106C6F1
:101FE00022C4000883A7C1860547638BE700638886
:101FF000070C0947638DE7000D47638FE702E9A0EF
:1020000083A781861387170023A4E18675A883A779
:1020100081861387170023A4E18603A78186A5473D
:1020200063F1E70AB7070020938707049C4B116709
:10203000D8CB23A4018671A003A701878547631429
:10204000F7081305F008EFE0EFDEAA87ADC31945E6
:10205000EFF02FE0AA873E8783A781861D8F930725
:10206000600963F2E7061945EFF08FEE83A78186DA
:10207000D3F717D05385F720EFC06020C96703A6B8
:1020800087B783A6C7B7EFA0F064AA872E883E85DE
:10209000C285EFC08007AA87139707014183B7075E
:1020A00000202398E736094723A8E18629A8194587
:1020B000EFF02FDAAA873E8723A4E18629A001004A
:1020C00021A0010011A001000100B2402244410101
:1020D0008280411106C622C4000883A7C186094731
:1020E000637CF7000D47639AE7001945EFF04FE670
:1020F000054723A8E18611A001000100B240224457
:1021000041018280011106CE22CC0010232204FE60
:1021100083C75187638A070E09A8930734FE0546D3
:10212000BE851385C194EF202072930734FEBE85CF
:102130001D45EFF01F88AA87EDF3034734FEA9473A
:102140006314F70C99472322F4FE130744FE930708
:1021500084FE85463A86BE851385C194EF20101F04
:10216000930784FE138737000D46C967938507B828
:102170003A85EFC0105BAA879DEB03A7C18789470B
:10218000630DF706054723AEE1861385C194EF2062
:10219000E055AA872322F4FE930744FE81463E863B
:1021A0009385819E1385C194EF20501AB9A093079F
:1021B00084FE138737000D46C967938547B83A8573
:1021C000EFC03056AA8795EB03A78187894763063E
:1021D000F702054723ACE1861385C194EF20005137
:1021E000AA872322F4FE930744FE81463E86938508
:1021F00081961385C194EF2070151385C194EF204B
:10220000E03E0547238AE1860100F2406244056111
:102210008280397106DE22DC80002326A4FC8547FB
:10222000A307F4FE231604FE232404FE232E04FC3D
:1022300083D781883E87930700236316F700A5475D
:102240002324F4FE29A0A1472324F4FE01008DA835
:10225000930750FA2300F4FE832784FE8A0703279E
:10226000C4FCBA978397070093F7F70FA300F4FE17
:10227000832784FE8A070327C4FCBA978397270025
:102280002313F4FE835764FEA183C207C18393F72F
:10229000F70F2301F4FE835764FE93F7F70FA301B2
:1022A000F4FE930704FE1146BE851145EFF0EFDB07
:1022B0000945EFD07FFF832784FEFD172324F4FE1A
:1022C000032784FE9307E00FE3F4E7F813850193F7
:1022D000EF20C0412A87894763FFE7028D47232EFD
:1022E000F4FC1307C4FD930704FE81463A86BE85BD
:1022F00013850193EF209005034714FE9307F00F19
:102300006308F700034724FE9307F00F6315F700F7
:10231000A30704FE31A80545EFD01FF98357C4FE7B
:10232000138717002316E4FE1307F007E370F7FA8C
:102330008347F4FE3E85F2506254216182803971F8
:1023400006DE22DC80002326A4FCA30704FE23165D
:1023500004FE232404FE232E04FC83D781883E87B9
:10236000930700236316F700A5472324F4FE29A052
:10237000A1472324F4FE0100832784FEFD172324B4
:10238000F4FE29A203D781889307F02263EDE700CA
:10239000832784FE8A070327C4FCBA9703970700A4
:1023A000A547630FF70C930750FA2300F4FEC557B7
:1023B000A300F4FE832784FE8A070327C4FCBA9790
:1023C000839707002313F4FE835764FEA183C2079B
:1023D000C18393F7F70F2301F4FE835764FE93F74D
:1023E000F70FA301F4FE930704FE1146BE851145C5
:1023F000EFF0AFC7231604FE13850193EF20002FE3
:102400002A87894763F7E7048D47232EF4FC1307D7
:10241000C4FD930704FE81463A86BE851385019369
:10242000EF20C072834714FEA20793960701C1866E
:10243000834724FE139707014187832784FE8A0779
:102440000326C4FCB297558F420741872391E700CA
:1024500031A80545EFD05FE58357C4FE1387170009
:102460002316E4FE1307F007E378F7F80357C4FEDA
:102470009307000863F7E7008547A307F4FE19A850
:102480000100832784FEFD172324F4FE832784FEA6
:10249000E39A07EE8347F4FE3E85F25062542161D1
:1024A0008280011106CE22CC0010A30704FE930700
:1024B000F4FEBE851145EFF0CFCF0347F4FE93073E
:1024C000500A6316F70013850193EF20201283470B
:1024D000F4FEBE8513850193EF2080250100F240B4
:1024E000624405618280411122C6000805472380AD
:1024F000E1880100324441018280011106CE22CCE4
:102500000010231704FE231604FE232004FE930765
:1025100050FA2302F4FEC557A302F4FE9307200FDE
:102520002315F4FE8357A4FEA183C207C18393F74A
:10253000F70F2303F4FE8357A4FE93F7F70FA303CB
:10254000F4FE930744FE1146BE851145EFF0EFB14E
:1025500013850193EF2080192A87894763F0E704E8
:102560008D472320F4FE130704FE930744FE8146A3
:102570003A86BE8513850193EF20405D834754FE64
:10258000A207139707014187834764FEC207C187EB
:10259000D98FC207C1872316F4FE31A80545EFD0B5
:1025A000BFD08357E4FE138717002317E4FE1307F9
:1025B000F007E37FF7F88357C4FE3E85F24062449C
:1025C00005618280397106DE22DC8000A30704FEEB
:1025D000054723A2E1889307C4FD1307C0049306AF
:1025E00020061306401F81453E85EFE01FBD130501
:1025F000800CEFD07FCB1307C4FDB7070020938575
:1026000047053A85EF80306DAA876388070C23A2BF
:10261000018891679386270691671386C7048967A7
:10262000938507581145EFF0AFBE85451145EFF092
:102630000FB01305800CEFD03FC7B72700001386FB
:10264000674EB72700009385274A0D45EF10603687
:10265000EFF0BF965D35AA873E872394E188B707E0
:102660000020138547057536AA878DCB9306701B0E
:10267000C967138607C7C967938507D00145EF105F
:102680007051014681450145EF10A0328145114549
:10269000EFF0EFA98547A307F4FE81A0B70700205C
:1026A0001385C7076939AA878DCB9306401CC96774
:1026B000138607C7C9679385C7D10145EF10904DB1
:1026C000014681450145EF10C02E81451145EFF0CF
:1026D0000FA68547A307F4FE0100B7270000138665
:1026E000674EB72700009385274A0D45EF10602CF1
:1026F00091473EC495473EC299473EC09308900219
:1027000013088002930760021307B0049306900435
:1027100013068004A9452545EFD07FCD85469967EE
:10272000138607828145B70700201385875DEFD0A8
:102730003FDC8347F4FE3E85F25062542161828083
:10274000011106CE22CC0010AA87A307F4FEB7071A
:10275000002093870704DC4713070008D8CB834782
:10276000F4FEBE850545EFE07FB0B70700209387F4
:102770000704DC471307000898CB0100F2406244CD
:1027800005618280011106CE22CC0010AA8736870F
:102790002317F4FEAE872316F4FEB2872315F4FE4A
:1027A000BA872314F4FE83C7C180C207C1830357CD
:1027B000E4FEB337F70093F7F70F3E871306A00840
:1027C000C967938587D33A85EF10503683C7D18088
:1027D000C207C1830357C4FEB337F70093F7F70F5F
:1027E0003E871306B008C967938587D33A85EF10F3
:1027F000F03383C7C180C207C1830357A4FEB33738
:10280000F70093F7F70F3E871306C008C967938553
:1028100087D33A85EF10903183C7D180C207C18337
:10282000035784FEB337F70093F7F70F3E8713067D
:10283000D008C967938587D33A85EF10302F83A7D7
:10284000C18805476376F7000D476369F71061A0FB
:102850001305A002F53581450545EFE03FA18357FB
:10286000E4FE93F7F70F890793F7F70FBE85054549
:10287000EFE0DF9F81450545EFE05F9F8357A4FEB2
:1028800093F7F70F890793F7F70FBE850545EFE03C
:10289000FF9D1305B0026D3581450545EFE01F9D95
:1028A0008357C4FE93F7F70F850793F7F70FBE859D
:1028B0000545EFE0BF9B81450545EFE03F9B835712
:1028C00084FE93F7F70F850793F7F70FBE8505454D
:1028D000EFE0DF9961A01305A0029D358145054514
:1028E000EFE0DF988357E4FE93F7F70F850793F740
:1028F000F70FBE850545EFE07F9781450545EFE081
:10290000FF968357A4FE93F7F70F850793F7F70F0A
:10291000BE850545EFE09F951305B002153581454D
:102920000545EFE0BF948357C4FE93F7F70F89077F
:1029300093F7F70FBE850545EFE05F9381450545A9
:10294000EFE0DF92835784FE93F7F70F890793F741
:10295000F70FBE850545EFE07F9101001305C0022A
:10296000C5330100F240624405618280797106D668
:1029700022D400189307C4FD3E85EF1090268547AA
:10298000231EF4FC83C7C180C207C183231FF4FC4C
:1029900083C7D180C207C1832310F4FE83A781803F
:1029A0000547638AE70099EF99472301F4FEA147A1
:1029B000A301F4FE09A8A1472301F4FEC147A30126
:1029C000F4FE11A00100B7370000938767E42324C9
:1029D000F4FEB73700009387279F2326F4FE930762
:1029E000C4FD3E85EF1090250100B2502254456190
:1029F0008280011106CE22CC001083C7C1803E87A1
:102A000083C7D180B307F7022326F4FEB70700205F
:102A100093870704DC474147D8CB83C7C180C207EF
:102A2000C183FD1713970701418383C7D180C20774
:102A3000C183FD17C207C183BE863A868145014521
:102A4000913331A8B707002083D74737BE850545A6
:102A5000EFE07F888327C4FEFD172326F4FE83273B
:102A6000C4FEEDF3B707002093870704DC47414716
:102A700098CB0100F240624405618280797106D6EC
:102A800022D40018AA87231FF4FC83C7C1803E8785
:102A900083C7D180B307F7022326F4FEB7070020CF
:102AA00093870704DC474147D8CB83C7C180C2075F
:102AB000C183FD1713970701418383C7D180C207E4
:102AC000C183FD17C207C183BE863A868145014591
:102AD000553921A88357E4FDBE850545EFE0AFFFDA
:102AE0008327C4FEFD172326F4FE8327C4FEFDF3CF
:102AF000B707002093870704DC47414798CB0100C4
:102B0000B250225445618280011122CE001023264A
:102B1000A4FE0327C4FE23A6E18883A7C188054736
:102B20006376F7000D476365F70211A8130700F8F5
:102B30002386E180130700FAA386E18011A813071A
:102B400000FA2386E180130700F8A386E1800100E4
:102B50000100724405618280011122CE0010AA8713
:102B60002E872317F4FEBA872316F4FEB70700203A
:102B70000357E4FE2399E736B70700200357C4FE46
:102B8000239AE7360100724405618280797106D686
:102B900022D40018AA87AE863287231FF4FCB6879A
:102BA000231EF4FCBA87A30DF4FC83C7C180C207BF
:102BB000C1830357E4FDB337F70093F7F70F3E8760
:102BC00013069019C967938587D33A85EF1000766D
:102BD00083C7D180C207C1830357C4FDB337F70051
:102BE00093F7F70F3E871306A019C967938587D31C
:102BF0003A85EF10A073A30704FE230704FEB7076E
:102C0000002093870704DC474147D8CB83A7818006
:102C10000547638EE70C639B0720A30704FED1A042
:102C20008347F4FE1397070141838357E4FDBA9766
:102C30001395070141818347F4FE139707014183F0
:102C40008357E4FDBA971397070141838357C4FD67
:102C5000A10793960701C1828357C4FD3A86BE85BA
:102C6000EFF05FB28307B4FD138707FE8346F4FEDF
:102C70004966BA878607BA9786071307866ABA979E
:102C8000B69783C70700A306F4FE230704FE81A0BE
:102C90008347D4FE858B91CBB707002083D7273796
:102CA000BE850545EFE02FE309A8B707002083D7CD
:102CB0004737BE850545EFE00FE28347D4FE8583A5
:102CC000A306F4FE8347E4FE85072307F4FE0347CB
:102CD000E4FE9D47E3FEE7FA8347F4FE8507A3077A
:102CE000F4FE0347F4FE9547E3FCE7F289A2A3074D
:102CF00004FE3DA28347F4FE1397070141838357E7
:102D0000E4FDBA971395070141818347F4FE1397B9
:102D1000070141838357E4FDBA9713970701418365
:102D20008357C4FDBD0793960701C1828357C4FD35
:102D30003A86BE85EFF01FA58307B4FD938607FE94
:102D40008347F4FE496792061307870B3697BA97B5
:102D500083C707002306F4FE8307B4FD938607FEAE
:102D60008347F4FEA107496792061307870B36973E
:102D7000BA9783C70700A305F4FE230704FE81A0CA
:102D80008347C4FE858B91CBB707002083D72737B5
:102D9000BE850545EFE02FD409A8B707002083D7EB
:102DA0004737BE850545EFE00FD38347C4FE8583D3
:102DB0002306F4FE8347E4FE85072307F4FE03475A
:102DC000E4FE9D47E3FEE7FA230704FE81A0834764
:102DD000B4FE858B91CBB707002083D72737BE85FC
:102DE0000545EFE04FCF09A8B707002083D7473745
:102DF000BE850545EFE02FCE8347B4FE8583A3054E
:102E0000F4FE8347E4FE85072307F4FE0347E4FE50
:102E10009D47E3FEE7FA8347F4FE8507A307F4FE28
:102E20000347F4FE9D47E3F7E7EC11A00100B70765
:102E3000002093870704DC47414798CB0100B2503C
:102E4000225445618280797106D622D40018AA875F
:102E50002E87232CC4FC231FF4FCBA87231EF4FC0A
:102E600083C7C180C207C1830357E4FDB337F700AE
:102E700093F7F70F3E871306D01EC967938587D354
:102E80003A85EF10A04A83C7D180C207C183035798
:102E9000C4FDB337F70093F7F70F3E871306E01E24
:102EA000C967938587D33A85EF104048231704FEFE
:102EB00071A083A7818005476381E704B5EB0357C1
:102EC000E4FEBA878607BA978607139707014183FE
:102ED0008357E4FDBA9793960701C1828357E4FEB6
:102EE000032784FDBA97038707008357C4FD3A86FA
:102EF000BE853685EFF09FC92DA88357E4FE8E0767
:102F00001397070141838357E4FDBA97939607010E
:102F1000C1828357E4FE032784FDBA970387070025
:102F20008357C4FD3A86BE853685EFF03FC611A0B3
:102F300001008357E4FE85072317F4FE8357E4FE60
:102F4000032784FDBA9783870700A5F70100B250D5
:102F50002254456182805D7186C6A2C4A6C28008E3
:102F60002328C4FA232AD4FABA863E87AA87231FC5
:102F7000F4FAAE87231EF4FAB687A30DF4FABA87E3
:102F8000230DF4FA83C7C180C207C1830357E4FB52
:102F9000B337F70093F7F70F3E871306C025C967CD
:102FA000938587D33A85EF10603883C7D180C207F5
:102FB000C1830357C4FBB337F70093F7F70F3E877E
:102FC0001306D025C967938587D33A85EF1000365D
:102FD0008347B4FBB337F00093F7F70F3E87130630
:102FE000E025C967938587D33A85EF10203483475E
:102FF000B4FB93B7970093F7F70F3E871306F025BE
:10300000C967938587D33A85EF1040328347A4FB85
:10301000B337F00093F7F70F3E8713060026C96712
:10302000938587D33A85EF1060308347A4FB93B72D
:10303000770093F7F70F3E8713061026C96793852D
:1030400087D33A85EF10802E832704FB032844FBA7
:103050002320F4FE232204FFC96703A847DC83A7CB
:1030600007DC2324F4FE232604FF9307C4FC454613
:1030700081453E85EFD0CF980347B4FB8347A4FB3F
:10308000BA9789073E879307C4FC3A8693050002E6
:103090003E85EFD0EF963DA0C96703A687DC83A6E7
:1030A000C7DC032584FE8325C4FEEF90B062AA87A7
:1030B0002E882324F4FE232604FF8347B4FBFD1748
:1030C000A30DF4FA8347B4FBE1FB032504FE83253B
:1030D00044FEEFA01076AA84032584FE8325C4FE57
:1030E000EFA03075AA87B3C7F4023E85EFB0C00BDE
:1030F000AA872E88032684FE8326C4FE3E85C285C9
:10310000EF90505DAA872E883E86C286032504FE76
:10311000832544FEEFA06041AA872E882320F4FE79
:10312000232204FF0347A4FB9307C4FCBA8683252C
:1031300004FE032644FE3E85EF10B0589306C4FCFF
:103140000357C4FB8357E4FB3686BA853E85E539D1
:103150000100B64026449644616182805D7186C656
:10316000A2C480082A8E2E832324C4FC3685BA8507
:103170003E86C2864687F2872317F4FC9A87231679
:10318000F4FCAA872313F4FCAE872312F4FCB28765
:103190002311F4FCB6872310F4FCBA87A30FF4FACA
:1031A00083C7C180C207C1830357E4FCB337F7006C
:1031B00093F7F70F3E871306B02BC967938587D324
:1031C0003A85EF10A01683C7D180C207C183035789
:1031D000C4FCB337F70093F7F70F3E871306C02BF5
:1031E000C967938587D33A85EF104014832784FC01
:1031F000B337F00093F7F70F3E871306D02BC9675C
:10320000938587D33A85EF106012232604FE23248A
:1032100004FE231304FE231204FE232004FE232EA7
:1032200004FCB707002093870704DC474147D8CB4D
:103230000357E4FC835724FCBA97C207C183FD17E8
:103240001396070141820357C4FC835704FCBA97C5
:10325000C207C183FD1793960701C1820357C4FCBF
:103260008357E4FCBA853E85EFF0CFD1232404FEDA
:1032700019A2035744FC832784FE3307F7028357C0
:1032800004FCB357F702232EF4FC232604FEC9A83E
:10329000035764FC8327C4FE3307F702835724FCDB
:1032A000B357F7022320F4FE035764FC8327C4FDC1
:1032B0003307F702832704FEBA97032784FCBA97E3
:1032C00083C707002312F4FE8347F4FBB5E383575B
:1032D00044FE8D83C207C183AE072313F4FE8357D8
:1032E00044FE8983C207C1839607C207C18793F74B
:1032F000077E139707014187831764FED98FC207A2
:10330000C1872313F4FE835744FE8D83C207C18314
:10331000FD8B139707014183835764FED98F2313D5
:10332000F4FE835764FEBE850545EFD0DFFA25A085
:103330008347F4FBC207C183035744FE6377F7005A
:1033400081450545EFD03FF939A0C1679385F7FF67
:103350000545EFD05FF88327C4FE85072326F4FEDA
:10336000835724FC0327C4FEE364F7F2832784FE1B
:1033700085072324F4FE835704FC032784FEE36AB5
:10338000F7EEB707002093870704DC47414798CB47
:103390000100B6402644616182805D7186C6A2C488
:1033A00080082A8E2E832324C4FC3685BA853E8667
:1033B000C2864687F2872317F4FC9A872316F4FC0B
:1033C000AA872313F4FCAE872312F4FCB2872311DF
:1033D000F4FCB6872310F4FCBA87A30FF4FA83C772
:1033E000C180C207C1830357E4FCB337F70093F7EA
:1033F000F70F3E871306602FC967938587D33A85F9
:10340000EF00D07283C7D180C207C1830357C4FCC9
:10341000B337F70093F7F70F3E871306702FC9678E
:10342000938587D33A85EF007070832784FCB33788
:10343000F00093F7F70F3E871306802FC967938537
:1034400087D33A85EF00906E232604FE232404FEE2
:10345000231304FE232004FE232E04FCB7070020C0
:1034600093870704DC474147D8CB0357E4FC8357D5
:1034700024FCBA97C207C183FD1713960701418246
:103480000357C4FC835704FCBA97C207C183FD17D6
:1034900093960701C1820357C4FC8357E4FCBA85A5
:1034A0003E85EFF02FAE232404FE45A8035744FCCD
:1034B000832784FE3307F702835704FCB357F702D0
:1034C000232EF4FC232604FEB5A8035764FC8327AF
:1034D000C4FE3307F702835724FCB357F7022320B7
:1034E000F4FE035764FC8327C4FD3307F7028327E8
:1034F00004FEBA978607032784FCBA9783D7070090
:103500002313F4FE8347F4FB9DC3835764FEA20795
:10351000139707014187835764FEA183C207C183C4
:10352000C207C187D98FC207C1872313F4FE83570F
:1035300064FEBE850545EFD01FDA8327C4FE8507EC
:103540002326F4FE835724FC0327C4FEE36FF7F61B
:10355000832784FE85072324F4FE835704FC032776
:1035600084FEE365F7F4B707002093870704DC4780
:10357000414798CB0100B6402644616182804111E9
:1035800006C622C400081308F00FC167F9170567C3
:103590001307F70285669386D60237A64A041306F8
:1035A000062081450545EFD07FDDC14601468545B2
:1035B00013057006EFD02F8CC146014685451305D3
:1035C0007002EFD04F8BC146054685451305400676
:1035D000EFD06F8AC1460546854513050006EFD03A
:1035E0008F8983A7C1883E85EFF00FD2B7070020EF
:1035F00003D72737B707002083D74737BE853A85DB
:10360000EFF08FD5B707002093870704DC4313073B
:103610000008D8CB2945EFC03FC9B70700209387E2
:103620000704DC431307000898CB13058007EFC09D
:10363000BFC7B707002093870704DC474147D8CBB3
:103640004545EFF0EF8F13058007EFC0FFC5130569
:10365000100BEFF0EF8E85450545EFD03FC1930588
:10366000C0020545EFD09FC09305D0020545EFD0BD
:10367000FFBF1305200BEFF0AF8C85450545EFD05C
:10368000FFBE9305C0020545EFD05FBE9305D00293
:103690000545EFD0BFBD1305300BEFF06F8A8545B0
:1036A0000545EFD0BFBC9305C0020545EFD01FBC58
:1036B0009305D0020545EFD07FBB85450545EFD08A
:1036C000FFBA9305C0020545EFD05FBA9305D0025B
:1036D0000545EFD0BFB91305400BEFF06F869D4550
:1036E0000545EFD0BFB81305000CEFF06F859305CB
:1036F000200A0545EFD09FB789450545EFD01FB794
:10370000930540080545EFD07FB61305100CEFF088
:103710002F839305500C0545EFD05FB51305200CA2
:10372000EFF00F82A9450545EFD05FB4814505450F
:10373000EFD0DFB31305300CEFF08F809305A008B6
:103740000545EFD0BFB29305A0020545EFD01FB2EB
:103750001305400CEFE0DFFE9305A0080545EFD010
:10376000FFB09305E00E0545EFD05FB01305500C98
:10377000EFE01FFDB9450545EFD05FAF13056003CE
:10378000EFE01FFC83A7C18805476380E70281CB78
:1037900009476381E7020D476384E70205A89305A3
:1037A000000C0545EFD09FAC15A081450545EFD035
:1037B000FFAB29A89305000A0545EFD03FAB39A020
:1037C000930500060545EFD07FAA01001305000E02
:1037D000EFE01FF7BD450545EFD05FA9E945054579
:1037E000EFD0DFA8BD450545EFD05FA8E145054511
:1037F000EFD0DFA79305F0020545EFD03FA7930573
:1038000080020545EFD09FA6930500020545EFD045
:10381000FFA5930520020545EFD05FA5FD450545B1
:10382000EFD0DFA4ED450545EFD05FA4930530024E
:103830000545EFD0BFA3930570030545EFD01FA347
:1038400081450545EFD09FA29D450545EFD01FA2BC
:1038500089450545EFD09FA1C1450545EFD01FA182
:103860001305100EEFE0DFEDBD450545EFD01FA0BD
:10387000ED450545EFD09F9FBD450545EFD01F9F06
:10388000DD450545EFD09F9E930530030545EFD0FC
:10389000FF9D9305C0020545EFD05F9D9305900203
:1038A0000545EFD0BF9C9305E0020545EFD01F9C76
:1038B000930500030545EFD07F9B93050003054565
:1038C000EFD0DF9A930590030545EFD03F9A93051B
:1038D000F0030545EFD09F9981450545EFD01F992D
:1038E0009D450545EFD09F988D450545EFD01F9824
:1038F000C1450545EFD09F971305A002EFE05FE4B7
:1039000081450545EFD09F9689450545EFD01F9627
:1039100081450545EFD09F95930520080545EFD0DB
:10392000FF941305B002EFE0BFE181450545EFD0FC
:10393000FF938D450545EFD07F9381450545EFD039
:10394000FF92930530080545EFD05F921305000FF5
:10395000EFE01FDF85450545EFD05F911305600F50
:10396000EFE01FDE81450545EFD05F901305A00312
:10397000EFE01FDD95450545EFD05F8F1305900201
:10398000EFE01FDCB707002093870704DC474147BF
:1039900098CBEFF00F86EFE07FFD0100B2402244AC
:1039A00041018280411122C60008010032444101D8
:1039B0008280011122CE00102326A4FE2324B4FE0F
:1039C0002322C4FE0327C4FE23A8E188832744FEE4
:1039D00081C7832744FE29A0B74700009387479AF1
:1039E00023AAF180832784FE81C7832784FE29A030
:1039F000B74700009387479A23A8F18001007244DB
:103A000005618280411122C60008B7170240984321
:103A1000B71702401367170098C3B7170240D44383
:103A2000B71702403707FFF8758FD8C3B7170240A2
:103A30009443B71702403707F7FE7D17758F98C379
:103A4000B71702409443B71702403707FCFF7D17B2
:103A5000758F98C3B7170240D443B7170240370792
:103A600081FF7D17758FD8C3B717024037079F00B6
:103A700098C70100324441018280797106D622D470
:103A80000018232EA4FCBD3F232604FE232404FE9D
:103A9000B71702409443B71702404167558F98C348
:103AA000B71702409843B7070200F98F2324F4FEAA
:103AB0008327C4FE85072326F4FE832784FE91E72F
:103AC0000327C4FE8567E31DF7FCB7170240984340
:103AD000B7070200F98F89C785472324F4FE19A090
:103AE000232404FE032784FE85476312F716371745
:103AF0000240B71702405843D8C337170240B717E0
:103B000002405843D8C337170240B7170240584302
:103B1000D8C3B7170240D443B71702403707C1FFD5
:103B20007D17758FD8C30327C4FDB74795089387C2
:103B30000740631BF700B7170240D443B717024092
:103B40004167558FD8C355A80327C4FDB71727076A
:103B5000938707E0631CF700B7170240D443B717F9
:103B6000024037073900558FD8C341A80327C4FD49
:103B7000B7E7B80593870780631CF700B7170240C3
:103B8000D443B717024037072900558FD8C3B5A0D3
:103B90000327C4FDB7A74A0493870720631CF700D7
:103BA000B7170240D443B717024037071D00558F9F
:103BB000D8C3A1A00327C4FDB777DC02938707C051
:103BC000631CF700B7170240D443B717024037070A
:103BD0001100558FD8C315A00327C4FDB7376E0158
:103BE00093870760631BF700B7170240D443B717EA
:103BF000024037070500558FD8C3B71702409443DA
:103C0000B717024037070001558F98C30100B71757
:103C100002409843B7070002F98FF5DBB71702405F
:103C2000D843B7170240719BD8C3B7170240D84397
:103C3000B717024013672700D8C30100B717024027
:103C4000DC4313F7C700A147E31AF7FE11A001A058
:103C5000B250225445618280011106CE22CC001060
:103C60002326A4FE0327C4FE23A0E182EFF09FD900
:103C70000325C4FEEFF07FE0EF10A0660100F240E4
:103C8000624405618280411122C6000801000100E2
:103C9000324441018280011106CE22CC001023263D
:103CA00004FE232404FE232604FE25A0232404FE70
:103CB00039A0D13F832784FE85072324F4FE032700
:103CC00084FEC167E367F7FE8327C4FE85072326CA
:103CD000F4FE0327C4FE9307F00FE3F9E7FC0100AD
:103CE000F240624405618280411122C60008010051
:103CF000324441018280011106CE22CC00102326DD
:103D0000A4FE8325C4FE0945EFD07FBC0100F2402C
:103D1000624405618280130101D9232611262324E0
:103D2000812623229126801C232EA4D8232CB4D8AC
:103D3000232AC4D82328D4D8231504FE231404FE30
:103D4000231304FE231204FE231104FE032584D949
:103D5000EFB0001CAA87C207C1872313F4FEB76720
:103D6000002083D747E599C7B7670020938747E5C9
:103D70009C4B829783C7518993F7F70F6385074E52
:103D8000B767002083D747E563890746B7670020F8
:103D9000938747E5D447835724FE1397070141874C
:103DA00093170701C1838507C207C183C207C18773
:103DB0002311F4FE93170701C1830326C4D9BE85DE
:103DC00001458296832784D92326F4FE032584D9CE
:103DD000EFB00014AA87C207C1872313F4FEB767A8
:103DE0000020938747E583D727003E87B7670020E9
:103DF000938747E583C76700B347F702C207C187C8
:103E00002312F4FE01008327C4FE13871700232624
:103E1000E4FE83870700E5FB231404FEA1A88327A3
:103E2000C4FEFD172326F4FE8327C4FE0387070084
:103E30009307F002630AF7008327C4FE0387070095
:103E40009307C005631BF700835784FEC207C18335
:103E50008507C207C1832314F4FE835764FEC2079B
:103E6000C187C207C183FD17C207C183C207C187CB
:103E70002313F4FE835784FE13970701418385477C
:103E800063E8E700835764FEC207C187E3D907F8F8
:103E9000835764FEC207C18763C207028327C4FE3B
:103EA00085072326F4FE130704EE0326C4FEC96724
:103EB000938507DD3A85EFB040011DA8835784FE46
:103EC000C207C18381EF130704EE0326C4FEC9674E
:103ED0009385C7DD3A85EFA0507F19A8130704EE3C
:103EE0000326C4FEC967938507DD3A85EFA0F07D00
:103EF000231504FE05A2231404FE59A0930704EE23
:103F00003E85EFB0E0002A87835784FEC207C18355
:103F1000BE868357A4FEC207C1833E86835744FEF4
:103F2000C207C187B307F602B6976367F7068357E0
:103F300084FEC207C1833E878357A4FEC207C183A4
:103F4000BE86835744FEC207C187B387F602BA977D
:103F5000035784FE42074183BA86130704FFBA97CA
:103F6000038707EF930704FFB6972388E7EA835791
:103F700084FEC207C1838507C207C1832314F4FEF0
:103F8000835784FEC207C1833E87835744FEC2071E
:103F9000C187E345F7F611A00100835784FEC207ED
:103FA000C183130704FFBA97238807EAB767002085
:103FB000938747E503A8C700B7670020938747E5C5
:103FC00083C77700139707014183835724FE939695
:103FD0000701C18693970601C1838507C207C18384
:103FE000C207C1872311F4FE93970601C183B3076B
:103FF000F702C207C183130704EA3A86BE8501456A
:1040000002988357A4FEC207C1838507C207C183F4
:104010002315F4FE8357A4FEC207C183BE84930711
:1040200004EE3E85EFA0D06E2A87835744FEC20778
:10403000C187B357F7028507E3EFF4EA130704EEED
:10404000032644D9C9679385C7DE3A85EFA0F06798
:10405000B7670020938747E503A8C700B76700202C
:10406000938747E583C777001397070141838357F9
:1040700024FE93960701C18693970601C1838507A5
:10408000C207C183C207C1872311F4FE93970601BB
:10409000C183B307F702C207C183130704EE3A8650
:1040A000BE8501450298832704D9638E071A23151C
:1040B00004FE05A2231404FE59A0032504D9EFA091
:1040C00030652A87835784FEC207C183BE86835723
:1040D000A4FEC207C1833E86835744FEC207C18740
:1040E000B307F602B6976368F706835784FEC207E4
:1040F000C1833E878357A4FEC207C183BE86835710
:1041000044FEC207C187B387F602BA973E8783276A
:1041100004D9BA97035784FE42074183BA860387BE
:104120000700930704FFB6972388E7EA835784FEC6
:10413000C207C1838507C207C1832314F4FE8357D6
:1041400084FEC207C1833E87835744FEC207C187EE
:10415000E345F7F611A00100835784FEC207C1832F
:10416000130704FFBA97238807EAB76700209387ED
:1041700047E503A8C700B7670020938747E583C7D3
:104180007700139707014183835724FE9396070115
:10419000C18693970601C1838507C207C183C20701
:1041A000C1872311F4FE93970601C183B307F70279
:1041B000C207C183130704EA3A86BE850145029807
:1041C0008357A4FEC207C1838507C207C183231595
:1041D000F4FE8357A4FEC207C183BE84032504D91D
:1041E000EFA010532A87835744FEC207C187B357F5
:1041F000F7028507E3E0F4ECBDA0930704DA1306A9
:10420000001081453E85EFB0BFFFB7670020938760
:1042100047E59C470325C4D98297832704D999CFC2
:10422000130504DA032704D9832644D9032684D945
:10423000C967938587DFEFA0504929A8130704DADF
:10424000832644D9032684D9C967938547E13A85F3
:10425000EFA0B047B7670020938747E598479307DB
:1042600004DA3E85029701008320C12603248126BB
:1042700083244126130101278280411106C622C4EE
:10428000000883C7518993F7F70F91CF9385418930
:104290000945EFD00FF2054693854189B7670020A5
:1042A000138587E355230100B240224441018280F7
:1042B000797106D622D40018232EA4FC232CB4FC3A
:1042C000232AC4FC232604FEA9A00100C967938702
:1042D00087099C47930500043E85EF30204CAA8750
:1042E000F5D7C967938787099C47BE86832784FDD6
:1042F00013871700232CE4FC83870700C207C183C0
:10430000BE853685EF30A0468327C4FE8507232669
:10431000F4FE0327C4FE832744FDE348F7FA83270E
:1043200044FD3E85B250225445618280011106CE83
:1043300022CC0010AA872324B4FE2322C4FEA307A4
:10434000F4FE8347F4FEB1E383C7418293F7F70F8E
:104350008DCF83C7618991C301A083C76189850718
:1043600013F7F70F238BE188EF00F074EFF0DF977E
:104370008146032644FE832584FEC9671385C7E270
:10438000EFF07F99EFF03F91E5B70100F240624412
:1043900005618280011106CE22CC0010AA87232459
:1043A000B4FE2322C4FE2320D4FEA307F4FE8347D9
:1043B000F4FE95E383C7518993F7F70F91CF8326D6
:1043C00084FE032604FE832544FEC9671385C7E3E4
:1043D000EFF07F9411A001000100F24062440561FA
:1043E0008280011122CE00102326A4FE8327C4FE62
:1043F000239007008327C4FE7D572391E70083277E
:10440000C4FE7D572392E7008327C4FE7D57238394
:10441000E7008327C4FE7D57A383E7008327C4FEFC
:1044200023A407008327C4FE23A607008327C4FE16
:1044300023A807000100724405618280011122CE89
:1044400000102326A4FE8327C4FE03D70700B76706
:104450000020239AE7E48327C4FE03D72700B76729
:104460000020938747E52391E7008327C4FE03D705
:104470004700B7670020938747E52392E70083272B
:10448000C4FE03C76700B7670020938747E523830F
:10449000E7008327C4FE03C77700B7670020938730
:1044A00047E5A383E7008327C4FE9847B76700204A
:1044B000938747E598C78327C4FED847B76700208E
:1044C000938747E5D8C78327C4FE984BB76700207A
:1044D000938747E598CB0547A38AE188010072449A
:1044E00005618280797106D622D400189307C4FD35
:1044F0003E85EFF01FEFB7470000938767CF232279
:10450000F4FE9307C4FD3E85EFF05FF38967938661
:10451000B70289671386A702F167938507200945CB
:10452000EFD00FCF93060004B7670020138687DF14
:104530008145B7670020138587E3EF00300F85457D
:104540000945EFD0CFBE0100B250225445618280B0
:10455000011122CE00102326A4FE2324B4FE8327BB
:10456000C4FED847832784FE3E978327C4FED8C75E
:1045700019A88327C4FED8478327C4FE9C4F1D8FEC
:104580008327C4FED8C78327C4FE984F8327C4FE61
:10459000DC47E3F0E7FE010072440561828001110F
:1045A00022CE00102326A4FE2324B4FE8327C4FEBB
:1045B000984B832784FE3E978327C4FE98CB19A887
:1045C0008327C4FE984B8327C4FE9C4F1D8F8327EF
:1045D000C4FE98CB8327C4FE984F8327C4FE9C4B10
:1045E000E3F0E7FE0100724405618280797106D62E
:1045F00022D40018232EA4FC8327C4FDB337F00077
:1046000093F7F70F3E8713064005C967938587E444
:104610003A85EFF0BFD1232604FE8327C4FD83C76C
:104620000700858B93F7F70F89C789472326F4FE88
:104630007DA08327C4FD83C7070093E7170013F706
:10464000F70F8327C4FD2380E7008327C4FD23A63B
:1046500007008327C4FD23A807008327C4FD984FC4
:104660008327C4FDD8CB8327C4FDDC430547638380
:10467000E70289C70947638CE702B9A08327C4FD15
:1046800098478327C4FD9C4F3E8681453A85EFB00D
:104690003FB71DA88327C4FD98478327C4FD9C4FBF
:1046A00086073E8681453A85EFB09FB531A88327BE
:1046B000C4FD98478327C4FD9C4F8A073E868145E9
:1046C0003A85EFB0FFB301008327C4FD83C707001D
:1046D000F99B13F7F70F8327C4FD2380E700832797
:1046E000C4FE3E85B250225445618280011106CE3F
:1046F00022CC00102326A4FE8327C4FEB337F0008B
:1047000093F7F70F3E871306C007C967938587E4C1
:104710003A85EFF0BFC18327C4FE984F8327C4FEBC
:10472000DC4BB307F7403E85F2406244056182806E
:10473000797106D622D40018232EA4FC232CB4FCB5
:104740008327C4FDB337F00093F7F70F3E871306B6
:10475000A008C967938587E43A85EFF03FBD23261B
:1047600004FE8327C4FD83C70700898B93F7F70FE7
:1047700089C785472326F4FEC9A08327C4FD83C7C4
:10478000070093E7270013F7F70F8327C4FD238063
:10479000E7008327C4FDDC4BD9C38327C4FDDC437A
:1047A00005476385E70289C709476380E70491A845
:1047B0008327C4FD98478327C4FDDC47BA970327A6
:1047C00084FD1377F70F2380E70025A88327C4FD16
:1047D00098478327C4FDDC478607BA97032784FDE3
:1047E000420741832390E70029A88327C4FD984707
:1047F0008327C4FDDC478A07BA97032784FD98C343
:10480000010085450325C4FDEFF09FD48327C4FD37
:10481000DC4B1387F7FF8327C4FDD8CB21A091473A
:104820002326F4FE8327C4FD83C70700F59B13F7F7
:10483000F70F8327C4FD2380E7008327C4FE3E854E
:10484000B250225445618280797106D622D4001874
:10485000232EA4FC232CB4FC232AC4FC8327C4FDF0
:10486000B337F00093F7F70F3E871306C00BC96705
:10487000938587E43A85EFF07FAB232604FE23245B
:1048800004FE832784FD89E78D472326F4FE45AC8B
:104890008327C4FD83C70700898B93F7F70F89C768
:1048A00085472326F4FE61AC8327C4FD83C7070038
:1048B00093E7270013F7F70F8327C4FD2380E70052
:1048C0008327C4FDDC4B032744FD63ECE7248327E7
:1048D000C4FD984F8327C4FDDC47B307F74023246A
:1048E000F4FE032744FD832784FE63F2E718832741
:1048F000C4FDDC430547638FE70689C70947638921
:10490000E70E31A48327C4FD98478327C4FDDC4705
:10491000BA97032684FE832584FD3E85EF90102CF4
:10492000832584FE0325C4FDEFF09FC28327C4FDC9
:1049300098478327C4FDDC47B306F700032784FDAF
:10494000832784FEB305F700032744FD832784FEF5
:10495000B307F7403E863685EF905028032744FD85
:10496000832784FEB307F740BE850325C4FDEFF01F
:104970003FBE71AA8327C4FD98478327C4FDDC4747
:1049800086073E97832784FE86073E86832584FD1F
:104990003A85EF90B024832584FE0325C4FDEFF013
:1049A0003FBB8327C4FD98478327C4FDDC478607A8
:1049B000B306F700832784FE8607032784FDB3052B
:1049C000F700032744FD832784FEB307F7408607DB
:1049D0003E863685EF909020032744FD832784FE92
:1049E000B307F740BE850325C4FDEFF07FB605A2EF
:1049F0008327C4FD98478327C4FDDC478A073E9779
:104A0000832784FE8A073E86832584FD3A85EF90BE
:104A1000F01C832584FE0325C4FDEFF07FB38327BC
:104A2000C4FD98478327C4FDDC478A07B306F70017
:104A3000832784FE8A07032784FDB305F700032735
:104A400044FD832784FEB307F7408A073E863685F8
:104A5000EF90D018032744FD832784FEB307F74067
:104A6000BE850325C4FDEFF0BFAE01004DA0832736
:104A7000C4FDDC430547638CE70289C709476380AF
:104A8000E70671A08327C4FD98478327C4FDDC4750
:104A9000BA97032644FD832584FD3E85EF901014CC
:104AA000832544FD0325C4FDEFF09FAA8DA0832735
:104AB000C4FD98478327C4FDDC4786073E978327BC
:104AC00044FD86073E86832584FD3A85EF901011CC
:104AD000832544FD0325C4FDEFF09FA70DA8832780
:104AE000C4FD98478327C4FDDC478A073E97832788
:104AF00044FD8A073E86832584FD3A85EF90100E9B
:104B0000832544FD0325C4FDEFF09FA40100832706
:104B1000C4FDD84B832744FD1D8F8327C4FDD8CB0C
:104B200021A091472326F4FE8327C4FD83C70700F5
:104B3000F59B13F7F70F8327C4FD2380E700832736
:104B4000C4FE3E85B250225445618280797106D6FA
:104B500022D40018232EA4FC232CB4FC232AC4FC4A
:104B60002328D4FC8327C4FDB337F00093F7F70F55
:104B70003E8713067016C967938587E43A85EFF080
:104B8000EFFA832744FDB337F00093F7F70F3E8722
:104B900013068016C967938587E43A85EFF00FF90D
:104BA000232604FE832784FD89E78D472326F4FE10
:104BB000A1AC8327C4FD83C7070093E7470013F721
:104BC000F70F8327C4FD2380E7000325C4FDEFF022
:104BD000FFB12324A4FE832744FD9C43032784FEC6
:104BE000637AF700832744FD032784FE98C3954723
:104BF0002326F4FE8327C4FD984F8327C4FD9C4BD6
:104C0000B307F7402322F4FE832744FD9C43032788
:104C100044FE6365F7088327C4FDDC4305476388CA
:104C2000E70289C709476387E704BDA28327C4FD5C
:104C300098478327C4FD9C4B3E97832744FD9C43A4
:104C40003E86BA85032584FDEF904079B1A2832783
:104C5000C4FD98478327C4FD9C4B86073E97832756
:104C600044FD9C4386073E86BA85032584FDEF906C
:104C7000E0761DA28327C4FD98478327C4FD9C4B83
:104C80008A073E97832744FD9C438A073E86BA8560
:104C9000032584FDEF9080740100FDA88327C4FDE7
:104CA000DC430547638AE70489C70947638EE70841
:104CB000E5A08327C4FD98478327C4FD9C4BBA9782
:104CC000032644FEBE85032584FDEF902071032753
:104CD00084FD832744FEB306F7008327C4FD8C4779
:104CE000832744FD9843832744FEB307F7403E865D
:104CF0003685EF90A06E4DA08327C4FD984783278B
:104D0000C4FD9C4B86073E97832744FE86073E865C
:104D1000BA85032584FDEF90606C832744FE8607E7
:104D2000032784FDB306F7008327C4FD8C47832740
:104D300044FD9843832744FEB307F74086073E8629
:104D40003685EF90A06989A88327C4FD98478327FB
:104D5000C4FD9C4B8A073E97832744FE8A073E8604
:104D6000BA85032584FDEF906067832744FE8A0798
:104D7000032784FDB306F7008327C4FD8C478327F0
:104D800044FD9843832744FEB307F7408A073E86D5
:104D90003685EF90A0640100832704FDB5E78327E3
:104DA000C4FD83C70700858B93F7F70F89C7894731
:104DB0002326F4FE91A88327C4FD83C7070093E749
:104DC000170013F7F70F8327C4FD2380E70083271D
:104DD00044FD9C43BE850325C4FDEFF04FFC8327B3
:104DE000C4FDD84B832744FD9C433E978327C4FDD5
:104DF000D8CB8327C4FD83C70700F99B13F7F70FB0
:104E00008327C4FD2380E7008327C4FD83C70700F1
:104E1000918B13F7F70F8327C4FD2380E7008327C7
:104E2000C4FE3E85B250225445618280797106D617
:104E300022D40018232EA4FC232CB4FC232AC4FC67
:104E40002328D4FC8327C4FDB337F00093F7F70F72
:104E50003E8713068021C967938587E43A85EFF082
:104E6000EFCC232604FE832744FD89E78D472326C4
:104E7000F4FE89A08327C4FD032744FD98C7832738
:104E8000C4FD238007008327C4FD032784FDD8C306
:104E90008327C4FD23A607008327C4FD23A807009A
:104EA0008327C4FD032704FDD8CB8327C4FD032734
:104EB00004FD98CF8327C4FE3E85B250225445613D
:104EC0008280197186DEA2DC00012326A4F823204B
:104ED000B4F82322C4F8B687A305F4F88327C4F8EE
:104EE000B337F00093F7F70F3E871306301CC967FE
:104EF000938507ED3A85EFF06FC3232604FE232444
:104F000004FE8347B4F8A303F4FE8327C4F8638543
:104F10000724032504F8832544F8EF908011AA871D
:104F20002326F4FE01468146032504F8832544F830
:104F3000EF70F06EAA8763DD07008327C4F813873C
:104F400017002326E4F81307D0022380E700B1A05E
:104F500001468146032504F8832544F8EF70505735
:104F6000AA8785EF8327C4F8138717002326E4F860
:104F7000130700032380E7008327C4F81387170073
:104F80002326E4F81307E0022380E7008327C4F810
:104F9000130700032380E700C9A20325C4FEEF9096
:104FA000A020AA872E883E86C286032504F8832582
:104FB00044F8EF808057AA872E882320F4F8232214
:104FC00004F915A0C96703A607F883A647F80325C7
:104FD00004F8832544F8EF70F06FAA872E88232009
:104FE000F4F8232204F9834774FE1387F7FFA30321
:104FF000E4FEE9FB032504F8832544F8EF90600301
:10500000AA872324F4FEA30304FE834774FE1387B8
:105010001700A303E4FEBE860327C4FEA947336737
:10502000F70293972600930604FFB69723A2E7FCA6
:105030000327C4FEA947B347F7022326F4FE8327BC
:10504000C4FEE1F7A1A0834774FEFD178A0713078A
:1050500004FFBA9783A747FC13D7F741B98F998FFD
:1050600093F7F70F9387070393F6F70F8327C4F897
:10507000138717002326E4F813978601618723809E
:10508000E700834774FEFD17A303F4FE834774FE15
:10509000DDFB8347B4F8F1C3A30304FE8327C4F800
:1050A000138717002326E4F81307E0022380E700A4
:1050B000832784FEB9E78327C4F8130700032380FE
:1050C000E70061A8834774FE13871700A303E4FE7B
:1050D000BE86032784FEA9473367F702939726000D
:1050E000930604FFB69723A0E7FA032784FEA94797
:1050F000B347F7022324F4FE8347B4F8FD17A30552
:10510000F4F88347B4F8DDFFA1A0834774FEFD17D0
:105110008A07130704FFBA9783A707FA13D7F74143
:10512000B98F998F93F7F70F9387070393F6F70FCC
:105130008327C4F8138717002326E4F81397860102
:1051400061872380E700834774FEFD17A303F4FE05
:10515000834774FEDDFB11A001000100F650665488
:1051600009618280411122C60008996793878708E8
:10517000739007800100324441018280411122C6B0
:1051800000089967739007800100324441018280D2
:10519000011122CE00102326A4FE8327C4FEFD8B1E
:1051A0000547B316F70037E700E08327C4FE958371
:1051B000938707048A07BA9794C301007244056174
:1051C0008280011122CE00102326A4FE8327C4FE74
:1051D000FD8B0547B316F70037E700E08327C4FED1
:1051E0009583938707068A07BA9794C30100724490
:1051F00005618280011122CE00102326A4FEAE8715
:10520000A305F4FE37E700E08327C4FEBA970347FF
:10521000B4FE2380E74001007244056182800111E1
:1052200006CE22CC00102326A4FE0325C4FEEFF0F8
:105230003FF60100F240624405618280011106CE12
:1052400022CC00102326A4FE0325C4FEEFF07FF736
:105250000100F240624405618280011106CE22CC39
:1052600000102326A4FEAE87A305F4FE8347B4FEF8
:10527000BE850325C4FEEFF0FFF70100F240624453
:1052800005618280011106CE22CC00102326A4FEE7
:105290008327C4FE99C783A781891387F7FF23ACAF
:1052A000E18883A7818999E3EFF0DFEB0100F24009
:1052B000624405618280411106C622C4000883A7AA
:1052C000818999E3EFF09FEB83A78189138717000A
:1052D00023ACE18883A781893E85B2402244410105
:1052E0008280411106C622C400080145EFF09FF9F3
:1052F0000100B240224441018280357106CF16CDB3
:105300001ACB1EC922C72AC52EC332C1B6DEBADCEB
:10531000BEDAC2D8C6D6F2D4F6D2FAD0FECE82E633
:1053200086E48AE28EE012FE16FC1AFA1EF82AF6CD
:105330002EF432F236F03AEE3EEC42EA46E872E6FD
:1053400076E47AE27EE0001193055052B7470140BF
:1053500013850780EF20E048AA8789CB9305505238
:10536000B747014013850780EF20C0570100FA407E
:10537000EA425A43CA433A442A459A450A46F656EF
:105380006657D6574658B658265E965E065FF64F65
:105390003660A660166186617272E2725273C273E1
:1053A0003275A275127682767267E2675268C268B9
:1053B000326EA26E126F826F0D61730020303571F4
:1053C00006CF16CD1ACB1EC922C72AC52EC332C19D
:1053D000B6DEBADCBEDAC2D8C6D6F2D4F6D2FAD07D
:1053E000FECE82E686E48AE28EE012FE16FC1AFA0F
:1053F0001EF82AF62EF432F236F03AEE3EEC42EA8D
:1054000046E872E676E47AE27EE0001193055052B7
:10541000B747004013850740EF20A03CAA8789CBFF
:1054200093055052B747004013850740EF20804B4B
:105430000100FA40EA425A43CA433A442A459A458F
:105440000A46F6566657D6574658B658265E965EB2
:10545000065FF64F3660A660166186617272E27270
:105460005273C2733275A275127682767267E267E2
:105470005268C268326EA26E126F826F0D61730045
:105480002030357106CF16CD1ACB1EC922C72AC5CA
:105490002EC332C1B6DEBADCBEDAC2D8C6D6F2D46A
:1054A000F6D2FAD0FECE82E686E48AE28EE012FEE2
:1054B00016FC1AFA1EF82AF62EF432F236F03AEEFC
:1054C0003EEC42EA46E872E676E47AE27EE00011DB
:1054D00093055052B757004013850780EF20603086
:1054E000AA8799CBEFE07FD993055052B757004078
:1054F00013850780EF20003F0100FA40EA425A433B
:10550000CA433A442A459A450A46F6566657D6573C
:105510004658B658265E965E065FF64F3660A66021
:10552000166186617272E2725273C2733275A2752D
:10553000127682767267E2675268C268326EA26E35
:10554000126F826F0D6173002030357106CF16CD5A
:105550001ACB1EC922C72AC52EC332C1B6DEBADC99
:10556000BEDAC2D8C6D6F2D4F6D2FAD0FECE82E6E1
:1055700086E48AE28EE012FE16FC1AFA1EF82AF67B
:105580002EF432F236F03AEE3EEC42EA46E872E6AB
:1055900076E47AE27EE0001193055052B75700405E
:1055A000138507C0EF20E023AA8789CB93055052CB
:1055B000B7570040138507C0EF20C0320100FA4002
:1055C000EA425A43CA433A442A459A450A46F6569D
:1055D0006657D6574658B658265E965E065FF64F13
:1055E0003660A660166186617272E2725273C2738F
:1055F0003275A275127682767267E2675268C26867
:10560000326EA26E126F826F0D61730020303571A1
:1056100006CF16CD1ACB1EC922C72AC52EC332C14A
:10562000B6DEBADCBEDAC2D8C6D6F2D4F6D2FAD02A
:10563000FECE82E686E48AE28EE012FE16FC1AFABC
:105640001EF82AF62EF432F236F03AEE3EEC42EA3A
:1056500046E872E676E47AE27EE000119305505265
:1056600037550040EF20E017AA8791CB83A701812F
:1056700082979305505237550040EF20A026010035
:10568000FA40EA425A43CA433A442A459A450A46EE
:10569000F6566657D6574658B658265E965E065F4B
:1056A000F64F3660A660166186617272E2725273BE
:1056B000C2733275A275127682767267E26752689B
:1056C000C268326EA26E126F826F0D61730020305D
:1056D000357106CF16CD1ACB1EC922C72AC52EC3D7
:1056E00032C1B6DEBADCBEDAC2D8C6D6F2D4F6D241
:1056F000FAD0FECE82E686E48AE28EE012FE16FC46
:105700001AFA1EF82AF62EF432F236F03AEE3EEC91
:1057100042EA46E872E676E47AE27EE0001193051A
:105720005052B727004013850780EF20800BAA87CF
:1057300089CB93055052B727004013850780EF208F
:10574000601A0100FA40EA425A43CA433A442A45E1
:105750009A450A46F6566657D6574658B658265EB4
:10576000965E065FF64F3660A660166186617272BD
:10577000E2725273C2733275A275127682767267C4
:10578000E2675268C268326EA26E126F826F0D615C
:1057900073002030357106CF16CD1ACB1EC922C733
:1057A0002AC52EC332C1B6DEBADCBEDAC2D8C6D62E
:1057B000F2D4F6D2FAD0FECE82E686E48AE28EE019
:1057C00012FE16FC1AFA1EF82AF62EF432F236F001
:1057D0003AEE3EEC42EA46E872E676E47AE27EE0B1
:1057E000001193055052B7270040138507C0EF10F2
:1057F000507FAA8781CF83A78181829793055052DA
:10580000B7270040138507C0EF20C00D0100FA4004
:10581000EA425A43CA433A442A459A450A46F6564A
:105820006657D6574658B658265E965E065FF64FC0
:105830003660A660166186617272E2725273C2733C
:105840003275A275127682767267E2675268C26814
:10585000326EA26E126F826F0D617300203035714F
:1058600006CF16CD1ACB1EC922C72AC52EC332C1F8
:10587000B6DEBADCBEDAC2D8C6D6F2D4F6D2FAD0D8
:10588000FECE82E686E48AE28EE012FE16FC1AFA6A
:105890001EF82AF62EF432F236F03AEE3EEC42EAE8
:1058A00046E872E676E47AE27EE000119305505213
:1058B00037250040EF10F072AA8789CBEFC09F8494
:1058C0009305505237250040EF20C0010100FA40F7
:1058D000EA425A43CA433A442A459A450A46F6568A
:1058E0006657D6574658B658265E965E065FF64F00
:1058F0003660A660166186617272E2725273C2737C
:105900003275A275127682767267E2675268C26853
:10591000326EA26E126F826F0D617300203035718E
:1059200006CF16CD1ACB1EC922C72AC52EC332C137
:10593000B6DEBADCBEDAC2D8C6D6F2D4F6D2FAD017
:10594000FECE82E686E48AE28EE012FE16FC1AFAA9
:105950001EF82AF62EF432F236F03AEE3EEC42EA27
:1059600046E872E676E47AE27EE00011B707055079
:1059700083C7070193F7F70F918B8DC383A74181ED
:105980008297B707055083C7070113F7F70FB707CB
:1059900005506D9B1377F70F2388E7000100FA404D
:1059A000EA425A43CA433A442A459A450A46F656B9
:1059B0006657D6574658B658265E965E065FF64F2F
:1059C0003660A660166186617272E2725273C273AB
:1059D0003275A275127682767267E2675268C26883
:1059E000326EA26E126F826F0D61730020303571BE
:1059F00006CF16CD1ACB1EC922C72AC52EC332C167
:105A0000B6DEBADCBEDAC2D8C6D6F2D4F6D2FAD046
:105A1000FECE82E686E48AE28EE012FE16FC1AFAD8
:105A20001EF82AF62EF432F236F03AEE3EEC42EA56
:105A300046E872E676E47AE27EE000110545EF0082
:105A4000F06A2A8785476315F7000545EF00706FF8
:105A50000100FA40EA425A43CA433A442A459A4569
:105A60000A46F6566657D6574658B658265E965E8C
:105A7000065FF64F3660A660166186617272E2724A
:105A80005273C2733275A275127682767267E267BC
:105A90005268C268326EA26E126F826F0D6173001F
:105AA0002030357106CF16CD1ACB1EC922C72AC5A4
:105AB0002EC332C1B6DEBADCBEDAC2D8C6D6F2D444
:105AC000F6D2FAD0FECE82E686E48AE28EE012FEBC
:105AD00016FC1AFA1EF82AF62EF432F236F03AEED6
